{
  "contractName": "UserContract1",
  "abi": [
    {
      "anonymous": false,
      "inputs": [
        {
          "indexed": true,
          "internalType": "string",
          "name": "userId",
          "type": "string"
        },
        {
          "components": [
            {
              "internalType": "string",
              "name": "name",
              "type": "string"
            },
            {
              "internalType": "string",
              "name": "typeOfAsset",
              "type": "string"
            },
            {
              "internalType": "string",
              "name": "description",
              "type": "string"
            },
            {
              "internalType": "string",
              "name": "location",
              "type": "string"
            },
            {
              "internalType": "uint256",
              "name": "purchaseDate",
              "type": "uint256"
            },
            {
              "internalType": "uint256",
              "name": "purchasePrice",
              "type": "uint256"
            },
            {
              "internalType": "string",
              "name": "previousOwner",
              "type": "string"
            }
          ],
          "indexed": false,
          "internalType": "struct UserContract1.AssetInfo[]",
          "name": "assetInfos",
          "type": "tuple[]"
        },
        {
          "indexed": false,
          "internalType": "string",
          "name": "ipfsHash",
          "type": "string"
        }
      ],
      "name": "UserAssetUpdated",
      "type": "event"
    },
    {
      "anonymous": false,
      "inputs": [
        {
          "indexed": true,
          "internalType": "string",
          "name": "userId",
          "type": "string"
        },
        {
          "components": [
            {
              "internalType": "string",
              "name": "name",
              "type": "string"
            },
            {
              "internalType": "uint256",
              "name": "dateOfBirth",
              "type": "uint256"
            },
            {
              "internalType": "string",
              "name": "stateOfMilitary",
              "type": "string"
            },
            {
              "internalType": "uint256",
              "name": "postponementDate",
              "type": "uint256"
            },
            {
              "internalType": "uint256",
              "name": "dateOfConstruction",
              "type": "uint256"
            }
          ],
          "indexed": false,
          "internalType": "struct UserContract1.MilitaryInfo[]",
          "name": "militrayInfos",
          "type": "tuple[]"
        },
        {
          "indexed": false,
          "internalType": "string",
          "name": "ipfsHash",
          "type": "string"
        }
      ],
      "name": "UserMilitaryUpdated",
      "type": "event"
    },
    {
      "anonymous": false,
      "inputs": [
        {
          "indexed": true,
          "internalType": "string",
          "name": "userId",
          "type": "string"
        },
        {
          "indexed": false,
          "internalType": "string",
          "name": "email",
          "type": "string"
        },
        {
          "indexed": false,
          "internalType": "string",
          "name": "name",
          "type": "string"
        },
        {
          "indexed": false,
          "internalType": "uint256",
          "name": "age",
          "type": "uint256"
        }
      ],
      "name": "UserUpdated",
      "type": "event"
    },
    {
      "inputs": [
        {
          "internalType": "string",
          "name": "userId",
          "type": "string"
        },
        {
          "components": [
            {
              "internalType": "string",
              "name": "email",
              "type": "string"
            },
            {
              "internalType": "string",
              "name": "name",
              "type": "string"
            },
            {
              "internalType": "uint256",
              "name": "age",
              "type": "uint256"
            }
          ],
          "internalType": "struct UserContract1.UserData",
          "name": "userData",
          "type": "tuple"
        }
      ],
      "name": "setUserData",
      "outputs": [],
      "stateMutability": "nonpayable",
      "type": "function"
    },
    {
      "inputs": [
        {
          "internalType": "string",
          "name": "userId",
          "type": "string"
        }
      ],
      "name": "getUserData",
      "outputs": [
        {
          "internalType": "string",
          "name": "email",
          "type": "string"
        },
        {
          "internalType": "string",
          "name": "name",
          "type": "string"
        },
        {
          "internalType": "uint256",
          "name": "age",
          "type": "uint256"
        }
      ],
      "stateMutability": "view",
      "type": "function"
    },
    {
      "inputs": [
        {
          "internalType": "string",
          "name": "userId",
          "type": "string"
        },
        {
          "internalType": "string[]",
          "name": "names",
          "type": "string[]"
        },
        {
          "internalType": "string[]",
          "name": "typeOfAssets",
          "type": "string[]"
        },
        {
          "internalType": "string[]",
          "name": "descriptions",
          "type": "string[]"
        },
        {
          "internalType": "string[]",
          "name": "locations",
          "type": "string[]"
        },
        {
          "internalType": "uint256[]",
          "name": "purchaseDates",
          "type": "uint256[]"
        },
        {
          "internalType": "uint256[]",
          "name": "purchasePrices",
          "type": "uint256[]"
        },
        {
          "internalType": "string[]",
          "name": "previousOwners",
          "type": "string[]"
        },
        {
          "internalType": "string",
          "name": "ipfsHash",
          "type": "string"
        }
      ],
      "name": "setAssetRecord",
      "outputs": [],
      "stateMutability": "nonpayable",
      "type": "function"
    },
    {
      "inputs": [
        {
          "internalType": "string",
          "name": "userId",
          "type": "string"
        }
      ],
      "name": "getAssetRecords",
      "outputs": [
        {
          "components": [
            {
              "internalType": "string",
              "name": "name",
              "type": "string"
            },
            {
              "internalType": "string",
              "name": "typeOfAsset",
              "type": "string"
            },
            {
              "internalType": "string",
              "name": "description",
              "type": "string"
            },
            {
              "internalType": "string",
              "name": "location",
              "type": "string"
            },
            {
              "internalType": "uint256",
              "name": "purchaseDate",
              "type": "uint256"
            },
            {
              "internalType": "uint256",
              "name": "purchasePrice",
              "type": "uint256"
            },
            {
              "internalType": "string",
              "name": "previousOwner",
              "type": "string"
            }
          ],
          "internalType": "struct UserContract1.AssetInfo[]",
          "name": "",
          "type": "tuple[]"
        }
      ],
      "stateMutability": "view",
      "type": "function"
    },
    {
      "inputs": [
        {
          "internalType": "string",
          "name": "userId",
          "type": "string"
        },
        {
          "internalType": "string",
          "name": "ipfsHash",
          "type": "string"
        }
      ],
      "name": "setAssetIPFSHash",
      "outputs": [],
      "stateMutability": "nonpayable",
      "type": "function"
    },
    {
      "inputs": [
        {
          "internalType": "string",
          "name": "userId",
          "type": "string"
        }
      ],
      "name": "getAssetIPFSHash",
      "outputs": [
        {
          "internalType": "string",
          "name": "",
          "type": "string"
        }
      ],
      "stateMutability": "view",
      "type": "function"
    },
    {
      "inputs": [
        {
          "internalType": "string",
          "name": "userId",
          "type": "string"
        },
        {
          "internalType": "string[]",
          "name": "names",
          "type": "string[]"
        },
        {
          "internalType": "uint256[]",
          "name": "dateOfBirths",
          "type": "uint256[]"
        },
        {
          "internalType": "string[]",
          "name": "stateOfMilitarys",
          "type": "string[]"
        },
        {
          "internalType": "uint256[]",
          "name": "postponementDates",
          "type": "uint256[]"
        },
        {
          "internalType": "uint256[]",
          "name": "dateOfConstructions",
          "type": "uint256[]"
        },
        {
          "internalType": "string",
          "name": "ipfsHash",
          "type": "string"
        }
      ],
      "name": "setMilitaryRecord",
      "outputs": [],
      "stateMutability": "nonpayable",
      "type": "function"
    },
    {
      "inputs": [
        {
          "internalType": "string",
          "name": "userId",
          "type": "string"
        }
      ],
      "name": "getMilitaryRecords",
      "outputs": [
        {
          "components": [
            {
              "internalType": "string",
              "name": "name",
              "type": "string"
            },
            {
              "internalType": "uint256",
              "name": "dateOfBirth",
              "type": "uint256"
            },
            {
              "internalType": "string",
              "name": "stateOfMilitary",
              "type": "string"
            },
            {
              "internalType": "uint256",
              "name": "postponementDate",
              "type": "uint256"
            },
            {
              "internalType": "uint256",
              "name": "dateOfConstruction",
              "type": "uint256"
            }
          ],
          "internalType": "struct UserContract1.MilitaryInfo[]",
          "name": "",
          "type": "tuple[]"
        }
      ],
      "stateMutability": "view",
      "type": "function"
    },
    {
      "inputs": [
        {
          "internalType": "string",
          "name": "userId",
          "type": "string"
        },
        {
          "internalType": "string",
          "name": "ipfsHash",
          "type": "string"
        }
      ],
      "name": "setMilitaryIPFSHash",
      "outputs": [],
      "stateMutability": "nonpayable",
      "type": "function"
    },
    {
      "inputs": [
        {
          "internalType": "string",
          "name": "userId",
          "type": "string"
        }
      ],
      "name": "getMilitaryIPFSHash",
      "outputs": [
        {
          "internalType": "string",
          "name": "",
          "type": "string"
        }
      ],
      "stateMutability": "view",
      "type": "function"
    }
  ],
  "bytecode": "0x608060405234801561001057600080fd5b506126b0806100206000396000f3fe608060405234801561001057600080fd5b506004361061009e5760003560e01c806379cd86b11161006657806379cd86b114610159578063a7fadecd14610189578063be36f174146101b9578063d9504313146101d5578063ed57160e146102055761009e565b806307b1ff76146100a3578063258780d0146100bf57806336be5d68146100db5780633de353b4146100f757806354ab240314610127575b600080fd5b6100bd60048036038101906100b891906114c5565b610221565b005b6100d960048036038101906100d4919061162b565b610498565b005b6100f560048036038101906100f0919061162b565b610523565b005b610111600480360381019061010c91906116a3565b6105ad565b60405161011e919061176b565b60405180910390f35b610141600480360381019061013c91906116a3565b610660565b6040516101509392919061179c565b60405180910390f35b610173600480360381019061016e91906116a3565b6107b9565b604051610180919061176b565b60405180910390f35b6101a3600480360381019061019e91906116a3565b61086c565b6040516101b09190611979565b60405180910390f35b6101d360048036038101906101ce9190611a41565b610a2e565b005b6101ef60048036038101906101ea91906116a3565b610b13565b6040516101fc9190611c33565b60405180910390f35b61021f600480360381019061021a9190611c55565b610e81565b005b84518651148015610233575083518551145b8015610240575082518451145b801561024d575081518351145b61028c576040517f08c379a000000000000000000000000000000000000000000000000000000000815260040161028390611e8d565b60405180910390fd5b60005b86518110156103f05760006040518060a001604052808984815181106102b8576102b7611ead565b5b602002602001015181526020018884815181106102d8576102d7611ead565b5b602002602001015181526020018784815181106102f8576102f7611ead565b5b6020026020010151815260200186848151811061031857610317611ead565b5b6020026020010151815260200185848151811061033857610337611ead565b5b602002602001015181525090506001896040516103559190611f18565b908152602001604051809103902060000181908060018154018082558091505060019003906000526020600020906005020160009091909190915060008201518160000190816103a5919061213b565b506020820151816001015560408201518160020190816103c5919061213b565b50606082015181600301556080820151816004015550505080806103e89061223c565b91505061028f565b50806001886040516104029190611f18565b9081526020016040518091039020600101908161041f919061213b565b508660405161042e9190611f18565b60405180910390207fe846e5c8527de6621c9ff6536ceef75e2bdaf39aa3d060c3ce5ec4caf88a69026001896040516104679190611f18565b90815260200160405180910390206000018360405161048792919061248c565b60405180910390a250505050505050565b60006001836040516104aa9190611f18565b90815260200160405180910390209050818160010190816104cb919061213b565b50826040516104da9190611f18565b60405180910390207fe846e5c8527de6621c9ff6536ceef75e2bdaf39aa3d060c3ce5ec4caf88a6902826000018460405161051692919061248c565b60405180910390a2505050565b600080836040516105349190611f18565b9081526020016040518091039020905081816001019081610555919061213b565b50826040516105649190611f18565b60405180910390207f0e75504658d8f7da833ca990d560e9f28e66c5605d2796eb99b9960f8386779582600001846040516105a0929190612643565b60405180910390a2505050565b60606000826040516105bf9190611f18565b908152602001604051809103902060010180546105db90611f5e565b80601f016020809104026020016040519081016040528092919081815260200182805461060790611f5e565b80156106545780601f1061062957610100808354040283529160200191610654565b820191906000526020600020905b81548152906001019060200180831161063757829003601f168201915b50505050509050919050565b6060806000806002856040516106769190611f18565b908152602001604051809103902090508060000181600101826002015482805461069f90611f5e565b80601f01602080910402602001604051908101604052809291908181526020018280546106cb90611f5e565b80156107185780601f106106ed57610100808354040283529160200191610718565b820191906000526020600020905b8154815290600101906020018083116106fb57829003601f168201915b5050505050925081805461072b90611f5e565b80601f016020809104026020016040519081016040528092919081815260200182805461075790611f5e565b80156107a45780601f10610779576101008083540402835291602001916107a4565b820191906000526020600020905b81548152906001019060200180831161078757829003601f168201915b50505050509150935093509350509193909250565b60606001826040516107cb9190611f18565b908152602001604051809103902060010180546107e790611f5e565b80601f016020809104026020016040519081016040528092919081815260200182805461081390611f5e565b80156108605780601f1061083557610100808354040283529160200191610860565b820191906000526020600020905b81548152906001019060200180831161084357829003601f168201915b50505050509050919050565b606060018260405161087e9190611f18565b9081526020016040518091039020600001805480602002602001604051908101604052809291908181526020016000905b82821015610a2357838290600052602060002090600502016040518060a00160405290816000820180546108e290611f5e565b80601f016020809104026020016040519081016040528092919081815260200182805461090e90611f5e565b801561095b5780601f106109305761010080835404028352916020019161095b565b820191906000526020600020905b81548152906001019060200180831161093e57829003601f168201915b505050505081526020016001820154815260200160028201805461097e90611f5e565b80601f01602080910402602001604051908101604052809291908181526020018280546109aa90611f5e565b80156109f75780601f106109cc576101008083540402835291602001916109f7565b820191906000526020600020905b8154815290600101906020018083116109da57829003601f168201915b5050505050815260200160038201548152602001600482015481525050815260200190600101906108af565b505050509050919050565b6000604051806060016040528083600001518152602001836020015181526020018360400151815250905080600284604051610a6a9190611f18565b90815260200160405180910390206000820151816000019081610a8d919061213b565b506020820151816001019081610aa3919061213b565b506040820151816002015590505082604051610abf9190611f18565b60405180910390207f4f24336055d992bf20f44d53f6f7e8909075915f2bc6830d7a7963652fcbf729836000015184602001518560400151604051610b069392919061179c565b60405180910390a2505050565b6060600082604051610b259190611f18565b9081526020016040518091039020600001805480602002602001604051908101604052809291908181526020016000905b82821015610e7657838290600052602060002090600702016040518060e0016040529081600082018054610b8990611f5e565b80601f0160208091040260200160405190810160405280929190818152602001828054610bb590611f5e565b8015610c025780601f10610bd757610100808354040283529160200191610c02565b820191906000526020600020905b815481529060010190602001808311610be557829003601f168201915b50505050508152602001600182018054610c1b90611f5e565b80601f0160208091040260200160405190810160405280929190818152602001828054610c4790611f5e565b8015610c945780601f10610c6957610100808354040283529160200191610c94565b820191906000526020600020905b815481529060010190602001808311610c7757829003601f168201915b50505050508152602001600282018054610cad90611f5e565b80601f0160208091040260200160405190810160405280929190818152602001828054610cd990611f5e565b8015610d265780601f10610cfb57610100808354040283529160200191610d26565b820191906000526020600020905b815481529060010190602001808311610d0957829003601f168201915b50505050508152602001600382018054610d3f90611f5e565b80601f0160208091040260200160405190810160405280929190818152602001828054610d6b90611f5e565b8015610db85780601f10610d8d57610100808354040283529160200191610db8565b820191906000526020600020905b815481529060010190602001808311610d9b57829003601f168201915b505050505081526020016004820154815260200160058201548152602001600682018054610de590611f5e565b80601f0160208091040260200160405190810160405280929190818152602001828054610e1190611f5e565b8015610e5e5780601f10610e3357610100808354040283529160200191610e5e565b820191906000526020600020905b815481529060010190602001808311610e4157829003601f168201915b50505050508152505081526020019060010190610b56565b505050509050919050565b86518851148015610e93575085518751145b8015610ea0575084518651145b8015610ead575083518551145b8015610eba575082518451145b8015610ec7575081518351145b610f06576040517f08c379a0000000000000000000000000000000000000000000000000000000008152600401610efd90611e8d565b60405180910390fd5b60005b88518110156110e25760006040518060e001604052808b8481518110610f3257610f31611ead565b5b602002602001015181526020018a8481518110610f5257610f51611ead565b5b60200260200101518152602001898481518110610f7257610f71611ead565b5b60200260200101518152602001888481518110610f9257610f91611ead565b5b60200260200101518152602001878481518110610fb257610fb1611ead565b5b60200260200101518152602001868481518110610fd257610fd1611ead565b5b60200260200101518152602001858481518110610ff257610ff1611ead565b5b6020026020010151815250905060008b60405161100f9190611f18565b9081526020016040518091039020600001819080600181540180825580915050600190039060005260206000209060070201600090919091909150600082015181600001908161105f919061213b565b506020820151816001019081611075919061213b565b50604082015181600201908161108b919061213b565b5060608201518160030190816110a1919061213b565b506080820151816004015560a0820151816005015560c08201518160060190816110cb919061213b565b5050505080806110da9061223c565b915050610f09565b508060008a6040516110f49190611f18565b90815260200160405180910390206001019081611111919061213b565b50886040516111209190611f18565b60405180910390207f0e75504658d8f7da833ca990d560e9f28e66c5605d2796eb99b9960f8386779560008b6040516111599190611f18565b908152602001604051809103902060000183604051611179929190612643565b60405180910390a2505050505050505050565b6000604051905090565b600080fd5b600080fd5b600080fd5b600080fd5b6000601f19601f8301169050919050565b7f4e487b7100000000000000000000000000000000000000000000000000000000600052604160045260246000fd5b6111f3826111aa565b810181811067ffffffffffffffff82111715611212576112116111bb565b5b80604052505050565b600061122561118c565b905061123182826111ea565b919050565b600067ffffffffffffffff821115611251576112506111bb565b5b61125a826111aa565b9050602081019050919050565b82818337600083830152505050565b600061128961128484611236565b61121b565b9050828152602081018484840111156112a5576112a46111a5565b5b6112b0848285611267565b509392505050565b600082601f8301126112cd576112cc6111a0565b5b81356112dd848260208601611276565b91505092915050565b600067ffffffffffffffff821115611301576113006111bb565b5b602082029050602081019050919050565b600080fd5b600061132a611325846112e6565b61121b565b9050808382526020820190506020840283018581111561134d5761134c611312565b5b835b8181101561139457803567ffffffffffffffff811115611372576113716111a0565b5b80860161137f89826112b8565b8552602085019450505060208101905061134f565b5050509392505050565b600082601f8301126113b3576113b26111a0565b5b81356113c3848260208601611317565b91505092915050565b600067ffffffffffffffff8211156113e7576113e66111bb565b5b602082029050602081019050919050565b6000819050919050565b61140b816113f8565b811461141657600080fd5b50565b60008135905061142881611402565b92915050565b600061144161143c846113cc565b61121b565b9050808382526020820190506020840283018581111561146457611463611312565b5b835b8181101561148d57806114798882611419565b845260208401935050602081019050611466565b5050509392505050565b600082601f8301126114ac576114ab6111a0565b5b81356114bc84826020860161142e565b91505092915050565b600080600080600080600060e0888a0312156114e4576114e3611196565b5b600088013567ffffffffffffffff8111156115025761150161119b565b5b61150e8a828b016112b8565b975050602088013567ffffffffffffffff81111561152f5761152e61119b565b5b61153b8a828b0161139e565b965050604088013567ffffffffffffffff81111561155c5761155b61119b565b5b6115688a828b01611497565b955050606088013567ffffffffffffffff8111156115895761158861119b565b5b6115958a828b0161139e565b945050608088013567ffffffffffffffff8111156115b6576115b561119b565b5b6115c28a828b01611497565b93505060a088013567ffffffffffffffff8111156115e3576115e261119b565b5b6115ef8a828b01611497565b92505060c088013567ffffffffffffffff8111156116105761160f61119b565b5b61161c8a828b016112b8565b91505092959891949750929550565b6000806040838503121561164257611641611196565b5b600083013567ffffffffffffffff8111156116605761165f61119b565b5b61166c858286016112b8565b925050602083013567ffffffffffffffff81111561168d5761168c61119b565b5b611699858286016112b8565b9150509250929050565b6000602082840312156116b9576116b8611196565b5b600082013567ffffffffffffffff8111156116d7576116d661119b565b5b6116e3848285016112b8565b91505092915050565b600081519050919050565b600082825260208201905092915050565b60005b8381101561172657808201518184015260208101905061170b565b60008484015250505050565b600061173d826116ec565b61174781856116f7565b9350611757818560208601611708565b611760816111aa565b840191505092915050565b600060208201905081810360008301526117858184611732565b905092915050565b611796816113f8565b82525050565b600060608201905081810360008301526117b68186611732565b905081810360208301526117ca8185611732565b90506117d9604083018461178d565b949350505050565b600081519050919050565b600082825260208201905092915050565b6000819050602082019050919050565b600082825260208201905092915050565b6000611829826116ec565b611833818561180d565b9350611843818560208601611708565b61184c816111aa565b840191505092915050565b611860816113f8565b82525050565b600060a0830160008301518482036000860152611883828261181e565b91505060208301516118986020860182611857565b50604083015184820360408601526118b0828261181e565b91505060608301516118c56060860182611857565b5060808301516118d86080860182611857565b508091505092915050565b60006118ef8383611866565b905092915050565b6000602082019050919050565b600061190f826117e1565b61191981856117ec565b93508360208202850161192b856117fd565b8060005b85811015611967578484038952815161194885826118e3565b9450611953836118f7565b925060208a0199505060018101905061192f565b50829750879550505050505092915050565b600060208201905081810360008301526119938184611904565b905092915050565b600080fd5b600080fd5b6000606082840312156119bb576119ba61199b565b5b6119c5606061121b565b9050600082013567ffffffffffffffff8111156119e5576119e46119a0565b5b6119f1848285016112b8565b600083015250602082013567ffffffffffffffff811115611a1557611a146119a0565b5b611a21848285016112b8565b6020830152506040611a3584828501611419565b60408301525092915050565b60008060408385031215611a5857611a57611196565b5b600083013567ffffffffffffffff811115611a7657611a7561119b565b5b611a82858286016112b8565b925050602083013567ffffffffffffffff811115611aa357611aa261119b565b5b611aaf858286016119a5565b9150509250929050565b600081519050919050565b600082825260208201905092915050565b6000819050602082019050919050565b600060e0830160008301518482036000860152611b02828261181e565b91505060208301518482036020860152611b1c828261181e565b91505060408301518482036040860152611b36828261181e565b91505060608301518482036060860152611b50828261181e565b9150506080830151611b656080860182611857565b5060a0830151611b7860a0860182611857565b5060c083015184820360c0860152611b90828261181e565b9150508091505092915050565b6000611ba98383611ae5565b905092915050565b6000602082019050919050565b6000611bc982611ab9565b611bd38185611ac4565b935083602082028501611be585611ad5565b8060005b85811015611c215784840389528151611c028582611b9d565b9450611c0d83611bb1565b925060208a01995050600181019050611be9565b50829750879550505050505092915050565b60006020820190508181036000830152611c4d8184611bbe565b905092915050565b60008060008060008060008060006101208a8c031215611c7857611c77611196565b5b60008a013567ffffffffffffffff811115611c9657611c9561119b565b5b611ca28c828d016112b8565b99505060208a013567ffffffffffffffff811115611cc357611cc261119b565b5b611ccf8c828d0161139e565b98505060408a013567ffffffffffffffff811115611cf057611cef61119b565b5b611cfc8c828d0161139e565b97505060608a013567ffffffffffffffff811115611d1d57611d1c61119b565b5b611d298c828d0161139e565b96505060808a013567ffffffffffffffff811115611d4a57611d4961119b565b5b611d568c828d0161139e565b95505060a08a013567ffffffffffffffff811115611d7757611d7661119b565b5b611d838c828d01611497565b94505060c08a013567ffffffffffffffff811115611da457611da361119b565b5b611db08c828d01611497565b93505060e08a013567ffffffffffffffff811115611dd157611dd061119b565b5b611ddd8c828d0161139e565b9250506101008a013567ffffffffffffffff811115611dff57611dfe61119b565b5b611e0b8c828d016112b8565b9150509295985092959850929598565b7f496e70757420617272617973206d7573742068617665207468652073616d652060008201527f6c656e6774680000000000000000000000000000000000000000000000000000602082015250565b6000611e776026836116f7565b9150611e8282611e1b565b604082019050919050565b60006020820190508181036000830152611ea681611e6a565b9050919050565b7f4e487b7100000000000000000000000000000000000000000000000000000000600052603260045260246000fd5b600081905092915050565b6000611ef2826116ec565b611efc8185611edc565b9350611f0c818560208601611708565b80840191505092915050565b6000611f248284611ee7565b915081905092915050565b7f4e487b7100000000000000000000000000000000000000000000000000000000600052602260045260246000fd5b60006002820490506001821680611f7657607f821691505b602082108103611f8957611f88611f2f565b5b50919050565b60008190508160005260206000209050919050565b60006020601f8301049050919050565b600082821b905092915050565b600060088302611ff17fffffffffffffffffffffffffffffffffffffffffffffffffffffffffffffffff82611fb4565b611ffb8683611fb4565b95508019841693508086168417925050509392505050565b6000819050919050565b600061203861203361202e846113f8565b612013565b6113f8565b9050919050565b6000819050919050565b6120528361201d565b61206661205e8261203f565b848454611fc1565b825550505050565b600090565b61207b61206e565b612086818484612049565b505050565b5b818110156120aa5761209f600082612073565b60018101905061208c565b5050565b601f8211156120ef576120c081611f8f565b6120c984611fa4565b810160208510156120d8578190505b6120ec6120e485611fa4565b83018261208b565b50505b505050565b600082821c905092915050565b6000612112600019846008026120f4565b1980831691505092915050565b600061212b8383612101565b9150826002028217905092915050565b612144826116ec565b67ffffffffffffffff81111561215d5761215c6111bb565b5b6121678254611f5e565b6121728282856120ae565b600060209050601f8311600181146121a55760008415612193578287015190505b61219d858261211f565b865550612205565b601f1984166121b386611f8f565b60005b828110156121db578489015182556001820191506020850194506020810190506121b6565b868310156121f857848901516121f4601f891682612101565b8355505b6001600288020188555050505b505050505050565b7f4e487b7100000000000000000000000000000000000000000000000000000000600052601160045260246000fd5b6000612247826113f8565b91507fffffffffffffffffffffffffffffffffffffffffffffffffffffffffffffffff82036122795761227861220d565b5b600182019050919050565b600081549050919050565b60008190508160005260206000209050919050565b600081546122b181611f5e565b6122bb818661180d565b945060018216600081146122d657600181146122ec5761231f565b60ff19831686528115156020028601935061231f565b6122f585611f8f565b60005b83811015612317578154818901526001820191506020810190506122f8565b808801955050505b50505092915050565b60008160001c9050919050565b6000819050919050565b600061235261234d83612328565b612335565b9050919050565b600060a083016000808401858303600087015261237683826122a4565b925050600184015490506123898161233f565b6123966020870182611857565b506002840185830360408701526123ad83826122a4565b925050600384015490506123c08161233f565b6123cd6060870182611857565b50600484015490506123de8161233f565b6123eb6080870182611857565b50819250505092915050565b60006124038383612359565b905092915050565b6000600582019050919050565b600061242382612284565b61242d81856117ec565b93508360208202850161243f8561228f565b8060005b8581101561247a5784840389528161245b85826123f7565b94506124668361240b565b925060208a01995050600181019050612443565b50829750879550505050505092915050565b600060408201905081810360008301526124a68185612418565b905081810360208301526124ba8184611732565b90509392505050565b600081549050919050565b60008190508160005260206000209050919050565b600060e083016000808401858303600087015261250083826122a4565b92505060018401858303602087015261251983826122a4565b92505060028401858303604087015261253283826122a4565b92505060038401858303606087015261254b83826122a4565b9250506004840154905061255e8161233f565b61256b6080870182611857565b506005840154905061257c8161233f565b61258960a0870182611857565b506006840185830360c08701526125a083826122a4565b925050819250505092915050565b60006125ba83836124e3565b905092915050565b6000600782019050919050565b60006125da826124c3565b6125e48185611ac4565b9350836020820285016125f6856124ce565b8060005b858110156126315784840389528161261285826125ae565b945061261d836125c2565b925060208a019950506001810190506125fa565b50829750879550505050505092915050565b6000604082019050818103600083015261265d81856125cf565b905081810360208301526126718184611732565b9050939250505056fea2646970667358221220f2f956dd045df1258a2a2ea900c1f608745897c6986423226a93eadda810280964736f6c63430008130033",
  "immutableReferences": {},
  "source": "// SPDX-License-Identifier: MIT\npragma solidity ^0.8.0;\n\ncontract UserContract1 {\n    struct UserData {\n        string email;\n        string name;\n        uint256 age;\n    }\n\n    struct AssetInfo {\n        string name;\n        string typeOfAsset;\n        string description;\n        string location;\n        uint256 purchaseDate;\n        uint256 purchasePrice;\n        string previousOwner;\n    }\n\n    struct MilitaryInfo {\n        string name;\n        uint256 dateOfBirth;\n        string stateOfMilitary;\n        uint256 postponementDate;\n        uint256 dateOfConstruction;\n    }\n\n    struct UserAsset {\n        AssetInfo[] assetInfos;\n        string ipfsHash;\n    }\n\n    struct UserMilitary {\n        MilitaryInfo[] militaryInfos;\n        string ipfsHash;\n    }\n\n    mapping(string => UserAsset) private assetRecords;\n    mapping(string => UserMilitary) private militaryRecords;\n\n    mapping(string => UserData) users;\n\n    event UserUpdated(\n        string indexed userId,\n        string email,\n        string name,\n        uint256 age\n    );\n\n    event UserAssetUpdated(\n        string indexed userId,\n        AssetInfo[] assetInfos,\n        string ipfsHash\n    );\n    event UserMilitaryUpdated(\n        string indexed userId,\n        MilitaryInfo[] militrayInfos,\n        string ipfsHash\n    );\n\n    function setUserData(\n        string memory userId,\n        UserData memory userData\n    ) public {\n        UserData memory newUser = UserData(\n            userData.email,\n            userData.name,\n            userData.age\n        );\n        users[userId] = newUser;\n        emit UserUpdated(userId, userData.email, userData.name, userData.age);\n    }\n\n    function getUserData(\n        string memory userId\n    )\n        public\n        view\n        returns (string memory email, string memory name, uint256 age)\n    {\n        UserData storage user = users[userId];\n        return (user.email, user.name, user.age);\n    }\n\n    function setAssetRecord(\n        string memory userId,\n        string[] memory names,\n        string[] memory typeOfAssets,\n        string[] memory descriptions,\n        string[] memory locations,\n        uint256[] memory purchaseDates,\n        uint256[] memory purchasePrices,\n        string[] memory previousOwners,\n        string memory ipfsHash\n    ) public {\n        require(\n            names.length == typeOfAssets.length &&\n                typeOfAssets.length == descriptions.length &&\n                descriptions.length == locations.length &&\n                locations.length == purchaseDates.length &&\n                purchaseDates.length == purchasePrices.length &&\n                purchasePrices.length == previousOwners.length,\n            \"Input arrays must have the same length\"\n        );\n\n        for (uint256 i = 0; i < names.length; i++) {\n            AssetInfo memory newAsset = AssetInfo({\n                name: names[i],\n                typeOfAsset: typeOfAssets[i],\n                description: descriptions[i],\n                location: locations[i],\n                purchaseDate: purchaseDates[i],\n                purchasePrice: purchasePrices[i],\n                previousOwner: previousOwners[i]\n            });\n\n            assetRecords[userId].assetInfos.push(newAsset);\n        }\n\n        assetRecords[userId].ipfsHash = ipfsHash;\n\n        emit UserAssetUpdated(\n            userId,\n            assetRecords[userId].assetInfos,\n            ipfsHash\n        );\n    }\n\n    function getAssetRecords(\n        string memory userId\n    ) public view returns (AssetInfo[] memory) {\n        return assetRecords[userId].assetInfos;\n    }\n\n    function setAssetIPFSHash(\n        string memory userId,\n        string memory ipfsHash\n    ) public {\n        UserAsset storage userAsset = assetRecords[userId];\n\n        userAsset.ipfsHash = ipfsHash;\n\n        emit UserAssetUpdated(userId, userAsset.assetInfos, ipfsHash);\n    }\n\n    function getAssetIPFSHash(\n        string memory userId\n    ) public view returns (string memory) {\n        return assetRecords[userId].ipfsHash;\n    }\n\n    function setMilitaryRecord(\n        string memory userId,\n        string[] memory names,\n        uint256[] memory dateOfBirths,\n        string[] memory stateOfMilitarys,\n        uint256[] memory postponementDates,\n        uint256[] memory dateOfConstructions,\n        string memory ipfsHash\n    ) public {\n        require(\n            names.length == dateOfBirths.length &&\n                dateOfBirths.length == stateOfMilitarys.length &&\n                stateOfMilitarys.length == postponementDates.length &&\n                postponementDates.length == dateOfConstructions.length,\n            \"Input arrays must have the same length\"\n        );\n\n        for (uint256 i = 0; i < names.length; i++) {\n            MilitaryInfo memory newMilitary = MilitaryInfo({\n                name: names[i],\n                dateOfBirth: dateOfBirths[i],\n                stateOfMilitary: stateOfMilitarys[i],\n                postponementDate: postponementDates[i],\n                dateOfConstruction: dateOfConstructions[i]\n            });\n\n            militaryRecords[userId].militaryInfos.push(newMilitary);\n        }\n\n        militaryRecords[userId].ipfsHash = ipfsHash;\n\n        emit UserMilitaryUpdated(\n            userId,\n            militaryRecords[userId].militaryInfos,\n            ipfsHash\n        );\n    }\n\n    function getMilitaryRecords(\n        string memory userId\n    ) public view returns (MilitaryInfo[] memory) {\n        return militaryRecords[userId].militaryInfos;\n    }\n\n    function setMilitaryIPFSHash(\n        string memory userId,\n        string memory ipfsHash\n    ) public {\n        UserMilitary storage userMilitary = militaryRecords[userId];\n\n        userMilitary.ipfsHash = ipfsHash;\n\n        emit UserMilitaryUpdated(userId, userMilitary.militaryInfos, ipfsHash);\n    }\n\n    function getMilitaryIPFSHash(\n        string memory userId\n    ) public view returns (string memory) {\n        return militaryRecords[userId].ipfsHash;\n    }\n}\n",
  "sourcePath": "/Users/kmlcnclk/Documents/Projects_NEU/my-devlet/contracts/UserContract1.sol",
  "compiler": {
    "name": "solc",
    "version": "0.8.19+commit.7dd6d404.Emscripten.clang"
  },
  "schemaVersion": "3.4.15",
  "updatedAt": "2024-01-14T11:56:45.849Z",
  "devdoc": {
    "kind": "dev",
    "methods": {},
    "version": 1
  },
  "userdoc": {
    "kind": "user",
    "methods": {},
    "version": 1
  }
}