{
  "contractName": "UserContract",
  "abi": [
    {
      "anonymous": false,
      "inputs": [
        {
          "indexed": true,
          "internalType": "string",
          "name": "userId",
          "type": "string"
        },
        {
          "components": [
            {
              "internalType": "string",
              "name": "bankName",
              "type": "string"
            },
            {
              "internalType": "uint256",
              "name": "accountBalance",
              "type": "uint256"
            },
            {
              "internalType": "string",
              "name": "accountNumber",
              "type": "string"
            },
            {
              "internalType": "string",
              "name": "accountType",
              "type": "string"
            },
            {
              "internalType": "uint256",
              "name": "accountOpeningDate",
              "type": "uint256"
            }
          ],
          "indexed": false,
          "internalType": "struct UserContract.BankInfo[]",
          "name": "bankInfos",
          "type": "tuple[]"
        },
        {
          "indexed": false,
          "internalType": "string",
          "name": "ipfsHash",
          "type": "string"
        }
      ],
      "name": "UserBankUpdated",
      "type": "event"
    },
    {
      "anonymous": false,
      "inputs": [
        {
          "indexed": true,
          "internalType": "string",
          "name": "userId",
          "type": "string"
        },
        {
          "components": [
            {
              "internalType": "string",
              "name": "schoolName",
              "type": "string"
            },
            {
              "internalType": "string",
              "name": "degree",
              "type": "string"
            },
            {
              "internalType": "uint256",
              "name": "startedYear",
              "type": "uint256"
            },
            {
              "internalType": "uint256",
              "name": "graduationYear",
              "type": "uint256"
            }
          ],
          "indexed": false,
          "internalType": "struct UserContract.EducationInfo[]",
          "name": "educationInfos",
          "type": "tuple[]"
        },
        {
          "indexed": false,
          "internalType": "string",
          "name": "ipfsHash",
          "type": "string"
        }
      ],
      "name": "UserEducationUpdated",
      "type": "event"
    },
    {
      "anonymous": false,
      "inputs": [
        {
          "indexed": true,
          "internalType": "string",
          "name": "userId",
          "type": "string"
        },
        {
          "components": [
            {
              "internalType": "string",
              "name": "hospitalName",
              "type": "string"
            },
            {
              "internalType": "string",
              "name": "doctorName",
              "type": "string"
            },
            {
              "internalType": "string",
              "name": "name",
              "type": "string"
            },
            {
              "internalType": "string",
              "name": "symptoms",
              "type": "string"
            },
            {
              "internalType": "string",
              "name": "diagnosticMethods",
              "type": "string"
            },
            {
              "internalType": "uint256",
              "name": "date",
              "type": "uint256"
            },
            {
              "internalType": "string",
              "name": "treatmentOptions",
              "type": "string"
            },
            {
              "internalType": "string",
              "name": "importantInformation",
              "type": "string"
            }
          ],
          "indexed": false,
          "internalType": "struct UserContract.HospitalInfo[]",
          "name": "hospitalInfos",
          "type": "tuple[]"
        },
        {
          "indexed": false,
          "internalType": "string",
          "name": "ipfsHash",
          "type": "string"
        }
      ],
      "name": "UserHospitalUpdated",
      "type": "event"
    },
    {
      "anonymous": false,
      "inputs": [
        {
          "indexed": true,
          "internalType": "string",
          "name": "userId",
          "type": "string"
        },
        {
          "indexed": false,
          "internalType": "string",
          "name": "email",
          "type": "string"
        },
        {
          "indexed": false,
          "internalType": "string",
          "name": "name",
          "type": "string"
        },
        {
          "indexed": false,
          "internalType": "uint256",
          "name": "age",
          "type": "uint256"
        }
      ],
      "name": "UserUpdated",
      "type": "event"
    },
    {
      "inputs": [
        {
          "internalType": "string",
          "name": "userId",
          "type": "string"
        },
        {
          "components": [
            {
              "internalType": "string",
              "name": "email",
              "type": "string"
            },
            {
              "internalType": "string",
              "name": "name",
              "type": "string"
            },
            {
              "internalType": "uint256",
              "name": "age",
              "type": "uint256"
            }
          ],
          "internalType": "struct UserContract.UserData",
          "name": "userData",
          "type": "tuple"
        }
      ],
      "name": "setUserData",
      "outputs": [],
      "stateMutability": "nonpayable",
      "type": "function"
    },
    {
      "inputs": [
        {
          "internalType": "string",
          "name": "userId",
          "type": "string"
        }
      ],
      "name": "getUserData",
      "outputs": [
        {
          "internalType": "string",
          "name": "email",
          "type": "string"
        },
        {
          "internalType": "string",
          "name": "name",
          "type": "string"
        },
        {
          "internalType": "uint256",
          "name": "age",
          "type": "uint256"
        }
      ],
      "stateMutability": "view",
      "type": "function"
    },
    {
      "inputs": [
        {
          "internalType": "string",
          "name": "userId",
          "type": "string"
        },
        {
          "internalType": "string[]",
          "name": "schoolNames",
          "type": "string[]"
        },
        {
          "internalType": "string[]",
          "name": "degrees",
          "type": "string[]"
        },
        {
          "internalType": "uint256[]",
          "name": "startedYears",
          "type": "uint256[]"
        },
        {
          "internalType": "uint256[]",
          "name": "graduationYears",
          "type": "uint256[]"
        },
        {
          "internalType": "string",
          "name": "ipfsHash",
          "type": "string"
        }
      ],
      "name": "setEducationRecord",
      "outputs": [],
      "stateMutability": "nonpayable",
      "type": "function"
    },
    {
      "inputs": [
        {
          "internalType": "string",
          "name": "userId",
          "type": "string"
        }
      ],
      "name": "getEducationRecords",
      "outputs": [
        {
          "components": [
            {
              "internalType": "string",
              "name": "schoolName",
              "type": "string"
            },
            {
              "internalType": "string",
              "name": "degree",
              "type": "string"
            },
            {
              "internalType": "uint256",
              "name": "startedYear",
              "type": "uint256"
            },
            {
              "internalType": "uint256",
              "name": "graduationYear",
              "type": "uint256"
            }
          ],
          "internalType": "struct UserContract.EducationInfo[]",
          "name": "",
          "type": "tuple[]"
        }
      ],
      "stateMutability": "view",
      "type": "function"
    },
    {
      "inputs": [
        {
          "internalType": "string",
          "name": "userId",
          "type": "string"
        },
        {
          "internalType": "string",
          "name": "ipfsHash",
          "type": "string"
        }
      ],
      "name": "setEducationIPFSHash",
      "outputs": [],
      "stateMutability": "nonpayable",
      "type": "function"
    },
    {
      "inputs": [
        {
          "internalType": "string",
          "name": "userId",
          "type": "string"
        }
      ],
      "name": "getEducationIPFSHash",
      "outputs": [
        {
          "internalType": "string",
          "name": "",
          "type": "string"
        }
      ],
      "stateMutability": "view",
      "type": "function"
    },
    {
      "inputs": [
        {
          "internalType": "string",
          "name": "userId",
          "type": "string"
        },
        {
          "internalType": "string[]",
          "name": "bankNames",
          "type": "string[]"
        },
        {
          "internalType": "uint256[]",
          "name": "accountBalances",
          "type": "uint256[]"
        },
        {
          "internalType": "string[]",
          "name": "accountNumbers",
          "type": "string[]"
        },
        {
          "internalType": "string[]",
          "name": "accountTypes",
          "type": "string[]"
        },
        {
          "internalType": "uint256[]",
          "name": "accountOpeningDates",
          "type": "uint256[]"
        },
        {
          "internalType": "string",
          "name": "ipfsHash",
          "type": "string"
        }
      ],
      "name": "setBankRecord",
      "outputs": [],
      "stateMutability": "nonpayable",
      "type": "function"
    },
    {
      "inputs": [
        {
          "internalType": "string",
          "name": "userId",
          "type": "string"
        }
      ],
      "name": "getBankRecords",
      "outputs": [
        {
          "components": [
            {
              "internalType": "string",
              "name": "bankName",
              "type": "string"
            },
            {
              "internalType": "uint256",
              "name": "accountBalance",
              "type": "uint256"
            },
            {
              "internalType": "string",
              "name": "accountNumber",
              "type": "string"
            },
            {
              "internalType": "string",
              "name": "accountType",
              "type": "string"
            },
            {
              "internalType": "uint256",
              "name": "accountOpeningDate",
              "type": "uint256"
            }
          ],
          "internalType": "struct UserContract.BankInfo[]",
          "name": "",
          "type": "tuple[]"
        }
      ],
      "stateMutability": "view",
      "type": "function"
    },
    {
      "inputs": [
        {
          "internalType": "string",
          "name": "userId",
          "type": "string"
        },
        {
          "internalType": "string",
          "name": "ipfsHash",
          "type": "string"
        }
      ],
      "name": "setBankIPFSHash",
      "outputs": [],
      "stateMutability": "nonpayable",
      "type": "function"
    },
    {
      "inputs": [
        {
          "internalType": "string",
          "name": "userId",
          "type": "string"
        }
      ],
      "name": "getBankIPFSHash",
      "outputs": [
        {
          "internalType": "string",
          "name": "",
          "type": "string"
        }
      ],
      "stateMutability": "view",
      "type": "function"
    },
    {
      "inputs": [
        {
          "internalType": "string",
          "name": "userId",
          "type": "string"
        },
        {
          "internalType": "string[]",
          "name": "hospitalNames",
          "type": "string[]"
        },
        {
          "internalType": "string[]",
          "name": "doctorNames",
          "type": "string[]"
        },
        {
          "internalType": "string[]",
          "name": "names",
          "type": "string[]"
        },
        {
          "internalType": "string[]",
          "name": "symptomss",
          "type": "string[]"
        },
        {
          "internalType": "string[]",
          "name": "diagnosticMethodss",
          "type": "string[]"
        },
        {
          "internalType": "uint256[]",
          "name": "dates",
          "type": "uint256[]"
        },
        {
          "internalType": "string[]",
          "name": "treatmentOptionss",
          "type": "string[]"
        },
        {
          "internalType": "string[]",
          "name": "importantInformations",
          "type": "string[]"
        },
        {
          "internalType": "string",
          "name": "ipfsHash",
          "type": "string"
        }
      ],
      "name": "setHospitalRecord",
      "outputs": [],
      "stateMutability": "nonpayable",
      "type": "function"
    },
    {
      "inputs": [
        {
          "internalType": "string",
          "name": "userId",
          "type": "string"
        }
      ],
      "name": "getHospitalRecords",
      "outputs": [
        {
          "components": [
            {
              "internalType": "string",
              "name": "hospitalName",
              "type": "string"
            },
            {
              "internalType": "string",
              "name": "doctorName",
              "type": "string"
            },
            {
              "internalType": "string",
              "name": "name",
              "type": "string"
            },
            {
              "internalType": "string",
              "name": "symptoms",
              "type": "string"
            },
            {
              "internalType": "string",
              "name": "diagnosticMethods",
              "type": "string"
            },
            {
              "internalType": "uint256",
              "name": "date",
              "type": "uint256"
            },
            {
              "internalType": "string",
              "name": "treatmentOptions",
              "type": "string"
            },
            {
              "internalType": "string",
              "name": "importantInformation",
              "type": "string"
            }
          ],
          "internalType": "struct UserContract.HospitalInfo[]",
          "name": "",
          "type": "tuple[]"
        }
      ],
      "stateMutability": "view",
      "type": "function"
    },
    {
      "inputs": [
        {
          "internalType": "string",
          "name": "userId",
          "type": "string"
        },
        {
          "internalType": "string",
          "name": "ipfsHash",
          "type": "string"
        }
      ],
      "name": "setHospitalIPFSHash",
      "outputs": [],
      "stateMutability": "nonpayable",
      "type": "function"
    },
    {
      "inputs": [
        {
          "internalType": "string",
          "name": "userId",
          "type": "string"
        }
      ],
      "name": "getHospitalIPFSHash",
      "outputs": [
        {
          "internalType": "string",
          "name": "",
          "type": "string"
        }
      ],
      "stateMutability": "view",
      "type": "function"
    }
  ],
  "bytecode": "0x608060405234801561001057600080fd5b50613322806100206000396000f3fe608060405234801561001057600080fd5b50600436106100ea5760003560e01c806386c37fb61161008c578063be36f17411610066578063be36f17414610295578063cbe7360c146102b1578063e63f9d25146102cd578063f402c2c9146102e9576100ea565b806386c37fb61461022d578063a4c9f0be1461025d578063b1f441ef14610279576100ea565b806335ce3833116100c857806335ce38331461016b5780634402db821461019b5780634f2cd125146101cb57806354ab2403146101fb576100ea565b80630c793d7c146100ef57806324ca04d51461011f5780633152e8041461014f575b600080fd5b61010960048036038101906101049190611aff565b610305565b6040516101169190611bc7565b60405180910390f35b61013960048036038101906101349190611aff565b6103b8565b6040516101469190611bc7565b60405180910390f35b61016960048036038101906101649190611be9565b61046b565b005b61018560048036038101906101809190611aff565b6104f6565b6040516101929190611bc7565b60405180910390f35b6101b560048036038101906101b09190611aff565b6105a9565b6040516101c29190611e0a565b60405180910390f35b6101e560048036038101906101e09190611aff565b6107f3565b6040516101f29190611f58565b60405180910390f35b61021560048036038101906102109190611aff565b6109ab565b60405161022493929190611f89565b60405180910390f35b61024760048036038101906102429190611aff565b610b04565b604051610254919061216a565b60405180910390f35b61027760048036038101906102729190611be9565b610f8d565b005b610293600480360381019061028e9190612361565b611018565b005b6102af60048036038101906102aa919061253c565b611257565b005b6102cb60048036038101906102c691906125b4565b61133c565b005b6102e760048036038101906102e2919061271a565b6115bf565b005b61030360048036038101906102fe9190611be9565b61191b565b005b6060600082604051610317919061294d565b9081526020016040518091039020600101805461033390612993565b80601f016020809104026020016040519081016040528092919081815260200182805461035f90612993565b80156103ac5780601f10610381576101008083540402835291602001916103ac565b820191906000526020600020905b81548152906001019060200180831161038f57829003601f168201915b50505050509050919050565b60606001826040516103ca919061294d565b908152602001604051809103902060010180546103e690612993565b80601f016020809104026020016040519081016040528092919081815260200182805461041290612993565b801561045f5780601f106104345761010080835404028352916020019161045f565b820191906000526020600020905b81548152906001019060200180831161044257829003601f168201915b50505050509050919050565b600060028360405161047d919061294d565b908152602001604051809103902090508181600101908161049e9190612b70565b50826040516104ad919061294d565b60405180910390207f5f60f857012493da3c65fcf0df4c087fbd203856172f2658031a4305573ea12f82600001846040516104e9929190612e8c565b60405180910390a2505050565b6060600282604051610508919061294d565b9081526020016040518091039020600101805461052490612993565b80601f016020809104026020016040519081016040528092919081815260200182805461055090612993565b801561059d5780601f106105725761010080835404028352916020019161059d565b820191906000526020600020905b81548152906001019060200180831161058057829003601f168201915b50505050509050919050565b60606001826040516105bb919061294d565b9081526020016040518091039020600001805480602002602001604051908101604052809291908181526020016000905b828210156107e857838290600052602060002090600502016040518060a001604052908160008201805461061f90612993565b80601f016020809104026020016040519081016040528092919081815260200182805461064b90612993565b80156106985780601f1061066d57610100808354040283529160200191610698565b820191906000526020600020905b81548152906001019060200180831161067b57829003601f168201915b50505050508152602001600182015481526020016002820180546106bb90612993565b80601f01602080910402602001604051908101604052809291908181526020018280546106e790612993565b80156107345780601f1061070957610100808354040283529160200191610734565b820191906000526020600020905b81548152906001019060200180831161071757829003601f168201915b5050505050815260200160038201805461074d90612993565b80601f016020809104026020016040519081016040528092919081815260200182805461077990612993565b80156107c65780601f1061079b576101008083540402835291602001916107c6565b820191906000526020600020905b8154815290600101906020018083116107a957829003601f168201915b50505050508152602001600482015481525050815260200190600101906105ec565b505050509050919050565b6060600082604051610805919061294d565b9081526020016040518091039020600001805480602002602001604051908101604052809291908181526020016000905b828210156109a0578382906000526020600020906004020160405180608001604052908160008201805461086990612993565b80601f016020809104026020016040519081016040528092919081815260200182805461089590612993565b80156108e25780601f106108b7576101008083540402835291602001916108e2565b820191906000526020600020905b8154815290600101906020018083116108c557829003601f168201915b505050505081526020016001820180546108fb90612993565b80601f016020809104026020016040519081016040528092919081815260200182805461092790612993565b80156109745780601f1061094957610100808354040283529160200191610974565b820191906000526020600020905b81548152906001019060200180831161095757829003601f168201915b505050505081526020016002820154815260200160038201548152505081526020019060010190610836565b505050509050919050565b6060806000806003856040516109c1919061294d565b90815260200160405180910390209050806000018160010182600201548280546109ea90612993565b80601f0160208091040260200160405190810160405280929190818152602001828054610a1690612993565b8015610a635780601f10610a3857610100808354040283529160200191610a63565b820191906000526020600020905b815481529060010190602001808311610a4657829003601f168201915b50505050509250818054610a7690612993565b80601f0160208091040260200160405190810160405280929190818152602001828054610aa290612993565b8015610aef5780601f10610ac457610100808354040283529160200191610aef565b820191906000526020600020905b815481529060010190602001808311610ad257829003601f168201915b50505050509150935093509350509193909250565b6060600282604051610b16919061294d565b9081526020016040518091039020600001805480602002602001604051908101604052809291908181526020016000905b82821015610f82578382906000526020600020906008020160405180610100016040529081600082018054610b7b90612993565b80601f0160208091040260200160405190810160405280929190818152602001828054610ba790612993565b8015610bf45780601f10610bc957610100808354040283529160200191610bf4565b820191906000526020600020905b815481529060010190602001808311610bd757829003601f168201915b50505050508152602001600182018054610c0d90612993565b80601f0160208091040260200160405190810160405280929190818152602001828054610c3990612993565b8015610c865780601f10610c5b57610100808354040283529160200191610c86565b820191906000526020600020905b815481529060010190602001808311610c6957829003601f168201915b50505050508152602001600282018054610c9f90612993565b80601f0160208091040260200160405190810160405280929190818152602001828054610ccb90612993565b8015610d185780601f10610ced57610100808354040283529160200191610d18565b820191906000526020600020905b815481529060010190602001808311610cfb57829003601f168201915b50505050508152602001600382018054610d3190612993565b80601f0160208091040260200160405190810160405280929190818152602001828054610d5d90612993565b8015610daa5780601f10610d7f57610100808354040283529160200191610daa565b820191906000526020600020905b815481529060010190602001808311610d8d57829003601f168201915b50505050508152602001600482018054610dc390612993565b80601f0160208091040260200160405190810160405280929190818152602001828054610def90612993565b8015610e3c5780601f10610e1157610100808354040283529160200191610e3c565b820191906000526020600020905b815481529060010190602001808311610e1f57829003601f168201915b5050505050815260200160058201548152602001600682018054610e5f90612993565b80601f0160208091040260200160405190810160405280929190818152602001828054610e8b90612993565b8015610ed85780601f10610ead57610100808354040283529160200191610ed8565b820191906000526020600020905b815481529060010190602001808311610ebb57829003601f168201915b50505050508152602001600782018054610ef190612993565b80601f0160208091040260200160405190810160405280929190818152602001828054610f1d90612993565b8015610f6a5780601f10610f3f57610100808354040283529160200191610f6a565b820191906000526020600020905b815481529060010190602001808311610f4d57829003601f168201915b50505050508152505081526020019060010190610b47565b505050509050919050565b6000600183604051610f9f919061294d565b9081526020016040518091039020905081816001019081610fc09190612b70565b5082604051610fcf919061294d565b60405180910390207f7b1ac6b8cbddaca0fca5e3db838619d5943ce7fec69918b95811c7a43ddfa4fc826000018460405161100b929190613011565b60405180910390a2505050565b8351855114801561102a575082518451145b8015611037575081518351145b611076576040517f08c379a000000000000000000000000000000000000000000000000000000000815260040161106d906130ba565b60405180910390fd5b60005b85518110156111b057600060405180608001604052808884815181106110a2576110a16130da565b5b602002602001015181526020018784815181106110c2576110c16130da565b5b602002602001015181526020018684815181106110e2576110e16130da565b5b60200260200101518152602001858481518110611102576111016130da565b5b6020026020010151815250905060008860405161111f919061294d565b9081526020016040518091039020600001819080600181540180825580915050600190039060005260206000209060040201600090919091909150600082015181600001908161116f9190612b70565b5060208201518160010190816111859190612b70565b50604082015181600201556060820151816003015550505080806111a890613138565b915050611079565b50806000876040516111c2919061294d565b908152602001604051809103902060010190816111df9190612b70565b50856040516111ee919061294d565b60405180910390207fe1d458654f5707c5b4f344ea06155edfde34c4ca973c5e3647fa8b32f2b31db4600088604051611227919061294d565b9081526020016040518091039020600001836040516112479291906132b5565b60405180910390a2505050505050565b6000604051806060016040528083600001518152602001836020015181526020018360400151815250905080600384604051611293919061294d565b908152602001604051809103902060008201518160000190816112b69190612b70565b5060208201518160010190816112cc9190612b70565b5060408201518160020155905050826040516112e8919061294d565b60405180910390207f4f24336055d992bf20f44d53f6f7e8909075915f2bc6830d7a7963652fcbf72983600001518460200151856040015160405161132f93929190611f89565b60405180910390a2505050565b8451865114801561134e575083518551145b801561135b575082518451145b8015611368575081518351145b6113a7576040517f08c379a000000000000000000000000000000000000000000000000000000000815260040161139e906130ba565b60405180910390fd5b60005b86518110156115175760006040518060a001604052808984815181106113d3576113d26130da565b5b602002602001015181526020018884815181106113f3576113f26130da565b5b60200260200101518152602001878481518110611413576114126130da565b5b60200260200101518152602001868481518110611433576114326130da565b5b60200260200101518152602001858481518110611453576114526130da565b5b60200260200101518152509050600189604051611470919061294d565b908152602001604051809103902060000181908060018154018082558091505060019003906000526020600020906005020160009091909190915060008201518160000190816114c09190612b70565b506020820151816001015560408201518160020190816114e09190612b70565b5060608201518160030190816114f69190612b70565b5060808201518160040155505050808061150f90613138565b9150506113aa565b5080600188604051611529919061294d565b908152602001604051809103902060010190816115469190612b70565b5086604051611555919061294d565b60405180910390207f7b1ac6b8cbddaca0fca5e3db838619d5943ce7fec69918b95811c7a43ddfa4fc60018960405161158e919061294d565b9081526020016040518091039020600001836040516115ae929190613011565b60405180910390a250505050505050565b875189511480156115d1575086518851145b80156115de575085518751145b80156115eb575084518651145b80156115f8575083518551145b8015611605575082518451145b8015611612575081518351145b611651576040517f08c379a0000000000000000000000000000000000000000000000000000000008152600401611648906130ba565b60405180910390fd5b60005b89518110156118705760006040518061010001604052808c848151811061167e5761167d6130da565b5b602002602001015181526020018b848151811061169e5761169d6130da565b5b602002602001015181526020018a84815181106116be576116bd6130da565b5b602002602001015181526020018984815181106116de576116dd6130da565b5b602002602001015181526020018884815181106116fe576116fd6130da565b5b6020026020010151815260200187848151811061171e5761171d6130da565b5b6020026020010151815260200186848151811061173e5761173d6130da565b5b6020026020010151815260200185848151811061175e5761175d6130da565b5b6020026020010151815250905060028c60405161177b919061294d565b908152602001604051809103902060000181908060018154018082558091505060019003906000526020600020906008020160009091909190915060008201518160000190816117cb9190612b70565b5060208201518160010190816117e19190612b70565b5060408201518160020190816117f79190612b70565b50606082015181600301908161180d9190612b70565b5060808201518160040190816118239190612b70565b5060a0820151816005015560c08201518160060190816118439190612b70565b5060e08201518160070190816118599190612b70565b50505050808061186890613138565b915050611654565b508060028b604051611882919061294d565b9081526020016040518091039020600101908161189f9190612b70565b50896040516118ae919061294d565b60405180910390207f5f60f857012493da3c65fcf0df4c087fbd203856172f2658031a4305573ea12f60028c6040516118e7919061294d565b908152602001604051809103902060000183604051611907929190612e8c565b60405180910390a250505050505050505050565b6000808360405161192c919061294d565b908152602001604051809103902090508181600101908161194d9190612b70565b508260405161195c919061294d565b60405180910390207fe1d458654f5707c5b4f344ea06155edfde34c4ca973c5e3647fa8b32f2b31db482600001846040516119989291906132b5565b60405180910390a2505050565b6000604051905090565b600080fd5b600080fd5b600080fd5b600080fd5b6000601f19601f8301169050919050565b7f4e487b7100000000000000000000000000000000000000000000000000000000600052604160045260246000fd5b611a0c826119c3565b810181811067ffffffffffffffff82111715611a2b57611a2a6119d4565b5b80604052505050565b6000611a3e6119a5565b9050611a4a8282611a03565b919050565b600067ffffffffffffffff821115611a6a57611a696119d4565b5b611a73826119c3565b9050602081019050919050565b82818337600083830152505050565b6000611aa2611a9d84611a4f565b611a34565b905082815260208101848484011115611abe57611abd6119be565b5b611ac9848285611a80565b509392505050565b600082601f830112611ae657611ae56119b9565b5b8135611af6848260208601611a8f565b91505092915050565b600060208284031215611b1557611b146119af565b5b600082013567ffffffffffffffff811115611b3357611b326119b4565b5b611b3f84828501611ad1565b91505092915050565b600081519050919050565b600082825260208201905092915050565b60005b83811015611b82578082015181840152602081019050611b67565b60008484015250505050565b6000611b9982611b48565b611ba38185611b53565b9350611bb3818560208601611b64565b611bbc816119c3565b840191505092915050565b60006020820190508181036000830152611be18184611b8e565b905092915050565b60008060408385031215611c0057611bff6119af565b5b600083013567ffffffffffffffff811115611c1e57611c1d6119b4565b5b611c2a85828601611ad1565b925050602083013567ffffffffffffffff811115611c4b57611c4a6119b4565b5b611c5785828601611ad1565b9150509250929050565b600081519050919050565b600082825260208201905092915050565b6000819050602082019050919050565b600082825260208201905092915050565b6000611ca982611b48565b611cb38185611c8d565b9350611cc3818560208601611b64565b611ccc816119c3565b840191505092915050565b6000819050919050565b611cea81611cd7565b82525050565b600060a0830160008301518482036000860152611d0d8282611c9e565b9150506020830151611d226020860182611ce1565b5060408301518482036040860152611d3a8282611c9e565b91505060608301518482036060860152611d548282611c9e565b9150506080830151611d696080860182611ce1565b508091505092915050565b6000611d808383611cf0565b905092915050565b6000602082019050919050565b6000611da082611c61565b611daa8185611c6c565b935083602082028501611dbc85611c7d565b8060005b85811015611df85784840389528151611dd98582611d74565b9450611de483611d88565b925060208a01995050600181019050611dc0565b50829750879550505050505092915050565b60006020820190508181036000830152611e248184611d95565b905092915050565b600081519050919050565b600082825260208201905092915050565b6000819050602082019050919050565b60006080830160008301518482036000860152611e758282611c9e565b91505060208301518482036020860152611e8f8282611c9e565b9150506040830151611ea46040860182611ce1565b506060830151611eb76060860182611ce1565b508091505092915050565b6000611ece8383611e58565b905092915050565b6000602082019050919050565b6000611eee82611e2c565b611ef88185611e37565b935083602082028501611f0a85611e48565b8060005b85811015611f465784840389528151611f278582611ec2565b9450611f3283611ed6565b925060208a01995050600181019050611f0e565b50829750879550505050505092915050565b60006020820190508181036000830152611f728184611ee3565b905092915050565b611f8381611cd7565b82525050565b60006060820190508181036000830152611fa38186611b8e565b90508181036020830152611fb78185611b8e565b9050611fc66040830184611f7a565b949350505050565b600081519050919050565b600082825260208201905092915050565b6000819050602082019050919050565b60006101008301600083015184820360008601526120188282611c9e565b915050602083015184820360208601526120328282611c9e565b9150506040830151848203604086015261204c8282611c9e565b915050606083015184820360608601526120668282611c9e565b915050608083015184820360808601526120808282611c9e565b91505060a083015161209560a0860182611ce1565b5060c083015184820360c08601526120ad8282611c9e565b91505060e083015184820360e08601526120c78282611c9e565b9150508091505092915050565b60006120e08383611ffa565b905092915050565b6000602082019050919050565b600061210082611fce565b61210a8185611fd9565b93508360208202850161211c85611fea565b8060005b85811015612158578484038952815161213985826120d4565b9450612144836120e8565b925060208a01995050600181019050612120565b50829750879550505050505092915050565b6000602082019050818103600083015261218481846120f5565b905092915050565b600067ffffffffffffffff8211156121a7576121a66119d4565b5b602082029050602081019050919050565b600080fd5b60006121d06121cb8461218c565b611a34565b905080838252602082019050602084028301858111156121f3576121f26121b8565b5b835b8181101561223a57803567ffffffffffffffff811115612218576122176119b9565b5b8086016122258982611ad1565b855260208501945050506020810190506121f5565b5050509392505050565b600082601f830112612259576122586119b9565b5b81356122698482602086016121bd565b91505092915050565b600067ffffffffffffffff82111561228d5761228c6119d4565b5b602082029050602081019050919050565b6122a781611cd7565b81146122b257600080fd5b50565b6000813590506122c48161229e565b92915050565b60006122dd6122d884612272565b611a34565b90508083825260208201905060208402830185811115612300576122ff6121b8565b5b835b81811015612329578061231588826122b5565b845260208401935050602081019050612302565b5050509392505050565b600082601f830112612348576123476119b9565b5b81356123588482602086016122ca565b91505092915050565b60008060008060008060c0878903121561237e5761237d6119af565b5b600087013567ffffffffffffffff81111561239c5761239b6119b4565b5b6123a889828a01611ad1565b965050602087013567ffffffffffffffff8111156123c9576123c86119b4565b5b6123d589828a01612244565b955050604087013567ffffffffffffffff8111156123f6576123f56119b4565b5b61240289828a01612244565b945050606087013567ffffffffffffffff811115612423576124226119b4565b5b61242f89828a01612333565b935050608087013567ffffffffffffffff8111156124505761244f6119b4565b5b61245c89828a01612333565b92505060a087013567ffffffffffffffff81111561247d5761247c6119b4565b5b61248989828a01611ad1565b9150509295509295509295565b600080fd5b600080fd5b6000606082840312156124b6576124b5612496565b5b6124c06060611a34565b9050600082013567ffffffffffffffff8111156124e0576124df61249b565b5b6124ec84828501611ad1565b600083015250602082013567ffffffffffffffff8111156125105761250f61249b565b5b61251c84828501611ad1565b6020830152506040612530848285016122b5565b60408301525092915050565b60008060408385031215612553576125526119af565b5b600083013567ffffffffffffffff811115612571576125706119b4565b5b61257d85828601611ad1565b925050602083013567ffffffffffffffff81111561259e5761259d6119b4565b5b6125aa858286016124a0565b9150509250929050565b600080600080600080600060e0888a0312156125d3576125d26119af565b5b600088013567ffffffffffffffff8111156125f1576125f06119b4565b5b6125fd8a828b01611ad1565b975050602088013567ffffffffffffffff81111561261e5761261d6119b4565b5b61262a8a828b01612244565b965050604088013567ffffffffffffffff81111561264b5761264a6119b4565b5b6126578a828b01612333565b955050606088013567ffffffffffffffff811115612678576126776119b4565b5b6126848a828b01612244565b945050608088013567ffffffffffffffff8111156126a5576126a46119b4565b5b6126b18a828b01612244565b93505060a088013567ffffffffffffffff8111156126d2576126d16119b4565b5b6126de8a828b01612333565b92505060c088013567ffffffffffffffff8111156126ff576126fe6119b4565b5b61270b8a828b01611ad1565b91505092959891949750929550565b6000806000806000806000806000806101408b8d03121561273e5761273d6119af565b5b60008b013567ffffffffffffffff81111561275c5761275b6119b4565b5b6127688d828e01611ad1565b9a505060208b013567ffffffffffffffff811115612789576127886119b4565b5b6127958d828e01612244565b99505060408b013567ffffffffffffffff8111156127b6576127b56119b4565b5b6127c28d828e01612244565b98505060608b013567ffffffffffffffff8111156127e3576127e26119b4565b5b6127ef8d828e01612244565b97505060808b013567ffffffffffffffff8111156128105761280f6119b4565b5b61281c8d828e01612244565b96505060a08b013567ffffffffffffffff81111561283d5761283c6119b4565b5b6128498d828e01612244565b95505060c08b013567ffffffffffffffff81111561286a576128696119b4565b5b6128768d828e01612333565b94505060e08b013567ffffffffffffffff811115612897576128966119b4565b5b6128a38d828e01612244565b9350506101008b013567ffffffffffffffff8111156128c5576128c46119b4565b5b6128d18d828e01612244565b9250506101208b013567ffffffffffffffff8111156128f3576128f26119b4565b5b6128ff8d828e01611ad1565b9150509295989b9194979a5092959850565b600081905092915050565b600061292782611b48565b6129318185612911565b9350612941818560208601611b64565b80840191505092915050565b6000612959828461291c565b915081905092915050565b7f4e487b7100000000000000000000000000000000000000000000000000000000600052602260045260246000fd5b600060028204905060018216806129ab57607f821691505b6020821081036129be576129bd612964565b5b50919050565b60008190508160005260206000209050919050565b60006020601f8301049050919050565b600082821b905092915050565b600060088302612a267fffffffffffffffffffffffffffffffffffffffffffffffffffffffffffffffff826129e9565b612a3086836129e9565b95508019841693508086168417925050509392505050565b6000819050919050565b6000612a6d612a68612a6384611cd7565b612a48565b611cd7565b9050919050565b6000819050919050565b612a8783612a52565b612a9b612a9382612a74565b8484546129f6565b825550505050565b600090565b612ab0612aa3565b612abb818484612a7e565b505050565b5b81811015612adf57612ad4600082612aa8565b600181019050612ac1565b5050565b601f821115612b2457612af5816129c4565b612afe846129d9565b81016020851015612b0d578190505b612b21612b19856129d9565b830182612ac0565b50505b505050565b600082821c905092915050565b6000612b4760001984600802612b29565b1980831691505092915050565b6000612b608383612b36565b9150826002028217905092915050565b612b7982611b48565b67ffffffffffffffff811115612b9257612b916119d4565b5b612b9c8254612993565b612ba7828285612ae3565b600060209050601f831160018114612bda5760008415612bc8578287015190505b612bd28582612b54565b865550612c3a565b601f198416612be8866129c4565b60005b82811015612c1057848901518255600182019150602085019450602081019050612beb565b86831015612c2d5784890151612c29601f891682612b36565b8355505b6001600288020188555050505b505050505050565b600081549050919050565b60008190508160005260206000209050919050565b60008154612c6f81612993565b612c798186611c8d565b94506001821660008114612c945760018114612caa57612cdd565b60ff198316865281151560200286019350612cdd565b612cb3856129c4565b60005b83811015612cd557815481890152600182019150602081019050612cb6565b808801955050505b50505092915050565b60008160001c9050919050565b6000819050919050565b6000612d10612d0b83612ce6565b612cf3565b9050919050565b6000610100830160008084018583036000870152612d358382612c62565b925050600184018583036020870152612d4e8382612c62565b925050600284018583036040870152612d678382612c62565b925050600384018583036060870152612d808382612c62565b925050600484018583036080870152612d998382612c62565b92505060058401549050612dac81612cfd565b612db960a0870182611ce1565b506006840185830360c0870152612dd08382612c62565b9250506007840185830360e0870152612de98382612c62565b925050819250505092915050565b6000612e038383612d17565b905092915050565b6000600882019050919050565b6000612e2382612c42565b612e2d8185611fd9565b935083602082028501612e3f85612c4d565b8060005b85811015612e7a57848403895281612e5b8582612df7565b9450612e6683612e0b565b925060208a01995050600181019050612e43565b50829750879550505050505092915050565b60006040820190508181036000830152612ea68185612e18565b90508181036020830152612eba8184611b8e565b90509392505050565b600081549050919050565b60008190508160005260206000209050919050565b600060a0830160008084018583036000870152612f008382612c62565b92505060018401549050612f1381612cfd565b612f206020870182611ce1565b50600284018583036040870152612f378382612c62565b925050600384018583036060870152612f508382612c62565b92505060048401549050612f6381612cfd565b612f706080870182611ce1565b50819250505092915050565b6000612f888383612ee3565b905092915050565b6000600582019050919050565b6000612fa882612ec3565b612fb28185611c6c565b935083602082028501612fc485612ece565b8060005b85811015612fff57848403895281612fe08582612f7c565b9450612feb83612f90565b925060208a01995050600181019050612fc8565b50829750879550505050505092915050565b6000604082019050818103600083015261302b8185612f9d565b9050818103602083015261303f8184611b8e565b90509392505050565b7f496e70757420617272617973206d7573742068617665207468652073616d652060008201527f6c656e6774680000000000000000000000000000000000000000000000000000602082015250565b60006130a4602683611b53565b91506130af82613048565b604082019050919050565b600060208201905081810360008301526130d381613097565b9050919050565b7f4e487b7100000000000000000000000000000000000000000000000000000000600052603260045260246000fd5b7f4e487b7100000000000000000000000000000000000000000000000000000000600052601160045260246000fd5b600061314382611cd7565b91507fffffffffffffffffffffffffffffffffffffffffffffffffffffffffffffffff820361317557613174613109565b5b600182019050919050565b600081549050919050565b60008190508160005260206000209050919050565b600060808301600080840185830360008701526131bd8382612c62565b9250506001840185830360208701526131d68382612c62565b925050600284015490506131e981612cfd565b6131f66040870182611ce1565b506003840154905061320781612cfd565b6132146060870182611ce1565b50819250505092915050565b600061322c83836131a0565b905092915050565b6000600482019050919050565b600061324c82613180565b6132568185611e37565b9350836020820285016132688561318b565b8060005b858110156132a3578484038952816132848582613220565b945061328f83613234565b925060208a0199505060018101905061326c565b50829750879550505050505092915050565b600060408201905081810360008301526132cf8185613241565b905081810360208301526132e38184611b8e565b9050939250505056fea2646970667358221220d963b8f7e872f7f7f0f84feaa37dbc97b22ac23392b1fa6dd399bddd380c6ac764736f6c63430008130033",
  "immutableReferences": {},
  "source": "// SPDX-License-Identifier: MIT\npragma solidity ^0.8.0;\n\ncontract UserContract {\n    struct UserData {\n        string email;\n        string name;\n        uint256 age;\n    }\n\n    struct EducationInfo {\n        string schoolName;\n        string degree;\n        uint256 startedYear;\n        uint256 graduationYear;\n    }\n\n    struct BankInfo {\n        string bankName;\n        uint256 accountBalance;\n        string accountNumber;\n        string accountType;\n        uint256 accountOpeningDate;\n    }\n\n    struct HospitalInfo {\n        string hospitalName;\n        string doctorName;\n        string name;\n        string symptoms;\n        string diagnosticMethods;\n        uint256 date;\n        string treatmentOptions;\n        string importantInformation;\n    }\n\n    struct UserEducation {\n        EducationInfo[] educationInfos;\n        string ipfsHash;\n    }\n\n    struct UserBank {\n        BankInfo[] bankInfos;\n        string ipfsHash;\n    }\n\n    struct UserHospital {\n        HospitalInfo[] hospitalInfos;\n        string ipfsHash;\n    }\n\n    mapping(string => UserEducation) private educationRecords;\n    mapping(string => UserBank) private bankRecords;\n    mapping(string => UserHospital) private hospitalRecords;\n\n    mapping(string => UserData) users;\n\n    event UserUpdated(\n        string indexed userId,\n        string email,\n        string name,\n        uint256 age\n    );\n\n    event UserEducationUpdated(\n        string indexed userId,\n        EducationInfo[] educationInfos,\n        string ipfsHash\n    );\n\n    event UserBankUpdated(\n        string indexed userId,\n        BankInfo[] bankInfos,\n        string ipfsHash\n    );\n\n    event UserHospitalUpdated(\n        string indexed userId,\n        HospitalInfo[] hospitalInfos,\n        string ipfsHash\n    );\n\n    function setUserData(\n        string memory userId,\n        UserData memory userData\n    ) public {\n        UserData memory newUser = UserData(\n            userData.email,\n            userData.name,\n            userData.age\n        );\n        users[userId] = newUser;\n        emit UserUpdated(userId, userData.email, userData.name, userData.age);\n    }\n\n    function getUserData(\n        string memory userId\n    )\n        public\n        view\n        returns (string memory email, string memory name, uint256 age)\n    {\n        UserData storage user = users[userId];\n        return (user.email, user.name, user.age);\n    }\n\n    // function setEducationRecord(\n    //     string memory userId,\n    //     EducationInfo[] memory educationInfos,\n    //     string memory ipfsHash\n    // ) public {\n    //     UserEducation storage userEducation = educationRecords[userId];\n\n    //     userEducation.educationInfos = educationInfos;\n    //     userEducation.ipfsHash = ipfsHash;\n\n    //     // UserEducation memory newUserEducation = UserEducation(\n    //     //     educationInfos,\n    //     //     ipfsHash\n    //     // );\n\n    //     educationRecords[userId] = userEducation;\n    //     emit UserEducationUpdated(userId, educationInfos, ipfsHash);\n    // }\n\n    function setEducationRecord(\n        string memory userId,\n        string[] memory schoolNames,\n        string[] memory degrees,\n        uint256[] memory startedYears,\n        uint256[] memory graduationYears,\n        string memory ipfsHash\n    ) public {\n        require(\n            schoolNames.length == degrees.length &&\n                degrees.length == startedYears.length &&\n                startedYears.length == graduationYears.length,\n            \"Input arrays must have the same length\"\n        );\n\n        for (uint256 i = 0; i < schoolNames.length; i++) {\n            EducationInfo memory newEducation = EducationInfo({\n                schoolName: schoolNames[i],\n                degree: degrees[i],\n                startedYear: startedYears[i],\n                graduationYear: graduationYears[i]\n            });\n\n            educationRecords[userId].educationInfos.push(newEducation);\n        }\n\n        educationRecords[userId].ipfsHash = ipfsHash;\n\n        emit UserEducationUpdated(\n            userId,\n            educationRecords[userId].educationInfos,\n            ipfsHash\n        );\n    }\n\n    function getEducationRecords(\n        string memory userId\n    ) public view returns (EducationInfo[] memory) {\n        return educationRecords[userId].educationInfos;\n    }\n\n    function setEducationIPFSHash(\n        string memory userId,\n        string memory ipfsHash\n    ) public {\n        UserEducation storage userEducation = educationRecords[userId];\n\n        userEducation.ipfsHash = ipfsHash;\n\n        emit UserEducationUpdated(\n            userId,\n            userEducation.educationInfos,\n            ipfsHash\n        );\n    }\n\n    function getEducationIPFSHash(\n        string memory userId\n    ) public view returns (string memory) {\n        return educationRecords[userId].ipfsHash;\n    }\n\n    function setBankRecord(\n        string memory userId,\n        string[] memory bankNames,\n        uint256[] memory accountBalances,\n        string[] memory accountNumbers,\n        string[] memory accountTypes,\n        uint256[] memory accountOpeningDates,\n        string memory ipfsHash\n    ) public {\n        require(\n            bankNames.length == accountBalances.length &&\n                accountBalances.length == accountNumbers.length &&\n                accountNumbers.length == accountTypes.length &&\n                accountTypes.length == accountOpeningDates.length,\n            \"Input arrays must have the same length\"\n        );\n\n        for (uint256 i = 0; i < bankNames.length; i++) {\n            BankInfo memory newBank = BankInfo({\n                bankName: bankNames[i],\n                accountBalance: accountBalances[i],\n                accountNumber: accountNumbers[i],\n                accountType: accountTypes[i],\n                accountOpeningDate: accountOpeningDates[i]\n            });\n\n            bankRecords[userId].bankInfos.push(newBank);\n        }\n\n        bankRecords[userId].ipfsHash = ipfsHash;\n\n        emit UserBankUpdated(userId, bankRecords[userId].bankInfos, ipfsHash);\n    }\n\n    function getBankRecords(\n        string memory userId\n    ) public view returns (BankInfo[] memory) {\n        return bankRecords[userId].bankInfos;\n    }\n\n    function setBankIPFSHash(\n        string memory userId,\n        string memory ipfsHash\n    ) public {\n        UserBank storage userBank = bankRecords[userId];\n\n        userBank.ipfsHash = ipfsHash;\n\n        emit UserBankUpdated(userId, userBank.bankInfos, ipfsHash);\n    }\n\n    function getBankIPFSHash(\n        string memory userId\n    ) public view returns (string memory) {\n        return bankRecords[userId].ipfsHash;\n    }\n\n    function setHospitalRecord(\n        string memory userId,\n        string[] memory hospitalNames,\n        string[] memory doctorNames,\n        string[] memory names,\n        string[] memory symptomss,\n        string[] memory diagnosticMethodss,\n        uint256[] memory dates,\n        string[] memory treatmentOptionss,\n        string[] memory importantInformations,\n        string memory ipfsHash\n    ) public {\n        require(\n            hospitalNames.length == doctorNames.length &&\n                doctorNames.length == names.length &&\n                names.length == symptomss.length &&\n                symptomss.length == diagnosticMethodss.length &&\n                diagnosticMethodss.length == dates.length &&\n                dates.length == treatmentOptionss.length &&\n                treatmentOptionss.length == importantInformations.length,\n            \"Input arrays must have the same length\"\n        );\n\n        for (uint256 i = 0; i < hospitalNames.length; i++) {\n            HospitalInfo memory newHospital = HospitalInfo({\n                hospitalName: hospitalNames[i],\n                doctorName: doctorNames[i],\n                name: names[i],\n                symptoms: symptomss[i],\n                diagnosticMethods: diagnosticMethodss[i],\n                date: dates[i],\n                treatmentOptions: treatmentOptionss[i],\n                importantInformation: importantInformations[i]\n            });\n\n            hospitalRecords[userId].hospitalInfos.push(newHospital);\n        }\n\n        hospitalRecords[userId].ipfsHash = ipfsHash;\n\n        emit UserHospitalUpdated(\n            userId,\n            hospitalRecords[userId].hospitalInfos,\n            ipfsHash\n        );\n    }\n\n    function getHospitalRecords(\n        string memory userId\n    ) public view returns (HospitalInfo[] memory) {\n        return hospitalRecords[userId].hospitalInfos;\n    }\n\n    function setHospitalIPFSHash(\n        string memory userId,\n        string memory ipfsHash\n    ) public {\n        UserHospital storage userHospital = hospitalRecords[userId];\n\n        userHospital.ipfsHash = ipfsHash;\n\n        emit UserHospitalUpdated(userId, userHospital.hospitalInfos, ipfsHash);\n    }\n\n    function getHospitalIPFSHash(\n        string memory userId\n    ) public view returns (string memory) {\n        return hospitalRecords[userId].ipfsHash;\n    }\n}\n",
  "sourcePath": "/Users/kmlcnclk/Documents/Projects_NEU/my-devlet/contracts/UserContract.sol",
  "compiler": {
    "name": "solc",
    "version": "0.8.19+commit.7dd6d404.Emscripten.clang"
  },
  "schemaVersion": "3.4.15",
  "updatedAt": "2023-10-25T17:57:41.971Z",
  "devdoc": {
    "kind": "dev",
    "methods": {},
    "version": 1
  },
  "userdoc": {
    "kind": "user",
    "methods": {},
    "version": 1
  }
}