{
  "contractName": "UserContract1",
  "abi": [
    {
      "anonymous": false,
      "inputs": [
        {
          "indexed": true,
          "internalType": "string",
          "name": "userId",
          "type": "string"
        },
        {
          "components": [
            {
              "internalType": "string",
              "name": "name",
              "type": "string"
            },
            {
              "internalType": "string",
              "name": "typeOfAsset",
              "type": "string"
            },
            {
              "internalType": "string",
              "name": "description",
              "type": "string"
            },
            {
              "internalType": "string",
              "name": "location",
              "type": "string"
            },
            {
              "internalType": "uint256",
              "name": "purchaseDate",
              "type": "uint256"
            },
            {
              "internalType": "uint256",
              "name": "purchasePrice",
              "type": "uint256"
            },
            {
              "internalType": "string",
              "name": "previousOwner",
              "type": "string"
            }
          ],
          "indexed": false,
          "internalType": "struct UserContract1.AssetInfo[]",
          "name": "assetInfos",
          "type": "tuple[]"
        },
        {
          "indexed": false,
          "internalType": "string",
          "name": "ipfsHash",
          "type": "string"
        }
      ],
      "name": "UserAssetUpdated",
      "type": "event"
    },
    {
      "anonymous": false,
      "inputs": [
        {
          "indexed": true,
          "internalType": "string",
          "name": "userId",
          "type": "string"
        },
        {
          "indexed": false,
          "internalType": "string",
          "name": "email",
          "type": "string"
        },
        {
          "indexed": false,
          "internalType": "string",
          "name": "name",
          "type": "string"
        },
        {
          "indexed": false,
          "internalType": "uint256",
          "name": "age",
          "type": "uint256"
        }
      ],
      "name": "UserUpdated",
      "type": "event"
    },
    {
      "inputs": [
        {
          "internalType": "string",
          "name": "userId",
          "type": "string"
        },
        {
          "components": [
            {
              "internalType": "string",
              "name": "email",
              "type": "string"
            },
            {
              "internalType": "string",
              "name": "name",
              "type": "string"
            },
            {
              "internalType": "uint256",
              "name": "age",
              "type": "uint256"
            }
          ],
          "internalType": "struct UserContract1.UserData",
          "name": "userData",
          "type": "tuple"
        }
      ],
      "name": "setUserData",
      "outputs": [],
      "stateMutability": "nonpayable",
      "type": "function"
    },
    {
      "inputs": [
        {
          "internalType": "string",
          "name": "userId",
          "type": "string"
        }
      ],
      "name": "getUserData",
      "outputs": [
        {
          "internalType": "string",
          "name": "email",
          "type": "string"
        },
        {
          "internalType": "string",
          "name": "name",
          "type": "string"
        },
        {
          "internalType": "uint256",
          "name": "age",
          "type": "uint256"
        }
      ],
      "stateMutability": "view",
      "type": "function"
    },
    {
      "inputs": [
        {
          "internalType": "string",
          "name": "userId",
          "type": "string"
        },
        {
          "internalType": "string[]",
          "name": "names",
          "type": "string[]"
        },
        {
          "internalType": "string[]",
          "name": "typeOfAssets",
          "type": "string[]"
        },
        {
          "internalType": "string[]",
          "name": "descriptions",
          "type": "string[]"
        },
        {
          "internalType": "string[]",
          "name": "locations",
          "type": "string[]"
        },
        {
          "internalType": "uint256[]",
          "name": "purchaseDates",
          "type": "uint256[]"
        },
        {
          "internalType": "uint256[]",
          "name": "purchasePrices",
          "type": "uint256[]"
        },
        {
          "internalType": "string[]",
          "name": "previousOwners",
          "type": "string[]"
        },
        {
          "internalType": "string",
          "name": "ipfsHash",
          "type": "string"
        }
      ],
      "name": "setAssetRecord",
      "outputs": [],
      "stateMutability": "nonpayable",
      "type": "function"
    },
    {
      "inputs": [
        {
          "internalType": "string",
          "name": "userId",
          "type": "string"
        }
      ],
      "name": "getAssetRecords",
      "outputs": [
        {
          "components": [
            {
              "internalType": "string",
              "name": "name",
              "type": "string"
            },
            {
              "internalType": "string",
              "name": "typeOfAsset",
              "type": "string"
            },
            {
              "internalType": "string",
              "name": "description",
              "type": "string"
            },
            {
              "internalType": "string",
              "name": "location",
              "type": "string"
            },
            {
              "internalType": "uint256",
              "name": "purchaseDate",
              "type": "uint256"
            },
            {
              "internalType": "uint256",
              "name": "purchasePrice",
              "type": "uint256"
            },
            {
              "internalType": "string",
              "name": "previousOwner",
              "type": "string"
            }
          ],
          "internalType": "struct UserContract1.AssetInfo[]",
          "name": "",
          "type": "tuple[]"
        }
      ],
      "stateMutability": "view",
      "type": "function"
    },
    {
      "inputs": [
        {
          "internalType": "string",
          "name": "userId",
          "type": "string"
        },
        {
          "internalType": "string",
          "name": "ipfsHash",
          "type": "string"
        }
      ],
      "name": "setAssetIPFSHash",
      "outputs": [],
      "stateMutability": "nonpayable",
      "type": "function"
    },
    {
      "inputs": [
        {
          "internalType": "string",
          "name": "userId",
          "type": "string"
        }
      ],
      "name": "getAssetIPFSHash",
      "outputs": [
        {
          "internalType": "string",
          "name": "",
          "type": "string"
        }
      ],
      "stateMutability": "view",
      "type": "function"
    }
  ],
  "bytecode": "0x608060405234801561001057600080fd5b50611c14806100206000396000f3fe608060405234801561001057600080fd5b50600436106100625760003560e01c806336be5d68146100675780633de353b41461008357806354ab2403146100b3578063be36f174146100e5578063d950431314610101578063ed57160e14610131575b600080fd5b610081600480360381019061007c9190610c9b565b61014d565b005b61009d60048036038101906100989190610d13565b6101d7565b6040516100aa9190610ddb565b60405180910390f35b6100cd60048036038101906100c89190610d13565b61028a565b6040516100dc93929190610e16565b60405180910390f35b6100ff60048036038101906100fa9190610f2d565b6103e3565b005b61011b60048036038101906101169190610d13565b6104c8565b6040516101289190611178565b60405180910390f35b61014b60048036038101906101469190611343565b610836565b005b6000808360405161015e9190611545565b908152602001604051809103902090508181600101908161017f9190611768565b508260405161018e9190611545565b60405180910390207f0e75504658d8f7da833ca990d560e9f28e66c5605d2796eb99b9960f8386779582600001846040516101ca929190611a6f565b60405180910390a2505050565b60606000826040516101e99190611545565b908152602001604051809103902060010180546102059061158b565b80601f01602080910402602001604051908101604052809291908181526020018280546102319061158b565b801561027e5780601f106102535761010080835404028352916020019161027e565b820191906000526020600020905b81548152906001019060200180831161026157829003601f168201915b50505050509050919050565b6060806000806001856040516102a09190611545565b90815260200160405180910390209050806000018160010182600201548280546102c99061158b565b80601f01602080910402602001604051908101604052809291908181526020018280546102f59061158b565b80156103425780601f1061031757610100808354040283529160200191610342565b820191906000526020600020905b81548152906001019060200180831161032557829003601f168201915b505050505092508180546103559061158b565b80601f01602080910402602001604051908101604052809291908181526020018280546103819061158b565b80156103ce5780601f106103a3576101008083540402835291602001916103ce565b820191906000526020600020905b8154815290600101906020018083116103b157829003601f168201915b50505050509150935093509350509193909250565b600060405180606001604052808360000151815260200183602001518152602001836040015181525090508060018460405161041f9190611545565b908152602001604051809103902060008201518160000190816104429190611768565b5060208201518160010190816104589190611768565b5060408201518160020155905050826040516104749190611545565b60405180910390207f4f24336055d992bf20f44d53f6f7e8909075915f2bc6830d7a7963652fcbf7298360000151846020015185604001516040516104bb93929190610e16565b60405180910390a2505050565b60606000826040516104da9190611545565b9081526020016040518091039020600001805480602002602001604051908101604052809291908181526020016000905b8282101561082b57838290600052602060002090600702016040518060e001604052908160008201805461053e9061158b565b80601f016020809104026020016040519081016040528092919081815260200182805461056a9061158b565b80156105b75780601f1061058c576101008083540402835291602001916105b7565b820191906000526020600020905b81548152906001019060200180831161059a57829003601f168201915b505050505081526020016001820180546105d09061158b565b80601f01602080910402602001604051908101604052809291908181526020018280546105fc9061158b565b80156106495780601f1061061e57610100808354040283529160200191610649565b820191906000526020600020905b81548152906001019060200180831161062c57829003601f168201915b505050505081526020016002820180546106629061158b565b80601f016020809104026020016040519081016040528092919081815260200182805461068e9061158b565b80156106db5780601f106106b0576101008083540402835291602001916106db565b820191906000526020600020905b8154815290600101906020018083116106be57829003601f168201915b505050505081526020016003820180546106f49061158b565b80601f01602080910402602001604051908101604052809291908181526020018280546107209061158b565b801561076d5780601f106107425761010080835404028352916020019161076d565b820191906000526020600020905b81548152906001019060200180831161075057829003601f168201915b50505050508152602001600482015481526020016005820154815260200160068201805461079a9061158b565b80601f01602080910402602001604051908101604052809291908181526020018280546107c69061158b565b80156108135780601f106107e857610100808354040283529160200191610813565b820191906000526020600020905b8154815290600101906020018083116107f657829003601f168201915b5050505050815250508152602001906001019061050b565b505050509050919050565b86518851148015610848575085518751145b8015610855575084518651145b8015610862575083518551145b801561086f575082518451145b801561087c575081518351145b6108bb576040517f08c379a00000000000000000000000000000000000000000000000000000000081526004016108b290611b18565b60405180910390fd5b60005b8851811015610a975760006040518060e001604052808b84815181106108e7576108e6611b38565b5b602002602001015181526020018a848151811061090757610906611b38565b5b6020026020010151815260200189848151811061092757610926611b38565b5b6020026020010151815260200188848151811061094757610946611b38565b5b6020026020010151815260200187848151811061096757610966611b38565b5b6020026020010151815260200186848151811061098757610986611b38565b5b602002602001015181526020018584815181106109a7576109a6611b38565b5b6020026020010151815250905060008b6040516109c49190611545565b90815260200160405180910390206000018190806001815401808255809150506001900390600052602060002090600702016000909190919091506000820151816000019081610a149190611768565b506020820151816001019081610a2a9190611768565b506040820151816002019081610a409190611768565b506060820151816003019081610a569190611768565b506080820151816004015560a0820151816005015560c0820151816006019081610a809190611768565b505050508080610a8f90611b96565b9150506108be565b508060008a604051610aa99190611545565b90815260200160405180910390206001019081610ac69190611768565b5088604051610ad59190611545565b60405180910390207f0e75504658d8f7da833ca990d560e9f28e66c5605d2796eb99b9960f8386779560008b604051610b0e9190611545565b908152602001604051809103902060000183604051610b2e929190611a6f565b60405180910390a2505050505050505050565b6000604051905090565b600080fd5b600080fd5b600080fd5b600080fd5b6000601f19601f8301169050919050565b7f4e487b7100000000000000000000000000000000000000000000000000000000600052604160045260246000fd5b610ba882610b5f565b810181811067ffffffffffffffff82111715610bc757610bc6610b70565b5b80604052505050565b6000610bda610b41565b9050610be68282610b9f565b919050565b600067ffffffffffffffff821115610c0657610c05610b70565b5b610c0f82610b5f565b9050602081019050919050565b82818337600083830152505050565b6000610c3e610c3984610beb565b610bd0565b905082815260208101848484011115610c5a57610c59610b5a565b5b610c65848285610c1c565b509392505050565b600082601f830112610c8257610c81610b55565b5b8135610c92848260208601610c2b565b91505092915050565b60008060408385031215610cb257610cb1610b4b565b5b600083013567ffffffffffffffff811115610cd057610ccf610b50565b5b610cdc85828601610c6d565b925050602083013567ffffffffffffffff811115610cfd57610cfc610b50565b5b610d0985828601610c6d565b9150509250929050565b600060208284031215610d2957610d28610b4b565b5b600082013567ffffffffffffffff811115610d4757610d46610b50565b5b610d5384828501610c6d565b91505092915050565b600081519050919050565b600082825260208201905092915050565b60005b83811015610d96578082015181840152602081019050610d7b565b60008484015250505050565b6000610dad82610d5c565b610db78185610d67565b9350610dc7818560208601610d78565b610dd081610b5f565b840191505092915050565b60006020820190508181036000830152610df58184610da2565b905092915050565b6000819050919050565b610e1081610dfd565b82525050565b60006060820190508181036000830152610e308186610da2565b90508181036020830152610e448185610da2565b9050610e536040830184610e07565b949350505050565b600080fd5b600080fd5b610e6e81610dfd565b8114610e7957600080fd5b50565b600081359050610e8b81610e65565b92915050565b600060608284031215610ea757610ea6610e5b565b5b610eb16060610bd0565b9050600082013567ffffffffffffffff811115610ed157610ed0610e60565b5b610edd84828501610c6d565b600083015250602082013567ffffffffffffffff811115610f0157610f00610e60565b5b610f0d84828501610c6d565b6020830152506040610f2184828501610e7c565b60408301525092915050565b60008060408385031215610f4457610f43610b4b565b5b600083013567ffffffffffffffff811115610f6257610f61610b50565b5b610f6e85828601610c6d565b925050602083013567ffffffffffffffff811115610f8f57610f8e610b50565b5b610f9b85828601610e91565b9150509250929050565b600081519050919050565b600082825260208201905092915050565b6000819050602082019050919050565b600082825260208201905092915050565b6000610fed82610d5c565b610ff78185610fd1565b9350611007818560208601610d78565b61101081610b5f565b840191505092915050565b61102481610dfd565b82525050565b600060e08301600083015184820360008601526110478282610fe2565b915050602083015184820360208601526110618282610fe2565b9150506040830151848203604086015261107b8282610fe2565b915050606083015184820360608601526110958282610fe2565b91505060808301516110aa608086018261101b565b5060a08301516110bd60a086018261101b565b5060c083015184820360c08601526110d58282610fe2565b9150508091505092915050565b60006110ee838361102a565b905092915050565b6000602082019050919050565b600061110e82610fa5565b6111188185610fb0565b93508360208202850161112a85610fc1565b8060005b85811015611166578484038952815161114785826110e2565b9450611152836110f6565b925060208a0199505060018101905061112e565b50829750879550505050505092915050565b600060208201905081810360008301526111928184611103565b905092915050565b600067ffffffffffffffff8211156111b5576111b4610b70565b5b602082029050602081019050919050565b600080fd5b60006111de6111d98461119a565b610bd0565b90508083825260208201905060208402830185811115611201576112006111c6565b5b835b8181101561124857803567ffffffffffffffff81111561122657611225610b55565b5b8086016112338982610c6d565b85526020850194505050602081019050611203565b5050509392505050565b600082601f83011261126757611266610b55565b5b81356112778482602086016111cb565b91505092915050565b600067ffffffffffffffff82111561129b5761129a610b70565b5b602082029050602081019050919050565b60006112bf6112ba84611280565b610bd0565b905080838252602082019050602084028301858111156112e2576112e16111c6565b5b835b8181101561130b57806112f78882610e7c565b8452602084019350506020810190506112e4565b5050509392505050565b600082601f83011261132a57611329610b55565b5b813561133a8482602086016112ac565b91505092915050565b60008060008060008060008060006101208a8c03121561136657611365610b4b565b5b60008a013567ffffffffffffffff81111561138457611383610b50565b5b6113908c828d01610c6d565b99505060208a013567ffffffffffffffff8111156113b1576113b0610b50565b5b6113bd8c828d01611252565b98505060408a013567ffffffffffffffff8111156113de576113dd610b50565b5b6113ea8c828d01611252565b97505060608a013567ffffffffffffffff81111561140b5761140a610b50565b5b6114178c828d01611252565b96505060808a013567ffffffffffffffff81111561143857611437610b50565b5b6114448c828d01611252565b95505060a08a013567ffffffffffffffff81111561146557611464610b50565b5b6114718c828d01611315565b94505060c08a013567ffffffffffffffff81111561149257611491610b50565b5b61149e8c828d01611315565b93505060e08a013567ffffffffffffffff8111156114bf576114be610b50565b5b6114cb8c828d01611252565b9250506101008a013567ffffffffffffffff8111156114ed576114ec610b50565b5b6114f98c828d01610c6d565b9150509295985092959850929598565b600081905092915050565b600061151f82610d5c565b6115298185611509565b9350611539818560208601610d78565b80840191505092915050565b60006115518284611514565b915081905092915050565b7f4e487b7100000000000000000000000000000000000000000000000000000000600052602260045260246000fd5b600060028204905060018216806115a357607f821691505b6020821081036115b6576115b561155c565b5b50919050565b60008190508160005260206000209050919050565b60006020601f8301049050919050565b600082821b905092915050565b60006008830261161e7fffffffffffffffffffffffffffffffffffffffffffffffffffffffffffffffff826115e1565b61162886836115e1565b95508019841693508086168417925050509392505050565b6000819050919050565b600061166561166061165b84610dfd565b611640565b610dfd565b9050919050565b6000819050919050565b61167f8361164a565b61169361168b8261166c565b8484546115ee565b825550505050565b600090565b6116a861169b565b6116b3818484611676565b505050565b5b818110156116d7576116cc6000826116a0565b6001810190506116b9565b5050565b601f82111561171c576116ed816115bc565b6116f6846115d1565b81016020851015611705578190505b611719611711856115d1565b8301826116b8565b50505b505050565b600082821c905092915050565b600061173f60001984600802611721565b1980831691505092915050565b6000611758838361172e565b9150826002028217905092915050565b61177182610d5c565b67ffffffffffffffff81111561178a57611789610b70565b5b611794825461158b565b61179f8282856116db565b600060209050601f8311600181146117d257600084156117c0578287015190505b6117ca858261174c565b865550611832565b601f1984166117e0866115bc565b60005b82811015611808578489015182556001820191506020850194506020810190506117e3565b868310156118255784890151611821601f89168261172e565b8355505b6001600288020188555050505b505050505050565b600081549050919050565b60008190508160005260206000209050919050565b600081546118678161158b565b6118718186610fd1565b9450600182166000811461188c57600181146118a2576118d5565b60ff1983168652811515602002860193506118d5565b6118ab856115bc565b60005b838110156118cd578154818901526001820191506020810190506118ae565b808801955050505b50505092915050565b60008160001c9050919050565b6000819050919050565b6000611908611903836118de565b6118eb565b9050919050565b600060e083016000808401858303600087015261192c838261185a565b925050600184018583036020870152611945838261185a565b92505060028401858303604087015261195e838261185a565b925050600384018583036060870152611977838261185a565b9250506004840154905061198a816118f5565b611997608087018261101b565b50600584015490506119a8816118f5565b6119b560a087018261101b565b506006840185830360c08701526119cc838261185a565b925050819250505092915050565b60006119e6838361190f565b905092915050565b6000600782019050919050565b6000611a068261183a565b611a108185610fb0565b935083602082028501611a2285611845565b8060005b85811015611a5d57848403895281611a3e85826119da565b9450611a49836119ee565b925060208a01995050600181019050611a26565b50829750879550505050505092915050565b60006040820190508181036000830152611a8981856119fb565b90508181036020830152611a9d8184610da2565b90509392505050565b7f496e70757420617272617973206d7573742068617665207468652073616d652060008201527f6c656e6774680000000000000000000000000000000000000000000000000000602082015250565b6000611b02602683610d67565b9150611b0d82611aa6565b604082019050919050565b60006020820190508181036000830152611b3181611af5565b9050919050565b7f4e487b7100000000000000000000000000000000000000000000000000000000600052603260045260246000fd5b7f4e487b7100000000000000000000000000000000000000000000000000000000600052601160045260246000fd5b6000611ba182610dfd565b91507fffffffffffffffffffffffffffffffffffffffffffffffffffffffffffffffff8203611bd357611bd2611b67565b5b60018201905091905056fea2646970667358221220ef8b8debd0407a9c898cbd59c8021a582553b1e38c74120af666bfa872d57c4864736f6c63430008130033",
  "immutableReferences": {},
  "source": "// SPDX-License-Identifier: MIT\npragma solidity ^0.8.0;\n\ncontract UserContract1 {\n    struct UserData {\n        string email;\n        string name;\n        uint256 age;\n    }\n\n    struct AssetInfo {\n        string name;\n        string typeOfAsset;\n        string description;\n        string location;\n        uint256 purchaseDate;\n        uint256 purchasePrice;\n        string previousOwner;\n    }\n\n    struct UserAsset {\n        AssetInfo[] assetInfos;\n        string ipfsHash;\n    }\n\n    mapping(string => UserAsset) private assetRecords;\n\n    mapping(string => UserData) users;\n\n    event UserUpdated(\n        string indexed userId,\n        string email,\n        string name,\n        uint256 age\n    );\n\n    event UserAssetUpdated(\n        string indexed userId,\n        AssetInfo[] assetInfos,\n        string ipfsHash\n    );\n\n    function setUserData(\n        string memory userId,\n        UserData memory userData\n    ) public {\n        UserData memory newUser = UserData(\n            userData.email,\n            userData.name,\n            userData.age\n        );\n        users[userId] = newUser;\n        emit UserUpdated(userId, userData.email, userData.name, userData.age);\n    }\n\n    function getUserData(\n        string memory userId\n    )\n        public\n        view\n        returns (string memory email, string memory name, uint256 age)\n    {\n        UserData storage user = users[userId];\n        return (user.email, user.name, user.age);\n    }\n\n    function setAssetRecord(\n        string memory userId,\n        string[] memory names,\n        string[] memory typeOfAssets,\n        string[] memory descriptions,\n        string[] memory locations,\n        uint256[] memory purchaseDates,\n        uint256[] memory purchasePrices,\n        string[] memory previousOwners,\n        string memory ipfsHash\n    ) public {\n        require(\n            names.length == typeOfAssets.length &&\n                typeOfAssets.length == descriptions.length &&\n                descriptions.length == locations.length &&\n                locations.length == purchaseDates.length &&\n                purchaseDates.length == purchasePrices.length &&\n                purchasePrices.length == previousOwners.length,\n            \"Input arrays must have the same length\"\n        );\n\n        for (uint256 i = 0; i < names.length; i++) {\n            AssetInfo memory newAsset = AssetInfo({\n                name: names[i],\n                typeOfAsset: typeOfAssets[i],\n                description: descriptions[i],\n                location: locations[i],\n                purchaseDate: purchaseDates[i],\n                purchasePrice: purchasePrices[i],\n                previousOwner: previousOwners[i]\n            });\n\n            assetRecords[userId].assetInfos.push(newAsset);\n        }\n\n        assetRecords[userId].ipfsHash = ipfsHash;\n\n        emit UserAssetUpdated(\n            userId,\n            assetRecords[userId].assetInfos,\n            ipfsHash\n        );\n    }\n\n    function getAssetRecords(\n        string memory userId\n    ) public view returns (AssetInfo[] memory) {\n        return assetRecords[userId].assetInfos;\n    }\n\n    function setAssetIPFSHash(\n        string memory userId,\n        string memory ipfsHash\n    ) public {\n        UserAsset storage userAsset = assetRecords[userId];\n\n        userAsset.ipfsHash = ipfsHash;\n\n        emit UserAssetUpdated(userId, userAsset.assetInfos, ipfsHash);\n    }\n\n    function getAssetIPFSHash(\n        string memory userId\n    ) public view returns (string memory) {\n        return assetRecords[userId].ipfsHash;\n    }\n}\n",
  "sourcePath": "/Users/kmlcnclk/Documents/Projects_NEU/my-devlet/contracts/UserContract1.sol",
  "compiler": {
    "name": "solc",
    "version": "0.8.19+commit.7dd6d404.Emscripten.clang"
  },
  "schemaVersion": "3.4.15",
  "updatedAt": "2024-01-07T13:34:13.404Z",
  "devdoc": {
    "kind": "dev",
    "methods": {},
    "version": 1
  },
  "userdoc": {
    "kind": "user",
    "methods": {},
    "version": 1
  }
}