{
  "contractName": "UserContract",
  "abi": [
    {
      "anonymous": false,
      "inputs": [
        {
          "indexed": true,
          "internalType": "string",
          "name": "userId",
          "type": "string"
        },
        {
          "components": [
            {
              "internalType": "string",
              "name": "bankName",
              "type": "string"
            },
            {
              "internalType": "uint256",
              "name": "accountBalance",
              "type": "uint256"
            },
            {
              "internalType": "string",
              "name": "accountNumber",
              "type": "string"
            },
            {
              "internalType": "string",
              "name": "accountType",
              "type": "string"
            },
            {
              "internalType": "uint256",
              "name": "accountOpeningDate",
              "type": "uint256"
            }
          ],
          "indexed": false,
          "internalType": "struct UserContract.BankInfo[]",
          "name": "bankInfos",
          "type": "tuple[]"
        },
        {
          "indexed": false,
          "internalType": "string",
          "name": "ipfsHash",
          "type": "string"
        }
      ],
      "name": "UserBankUpdated",
      "type": "event"
    },
    {
      "anonymous": false,
      "inputs": [
        {
          "indexed": true,
          "internalType": "string",
          "name": "userId",
          "type": "string"
        },
        {
          "components": [
            {
              "internalType": "string",
              "name": "schoolName",
              "type": "string"
            },
            {
              "internalType": "string",
              "name": "degree",
              "type": "string"
            },
            {
              "internalType": "uint256",
              "name": "startedYear",
              "type": "uint256"
            },
            {
              "internalType": "uint256",
              "name": "graduationYear",
              "type": "uint256"
            }
          ],
          "indexed": false,
          "internalType": "struct UserContract.EducationInfo[]",
          "name": "educationInfos",
          "type": "tuple[]"
        },
        {
          "indexed": false,
          "internalType": "string",
          "name": "ipfsHash",
          "type": "string"
        }
      ],
      "name": "UserEducationUpdated",
      "type": "event"
    },
    {
      "anonymous": false,
      "inputs": [
        {
          "indexed": true,
          "internalType": "string",
          "name": "userId",
          "type": "string"
        },
        {
          "components": [
            {
              "internalType": "string",
              "name": "hospitalName",
              "type": "string"
            },
            {
              "internalType": "string",
              "name": "doctorName",
              "type": "string"
            },
            {
              "internalType": "string",
              "name": "name",
              "type": "string"
            },
            {
              "internalType": "string",
              "name": "symptoms",
              "type": "string"
            },
            {
              "internalType": "string",
              "name": "diagnosticMethods",
              "type": "string"
            },
            {
              "internalType": "uint256",
              "name": "date",
              "type": "uint256"
            },
            {
              "internalType": "string",
              "name": "treatmentOptions",
              "type": "string"
            },
            {
              "internalType": "string",
              "name": "importantInformation",
              "type": "string"
            }
          ],
          "indexed": false,
          "internalType": "struct UserContract.HospitalInfo[]",
          "name": "hospitalInfos",
          "type": "tuple[]"
        },
        {
          "indexed": false,
          "internalType": "string",
          "name": "ipfsHash",
          "type": "string"
        }
      ],
      "name": "UserHospitalUpdated",
      "type": "event"
    },
    {
      "anonymous": false,
      "inputs": [
        {
          "indexed": true,
          "internalType": "string",
          "name": "userId",
          "type": "string"
        },
        {
          "components": [
            {
              "internalType": "string",
              "name": "title",
              "type": "string"
            },
            {
              "internalType": "string",
              "name": "description",
              "type": "string"
            },
            {
              "internalType": "uint256",
              "name": "date",
              "type": "uint256"
            },
            {
              "internalType": "string",
              "name": "notaryName",
              "type": "string"
            },
            {
              "internalType": "string",
              "name": "typeOfDocument",
              "type": "string"
            },
            {
              "internalType": "string",
              "name": "partiesInvolved",
              "type": "string"
            }
          ],
          "indexed": false,
          "internalType": "struct UserContract.NotaryInfo[]",
          "name": "notaryInfos",
          "type": "tuple[]"
        },
        {
          "indexed": false,
          "internalType": "string",
          "name": "ipfsHash",
          "type": "string"
        }
      ],
      "name": "UserNotaryUpdated",
      "type": "event"
    },
    {
      "anonymous": false,
      "inputs": [
        {
          "indexed": true,
          "internalType": "string",
          "name": "userId",
          "type": "string"
        },
        {
          "indexed": false,
          "internalType": "string",
          "name": "email",
          "type": "string"
        },
        {
          "indexed": false,
          "internalType": "string",
          "name": "name",
          "type": "string"
        },
        {
          "indexed": false,
          "internalType": "uint256",
          "name": "age",
          "type": "uint256"
        }
      ],
      "name": "UserUpdated",
      "type": "event"
    },
    {
      "inputs": [
        {
          "internalType": "string",
          "name": "userId",
          "type": "string"
        },
        {
          "components": [
            {
              "internalType": "string",
              "name": "email",
              "type": "string"
            },
            {
              "internalType": "string",
              "name": "name",
              "type": "string"
            },
            {
              "internalType": "uint256",
              "name": "age",
              "type": "uint256"
            }
          ],
          "internalType": "struct UserContract.UserData",
          "name": "userData",
          "type": "tuple"
        }
      ],
      "name": "setUserData",
      "outputs": [],
      "stateMutability": "nonpayable",
      "type": "function"
    },
    {
      "inputs": [
        {
          "internalType": "string",
          "name": "userId",
          "type": "string"
        }
      ],
      "name": "getUserData",
      "outputs": [
        {
          "internalType": "string",
          "name": "email",
          "type": "string"
        },
        {
          "internalType": "string",
          "name": "name",
          "type": "string"
        },
        {
          "internalType": "uint256",
          "name": "age",
          "type": "uint256"
        }
      ],
      "stateMutability": "view",
      "type": "function"
    },
    {
      "inputs": [
        {
          "internalType": "string",
          "name": "userId",
          "type": "string"
        },
        {
          "internalType": "string[]",
          "name": "schoolNames",
          "type": "string[]"
        },
        {
          "internalType": "string[]",
          "name": "degrees",
          "type": "string[]"
        },
        {
          "internalType": "uint256[]",
          "name": "startedYears",
          "type": "uint256[]"
        },
        {
          "internalType": "uint256[]",
          "name": "graduationYears",
          "type": "uint256[]"
        },
        {
          "internalType": "string",
          "name": "ipfsHash",
          "type": "string"
        }
      ],
      "name": "setEducationRecord",
      "outputs": [],
      "stateMutability": "nonpayable",
      "type": "function"
    },
    {
      "inputs": [
        {
          "internalType": "string",
          "name": "userId",
          "type": "string"
        }
      ],
      "name": "getEducationRecords",
      "outputs": [
        {
          "components": [
            {
              "internalType": "string",
              "name": "schoolName",
              "type": "string"
            },
            {
              "internalType": "string",
              "name": "degree",
              "type": "string"
            },
            {
              "internalType": "uint256",
              "name": "startedYear",
              "type": "uint256"
            },
            {
              "internalType": "uint256",
              "name": "graduationYear",
              "type": "uint256"
            }
          ],
          "internalType": "struct UserContract.EducationInfo[]",
          "name": "",
          "type": "tuple[]"
        }
      ],
      "stateMutability": "view",
      "type": "function"
    },
    {
      "inputs": [
        {
          "internalType": "string",
          "name": "userId",
          "type": "string"
        },
        {
          "internalType": "string",
          "name": "ipfsHash",
          "type": "string"
        }
      ],
      "name": "setEducationIPFSHash",
      "outputs": [],
      "stateMutability": "nonpayable",
      "type": "function"
    },
    {
      "inputs": [
        {
          "internalType": "string",
          "name": "userId",
          "type": "string"
        }
      ],
      "name": "getEducationIPFSHash",
      "outputs": [
        {
          "internalType": "string",
          "name": "",
          "type": "string"
        }
      ],
      "stateMutability": "view",
      "type": "function"
    },
    {
      "inputs": [
        {
          "internalType": "string",
          "name": "userId",
          "type": "string"
        },
        {
          "internalType": "string[]",
          "name": "bankNames",
          "type": "string[]"
        },
        {
          "internalType": "uint256[]",
          "name": "accountBalances",
          "type": "uint256[]"
        },
        {
          "internalType": "string[]",
          "name": "accountNumbers",
          "type": "string[]"
        },
        {
          "internalType": "string[]",
          "name": "accountTypes",
          "type": "string[]"
        },
        {
          "internalType": "uint256[]",
          "name": "accountOpeningDates",
          "type": "uint256[]"
        },
        {
          "internalType": "string",
          "name": "ipfsHash",
          "type": "string"
        }
      ],
      "name": "setBankRecord",
      "outputs": [],
      "stateMutability": "nonpayable",
      "type": "function"
    },
    {
      "inputs": [
        {
          "internalType": "string",
          "name": "userId",
          "type": "string"
        }
      ],
      "name": "getBankRecords",
      "outputs": [
        {
          "components": [
            {
              "internalType": "string",
              "name": "bankName",
              "type": "string"
            },
            {
              "internalType": "uint256",
              "name": "accountBalance",
              "type": "uint256"
            },
            {
              "internalType": "string",
              "name": "accountNumber",
              "type": "string"
            },
            {
              "internalType": "string",
              "name": "accountType",
              "type": "string"
            },
            {
              "internalType": "uint256",
              "name": "accountOpeningDate",
              "type": "uint256"
            }
          ],
          "internalType": "struct UserContract.BankInfo[]",
          "name": "",
          "type": "tuple[]"
        }
      ],
      "stateMutability": "view",
      "type": "function"
    },
    {
      "inputs": [
        {
          "internalType": "string",
          "name": "userId",
          "type": "string"
        },
        {
          "internalType": "string",
          "name": "ipfsHash",
          "type": "string"
        }
      ],
      "name": "setBankIPFSHash",
      "outputs": [],
      "stateMutability": "nonpayable",
      "type": "function"
    },
    {
      "inputs": [
        {
          "internalType": "string",
          "name": "userId",
          "type": "string"
        }
      ],
      "name": "getBankIPFSHash",
      "outputs": [
        {
          "internalType": "string",
          "name": "",
          "type": "string"
        }
      ],
      "stateMutability": "view",
      "type": "function"
    },
    {
      "inputs": [
        {
          "internalType": "string",
          "name": "userId",
          "type": "string"
        },
        {
          "internalType": "string[]",
          "name": "hospitalNames",
          "type": "string[]"
        },
        {
          "internalType": "string[]",
          "name": "doctorNames",
          "type": "string[]"
        },
        {
          "internalType": "string[]",
          "name": "names",
          "type": "string[]"
        },
        {
          "internalType": "string[]",
          "name": "symptomss",
          "type": "string[]"
        },
        {
          "internalType": "string[]",
          "name": "diagnosticMethodss",
          "type": "string[]"
        },
        {
          "internalType": "uint256[]",
          "name": "dates",
          "type": "uint256[]"
        },
        {
          "internalType": "string[]",
          "name": "treatmentOptionss",
          "type": "string[]"
        },
        {
          "internalType": "string[]",
          "name": "importantInformations",
          "type": "string[]"
        },
        {
          "internalType": "string",
          "name": "ipfsHash",
          "type": "string"
        }
      ],
      "name": "setHospitalRecord",
      "outputs": [],
      "stateMutability": "nonpayable",
      "type": "function"
    },
    {
      "inputs": [
        {
          "internalType": "string",
          "name": "userId",
          "type": "string"
        }
      ],
      "name": "getHospitalRecords",
      "outputs": [
        {
          "components": [
            {
              "internalType": "string",
              "name": "hospitalName",
              "type": "string"
            },
            {
              "internalType": "string",
              "name": "doctorName",
              "type": "string"
            },
            {
              "internalType": "string",
              "name": "name",
              "type": "string"
            },
            {
              "internalType": "string",
              "name": "symptoms",
              "type": "string"
            },
            {
              "internalType": "string",
              "name": "diagnosticMethods",
              "type": "string"
            },
            {
              "internalType": "uint256",
              "name": "date",
              "type": "uint256"
            },
            {
              "internalType": "string",
              "name": "treatmentOptions",
              "type": "string"
            },
            {
              "internalType": "string",
              "name": "importantInformation",
              "type": "string"
            }
          ],
          "internalType": "struct UserContract.HospitalInfo[]",
          "name": "",
          "type": "tuple[]"
        }
      ],
      "stateMutability": "view",
      "type": "function"
    },
    {
      "inputs": [
        {
          "internalType": "string",
          "name": "userId",
          "type": "string"
        },
        {
          "internalType": "string",
          "name": "ipfsHash",
          "type": "string"
        }
      ],
      "name": "setHospitalIPFSHash",
      "outputs": [],
      "stateMutability": "nonpayable",
      "type": "function"
    },
    {
      "inputs": [
        {
          "internalType": "string",
          "name": "userId",
          "type": "string"
        }
      ],
      "name": "getHospitalIPFSHash",
      "outputs": [
        {
          "internalType": "string",
          "name": "",
          "type": "string"
        }
      ],
      "stateMutability": "view",
      "type": "function"
    },
    {
      "inputs": [
        {
          "internalType": "string",
          "name": "userId",
          "type": "string"
        },
        {
          "internalType": "string[]",
          "name": "titles",
          "type": "string[]"
        },
        {
          "internalType": "string[]",
          "name": "descriptions",
          "type": "string[]"
        },
        {
          "internalType": "uint256[]",
          "name": "dates",
          "type": "uint256[]"
        },
        {
          "internalType": "string[]",
          "name": "notaryNames",
          "type": "string[]"
        },
        {
          "internalType": "string[]",
          "name": "typeOfDocuments",
          "type": "string[]"
        },
        {
          "internalType": "string[]",
          "name": "partiesInvolveds",
          "type": "string[]"
        },
        {
          "internalType": "string",
          "name": "ipfsHash",
          "type": "string"
        }
      ],
      "name": "setNotaryRecord",
      "outputs": [],
      "stateMutability": "nonpayable",
      "type": "function"
    },
    {
      "inputs": [
        {
          "internalType": "string",
          "name": "userId",
          "type": "string"
        }
      ],
      "name": "getNotaryRecords",
      "outputs": [
        {
          "components": [
            {
              "internalType": "string",
              "name": "title",
              "type": "string"
            },
            {
              "internalType": "string",
              "name": "description",
              "type": "string"
            },
            {
              "internalType": "uint256",
              "name": "date",
              "type": "uint256"
            },
            {
              "internalType": "string",
              "name": "notaryName",
              "type": "string"
            },
            {
              "internalType": "string",
              "name": "typeOfDocument",
              "type": "string"
            },
            {
              "internalType": "string",
              "name": "partiesInvolved",
              "type": "string"
            }
          ],
          "internalType": "struct UserContract.NotaryInfo[]",
          "name": "",
          "type": "tuple[]"
        }
      ],
      "stateMutability": "view",
      "type": "function"
    },
    {
      "inputs": [
        {
          "internalType": "string",
          "name": "userId",
          "type": "string"
        },
        {
          "internalType": "string",
          "name": "ipfsHash",
          "type": "string"
        }
      ],
      "name": "setNotaryIPFSHash",
      "outputs": [],
      "stateMutability": "nonpayable",
      "type": "function"
    },
    {
      "inputs": [
        {
          "internalType": "string",
          "name": "userId",
          "type": "string"
        }
      ],
      "name": "getNotaryIPFSHash",
      "outputs": [
        {
          "internalType": "string",
          "name": "",
          "type": "string"
        }
      ],
      "stateMutability": "view",
      "type": "function"
    }
  ],
  "bytecode": "0x608060405234801561001057600080fd5b50614013806100206000396000f3fe608060405234801561001057600080fd5b50600436106101165760003560e01c80637d29e5a3116100a2578063be36f17411610071578063be36f1741461033d578063cbe7360c14610359578063e63f9d2514610375578063f402c2c914610391578063f6166379146103ad57610116565b80637d29e5a3146102a557806386c37fb6146102d5578063a4c9f0be14610305578063b1f441ef1461032157610116565b806335ce3833116100e957806335ce3833146101c75780634402db82146101f75780634f2cd1251461022757806354ab2403146102575780636ede93831461028957610116565b806309ac51731461011b5780630c793d7c1461014b57806324ca04d51461017b5780633152e804146101ab575b600080fd5b61013560048036038101906101309190612338565b6103c9565b6040516101429190612400565b60405180910390f35b61016560048036038101906101609190612338565b61047c565b6040516101729190612400565b60405180910390f35b61019560048036038101906101909190612338565b61052f565b6040516101a29190612400565b60405180910390f35b6101c560048036038101906101c09190612422565b6105e2565b005b6101e160048036038101906101dc9190612338565b61066d565b6040516101ee9190612400565b60405180910390f35b610211600480360381019061020c9190612338565b610720565b60405161021e9190612643565b60405180910390f35b610241600480360381019061023c9190612338565b61096a565b60405161024e9190612791565b60405180910390f35b610271600480360381019061026c9190612338565b610b22565b604051610280939291906127c2565b60405180910390f35b6102a3600480360381019061029e91906129dc565b610c7b565b005b6102bf60048036038101906102ba9190612338565b610f4e565b6040516102cc9190612cd9565b60405180910390f35b6102ef60048036038101906102ea9190612338565b6112b2565b6040516102fc9190612e97565b60405180910390f35b61031f600480360381019061031a9190612422565b61173b565b005b61033b60048036038101906103369190612eb9565b6117c6565b005b61035760048036038101906103529190613094565b611a05565b005b610373600480360381019061036e919061310c565b611aea565b005b61038f600480360381019061038a9190613272565b611d6d565b005b6103ab60048036038101906103a69190612422565b6120c9565b005b6103c760048036038101906103c29190612422565b612153565b005b60606003826040516103db91906134a5565b908152602001604051809103902060010180546103f7906134eb565b80601f0160208091040260200160405190810160405280929190818152602001828054610423906134eb565b80156104705780601f1061044557610100808354040283529160200191610470565b820191906000526020600020905b81548152906001019060200180831161045357829003601f168201915b50505050509050919050565b606060008260405161048e91906134a5565b908152602001604051809103902060010180546104aa906134eb565b80601f01602080910402602001604051908101604052809291908181526020018280546104d6906134eb565b80156105235780601f106104f857610100808354040283529160200191610523565b820191906000526020600020905b81548152906001019060200180831161050657829003601f168201915b50505050509050919050565b606060018260405161054191906134a5565b9081526020016040518091039020600101805461055d906134eb565b80601f0160208091040260200160405190810160405280929190818152602001828054610589906134eb565b80156105d65780601f106105ab576101008083540402835291602001916105d6565b820191906000526020600020905b8154815290600101906020018083116105b957829003601f168201915b50505050509050919050565b60006002836040516105f491906134a5565b908152602001604051809103902090508181600101908161061591906136c8565b508260405161062491906134a5565b60405180910390207f5f60f857012493da3c65fcf0df4c087fbd203856172f2658031a4305573ea12f82600001846040516106609291906139e4565b60405180910390a2505050565b606060028260405161067f91906134a5565b9081526020016040518091039020600101805461069b906134eb565b80601f01602080910402602001604051908101604052809291908181526020018280546106c7906134eb565b80156107145780601f106106e957610100808354040283529160200191610714565b820191906000526020600020905b8154815290600101906020018083116106f757829003601f168201915b50505050509050919050565b606060018260405161073291906134a5565b9081526020016040518091039020600001805480602002602001604051908101604052809291908181526020016000905b8282101561095f57838290600052602060002090600502016040518060a0016040529081600082018054610796906134eb565b80601f01602080910402602001604051908101604052809291908181526020018280546107c2906134eb565b801561080f5780601f106107e45761010080835404028352916020019161080f565b820191906000526020600020905b8154815290600101906020018083116107f257829003601f168201915b5050505050815260200160018201548152602001600282018054610832906134eb565b80601f016020809104026020016040519081016040528092919081815260200182805461085e906134eb565b80156108ab5780601f10610880576101008083540402835291602001916108ab565b820191906000526020600020905b81548152906001019060200180831161088e57829003601f168201915b505050505081526020016003820180546108c4906134eb565b80601f01602080910402602001604051908101604052809291908181526020018280546108f0906134eb565b801561093d5780601f106109125761010080835404028352916020019161093d565b820191906000526020600020905b81548152906001019060200180831161092057829003601f168201915b5050505050815260200160048201548152505081526020019060010190610763565b505050509050919050565b606060008260405161097c91906134a5565b9081526020016040518091039020600001805480602002602001604051908101604052809291908181526020016000905b82821015610b1757838290600052602060002090600402016040518060800160405290816000820180546109e0906134eb565b80601f0160208091040260200160405190810160405280929190818152602001828054610a0c906134eb565b8015610a595780601f10610a2e57610100808354040283529160200191610a59565b820191906000526020600020905b815481529060010190602001808311610a3c57829003601f168201915b50505050508152602001600182018054610a72906134eb565b80601f0160208091040260200160405190810160405280929190818152602001828054610a9e906134eb565b8015610aeb5780601f10610ac057610100808354040283529160200191610aeb565b820191906000526020600020905b815481529060010190602001808311610ace57829003601f168201915b5050505050815260200160028201548152602001600382015481525050815260200190600101906109ad565b505050509050919050565b606080600080600485604051610b3891906134a5565b9081526020016040518091039020905080600001816001018260020154828054610b61906134eb565b80601f0160208091040260200160405190810160405280929190818152602001828054610b8d906134eb565b8015610bda5780601f10610baf57610100808354040283529160200191610bda565b820191906000526020600020905b815481529060010190602001808311610bbd57829003601f168201915b50505050509250818054610bed906134eb565b80601f0160208091040260200160405190810160405280929190818152602001828054610c19906134eb565b8015610c665780601f10610c3b57610100808354040283529160200191610c66565b820191906000526020600020905b815481529060010190602001808311610c4957829003601f168201915b50505050509150935093509350509193909250565b85518751148015610c8d575084518651145b8015610c9a575083518551145b8015610ca7575082518451145b8015610cb4575081518351145b610cf3576040517f08c379a0000000000000000000000000000000000000000000000000000000008152600401610cea90613a8d565b60405180910390fd5b60005b8751811015610ea55760006040518060c001604052808a8481518110610d1f57610d1e613aad565b5b60200260200101518152602001898481518110610d3f57610d3e613aad565b5b60200260200101518152602001888481518110610d5f57610d5e613aad565b5b60200260200101518152602001878481518110610d7f57610d7e613aad565b5b60200260200101518152602001868481518110610d9f57610d9e613aad565b5b60200260200101518152602001858481518110610dbf57610dbe613aad565b5b6020026020010151815250905060038a604051610ddc91906134a5565b90815260200160405180910390206000018190806001815401808255809150506001900390600052602060002090600602016000909190919091506000820151816000019081610e2c91906136c8565b506020820151816001019081610e4291906136c8565b50604082015181600201556060820151816003019081610e6291906136c8565b506080820151816004019081610e7891906136c8565b5060a0820151816005019081610e8e91906136c8565b505050508080610e9d90613b0b565b915050610cf6565b5080600389604051610eb791906134a5565b90815260200160405180910390206001019081610ed491906136c8565b5087604051610ee391906134a5565b60405180910390207f631949410f916403288729dc6612564d8010e74289fbb57d82a64f3494ac3bbe60038a604051610f1c91906134a5565b908152602001604051809103902060000183604051610f3c929190613cb5565b60405180910390a25050505050505050565b6060600382604051610f6091906134a5565b9081526020016040518091039020600001805480602002602001604051908101604052809291908181526020016000905b828210156112a757838290600052602060002090600602016040518060c0016040529081600082018054610fc4906134eb565b80601f0160208091040260200160405190810160405280929190818152602001828054610ff0906134eb565b801561103d5780601f106110125761010080835404028352916020019161103d565b820191906000526020600020905b81548152906001019060200180831161102057829003601f168201915b50505050508152602001600182018054611056906134eb565b80601f0160208091040260200160405190810160405280929190818152602001828054611082906134eb565b80156110cf5780601f106110a4576101008083540402835291602001916110cf565b820191906000526020600020905b8154815290600101906020018083116110b257829003601f168201915b50505050508152602001600282015481526020016003820180546110f2906134eb565b80601f016020809104026020016040519081016040528092919081815260200182805461111e906134eb565b801561116b5780601f106111405761010080835404028352916020019161116b565b820191906000526020600020905b81548152906001019060200180831161114e57829003601f168201915b50505050508152602001600482018054611184906134eb565b80601f01602080910402602001604051908101604052809291908181526020018280546111b0906134eb565b80156111fd5780601f106111d2576101008083540402835291602001916111fd565b820191906000526020600020905b8154815290600101906020018083116111e057829003601f168201915b50505050508152602001600582018054611216906134eb565b80601f0160208091040260200160405190810160405280929190818152602001828054611242906134eb565b801561128f5780601f106112645761010080835404028352916020019161128f565b820191906000526020600020905b81548152906001019060200180831161127257829003601f168201915b50505050508152505081526020019060010190610f91565b505050509050919050565b60606002826040516112c491906134a5565b9081526020016040518091039020600001805480602002602001604051908101604052809291908181526020016000905b82821015611730578382906000526020600020906008020160405180610100016040529081600082018054611329906134eb565b80601f0160208091040260200160405190810160405280929190818152602001828054611355906134eb565b80156113a25780601f10611377576101008083540402835291602001916113a2565b820191906000526020600020905b81548152906001019060200180831161138557829003601f168201915b505050505081526020016001820180546113bb906134eb565b80601f01602080910402602001604051908101604052809291908181526020018280546113e7906134eb565b80156114345780601f1061140957610100808354040283529160200191611434565b820191906000526020600020905b81548152906001019060200180831161141757829003601f168201915b5050505050815260200160028201805461144d906134eb565b80601f0160208091040260200160405190810160405280929190818152602001828054611479906134eb565b80156114c65780601f1061149b576101008083540402835291602001916114c6565b820191906000526020600020905b8154815290600101906020018083116114a957829003601f168201915b505050505081526020016003820180546114df906134eb565b80601f016020809104026020016040519081016040528092919081815260200182805461150b906134eb565b80156115585780601f1061152d57610100808354040283529160200191611558565b820191906000526020600020905b81548152906001019060200180831161153b57829003601f168201915b50505050508152602001600482018054611571906134eb565b80601f016020809104026020016040519081016040528092919081815260200182805461159d906134eb565b80156115ea5780601f106115bf576101008083540402835291602001916115ea565b820191906000526020600020905b8154815290600101906020018083116115cd57829003601f168201915b505050505081526020016005820154815260200160068201805461160d906134eb565b80601f0160208091040260200160405190810160405280929190818152602001828054611639906134eb565b80156116865780601f1061165b57610100808354040283529160200191611686565b820191906000526020600020905b81548152906001019060200180831161166957829003601f168201915b5050505050815260200160078201805461169f906134eb565b80601f01602080910402602001604051908101604052809291908181526020018280546116cb906134eb565b80156117185780601f106116ed57610100808354040283529160200191611718565b820191906000526020600020905b8154815290600101906020018083116116fb57829003601f168201915b505050505081525050815260200190600101906112f5565b505050509050919050565b600060018360405161174d91906134a5565b908152602001604051809103902090508181600101908161176e91906136c8565b508260405161177d91906134a5565b60405180910390207f7b1ac6b8cbddaca0fca5e3db838619d5943ce7fec69918b95811c7a43ddfa4fc82600001846040516117b9929190613e3a565b60405180910390a2505050565b835185511480156117d8575082518451145b80156117e5575081518351145b611824576040517f08c379a000000000000000000000000000000000000000000000000000000000815260040161181b90613a8d565b60405180910390fd5b60005b855181101561195e57600060405180608001604052808884815181106118505761184f613aad565b5b602002602001015181526020018784815181106118705761186f613aad565b5b602002602001015181526020018684815181106118905761188f613aad565b5b602002602001015181526020018584815181106118b0576118af613aad565b5b602002602001015181525090506000886040516118cd91906134a5565b9081526020016040518091039020600001819080600181540180825580915050600190039060005260206000209060040201600090919091909150600082015181600001908161191d91906136c8565b50602082015181600101908161193391906136c8565b506040820151816002015560608201518160030155505050808061195690613b0b565b915050611827565b508060008760405161197091906134a5565b9081526020016040518091039020600101908161198d91906136c8565b508560405161199c91906134a5565b60405180910390207fe1d458654f5707c5b4f344ea06155edfde34c4ca973c5e3647fa8b32f2b31db46000886040516119d591906134a5565b9081526020016040518091039020600001836040516119f5929190613fa6565b60405180910390a2505050505050565b6000604051806060016040528083600001518152602001836020015181526020018360400151815250905080600484604051611a4191906134a5565b90815260200160405180910390206000820151816000019081611a6491906136c8565b506020820151816001019081611a7a91906136c8565b506040820151816002015590505082604051611a9691906134a5565b60405180910390207f4f24336055d992bf20f44d53f6f7e8909075915f2bc6830d7a7963652fcbf729836000015184602001518560400151604051611add939291906127c2565b60405180910390a2505050565b84518651148015611afc575083518551145b8015611b09575082518451145b8015611b16575081518351145b611b55576040517f08c379a0000000000000000000000000000000000000000000000000000000008152600401611b4c90613a8d565b60405180910390fd5b60005b8651811015611cc55760006040518060a00160405280898481518110611b8157611b80613aad565b5b60200260200101518152602001888481518110611ba157611ba0613aad565b5b60200260200101518152602001878481518110611bc157611bc0613aad565b5b60200260200101518152602001868481518110611be157611be0613aad565b5b60200260200101518152602001858481518110611c0157611c00613aad565b5b60200260200101518152509050600189604051611c1e91906134a5565b90815260200160405180910390206000018190806001815401808255809150506001900390600052602060002090600502016000909190919091506000820151816000019081611c6e91906136c8565b50602082015181600101556040820151816002019081611c8e91906136c8565b506060820151816003019081611ca491906136c8565b50608082015181600401555050508080611cbd90613b0b565b915050611b58565b5080600188604051611cd791906134a5565b90815260200160405180910390206001019081611cf491906136c8565b5086604051611d0391906134a5565b60405180910390207f7b1ac6b8cbddaca0fca5e3db838619d5943ce7fec69918b95811c7a43ddfa4fc600189604051611d3c91906134a5565b908152602001604051809103902060000183604051611d5c929190613e3a565b60405180910390a250505050505050565b87518951148015611d7f575086518851145b8015611d8c575085518751145b8015611d99575084518651145b8015611da6575083518551145b8015611db3575082518451145b8015611dc0575081518351145b611dff576040517f08c379a0000000000000000000000000000000000000000000000000000000008152600401611df690613a8d565b60405180910390fd5b60005b895181101561201e5760006040518061010001604052808c8481518110611e2c57611e2b613aad565b5b602002602001015181526020018b8481518110611e4c57611e4b613aad565b5b602002602001015181526020018a8481518110611e6c57611e6b613aad565b5b60200260200101518152602001898481518110611e8c57611e8b613aad565b5b60200260200101518152602001888481518110611eac57611eab613aad565b5b60200260200101518152602001878481518110611ecc57611ecb613aad565b5b60200260200101518152602001868481518110611eec57611eeb613aad565b5b60200260200101518152602001858481518110611f0c57611f0b613aad565b5b6020026020010151815250905060028c604051611f2991906134a5565b90815260200160405180910390206000018190806001815401808255809150506001900390600052602060002090600802016000909190919091506000820151816000019081611f7991906136c8565b506020820151816001019081611f8f91906136c8565b506040820151816002019081611fa591906136c8565b506060820151816003019081611fbb91906136c8565b506080820151816004019081611fd191906136c8565b5060a0820151816005015560c0820151816006019081611ff191906136c8565b5060e082015181600701908161200791906136c8565b50505050808061201690613b0b565b915050611e02565b508060028b60405161203091906134a5565b9081526020016040518091039020600101908161204d91906136c8565b508960405161205c91906134a5565b60405180910390207f5f60f857012493da3c65fcf0df4c087fbd203856172f2658031a4305573ea12f60028c60405161209591906134a5565b9081526020016040518091039020600001836040516120b59291906139e4565b60405180910390a250505050505050505050565b600080836040516120da91906134a5565b90815260200160405180910390209050818160010190816120fb91906136c8565b508260405161210a91906134a5565b60405180910390207fe1d458654f5707c5b4f344ea06155edfde34c4ca973c5e3647fa8b32f2b31db48260000184604051612146929190613fa6565b60405180910390a2505050565b600060038360405161216591906134a5565b908152602001604051809103902090508181600101908161218691906136c8565b508260405161219591906134a5565b60405180910390207f631949410f916403288729dc6612564d8010e74289fbb57d82a64f3494ac3bbe82600001846040516121d1929190613cb5565b60405180910390a2505050565b6000604051905090565b600080fd5b600080fd5b600080fd5b600080fd5b6000601f19601f8301169050919050565b7f4e487b7100000000000000000000000000000000000000000000000000000000600052604160045260246000fd5b612245826121fc565b810181811067ffffffffffffffff821117156122645761226361220d565b5b80604052505050565b60006122776121de565b9050612283828261223c565b919050565b600067ffffffffffffffff8211156122a3576122a261220d565b5b6122ac826121fc565b9050602081019050919050565b82818337600083830152505050565b60006122db6122d684612288565b61226d565b9050828152602081018484840111156122f7576122f66121f7565b5b6123028482856122b9565b509392505050565b600082601f83011261231f5761231e6121f2565b5b813561232f8482602086016122c8565b91505092915050565b60006020828403121561234e5761234d6121e8565b5b600082013567ffffffffffffffff81111561236c5761236b6121ed565b5b6123788482850161230a565b91505092915050565b600081519050919050565b600082825260208201905092915050565b60005b838110156123bb5780820151818401526020810190506123a0565b60008484015250505050565b60006123d282612381565b6123dc818561238c565b93506123ec81856020860161239d565b6123f5816121fc565b840191505092915050565b6000602082019050818103600083015261241a81846123c7565b905092915050565b60008060408385031215612439576124386121e8565b5b600083013567ffffffffffffffff811115612457576124566121ed565b5b6124638582860161230a565b925050602083013567ffffffffffffffff811115612484576124836121ed565b5b6124908582860161230a565b9150509250929050565b600081519050919050565b600082825260208201905092915050565b6000819050602082019050919050565b600082825260208201905092915050565b60006124e282612381565b6124ec81856124c6565b93506124fc81856020860161239d565b612505816121fc565b840191505092915050565b6000819050919050565b61252381612510565b82525050565b600060a083016000830151848203600086015261254682826124d7565b915050602083015161255b602086018261251a565b506040830151848203604086015261257382826124d7565b9150506060830151848203606086015261258d82826124d7565b91505060808301516125a2608086018261251a565b508091505092915050565b60006125b98383612529565b905092915050565b6000602082019050919050565b60006125d98261249a565b6125e381856124a5565b9350836020820285016125f5856124b6565b8060005b85811015612631578484038952815161261285826125ad565b945061261d836125c1565b925060208a019950506001810190506125f9565b50829750879550505050505092915050565b6000602082019050818103600083015261265d81846125ce565b905092915050565b600081519050919050565b600082825260208201905092915050565b6000819050602082019050919050565b600060808301600083015184820360008601526126ae82826124d7565b915050602083015184820360208601526126c882826124d7565b91505060408301516126dd604086018261251a565b5060608301516126f0606086018261251a565b508091505092915050565b60006127078383612691565b905092915050565b6000602082019050919050565b600061272782612665565b6127318185612670565b93508360208202850161274385612681565b8060005b8581101561277f578484038952815161276085826126fb565b945061276b8361270f565b925060208a01995050600181019050612747565b50829750879550505050505092915050565b600060208201905081810360008301526127ab818461271c565b905092915050565b6127bc81612510565b82525050565b600060608201905081810360008301526127dc81866123c7565b905081810360208301526127f081856123c7565b90506127ff60408301846127b3565b949350505050565b600067ffffffffffffffff8211156128225761282161220d565b5b602082029050602081019050919050565b600080fd5b600061284b61284684612807565b61226d565b9050808382526020820190506020840283018581111561286e5761286d612833565b5b835b818110156128b557803567ffffffffffffffff811115612893576128926121f2565b5b8086016128a0898261230a565b85526020850194505050602081019050612870565b5050509392505050565b600082601f8301126128d4576128d36121f2565b5b81356128e4848260208601612838565b91505092915050565b600067ffffffffffffffff8211156129085761290761220d565b5b602082029050602081019050919050565b61292281612510565b811461292d57600080fd5b50565b60008135905061293f81612919565b92915050565b6000612958612953846128ed565b61226d565b9050808382526020820190506020840283018581111561297b5761297a612833565b5b835b818110156129a457806129908882612930565b84526020840193505060208101905061297d565b5050509392505050565b600082601f8301126129c3576129c26121f2565b5b81356129d3848260208601612945565b91505092915050565b600080600080600080600080610100898b0312156129fd576129fc6121e8565b5b600089013567ffffffffffffffff811115612a1b57612a1a6121ed565b5b612a278b828c0161230a565b985050602089013567ffffffffffffffff811115612a4857612a476121ed565b5b612a548b828c016128bf565b975050604089013567ffffffffffffffff811115612a7557612a746121ed565b5b612a818b828c016128bf565b965050606089013567ffffffffffffffff811115612aa257612aa16121ed565b5b612aae8b828c016129ae565b955050608089013567ffffffffffffffff811115612acf57612ace6121ed565b5b612adb8b828c016128bf565b94505060a089013567ffffffffffffffff811115612afc57612afb6121ed565b5b612b088b828c016128bf565b93505060c089013567ffffffffffffffff811115612b2957612b286121ed565b5b612b358b828c016128bf565b92505060e089013567ffffffffffffffff811115612b5657612b556121ed565b5b612b628b828c0161230a565b9150509295985092959890939650565b600081519050919050565b600082825260208201905092915050565b6000819050602082019050919050565b600060c0830160008301518482036000860152612bbb82826124d7565b91505060208301518482036020860152612bd582826124d7565b9150506040830151612bea604086018261251a565b5060608301518482036060860152612c0282826124d7565b91505060808301518482036080860152612c1c82826124d7565b91505060a083015184820360a0860152612c3682826124d7565b9150508091505092915050565b6000612c4f8383612b9e565b905092915050565b6000602082019050919050565b6000612c6f82612b72565b612c798185612b7d565b935083602082028501612c8b85612b8e565b8060005b85811015612cc75784840389528151612ca88582612c43565b9450612cb383612c57565b925060208a01995050600181019050612c8f565b50829750879550505050505092915050565b60006020820190508181036000830152612cf38184612c64565b905092915050565b600081519050919050565b600082825260208201905092915050565b6000819050602082019050919050565b6000610100830160008301518482036000860152612d4582826124d7565b91505060208301518482036020860152612d5f82826124d7565b91505060408301518482036040860152612d7982826124d7565b91505060608301518482036060860152612d9382826124d7565b91505060808301518482036080860152612dad82826124d7565b91505060a0830151612dc260a086018261251a565b5060c083015184820360c0860152612dda82826124d7565b91505060e083015184820360e0860152612df482826124d7565b9150508091505092915050565b6000612e0d8383612d27565b905092915050565b6000602082019050919050565b6000612e2d82612cfb565b612e378185612d06565b935083602082028501612e4985612d17565b8060005b85811015612e855784840389528151612e668582612e01565b9450612e7183612e15565b925060208a01995050600181019050612e4d565b50829750879550505050505092915050565b60006020820190508181036000830152612eb18184612e22565b905092915050565b60008060008060008060c08789031215612ed657612ed56121e8565b5b600087013567ffffffffffffffff811115612ef457612ef36121ed565b5b612f0089828a0161230a565b965050602087013567ffffffffffffffff811115612f2157612f206121ed565b5b612f2d89828a016128bf565b955050604087013567ffffffffffffffff811115612f4e57612f4d6121ed565b5b612f5a89828a016128bf565b945050606087013567ffffffffffffffff811115612f7b57612f7a6121ed565b5b612f8789828a016129ae565b935050608087013567ffffffffffffffff811115612fa857612fa76121ed565b5b612fb489828a016129ae565b92505060a087013567ffffffffffffffff811115612fd557612fd46121ed565b5b612fe189828a0161230a565b9150509295509295509295565b600080fd5b600080fd5b60006060828403121561300e5761300d612fee565b5b613018606061226d565b9050600082013567ffffffffffffffff81111561303857613037612ff3565b5b6130448482850161230a565b600083015250602082013567ffffffffffffffff81111561306857613067612ff3565b5b6130748482850161230a565b602083015250604061308884828501612930565b60408301525092915050565b600080604083850312156130ab576130aa6121e8565b5b600083013567ffffffffffffffff8111156130c9576130c86121ed565b5b6130d58582860161230a565b925050602083013567ffffffffffffffff8111156130f6576130f56121ed565b5b61310285828601612ff8565b9150509250929050565b600080600080600080600060e0888a03121561312b5761312a6121e8565b5b600088013567ffffffffffffffff811115613149576131486121ed565b5b6131558a828b0161230a565b975050602088013567ffffffffffffffff811115613176576131756121ed565b5b6131828a828b016128bf565b965050604088013567ffffffffffffffff8111156131a3576131a26121ed565b5b6131af8a828b016129ae565b955050606088013567ffffffffffffffff8111156131d0576131cf6121ed565b5b6131dc8a828b016128bf565b945050608088013567ffffffffffffffff8111156131fd576131fc6121ed565b5b6132098a828b016128bf565b93505060a088013567ffffffffffffffff81111561322a576132296121ed565b5b6132368a828b016129ae565b92505060c088013567ffffffffffffffff811115613257576132566121ed565b5b6132638a828b0161230a565b91505092959891949750929550565b6000806000806000806000806000806101408b8d031215613296576132956121e8565b5b60008b013567ffffffffffffffff8111156132b4576132b36121ed565b5b6132c08d828e0161230a565b9a505060208b013567ffffffffffffffff8111156132e1576132e06121ed565b5b6132ed8d828e016128bf565b99505060408b013567ffffffffffffffff81111561330e5761330d6121ed565b5b61331a8d828e016128bf565b98505060608b013567ffffffffffffffff81111561333b5761333a6121ed565b5b6133478d828e016128bf565b97505060808b013567ffffffffffffffff811115613368576133676121ed565b5b6133748d828e016128bf565b96505060a08b013567ffffffffffffffff811115613395576133946121ed565b5b6133a18d828e016128bf565b95505060c08b013567ffffffffffffffff8111156133c2576133c16121ed565b5b6133ce8d828e016129ae565b94505060e08b013567ffffffffffffffff8111156133ef576133ee6121ed565b5b6133fb8d828e016128bf565b9350506101008b013567ffffffffffffffff81111561341d5761341c6121ed565b5b6134298d828e016128bf565b9250506101208b013567ffffffffffffffff81111561344b5761344a6121ed565b5b6134578d828e0161230a565b9150509295989b9194979a5092959850565b600081905092915050565b600061347f82612381565b6134898185613469565b935061349981856020860161239d565b80840191505092915050565b60006134b18284613474565b915081905092915050565b7f4e487b7100000000000000000000000000000000000000000000000000000000600052602260045260246000fd5b6000600282049050600182168061350357607f821691505b602082108103613516576135156134bc565b5b50919050565b60008190508160005260206000209050919050565b60006020601f8301049050919050565b600082821b905092915050565b60006008830261357e7fffffffffffffffffffffffffffffffffffffffffffffffffffffffffffffffff82613541565b6135888683613541565b95508019841693508086168417925050509392505050565b6000819050919050565b60006135c56135c06135bb84612510565b6135a0565b612510565b9050919050565b6000819050919050565b6135df836135aa565b6135f36135eb826135cc565b84845461354e565b825550505050565b600090565b6136086135fb565b6136138184846135d6565b505050565b5b818110156136375761362c600082613600565b600181019050613619565b5050565b601f82111561367c5761364d8161351c565b61365684613531565b81016020851015613665578190505b61367961367185613531565b830182613618565b50505b505050565b600082821c905092915050565b600061369f60001984600802613681565b1980831691505092915050565b60006136b8838361368e565b9150826002028217905092915050565b6136d182612381565b67ffffffffffffffff8111156136ea576136e961220d565b5b6136f482546134eb565b6136ff82828561363b565b600060209050601f8311600181146137325760008415613720578287015190505b61372a85826136ac565b865550613792565b601f1984166137408661351c565b60005b8281101561376857848901518255600182019150602085019450602081019050613743565b868310156137855784890151613781601f89168261368e565b8355505b6001600288020188555050505b505050505050565b600081549050919050565b60008190508160005260206000209050919050565b600081546137c7816134eb565b6137d181866124c6565b945060018216600081146137ec576001811461380257613835565b60ff198316865281151560200286019350613835565b61380b8561351c565b60005b8381101561382d5781548189015260018201915060208101905061380e565b808801955050505b50505092915050565b60008160001c9050919050565b6000819050919050565b60006138686138638361383e565b61384b565b9050919050565b600061010083016000808401858303600087015261388d83826137ba565b9250506001840185830360208701526138a683826137ba565b9250506002840185830360408701526138bf83826137ba565b9250506003840185830360608701526138d883826137ba565b9250506004840185830360808701526138f183826137ba565b9250506005840154905061390481613855565b61391160a087018261251a565b506006840185830360c087015261392883826137ba565b9250506007840185830360e087015261394183826137ba565b925050819250505092915050565b600061395b838361386f565b905092915050565b6000600882019050919050565b600061397b8261379a565b6139858185612d06565b935083602082028501613997856137a5565b8060005b858110156139d2578484038952816139b3858261394f565b94506139be83613963565b925060208a0199505060018101905061399b565b50829750879550505050505092915050565b600060408201905081810360008301526139fe8185613970565b90508181036020830152613a1281846123c7565b90509392505050565b7f496e70757420617272617973206d7573742068617665207468652073616d652060008201527f6c656e6774680000000000000000000000000000000000000000000000000000602082015250565b6000613a7760268361238c565b9150613a8282613a1b565b604082019050919050565b60006020820190508181036000830152613aa681613a6a565b9050919050565b7f4e487b7100000000000000000000000000000000000000000000000000000000600052603260045260246000fd5b7f4e487b7100000000000000000000000000000000000000000000000000000000600052601160045260246000fd5b6000613b1682612510565b91507fffffffffffffffffffffffffffffffffffffffffffffffffffffffffffffffff8203613b4857613b47613adc565b5b600182019050919050565b600081549050919050565b60008190508160005260206000209050919050565b600060c0830160008084018583036000870152613b9083826137ba565b925050600184018583036020870152613ba983826137ba565b92505060028401549050613bbc81613855565b613bc9604087018261251a565b50600384018583036060870152613be083826137ba565b925050600484018583036080870152613bf983826137ba565b9250506005840185830360a0870152613c1283826137ba565b925050819250505092915050565b6000613c2c8383613b73565b905092915050565b6000600682019050919050565b6000613c4c82613b53565b613c568185612b7d565b935083602082028501613c6885613b5e565b8060005b85811015613ca357848403895281613c848582613c20565b9450613c8f83613c34565b925060208a01995050600181019050613c6c565b50829750879550505050505092915050565b60006040820190508181036000830152613ccf8185613c41565b90508181036020830152613ce381846123c7565b90509392505050565b600081549050919050565b60008190508160005260206000209050919050565b600060a0830160008084018583036000870152613d2983826137ba565b92505060018401549050613d3c81613855565b613d49602087018261251a565b50600284018583036040870152613d6083826137ba565b925050600384018583036060870152613d7983826137ba565b92505060048401549050613d8c81613855565b613d99608087018261251a565b50819250505092915050565b6000613db18383613d0c565b905092915050565b6000600582019050919050565b6000613dd182613cec565b613ddb81856124a5565b935083602082028501613ded85613cf7565b8060005b85811015613e2857848403895281613e098582613da5565b9450613e1483613db9565b925060208a01995050600181019050613df1565b50829750879550505050505092915050565b60006040820190508181036000830152613e548185613dc6565b90508181036020830152613e6881846123c7565b90509392505050565b600081549050919050565b60008190508160005260206000209050919050565b60006080830160008084018583036000870152613eae83826137ba565b925050600184018583036020870152613ec783826137ba565b92505060028401549050613eda81613855565b613ee7604087018261251a565b5060038401549050613ef881613855565b613f05606087018261251a565b50819250505092915050565b6000613f1d8383613e91565b905092915050565b6000600482019050919050565b6000613f3d82613e71565b613f478185612670565b935083602082028501613f5985613e7c565b8060005b85811015613f9457848403895281613f758582613f11565b9450613f8083613f25565b925060208a01995050600181019050613f5d565b50829750879550505050505092915050565b60006040820190508181036000830152613fc08185613f32565b90508181036020830152613fd481846123c7565b9050939250505056fea26469706673582212204f063bb29dee0444476c73b42cb4c7f9b16d34a832c91e3267153603976be24364736f6c63430008130033",
  "immutableReferences": {},
  "source": "// SPDX-License-Identifier: MIT\npragma solidity ^0.8.0;\n\ncontract UserContract {\n    struct UserData {\n        string email;\n        string name;\n        uint256 age;\n    }\n\n    struct EducationInfo {\n        string schoolName;\n        string degree;\n        uint256 startedYear;\n        uint256 graduationYear;\n    }\n\n    struct BankInfo {\n        string bankName;\n        uint256 accountBalance;\n        string accountNumber;\n        string accountType;\n        uint256 accountOpeningDate;\n    }\n\n    struct HospitalInfo {\n        string hospitalName;\n        string doctorName;\n        string name;\n        string symptoms;\n        string diagnosticMethods;\n        uint256 date;\n        string treatmentOptions;\n        string importantInformation;\n    }\n\n    struct NotaryInfo {\n        string title;\n        string description;\n        uint256 date;\n        string notaryName;\n        string typeOfDocument;\n        string partiesInvolved;\n    }\n\n    struct UserEducation {\n        EducationInfo[] educationInfos;\n        string ipfsHash;\n    }\n\n    struct UserBank {\n        BankInfo[] bankInfos;\n        string ipfsHash;\n    }\n\n    struct UserHospital {\n        HospitalInfo[] hospitalInfos;\n        string ipfsHash;\n    }\n\n    struct UserNotary {\n        NotaryInfo[] notaryInfos;\n        string ipfsHash;\n    }\n\n    mapping(string => UserEducation) private educationRecords;\n    mapping(string => UserBank) private bankRecords;\n    mapping(string => UserHospital) private hospitalRecords;\n    mapping(string => UserNotary) private notaryRecords;\n\n    mapping(string => UserData) users;\n\n    event UserUpdated(\n        string indexed userId,\n        string email,\n        string name,\n        uint256 age\n    );\n\n    event UserEducationUpdated(\n        string indexed userId,\n        EducationInfo[] educationInfos,\n        string ipfsHash\n    );\n\n    event UserBankUpdated(\n        string indexed userId,\n        BankInfo[] bankInfos,\n        string ipfsHash\n    );\n\n    event UserHospitalUpdated(\n        string indexed userId,\n        HospitalInfo[] hospitalInfos,\n        string ipfsHash\n    );\n\n    event UserNotaryUpdated(\n        string indexed userId,\n        NotaryInfo[] notaryInfos,\n        string ipfsHash\n    );\n\n    function setUserData(\n        string memory userId,\n        UserData memory userData\n    ) public {\n        UserData memory newUser = UserData(\n            userData.email,\n            userData.name,\n            userData.age\n        );\n        users[userId] = newUser;\n        emit UserUpdated(userId, userData.email, userData.name, userData.age);\n    }\n\n    function getUserData(\n        string memory userId\n    )\n        public\n        view\n        returns (string memory email, string memory name, uint256 age)\n    {\n        UserData storage user = users[userId];\n        return (user.email, user.name, user.age);\n    }\n\n    // function setEducationRecord(\n    //     string memory userId,\n    //     EducationInfo[] memory educationInfos,\n    //     string memory ipfsHash\n    // ) public {\n    //     UserEducation storage userEducation = educationRecords[userId];\n\n    //     userEducation.educationInfos = educationInfos;\n    //     userEducation.ipfsHash = ipfsHash;\n\n    //     // UserEducation memory newUserEducation = UserEducation(\n    //     //     educationInfos,\n    //     //     ipfsHash\n    //     // );\n\n    //     educationRecords[userId] = userEducation;\n    //     emit UserEducationUpdated(userId, educationInfos, ipfsHash);\n    // }\n\n    function setEducationRecord(\n        string memory userId,\n        string[] memory schoolNames,\n        string[] memory degrees,\n        uint256[] memory startedYears,\n        uint256[] memory graduationYears,\n        string memory ipfsHash\n    ) public {\n        require(\n            schoolNames.length == degrees.length &&\n                degrees.length == startedYears.length &&\n                startedYears.length == graduationYears.length,\n            \"Input arrays must have the same length\"\n        );\n\n        for (uint256 i = 0; i < schoolNames.length; i++) {\n            EducationInfo memory newEducation = EducationInfo({\n                schoolName: schoolNames[i],\n                degree: degrees[i],\n                startedYear: startedYears[i],\n                graduationYear: graduationYears[i]\n            });\n\n            educationRecords[userId].educationInfos.push(newEducation);\n        }\n\n        educationRecords[userId].ipfsHash = ipfsHash;\n\n        emit UserEducationUpdated(\n            userId,\n            educationRecords[userId].educationInfos,\n            ipfsHash\n        );\n    }\n\n    function getEducationRecords(\n        string memory userId\n    ) public view returns (EducationInfo[] memory) {\n        return educationRecords[userId].educationInfos;\n    }\n\n    function setEducationIPFSHash(\n        string memory userId,\n        string memory ipfsHash\n    ) public {\n        UserEducation storage userEducation = educationRecords[userId];\n\n        userEducation.ipfsHash = ipfsHash;\n\n        emit UserEducationUpdated(\n            userId,\n            userEducation.educationInfos,\n            ipfsHash\n        );\n    }\n\n    function getEducationIPFSHash(\n        string memory userId\n    ) public view returns (string memory) {\n        return educationRecords[userId].ipfsHash;\n    }\n\n    function setBankRecord(\n        string memory userId,\n        string[] memory bankNames,\n        uint256[] memory accountBalances,\n        string[] memory accountNumbers,\n        string[] memory accountTypes,\n        uint256[] memory accountOpeningDates,\n        string memory ipfsHash\n    ) public {\n        require(\n            bankNames.length == accountBalances.length &&\n                accountBalances.length == accountNumbers.length &&\n                accountNumbers.length == accountTypes.length &&\n                accountTypes.length == accountOpeningDates.length,\n            \"Input arrays must have the same length\"\n        );\n\n        for (uint256 i = 0; i < bankNames.length; i++) {\n            BankInfo memory newBank = BankInfo({\n                bankName: bankNames[i],\n                accountBalance: accountBalances[i],\n                accountNumber: accountNumbers[i],\n                accountType: accountTypes[i],\n                accountOpeningDate: accountOpeningDates[i]\n            });\n\n            bankRecords[userId].bankInfos.push(newBank);\n        }\n\n        bankRecords[userId].ipfsHash = ipfsHash;\n\n        emit UserBankUpdated(userId, bankRecords[userId].bankInfos, ipfsHash);\n    }\n\n    function getBankRecords(\n        string memory userId\n    ) public view returns (BankInfo[] memory) {\n        return bankRecords[userId].bankInfos;\n    }\n\n    function setBankIPFSHash(\n        string memory userId,\n        string memory ipfsHash\n    ) public {\n        UserBank storage userBank = bankRecords[userId];\n\n        userBank.ipfsHash = ipfsHash;\n\n        emit UserBankUpdated(userId, userBank.bankInfos, ipfsHash);\n    }\n\n    function getBankIPFSHash(\n        string memory userId\n    ) public view returns (string memory) {\n        return bankRecords[userId].ipfsHash;\n    }\n\n    function setHospitalRecord(\n        string memory userId,\n        string[] memory hospitalNames,\n        string[] memory doctorNames,\n        string[] memory names,\n        string[] memory symptomss,\n        string[] memory diagnosticMethodss,\n        uint256[] memory dates,\n        string[] memory treatmentOptionss,\n        string[] memory importantInformations,\n        string memory ipfsHash\n    ) public {\n        require(\n            hospitalNames.length == doctorNames.length &&\n                doctorNames.length == names.length &&\n                names.length == symptomss.length &&\n                symptomss.length == diagnosticMethodss.length &&\n                diagnosticMethodss.length == dates.length &&\n                dates.length == treatmentOptionss.length &&\n                treatmentOptionss.length == importantInformations.length,\n            \"Input arrays must have the same length\"\n        );\n\n        for (uint256 i = 0; i < hospitalNames.length; i++) {\n            HospitalInfo memory newHospital = HospitalInfo({\n                hospitalName: hospitalNames[i],\n                doctorName: doctorNames[i],\n                name: names[i],\n                symptoms: symptomss[i],\n                diagnosticMethods: diagnosticMethodss[i],\n                date: dates[i],\n                treatmentOptions: treatmentOptionss[i],\n                importantInformation: importantInformations[i]\n            });\n\n            hospitalRecords[userId].hospitalInfos.push(newHospital);\n        }\n\n        hospitalRecords[userId].ipfsHash = ipfsHash;\n\n        emit UserHospitalUpdated(\n            userId,\n            hospitalRecords[userId].hospitalInfos,\n            ipfsHash\n        );\n    }\n\n    function getHospitalRecords(\n        string memory userId\n    ) public view returns (HospitalInfo[] memory) {\n        return hospitalRecords[userId].hospitalInfos;\n    }\n\n    function setHospitalIPFSHash(\n        string memory userId,\n        string memory ipfsHash\n    ) public {\n        UserHospital storage userHospital = hospitalRecords[userId];\n\n        userHospital.ipfsHash = ipfsHash;\n\n        emit UserHospitalUpdated(userId, userHospital.hospitalInfos, ipfsHash);\n    }\n\n    function getHospitalIPFSHash(\n        string memory userId\n    ) public view returns (string memory) {\n        return hospitalRecords[userId].ipfsHash;\n    }\n\n    function setNotaryRecord(\n        string memory userId,\n        string[] memory titles,\n        string[] memory descriptions,\n        uint256[] memory dates,\n        string[] memory notaryNames,\n        string[] memory typeOfDocuments,\n        string[] memory partiesInvolveds,\n        string memory ipfsHash\n    ) public {\n        require(\n            titles.length == descriptions.length &&\n                descriptions.length == dates.length &&\n                dates.length == notaryNames.length &&\n                notaryNames.length == typeOfDocuments.length &&\n                typeOfDocuments.length == partiesInvolveds.length,\n            \"Input arrays must have the same length\"\n        );\n\n        for (uint256 i = 0; i < titles.length; i++) {\n            NotaryInfo memory newNotary = NotaryInfo({\n                title: titles[i],\n                description: descriptions[i],\n                date: dates[i],\n                notaryName: notaryNames[i],\n                typeOfDocument: typeOfDocuments[i],\n                partiesInvolved: partiesInvolveds[i]\n            });\n\n            notaryRecords[userId].notaryInfos.push(newNotary);\n        }\n\n        notaryRecords[userId].ipfsHash = ipfsHash;\n\n        emit UserNotaryUpdated(\n            userId,\n            notaryRecords[userId].notaryInfos,\n            ipfsHash\n        );\n    }\n\n    function getNotaryRecords(\n        string memory userId\n    ) public view returns (NotaryInfo[] memory) {\n        return notaryRecords[userId].notaryInfos;\n    }\n\n    function setNotaryIPFSHash(\n        string memory userId,\n        string memory ipfsHash\n    ) public {\n        UserNotary storage userNotary = notaryRecords[userId];\n\n        userNotary.ipfsHash = ipfsHash;\n\n        emit UserNotaryUpdated(userId, userNotary.notaryInfos, ipfsHash);\n    }\n\n    function getNotaryIPFSHash(\n        string memory userId\n    ) public view returns (string memory) {\n        return notaryRecords[userId].ipfsHash;\n    }\n}\n",
  "sourcePath": "/Users/kmlcnclk/Documents/Projects_NEU/my-devlet/contracts/UserContract.sol",
  "compiler": {
    "name": "solc",
    "version": "0.8.19+commit.7dd6d404.Emscripten.clang"
  },
  "schemaVersion": "3.4.15",
  "updatedAt": "2023-12-29T14:13:37.963Z",
  "devdoc": {
    "kind": "dev",
    "methods": {},
    "version": 1
  },
  "userdoc": {
    "kind": "user",
    "methods": {},
    "version": 1
  }
}