{
  "contractName": "UserContract",
  "abi": [
    {
      "anonymous": false,
      "inputs": [
        {
          "indexed": true,
          "internalType": "string",
          "name": "userId",
          "type": "string"
        },
        {
          "components": [
            {
              "internalType": "string",
              "name": "bankName",
              "type": "string"
            },
            {
              "internalType": "uint256",
              "name": "accountBalance",
              "type": "uint256"
            },
            {
              "internalType": "string",
              "name": "accountNumber",
              "type": "string"
            },
            {
              "internalType": "string",
              "name": "accountType",
              "type": "string"
            },
            {
              "internalType": "uint256",
              "name": "accountOpeningDate",
              "type": "uint256"
            }
          ],
          "indexed": false,
          "internalType": "struct UserContract.BankInfo[]",
          "name": "bankInfos",
          "type": "tuple[]"
        },
        {
          "indexed": false,
          "internalType": "string",
          "name": "ipfsHash",
          "type": "string"
        }
      ],
      "name": "UserBankUpdated",
      "type": "event"
    },
    {
      "anonymous": false,
      "inputs": [
        {
          "indexed": true,
          "internalType": "string",
          "name": "userId",
          "type": "string"
        },
        {
          "components": [
            {
              "internalType": "string",
              "name": "schoolName",
              "type": "string"
            },
            {
              "internalType": "string",
              "name": "degree",
              "type": "string"
            },
            {
              "internalType": "uint256",
              "name": "startedYear",
              "type": "uint256"
            },
            {
              "internalType": "uint256",
              "name": "graduationYear",
              "type": "uint256"
            }
          ],
          "indexed": false,
          "internalType": "struct UserContract.EducationInfo[]",
          "name": "educationInfos",
          "type": "tuple[]"
        },
        {
          "indexed": false,
          "internalType": "string",
          "name": "ipfsHash",
          "type": "string"
        }
      ],
      "name": "UserEducationUpdated",
      "type": "event"
    },
    {
      "anonymous": false,
      "inputs": [
        {
          "indexed": true,
          "internalType": "string",
          "name": "userId",
          "type": "string"
        },
        {
          "components": [
            {
              "internalType": "string",
              "name": "hospitalName",
              "type": "string"
            },
            {
              "internalType": "string",
              "name": "doctorName",
              "type": "string"
            },
            {
              "internalType": "string",
              "name": "name",
              "type": "string"
            },
            {
              "internalType": "string",
              "name": "symptoms",
              "type": "string"
            },
            {
              "internalType": "string",
              "name": "diagnosticMethods",
              "type": "string"
            },
            {
              "internalType": "uint256",
              "name": "date",
              "type": "uint256"
            },
            {
              "internalType": "string",
              "name": "treatmentOptions",
              "type": "string"
            },
            {
              "internalType": "string",
              "name": "importantInformation",
              "type": "string"
            }
          ],
          "indexed": false,
          "internalType": "struct UserContract.HospitalInfo[]",
          "name": "hospitalInfos",
          "type": "tuple[]"
        },
        {
          "indexed": false,
          "internalType": "string",
          "name": "ipfsHash",
          "type": "string"
        }
      ],
      "name": "UserHospitalUpdated",
      "type": "event"
    },
    {
      "anonymous": false,
      "inputs": [
        {
          "indexed": true,
          "internalType": "string",
          "name": "userId",
          "type": "string"
        },
        {
          "components": [
            {
              "internalType": "string",
              "name": "title",
              "type": "string"
            },
            {
              "internalType": "string",
              "name": "description",
              "type": "string"
            },
            {
              "internalType": "uint256",
              "name": "date",
              "type": "uint256"
            },
            {
              "internalType": "string",
              "name": "notaryName",
              "type": "string"
            },
            {
              "internalType": "string",
              "name": "typeOfDocument",
              "type": "string"
            },
            {
              "internalType": "string",
              "name": "partiesInvolved",
              "type": "string"
            }
          ],
          "indexed": false,
          "internalType": "struct UserContract.NotaryInfo[]",
          "name": "notaryInfos",
          "type": "tuple[]"
        },
        {
          "indexed": false,
          "internalType": "string",
          "name": "ipfsHash",
          "type": "string"
        }
      ],
      "name": "UserNotaryUpdated",
      "type": "event"
    },
    {
      "anonymous": false,
      "inputs": [
        {
          "indexed": true,
          "internalType": "string",
          "name": "userId",
          "type": "string"
        },
        {
          "components": [
            {
              "internalType": "string",
              "name": "taxpayer",
              "type": "string"
            },
            {
              "internalType": "uint256",
              "name": "debtAmount",
              "type": "uint256"
            },
            {
              "internalType": "uint256",
              "name": "expiryDate",
              "type": "uint256"
            },
            {
              "internalType": "string",
              "name": "typeOfTax",
              "type": "string"
            },
            {
              "internalType": "bool",
              "name": "isPaid",
              "type": "bool"
            },
            {
              "internalType": "uint256",
              "name": "paymentDate",
              "type": "uint256"
            },
            {
              "internalType": "uint256",
              "name": "paymentAmount",
              "type": "uint256"
            }
          ],
          "indexed": false,
          "internalType": "struct UserContract.TaxDebtInfo[]",
          "name": "taxDebtInfos",
          "type": "tuple[]"
        },
        {
          "indexed": false,
          "internalType": "string",
          "name": "ipfsHash",
          "type": "string"
        }
      ],
      "name": "UserTaxDebtUpdated",
      "type": "event"
    },
    {
      "anonymous": false,
      "inputs": [
        {
          "indexed": true,
          "internalType": "string",
          "name": "userId",
          "type": "string"
        },
        {
          "indexed": false,
          "internalType": "string",
          "name": "email",
          "type": "string"
        },
        {
          "indexed": false,
          "internalType": "string",
          "name": "name",
          "type": "string"
        },
        {
          "indexed": false,
          "internalType": "uint256",
          "name": "age",
          "type": "uint256"
        }
      ],
      "name": "UserUpdated",
      "type": "event"
    },
    {
      "inputs": [
        {
          "internalType": "string",
          "name": "userId",
          "type": "string"
        },
        {
          "components": [
            {
              "internalType": "string",
              "name": "email",
              "type": "string"
            },
            {
              "internalType": "string",
              "name": "name",
              "type": "string"
            },
            {
              "internalType": "uint256",
              "name": "age",
              "type": "uint256"
            }
          ],
          "internalType": "struct UserContract.UserData",
          "name": "userData",
          "type": "tuple"
        }
      ],
      "name": "setUserData",
      "outputs": [],
      "stateMutability": "nonpayable",
      "type": "function"
    },
    {
      "inputs": [
        {
          "internalType": "string",
          "name": "userId",
          "type": "string"
        }
      ],
      "name": "getUserData",
      "outputs": [
        {
          "internalType": "string",
          "name": "email",
          "type": "string"
        },
        {
          "internalType": "string",
          "name": "name",
          "type": "string"
        },
        {
          "internalType": "uint256",
          "name": "age",
          "type": "uint256"
        }
      ],
      "stateMutability": "view",
      "type": "function"
    },
    {
      "inputs": [
        {
          "internalType": "string",
          "name": "userId",
          "type": "string"
        },
        {
          "internalType": "string[]",
          "name": "schoolNames",
          "type": "string[]"
        },
        {
          "internalType": "string[]",
          "name": "degrees",
          "type": "string[]"
        },
        {
          "internalType": "uint256[]",
          "name": "startedYears",
          "type": "uint256[]"
        },
        {
          "internalType": "uint256[]",
          "name": "graduationYears",
          "type": "uint256[]"
        },
        {
          "internalType": "string",
          "name": "ipfsHash",
          "type": "string"
        }
      ],
      "name": "setEducationRecord",
      "outputs": [],
      "stateMutability": "nonpayable",
      "type": "function"
    },
    {
      "inputs": [
        {
          "internalType": "string",
          "name": "userId",
          "type": "string"
        }
      ],
      "name": "getEducationRecords",
      "outputs": [
        {
          "components": [
            {
              "internalType": "string",
              "name": "schoolName",
              "type": "string"
            },
            {
              "internalType": "string",
              "name": "degree",
              "type": "string"
            },
            {
              "internalType": "uint256",
              "name": "startedYear",
              "type": "uint256"
            },
            {
              "internalType": "uint256",
              "name": "graduationYear",
              "type": "uint256"
            }
          ],
          "internalType": "struct UserContract.EducationInfo[]",
          "name": "",
          "type": "tuple[]"
        }
      ],
      "stateMutability": "view",
      "type": "function"
    },
    {
      "inputs": [
        {
          "internalType": "string",
          "name": "userId",
          "type": "string"
        },
        {
          "internalType": "string",
          "name": "ipfsHash",
          "type": "string"
        }
      ],
      "name": "setEducationIPFSHash",
      "outputs": [],
      "stateMutability": "nonpayable",
      "type": "function"
    },
    {
      "inputs": [
        {
          "internalType": "string",
          "name": "userId",
          "type": "string"
        }
      ],
      "name": "getEducationIPFSHash",
      "outputs": [
        {
          "internalType": "string",
          "name": "",
          "type": "string"
        }
      ],
      "stateMutability": "view",
      "type": "function"
    },
    {
      "inputs": [
        {
          "internalType": "string",
          "name": "userId",
          "type": "string"
        },
        {
          "internalType": "string[]",
          "name": "bankNames",
          "type": "string[]"
        },
        {
          "internalType": "uint256[]",
          "name": "accountBalances",
          "type": "uint256[]"
        },
        {
          "internalType": "string[]",
          "name": "accountNumbers",
          "type": "string[]"
        },
        {
          "internalType": "string[]",
          "name": "accountTypes",
          "type": "string[]"
        },
        {
          "internalType": "uint256[]",
          "name": "accountOpeningDates",
          "type": "uint256[]"
        },
        {
          "internalType": "string",
          "name": "ipfsHash",
          "type": "string"
        }
      ],
      "name": "setBankRecord",
      "outputs": [],
      "stateMutability": "nonpayable",
      "type": "function"
    },
    {
      "inputs": [
        {
          "internalType": "string",
          "name": "userId",
          "type": "string"
        }
      ],
      "name": "getBankRecords",
      "outputs": [
        {
          "components": [
            {
              "internalType": "string",
              "name": "bankName",
              "type": "string"
            },
            {
              "internalType": "uint256",
              "name": "accountBalance",
              "type": "uint256"
            },
            {
              "internalType": "string",
              "name": "accountNumber",
              "type": "string"
            },
            {
              "internalType": "string",
              "name": "accountType",
              "type": "string"
            },
            {
              "internalType": "uint256",
              "name": "accountOpeningDate",
              "type": "uint256"
            }
          ],
          "internalType": "struct UserContract.BankInfo[]",
          "name": "",
          "type": "tuple[]"
        }
      ],
      "stateMutability": "view",
      "type": "function"
    },
    {
      "inputs": [
        {
          "internalType": "string",
          "name": "userId",
          "type": "string"
        },
        {
          "internalType": "string",
          "name": "ipfsHash",
          "type": "string"
        }
      ],
      "name": "setBankIPFSHash",
      "outputs": [],
      "stateMutability": "nonpayable",
      "type": "function"
    },
    {
      "inputs": [
        {
          "internalType": "string",
          "name": "userId",
          "type": "string"
        }
      ],
      "name": "getBankIPFSHash",
      "outputs": [
        {
          "internalType": "string",
          "name": "",
          "type": "string"
        }
      ],
      "stateMutability": "view",
      "type": "function"
    },
    {
      "inputs": [
        {
          "internalType": "string",
          "name": "userId",
          "type": "string"
        },
        {
          "internalType": "string[]",
          "name": "hospitalNames",
          "type": "string[]"
        },
        {
          "internalType": "string[]",
          "name": "doctorNames",
          "type": "string[]"
        },
        {
          "internalType": "string[]",
          "name": "names",
          "type": "string[]"
        },
        {
          "internalType": "string[]",
          "name": "symptomss",
          "type": "string[]"
        },
        {
          "internalType": "string[]",
          "name": "diagnosticMethodss",
          "type": "string[]"
        },
        {
          "internalType": "uint256[]",
          "name": "dates",
          "type": "uint256[]"
        },
        {
          "internalType": "string[]",
          "name": "treatmentOptionss",
          "type": "string[]"
        },
        {
          "internalType": "string[]",
          "name": "importantInformations",
          "type": "string[]"
        },
        {
          "internalType": "string",
          "name": "ipfsHash",
          "type": "string"
        }
      ],
      "name": "setHospitalRecord",
      "outputs": [],
      "stateMutability": "nonpayable",
      "type": "function"
    },
    {
      "inputs": [
        {
          "internalType": "string",
          "name": "userId",
          "type": "string"
        }
      ],
      "name": "getHospitalRecords",
      "outputs": [
        {
          "components": [
            {
              "internalType": "string",
              "name": "hospitalName",
              "type": "string"
            },
            {
              "internalType": "string",
              "name": "doctorName",
              "type": "string"
            },
            {
              "internalType": "string",
              "name": "name",
              "type": "string"
            },
            {
              "internalType": "string",
              "name": "symptoms",
              "type": "string"
            },
            {
              "internalType": "string",
              "name": "diagnosticMethods",
              "type": "string"
            },
            {
              "internalType": "uint256",
              "name": "date",
              "type": "uint256"
            },
            {
              "internalType": "string",
              "name": "treatmentOptions",
              "type": "string"
            },
            {
              "internalType": "string",
              "name": "importantInformation",
              "type": "string"
            }
          ],
          "internalType": "struct UserContract.HospitalInfo[]",
          "name": "",
          "type": "tuple[]"
        }
      ],
      "stateMutability": "view",
      "type": "function"
    },
    {
      "inputs": [
        {
          "internalType": "string",
          "name": "userId",
          "type": "string"
        },
        {
          "internalType": "string",
          "name": "ipfsHash",
          "type": "string"
        }
      ],
      "name": "setHospitalIPFSHash",
      "outputs": [],
      "stateMutability": "nonpayable",
      "type": "function"
    },
    {
      "inputs": [
        {
          "internalType": "string",
          "name": "userId",
          "type": "string"
        }
      ],
      "name": "getHospitalIPFSHash",
      "outputs": [
        {
          "internalType": "string",
          "name": "",
          "type": "string"
        }
      ],
      "stateMutability": "view",
      "type": "function"
    },
    {
      "inputs": [
        {
          "internalType": "string",
          "name": "userId",
          "type": "string"
        },
        {
          "internalType": "string[]",
          "name": "titles",
          "type": "string[]"
        },
        {
          "internalType": "string[]",
          "name": "descriptions",
          "type": "string[]"
        },
        {
          "internalType": "uint256[]",
          "name": "dates",
          "type": "uint256[]"
        },
        {
          "internalType": "string[]",
          "name": "notaryNames",
          "type": "string[]"
        },
        {
          "internalType": "string[]",
          "name": "typeOfDocuments",
          "type": "string[]"
        },
        {
          "internalType": "string[]",
          "name": "partiesInvolveds",
          "type": "string[]"
        },
        {
          "internalType": "string",
          "name": "ipfsHash",
          "type": "string"
        }
      ],
      "name": "setNotaryRecord",
      "outputs": [],
      "stateMutability": "nonpayable",
      "type": "function"
    },
    {
      "inputs": [
        {
          "internalType": "string",
          "name": "userId",
          "type": "string"
        }
      ],
      "name": "getNotaryRecords",
      "outputs": [
        {
          "components": [
            {
              "internalType": "string",
              "name": "title",
              "type": "string"
            },
            {
              "internalType": "string",
              "name": "description",
              "type": "string"
            },
            {
              "internalType": "uint256",
              "name": "date",
              "type": "uint256"
            },
            {
              "internalType": "string",
              "name": "notaryName",
              "type": "string"
            },
            {
              "internalType": "string",
              "name": "typeOfDocument",
              "type": "string"
            },
            {
              "internalType": "string",
              "name": "partiesInvolved",
              "type": "string"
            }
          ],
          "internalType": "struct UserContract.NotaryInfo[]",
          "name": "",
          "type": "tuple[]"
        }
      ],
      "stateMutability": "view",
      "type": "function"
    },
    {
      "inputs": [
        {
          "internalType": "string",
          "name": "userId",
          "type": "string"
        },
        {
          "internalType": "string",
          "name": "ipfsHash",
          "type": "string"
        }
      ],
      "name": "setNotaryIPFSHash",
      "outputs": [],
      "stateMutability": "nonpayable",
      "type": "function"
    },
    {
      "inputs": [
        {
          "internalType": "string",
          "name": "userId",
          "type": "string"
        }
      ],
      "name": "getNotaryIPFSHash",
      "outputs": [
        {
          "internalType": "string",
          "name": "",
          "type": "string"
        }
      ],
      "stateMutability": "view",
      "type": "function"
    },
    {
      "inputs": [
        {
          "internalType": "string",
          "name": "userId",
          "type": "string"
        },
        {
          "internalType": "string[]",
          "name": "taxpayers",
          "type": "string[]"
        },
        {
          "internalType": "uint256[]",
          "name": "debtAmounts",
          "type": "uint256[]"
        },
        {
          "internalType": "uint256[]",
          "name": "expiryDates",
          "type": "uint256[]"
        },
        {
          "internalType": "string[]",
          "name": "typeOfTaxs",
          "type": "string[]"
        },
        {
          "internalType": "bool[]",
          "name": "isPaids",
          "type": "bool[]"
        },
        {
          "internalType": "uint256[]",
          "name": "paymentDates",
          "type": "uint256[]"
        },
        {
          "internalType": "uint256[]",
          "name": "paymentAmounts",
          "type": "uint256[]"
        },
        {
          "internalType": "string",
          "name": "ipfsHash",
          "type": "string"
        }
      ],
      "name": "setTaxDebtRecord",
      "outputs": [],
      "stateMutability": "nonpayable",
      "type": "function"
    },
    {
      "inputs": [
        {
          "internalType": "string",
          "name": "userId",
          "type": "string"
        }
      ],
      "name": "getTaxDebtRecords",
      "outputs": [
        {
          "components": [
            {
              "internalType": "string",
              "name": "taxpayer",
              "type": "string"
            },
            {
              "internalType": "uint256",
              "name": "debtAmount",
              "type": "uint256"
            },
            {
              "internalType": "uint256",
              "name": "expiryDate",
              "type": "uint256"
            },
            {
              "internalType": "string",
              "name": "typeOfTax",
              "type": "string"
            },
            {
              "internalType": "bool",
              "name": "isPaid",
              "type": "bool"
            },
            {
              "internalType": "uint256",
              "name": "paymentDate",
              "type": "uint256"
            },
            {
              "internalType": "uint256",
              "name": "paymentAmount",
              "type": "uint256"
            }
          ],
          "internalType": "struct UserContract.TaxDebtInfo[]",
          "name": "",
          "type": "tuple[]"
        }
      ],
      "stateMutability": "view",
      "type": "function"
    },
    {
      "inputs": [
        {
          "internalType": "string",
          "name": "userId",
          "type": "string"
        },
        {
          "internalType": "string",
          "name": "ipfsHash",
          "type": "string"
        }
      ],
      "name": "setTaxDebtIPFSHash",
      "outputs": [],
      "stateMutability": "nonpayable",
      "type": "function"
    },
    {
      "inputs": [
        {
          "internalType": "string",
          "name": "userId",
          "type": "string"
        }
      ],
      "name": "getTaxDebtIPFSHash",
      "outputs": [
        {
          "internalType": "string",
          "name": "",
          "type": "string"
        }
      ],
      "stateMutability": "view",
      "type": "function"
    }
  ],
  "bytecode": "0x608060405234801561001057600080fd5b50614d3f806100206000396000f3fe608060405234801561001057600080fd5b50600436106101425760003560e01c80637d29e5a3116100b8578063be36f1741161007c578063be36f174146103e5578063cbe7360c14610401578063e63f9d251461041d578063f402c2c914610439578063f616637914610455578063f695abe21461047157610142565b80637d29e5a31461031d57806386c37fb61461034d578063a4c9f0be1461037d578063a581a76d14610399578063b1f441ef146103c957610142565b806335ce38331161010a57806335ce38331461020f5780634402db821461023f5780634f2cd1251461026f57806354ab24031461029f5780636ede9383146102d15780636f2f79ba146102ed57610142565b806309ac5173146101475780630c793d7c1461017757806324ca04d5146101a75780632ba6467e146101d75780633152e804146101f3575b600080fd5b610161600480360381019061015c9190612a20565b61048d565b60405161016e9190612ae8565b60405180910390f35b610191600480360381019061018c9190612a20565b610540565b60405161019e9190612ae8565b60405180910390f35b6101c160048036038101906101bc9190612a20565b6105f3565b6040516101ce9190612ae8565b60405180910390f35b6101f160048036038101906101ec9190612b0a565b6106a6565b005b61020d60048036038101906102089190612b0a565b610731565b005b61022960048036038101906102249190612a20565b6107bc565b6040516102369190612ae8565b60405180910390f35b61025960048036038101906102549190612a20565b61086f565b6040516102669190612d2b565b60405180910390f35b61028960048036038101906102849190612a20565b610ab9565b6040516102969190612e79565b60405180910390f35b6102b960048036038101906102b49190612a20565b610c71565b6040516102c893929190612eaa565b60405180910390f35b6102eb60048036038101906102e691906130c4565b610dca565b005b61030760048036038101906103029190612a20565b61109d565b60405161031491906133da565b60405180910390f35b61033760048036038101906103329190612a20565b611284565b6040516103449190613563565b60405180910390f35b61036760048036038101906103629190612a20565b6115e8565b6040516103749190613721565b60405180910390f35b61039760048036038101906103929190612b0a565b611a71565b005b6103b360048036038101906103ae9190612a20565b611afc565b6040516103c09190612ae8565b60405180910390f35b6103e360048036038101906103de9190613743565b611baf565b005b6103ff60048036038101906103fa919061391e565b611dee565b005b61041b60048036038101906104169190613996565b611ed3565b005b61043760048036038101906104329190613afc565b612156565b005b610453600480360381019061044e9190612b0a565b6124b2565b005b61046f600480360381019061046a9190612b0a565b61253c565b005b61048b60048036038101906104869190613de2565b6125c7565b005b606060038260405161049f9190613fe4565b908152602001604051809103902060010180546104bb9061402a565b80601f01602080910402602001604051908101604052809291908181526020018280546104e79061402a565b80156105345780601f1061050957610100808354040283529160200191610534565b820191906000526020600020905b81548152906001019060200180831161051757829003601f168201915b50505050509050919050565b60606000826040516105529190613fe4565b9081526020016040518091039020600101805461056e9061402a565b80601f016020809104026020016040519081016040528092919081815260200182805461059a9061402a565b80156105e75780601f106105bc576101008083540402835291602001916105e7565b820191906000526020600020905b8154815290600101906020018083116105ca57829003601f168201915b50505050509050919050565b60606001826040516106059190613fe4565b908152602001604051809103902060010180546106219061402a565b80601f016020809104026020016040519081016040528092919081815260200182805461064d9061402a565b801561069a5780601f1061066f5761010080835404028352916020019161069a565b820191906000526020600020905b81548152906001019060200180831161067d57829003601f168201915b50505050509050919050565b60006004836040516106b89190613fe4565b90815260200160405180910390209050818160010190816106d99190614207565b50826040516106e89190613fe4565b60405180910390207f145d21640bca172e24e08c3c82ee35d24c5ff1db94ca48bf9a18240cbbdf19698260000184604051610724929190614544565b60405180910390a2505050565b60006002836040516107439190613fe4565b90815260200160405180910390209050818160010190816107649190614207565b50826040516107739190613fe4565b60405180910390207f5f60f857012493da3c65fcf0df4c087fbd203856172f2658031a4305573ea12f82600001846040516107af929190614710565b60405180910390a2505050565b60606002826040516107ce9190613fe4565b908152602001604051809103902060010180546107ea9061402a565b80601f01602080910402602001604051908101604052809291908181526020018280546108169061402a565b80156108635780601f1061083857610100808354040283529160200191610863565b820191906000526020600020905b81548152906001019060200180831161084657829003601f168201915b50505050509050919050565b60606001826040516108819190613fe4565b9081526020016040518091039020600001805480602002602001604051908101604052809291908181526020016000905b82821015610aae57838290600052602060002090600502016040518060a00160405290816000820180546108e59061402a565b80601f01602080910402602001604051908101604052809291908181526020018280546109119061402a565b801561095e5780601f106109335761010080835404028352916020019161095e565b820191906000526020600020905b81548152906001019060200180831161094157829003601f168201915b50505050508152602001600182015481526020016002820180546109819061402a565b80601f01602080910402602001604051908101604052809291908181526020018280546109ad9061402a565b80156109fa5780601f106109cf576101008083540402835291602001916109fa565b820191906000526020600020905b8154815290600101906020018083116109dd57829003601f168201915b50505050508152602001600382018054610a139061402a565b80601f0160208091040260200160405190810160405280929190818152602001828054610a3f9061402a565b8015610a8c5780601f10610a6157610100808354040283529160200191610a8c565b820191906000526020600020905b815481529060010190602001808311610a6f57829003601f168201915b50505050508152602001600482015481525050815260200190600101906108b2565b505050509050919050565b6060600082604051610acb9190613fe4565b9081526020016040518091039020600001805480602002602001604051908101604052809291908181526020016000905b82821015610c665783829060005260206000209060040201604051806080016040529081600082018054610b2f9061402a565b80601f0160208091040260200160405190810160405280929190818152602001828054610b5b9061402a565b8015610ba85780601f10610b7d57610100808354040283529160200191610ba8565b820191906000526020600020905b815481529060010190602001808311610b8b57829003601f168201915b50505050508152602001600182018054610bc19061402a565b80601f0160208091040260200160405190810160405280929190818152602001828054610bed9061402a565b8015610c3a5780601f10610c0f57610100808354040283529160200191610c3a565b820191906000526020600020905b815481529060010190602001808311610c1d57829003601f168201915b505050505081526020016002820154815260200160038201548152505081526020019060010190610afc565b505050509050919050565b606080600080600585604051610c879190613fe4565b9081526020016040518091039020905080600001816001018260020154828054610cb09061402a565b80601f0160208091040260200160405190810160405280929190818152602001828054610cdc9061402a565b8015610d295780601f10610cfe57610100808354040283529160200191610d29565b820191906000526020600020905b815481529060010190602001808311610d0c57829003601f168201915b50505050509250818054610d3c9061402a565b80601f0160208091040260200160405190810160405280929190818152602001828054610d689061402a565b8015610db55780601f10610d8a57610100808354040283529160200191610db5565b820191906000526020600020905b815481529060010190602001808311610d9857829003601f168201915b50505050509150935093509350509193909250565b85518751148015610ddc575084518651145b8015610de9575083518551145b8015610df6575082518451145b8015610e03575081518351145b610e42576040517f08c379a0000000000000000000000000000000000000000000000000000000008152600401610e39906147b9565b60405180910390fd5b60005b8751811015610ff45760006040518060c001604052808a8481518110610e6e57610e6d6147d9565b5b60200260200101518152602001898481518110610e8e57610e8d6147d9565b5b60200260200101518152602001888481518110610eae57610ead6147d9565b5b60200260200101518152602001878481518110610ece57610ecd6147d9565b5b60200260200101518152602001868481518110610eee57610eed6147d9565b5b60200260200101518152602001858481518110610f0e57610f0d6147d9565b5b6020026020010151815250905060038a604051610f2b9190613fe4565b90815260200160405180910390206000018190806001815401808255809150506001900390600052602060002090600602016000909190919091506000820151816000019081610f7b9190614207565b506020820151816001019081610f919190614207565b50604082015181600201556060820151816003019081610fb19190614207565b506080820151816004019081610fc79190614207565b5060a0820151816005019081610fdd9190614207565b505050508080610fec90614837565b915050610e45565b50806003896040516110069190613fe4565b908152602001604051809103902060010190816110239190614207565b50876040516110329190613fe4565b60405180910390207f631949410f916403288729dc6612564d8010e74289fbb57d82a64f3494ac3bbe60038a60405161106b9190613fe4565b90815260200160405180910390206000018360405161108b9291906149e1565b60405180910390a25050505050505050565b60606004826040516110af9190613fe4565b9081526020016040518091039020600001805480602002602001604051908101604052809291908181526020016000905b8282101561127957838290600052602060002090600702016040518060e00160405290816000820180546111139061402a565b80601f016020809104026020016040519081016040528092919081815260200182805461113f9061402a565b801561118c5780601f106111615761010080835404028352916020019161118c565b820191906000526020600020905b81548152906001019060200180831161116f57829003601f168201915b5050505050815260200160018201548152602001600282015481526020016003820180546111b99061402a565b80601f01602080910402602001604051908101604052809291908181526020018280546111e59061402a565b80156112325780601f1061120757610100808354040283529160200191611232565b820191906000526020600020905b81548152906001019060200180831161121557829003601f168201915b505050505081526020016004820160009054906101000a900460ff1615151515815260200160058201548152602001600682015481525050815260200190600101906110e0565b505050509050919050565b60606003826040516112969190613fe4565b9081526020016040518091039020600001805480602002602001604051908101604052809291908181526020016000905b828210156115dd57838290600052602060002090600602016040518060c00160405290816000820180546112fa9061402a565b80601f01602080910402602001604051908101604052809291908181526020018280546113269061402a565b80156113735780601f1061134857610100808354040283529160200191611373565b820191906000526020600020905b81548152906001019060200180831161135657829003601f168201915b5050505050815260200160018201805461138c9061402a565b80601f01602080910402602001604051908101604052809291908181526020018280546113b89061402a565b80156114055780601f106113da57610100808354040283529160200191611405565b820191906000526020600020905b8154815290600101906020018083116113e857829003601f168201915b50505050508152602001600282015481526020016003820180546114289061402a565b80601f01602080910402602001604051908101604052809291908181526020018280546114549061402a565b80156114a15780601f10611476576101008083540402835291602001916114a1565b820191906000526020600020905b81548152906001019060200180831161148457829003601f168201915b505050505081526020016004820180546114ba9061402a565b80601f01602080910402602001604051908101604052809291908181526020018280546114e69061402a565b80156115335780601f1061150857610100808354040283529160200191611533565b820191906000526020600020905b81548152906001019060200180831161151657829003601f168201915b5050505050815260200160058201805461154c9061402a565b80601f01602080910402602001604051908101604052809291908181526020018280546115789061402a565b80156115c55780601f1061159a576101008083540402835291602001916115c5565b820191906000526020600020905b8154815290600101906020018083116115a857829003601f168201915b505050505081525050815260200190600101906112c7565b505050509050919050565b60606002826040516115fa9190613fe4565b9081526020016040518091039020600001805480602002602001604051908101604052809291908181526020016000905b82821015611a6657838290600052602060002090600802016040518061010001604052908160008201805461165f9061402a565b80601f016020809104026020016040519081016040528092919081815260200182805461168b9061402a565b80156116d85780601f106116ad576101008083540402835291602001916116d8565b820191906000526020600020905b8154815290600101906020018083116116bb57829003601f168201915b505050505081526020016001820180546116f19061402a565b80601f016020809104026020016040519081016040528092919081815260200182805461171d9061402a565b801561176a5780601f1061173f5761010080835404028352916020019161176a565b820191906000526020600020905b81548152906001019060200180831161174d57829003601f168201915b505050505081526020016002820180546117839061402a565b80601f01602080910402602001604051908101604052809291908181526020018280546117af9061402a565b80156117fc5780601f106117d1576101008083540402835291602001916117fc565b820191906000526020600020905b8154815290600101906020018083116117df57829003601f168201915b505050505081526020016003820180546118159061402a565b80601f01602080910402602001604051908101604052809291908181526020018280546118419061402a565b801561188e5780601f106118635761010080835404028352916020019161188e565b820191906000526020600020905b81548152906001019060200180831161187157829003601f168201915b505050505081526020016004820180546118a79061402a565b80601f01602080910402602001604051908101604052809291908181526020018280546118d39061402a565b80156119205780601f106118f557610100808354040283529160200191611920565b820191906000526020600020905b81548152906001019060200180831161190357829003601f168201915b50505050508152602001600582015481526020016006820180546119439061402a565b80601f016020809104026020016040519081016040528092919081815260200182805461196f9061402a565b80156119bc5780601f10611991576101008083540402835291602001916119bc565b820191906000526020600020905b81548152906001019060200180831161199f57829003601f168201915b505050505081526020016007820180546119d59061402a565b80601f0160208091040260200160405190810160405280929190818152602001828054611a019061402a565b8015611a4e5780601f10611a2357610100808354040283529160200191611a4e565b820191906000526020600020905b815481529060010190602001808311611a3157829003601f168201915b5050505050815250508152602001906001019061162b565b505050509050919050565b6000600183604051611a839190613fe4565b9081526020016040518091039020905081816001019081611aa49190614207565b5082604051611ab39190613fe4565b60405180910390207f7b1ac6b8cbddaca0fca5e3db838619d5943ce7fec69918b95811c7a43ddfa4fc8260000184604051611aef929190614b66565b60405180910390a2505050565b6060600482604051611b0e9190613fe4565b90815260200160405180910390206001018054611b2a9061402a565b80601f0160208091040260200160405190810160405280929190818152602001828054611b569061402a565b8015611ba35780601f10611b7857610100808354040283529160200191611ba3565b820191906000526020600020905b815481529060010190602001808311611b8657829003601f168201915b50505050509050919050565b83518551148015611bc1575082518451145b8015611bce575081518351145b611c0d576040517f08c379a0000000000000000000000000000000000000000000000000000000008152600401611c04906147b9565b60405180910390fd5b60005b8551811015611d475760006040518060800160405280888481518110611c3957611c386147d9565b5b60200260200101518152602001878481518110611c5957611c586147d9565b5b60200260200101518152602001868481518110611c7957611c786147d9565b5b60200260200101518152602001858481518110611c9957611c986147d9565b5b60200260200101518152509050600088604051611cb69190613fe4565b90815260200160405180910390206000018190806001815401808255809150506001900390600052602060002090600402016000909190919091506000820151816000019081611d069190614207565b506020820151816001019081611d1c9190614207565b5060408201518160020155606082015181600301555050508080611d3f90614837565b915050611c10565b5080600087604051611d599190613fe4565b90815260200160405180910390206001019081611d769190614207565b5085604051611d859190613fe4565b60405180910390207fe1d458654f5707c5b4f344ea06155edfde34c4ca973c5e3647fa8b32f2b31db4600088604051611dbe9190613fe4565b908152602001604051809103902060000183604051611dde929190614cd2565b60405180910390a2505050505050565b6000604051806060016040528083600001518152602001836020015181526020018360400151815250905080600584604051611e2a9190613fe4565b90815260200160405180910390206000820151816000019081611e4d9190614207565b506020820151816001019081611e639190614207565b506040820151816002015590505082604051611e7f9190613fe4565b60405180910390207f4f24336055d992bf20f44d53f6f7e8909075915f2bc6830d7a7963652fcbf729836000015184602001518560400151604051611ec693929190612eaa565b60405180910390a2505050565b84518651148015611ee5575083518551145b8015611ef2575082518451145b8015611eff575081518351145b611f3e576040517f08c379a0000000000000000000000000000000000000000000000000000000008152600401611f35906147b9565b60405180910390fd5b60005b86518110156120ae5760006040518060a00160405280898481518110611f6a57611f696147d9565b5b60200260200101518152602001888481518110611f8a57611f896147d9565b5b60200260200101518152602001878481518110611faa57611fa96147d9565b5b60200260200101518152602001868481518110611fca57611fc96147d9565b5b60200260200101518152602001858481518110611fea57611fe96147d9565b5b602002602001015181525090506001896040516120079190613fe4565b908152602001604051809103902060000181908060018154018082558091505060019003906000526020600020906005020160009091909190915060008201518160000190816120579190614207565b506020820151816001015560408201518160020190816120779190614207565b50606082015181600301908161208d9190614207565b506080820151816004015550505080806120a690614837565b915050611f41565b50806001886040516120c09190613fe4565b908152602001604051809103902060010190816120dd9190614207565b50866040516120ec9190613fe4565b60405180910390207f7b1ac6b8cbddaca0fca5e3db838619d5943ce7fec69918b95811c7a43ddfa4fc6001896040516121259190613fe4565b908152602001604051809103902060000183604051612145929190614b66565b60405180910390a250505050505050565b87518951148015612168575086518851145b8015612175575085518751145b8015612182575084518651145b801561218f575083518551145b801561219c575082518451145b80156121a9575081518351145b6121e8576040517f08c379a00000000000000000000000000000000000000000000000000000000081526004016121df906147b9565b60405180910390fd5b60005b89518110156124075760006040518061010001604052808c8481518110612215576122146147d9565b5b602002602001015181526020018b8481518110612235576122346147d9565b5b602002602001015181526020018a8481518110612255576122546147d9565b5b60200260200101518152602001898481518110612275576122746147d9565b5b60200260200101518152602001888481518110612295576122946147d9565b5b602002602001015181526020018784815181106122b5576122b46147d9565b5b602002602001015181526020018684815181106122d5576122d46147d9565b5b602002602001015181526020018584815181106122f5576122f46147d9565b5b6020026020010151815250905060028c6040516123129190613fe4565b908152602001604051809103902060000181908060018154018082558091505060019003906000526020600020906008020160009091909190915060008201518160000190816123629190614207565b5060208201518160010190816123789190614207565b50604082015181600201908161238e9190614207565b5060608201518160030190816123a49190614207565b5060808201518160040190816123ba9190614207565b5060a0820151816005015560c08201518160060190816123da9190614207565b5060e08201518160070190816123f09190614207565b5050505080806123ff90614837565b9150506121eb565b508060028b6040516124199190613fe4565b908152602001604051809103902060010190816124369190614207565b50896040516124459190613fe4565b60405180910390207f5f60f857012493da3c65fcf0df4c087fbd203856172f2658031a4305573ea12f60028c60405161247e9190613fe4565b90815260200160405180910390206000018360405161249e929190614710565b60405180910390a250505050505050505050565b600080836040516124c39190613fe4565b90815260200160405180910390209050818160010190816124e49190614207565b50826040516124f39190613fe4565b60405180910390207fe1d458654f5707c5b4f344ea06155edfde34c4ca973c5e3647fa8b32f2b31db4826000018460405161252f929190614cd2565b60405180910390a2505050565b600060038360405161254e9190613fe4565b908152602001604051809103902090508181600101908161256f9190614207565b508260405161257e9190613fe4565b60405180910390207f631949410f916403288729dc6612564d8010e74289fbb57d82a64f3494ac3bbe82600001846040516125ba9291906149e1565b60405180910390a2505050565b865188511480156125d9575085518751145b80156125e6575084518651145b80156125f3575083518551145b8015612600575082518451145b801561260d575081518351145b61264c576040517f08c379a0000000000000000000000000000000000000000000000000000000008152600401612643906147b9565b60405180910390fd5b60005b885181101561281c5760006040518060e001604052808b8481518110612678576126776147d9565b5b602002602001015181526020018a8481518110612698576126976147d9565b5b602002602001015181526020018984815181106126b8576126b76147d9565b5b602002602001015181526020018884815181106126d8576126d76147d9565b5b602002602001015181526020018784815181106126f8576126f76147d9565b5b60200260200101511515815260200186848151811061271a576127196147d9565b5b6020026020010151815260200185848151811061273a576127396147d9565b5b6020026020010151815250905060048b6040516127579190613fe4565b908152602001604051809103902060000181908060018154018082558091505060019003906000526020600020906007020160009091909190915060008201518160000190816127a79190614207565b50602082015181600101556040820151816002015560608201518160030190816127d19190614207565b5060808201518160040160006101000a81548160ff02191690831515021790555060a0820151816005015560c08201518160060155505050808061281490614837565b91505061264f565b508060048a60405161282e9190613fe4565b9081526020016040518091039020600101908161284b9190614207565b508860405161285a9190613fe4565b60405180910390207f145d21640bca172e24e08c3c82ee35d24c5ff1db94ca48bf9a18240cbbdf196960048b6040516128939190613fe4565b9081526020016040518091039020600001836040516128b3929190614544565b60405180910390a2505050505050505050565b6000604051905090565b600080fd5b600080fd5b600080fd5b600080fd5b6000601f19601f8301169050919050565b7f4e487b7100000000000000000000000000000000000000000000000000000000600052604160045260246000fd5b61292d826128e4565b810181811067ffffffffffffffff8211171561294c5761294b6128f5565b5b80604052505050565b600061295f6128c6565b905061296b8282612924565b919050565b600067ffffffffffffffff82111561298b5761298a6128f5565b5b612994826128e4565b9050602081019050919050565b82818337600083830152505050565b60006129c36129be84612970565b612955565b9050828152602081018484840111156129df576129de6128df565b5b6129ea8482856129a1565b509392505050565b600082601f830112612a0757612a066128da565b5b8135612a178482602086016129b0565b91505092915050565b600060208284031215612a3657612a356128d0565b5b600082013567ffffffffffffffff811115612a5457612a536128d5565b5b612a60848285016129f2565b91505092915050565b600081519050919050565b600082825260208201905092915050565b60005b83811015612aa3578082015181840152602081019050612a88565b60008484015250505050565b6000612aba82612a69565b612ac48185612a74565b9350612ad4818560208601612a85565b612add816128e4565b840191505092915050565b60006020820190508181036000830152612b028184612aaf565b905092915050565b60008060408385031215612b2157612b206128d0565b5b600083013567ffffffffffffffff811115612b3f57612b3e6128d5565b5b612b4b858286016129f2565b925050602083013567ffffffffffffffff811115612b6c57612b6b6128d5565b5b612b78858286016129f2565b9150509250929050565b600081519050919050565b600082825260208201905092915050565b6000819050602082019050919050565b600082825260208201905092915050565b6000612bca82612a69565b612bd48185612bae565b9350612be4818560208601612a85565b612bed816128e4565b840191505092915050565b6000819050919050565b612c0b81612bf8565b82525050565b600060a0830160008301518482036000860152612c2e8282612bbf565b9150506020830151612c436020860182612c02565b5060408301518482036040860152612c5b8282612bbf565b91505060608301518482036060860152612c758282612bbf565b9150506080830151612c8a6080860182612c02565b508091505092915050565b6000612ca18383612c11565b905092915050565b6000602082019050919050565b6000612cc182612b82565b612ccb8185612b8d565b935083602082028501612cdd85612b9e565b8060005b85811015612d195784840389528151612cfa8582612c95565b9450612d0583612ca9565b925060208a01995050600181019050612ce1565b50829750879550505050505092915050565b60006020820190508181036000830152612d458184612cb6565b905092915050565b600081519050919050565b600082825260208201905092915050565b6000819050602082019050919050565b60006080830160008301518482036000860152612d968282612bbf565b91505060208301518482036020860152612db08282612bbf565b9150506040830151612dc56040860182612c02565b506060830151612dd86060860182612c02565b508091505092915050565b6000612def8383612d79565b905092915050565b6000602082019050919050565b6000612e0f82612d4d565b612e198185612d58565b935083602082028501612e2b85612d69565b8060005b85811015612e675784840389528151612e488582612de3565b9450612e5383612df7565b925060208a01995050600181019050612e2f565b50829750879550505050505092915050565b60006020820190508181036000830152612e938184612e04565b905092915050565b612ea481612bf8565b82525050565b60006060820190508181036000830152612ec48186612aaf565b90508181036020830152612ed88185612aaf565b9050612ee76040830184612e9b565b949350505050565b600067ffffffffffffffff821115612f0a57612f096128f5565b5b602082029050602081019050919050565b600080fd5b6000612f33612f2e84612eef565b612955565b90508083825260208201905060208402830185811115612f5657612f55612f1b565b5b835b81811015612f9d57803567ffffffffffffffff811115612f7b57612f7a6128da565b5b808601612f8889826129f2565b85526020850194505050602081019050612f58565b5050509392505050565b600082601f830112612fbc57612fbb6128da565b5b8135612fcc848260208601612f20565b91505092915050565b600067ffffffffffffffff821115612ff057612fef6128f5565b5b602082029050602081019050919050565b61300a81612bf8565b811461301557600080fd5b50565b60008135905061302781613001565b92915050565b600061304061303b84612fd5565b612955565b9050808382526020820190506020840283018581111561306357613062612f1b565b5b835b8181101561308c57806130788882613018565b845260208401935050602081019050613065565b5050509392505050565b600082601f8301126130ab576130aa6128da565b5b81356130bb84826020860161302d565b91505092915050565b600080600080600080600080610100898b0312156130e5576130e46128d0565b5b600089013567ffffffffffffffff811115613103576131026128d5565b5b61310f8b828c016129f2565b985050602089013567ffffffffffffffff8111156131305761312f6128d5565b5b61313c8b828c01612fa7565b975050604089013567ffffffffffffffff81111561315d5761315c6128d5565b5b6131698b828c01612fa7565b965050606089013567ffffffffffffffff81111561318a576131896128d5565b5b6131968b828c01613096565b955050608089013567ffffffffffffffff8111156131b7576131b66128d5565b5b6131c38b828c01612fa7565b94505060a089013567ffffffffffffffff8111156131e4576131e36128d5565b5b6131f08b828c01612fa7565b93505060c089013567ffffffffffffffff811115613211576132106128d5565b5b61321d8b828c01612fa7565b92505060e089013567ffffffffffffffff81111561323e5761323d6128d5565b5b61324a8b828c016129f2565b9150509295985092959890939650565b600081519050919050565b600082825260208201905092915050565b6000819050602082019050919050565b60008115159050919050565b61329b81613286565b82525050565b600060e08301600083015184820360008601526132be8282612bbf565b91505060208301516132d36020860182612c02565b5060408301516132e66040860182612c02565b50606083015184820360608601526132fe8282612bbf565b91505060808301516133136080860182613292565b5060a083015161332660a0860182612c02565b5060c083015161333960c0860182612c02565b508091505092915050565b600061335083836132a1565b905092915050565b6000602082019050919050565b60006133708261325a565b61337a8185613265565b93508360208202850161338c85613276565b8060005b858110156133c857848403895281516133a98582613344565b94506133b483613358565b925060208a01995050600181019050613390565b50829750879550505050505092915050565b600060208201905081810360008301526133f48184613365565b905092915050565b600081519050919050565b600082825260208201905092915050565b6000819050602082019050919050565b600060c08301600083015184820360008601526134458282612bbf565b9150506020830151848203602086015261345f8282612bbf565b91505060408301516134746040860182612c02565b506060830151848203606086015261348c8282612bbf565b915050608083015184820360808601526134a68282612bbf565b91505060a083015184820360a08601526134c08282612bbf565b9150508091505092915050565b60006134d98383613428565b905092915050565b6000602082019050919050565b60006134f9826133fc565b6135038185613407565b93508360208202850161351585613418565b8060005b85811015613551578484038952815161353285826134cd565b945061353d836134e1565b925060208a01995050600181019050613519565b50829750879550505050505092915050565b6000602082019050818103600083015261357d81846134ee565b905092915050565b600081519050919050565b600082825260208201905092915050565b6000819050602082019050919050565b60006101008301600083015184820360008601526135cf8282612bbf565b915050602083015184820360208601526135e98282612bbf565b915050604083015184820360408601526136038282612bbf565b9150506060830151848203606086015261361d8282612bbf565b915050608083015184820360808601526136378282612bbf565b91505060a083015161364c60a0860182612c02565b5060c083015184820360c08601526136648282612bbf565b91505060e083015184820360e086015261367e8282612bbf565b9150508091505092915050565b600061369783836135b1565b905092915050565b6000602082019050919050565b60006136b782613585565b6136c18185613590565b9350836020820285016136d3856135a1565b8060005b8581101561370f57848403895281516136f0858261368b565b94506136fb8361369f565b925060208a019950506001810190506136d7565b50829750879550505050505092915050565b6000602082019050818103600083015261373b81846136ac565b905092915050565b60008060008060008060c087890312156137605761375f6128d0565b5b600087013567ffffffffffffffff81111561377e5761377d6128d5565b5b61378a89828a016129f2565b965050602087013567ffffffffffffffff8111156137ab576137aa6128d5565b5b6137b789828a01612fa7565b955050604087013567ffffffffffffffff8111156137d8576137d76128d5565b5b6137e489828a01612fa7565b945050606087013567ffffffffffffffff811115613805576138046128d5565b5b61381189828a01613096565b935050608087013567ffffffffffffffff811115613832576138316128d5565b5b61383e89828a01613096565b92505060a087013567ffffffffffffffff81111561385f5761385e6128d5565b5b61386b89828a016129f2565b9150509295509295509295565b600080fd5b600080fd5b60006060828403121561389857613897613878565b5b6138a26060612955565b9050600082013567ffffffffffffffff8111156138c2576138c161387d565b5b6138ce848285016129f2565b600083015250602082013567ffffffffffffffff8111156138f2576138f161387d565b5b6138fe848285016129f2565b602083015250604061391284828501613018565b60408301525092915050565b60008060408385031215613935576139346128d0565b5b600083013567ffffffffffffffff811115613953576139526128d5565b5b61395f858286016129f2565b925050602083013567ffffffffffffffff8111156139805761397f6128d5565b5b61398c85828601613882565b9150509250929050565b600080600080600080600060e0888a0312156139b5576139b46128d0565b5b600088013567ffffffffffffffff8111156139d3576139d26128d5565b5b6139df8a828b016129f2565b975050602088013567ffffffffffffffff811115613a00576139ff6128d5565b5b613a0c8a828b01612fa7565b965050604088013567ffffffffffffffff811115613a2d57613a2c6128d5565b5b613a398a828b01613096565b955050606088013567ffffffffffffffff811115613a5a57613a596128d5565b5b613a668a828b01612fa7565b945050608088013567ffffffffffffffff811115613a8757613a866128d5565b5b613a938a828b01612fa7565b93505060a088013567ffffffffffffffff811115613ab457613ab36128d5565b5b613ac08a828b01613096565b92505060c088013567ffffffffffffffff811115613ae157613ae06128d5565b5b613aed8a828b016129f2565b91505092959891949750929550565b6000806000806000806000806000806101408b8d031215613b2057613b1f6128d0565b5b60008b013567ffffffffffffffff811115613b3e57613b3d6128d5565b5b613b4a8d828e016129f2565b9a505060208b013567ffffffffffffffff811115613b6b57613b6a6128d5565b5b613b778d828e01612fa7565b99505060408b013567ffffffffffffffff811115613b9857613b976128d5565b5b613ba48d828e01612fa7565b98505060608b013567ffffffffffffffff811115613bc557613bc46128d5565b5b613bd18d828e01612fa7565b97505060808b013567ffffffffffffffff811115613bf257613bf16128d5565b5b613bfe8d828e01612fa7565b96505060a08b013567ffffffffffffffff811115613c1f57613c1e6128d5565b5b613c2b8d828e01612fa7565b95505060c08b013567ffffffffffffffff811115613c4c57613c4b6128d5565b5b613c588d828e01613096565b94505060e08b013567ffffffffffffffff811115613c7957613c786128d5565b5b613c858d828e01612fa7565b9350506101008b013567ffffffffffffffff811115613ca757613ca66128d5565b5b613cb38d828e01612fa7565b9250506101208b013567ffffffffffffffff811115613cd557613cd46128d5565b5b613ce18d828e016129f2565b9150509295989b9194979a5092959850565b600067ffffffffffffffff821115613d0e57613d0d6128f5565b5b602082029050602081019050919050565b613d2881613286565b8114613d3357600080fd5b50565b600081359050613d4581613d1f565b92915050565b6000613d5e613d5984613cf3565b612955565b90508083825260208201905060208402830185811115613d8157613d80612f1b565b5b835b81811015613daa5780613d968882613d36565b845260208401935050602081019050613d83565b5050509392505050565b600082601f830112613dc957613dc86128da565b5b8135613dd9848260208601613d4b565b91505092915050565b60008060008060008060008060006101208a8c031215613e0557613e046128d0565b5b60008a013567ffffffffffffffff811115613e2357613e226128d5565b5b613e2f8c828d016129f2565b99505060208a013567ffffffffffffffff811115613e5057613e4f6128d5565b5b613e5c8c828d01612fa7565b98505060408a013567ffffffffffffffff811115613e7d57613e7c6128d5565b5b613e898c828d01613096565b97505060608a013567ffffffffffffffff811115613eaa57613ea96128d5565b5b613eb68c828d01613096565b96505060808a013567ffffffffffffffff811115613ed757613ed66128d5565b5b613ee38c828d01612fa7565b95505060a08a013567ffffffffffffffff811115613f0457613f036128d5565b5b613f108c828d01613db4565b94505060c08a013567ffffffffffffffff811115613f3157613f306128d5565b5b613f3d8c828d01613096565b93505060e08a013567ffffffffffffffff811115613f5e57613f5d6128d5565b5b613f6a8c828d01613096565b9250506101008a013567ffffffffffffffff811115613f8c57613f8b6128d5565b5b613f988c828d016129f2565b9150509295985092959850929598565b600081905092915050565b6000613fbe82612a69565b613fc88185613fa8565b9350613fd8818560208601612a85565b80840191505092915050565b6000613ff08284613fb3565b915081905092915050565b7f4e487b7100000000000000000000000000000000000000000000000000000000600052602260045260246000fd5b6000600282049050600182168061404257607f821691505b60208210810361405557614054613ffb565b5b50919050565b60008190508160005260206000209050919050565b60006020601f8301049050919050565b600082821b905092915050565b6000600883026140bd7fffffffffffffffffffffffffffffffffffffffffffffffffffffffffffffffff82614080565b6140c78683614080565b95508019841693508086168417925050509392505050565b6000819050919050565b60006141046140ff6140fa84612bf8565b6140df565b612bf8565b9050919050565b6000819050919050565b61411e836140e9565b61413261412a8261410b565b84845461408d565b825550505050565b600090565b61414761413a565b614152818484614115565b505050565b5b818110156141765761416b60008261413f565b600181019050614158565b5050565b601f8211156141bb5761418c8161405b565b61419584614070565b810160208510156141a4578190505b6141b86141b085614070565b830182614157565b50505b505050565b600082821c905092915050565b60006141de600019846008026141c0565b1980831691505092915050565b60006141f783836141cd565b9150826002028217905092915050565b61421082612a69565b67ffffffffffffffff811115614229576142286128f5565b5b614233825461402a565b61423e82828561417a565b600060209050601f831160018114614271576000841561425f578287015190505b61426985826141eb565b8655506142d1565b601f19841661427f8661405b565b60005b828110156142a757848901518255600182019150602085019450602081019050614282565b868310156142c457848901516142c0601f8916826141cd565b8355505b6001600288020188555050505b505050505050565b600081549050919050565b60008190508160005260206000209050919050565b600081546143068161402a565b6143108186612bae565b9450600182166000811461432b576001811461434157614374565b60ff198316865281151560200286019350614374565b61434a8561405b565b60005b8381101561436c5781548189015260018201915060208101905061434d565b808801955050505b50505092915050565b60008160001c9050919050565b6000819050919050565b60006143a76143a28361437d565b61438a565b9050919050565b600060ff82169050919050565b60006143ce6143c98361437d565b6143ae565b9050919050565b600060e08301600080840185830360008701526143f283826142f9565b9250506001840154905061440581614394565b6144126020870182612c02565b506002840154905061442381614394565b6144306040870182612c02565b5060038401858303606087015261444783826142f9565b9250506004840154905061445a816143bb565b6144676080870182613292565b506005840154905061447881614394565b61448560a0870182612c02565b506006840154905061449681614394565b6144a360c0870182612c02565b50819250505092915050565b60006144bb83836143d5565b905092915050565b6000600782019050919050565b60006144db826142d9565b6144e58185613265565b9350836020820285016144f7856142e4565b8060005b858110156145325784840389528161451385826144af565b945061451e836144c3565b925060208a019950506001810190506144fb565b50829750879550505050505092915050565b6000604082019050818103600083015261455e81856144d0565b905081810360208301526145728184612aaf565b90509392505050565b600081549050919050565b60008190508160005260206000209050919050565b60006101008301600080840185830360008701526145b983826142f9565b9250506001840185830360208701526145d283826142f9565b9250506002840185830360408701526145eb83826142f9565b92505060038401858303606087015261460483826142f9565b92505060048401858303608087015261461d83826142f9565b9250506005840154905061463081614394565b61463d60a0870182612c02565b506006840185830360c087015261465483826142f9565b9250506007840185830360e087015261466d83826142f9565b925050819250505092915050565b6000614687838361459b565b905092915050565b6000600882019050919050565b60006146a78261457b565b6146b18185613590565b9350836020820285016146c385614586565b8060005b858110156146fe578484038952816146df858261467b565b94506146ea8361468f565b925060208a019950506001810190506146c7565b50829750879550505050505092915050565b6000604082019050818103600083015261472a818561469c565b9050818103602083015261473e8184612aaf565b90509392505050565b7f496e70757420617272617973206d7573742068617665207468652073616d652060008201527f6c656e6774680000000000000000000000000000000000000000000000000000602082015250565b60006147a3602683612a74565b91506147ae82614747565b604082019050919050565b600060208201905081810360008301526147d281614796565b9050919050565b7f4e487b7100000000000000000000000000000000000000000000000000000000600052603260045260246000fd5b7f4e487b7100000000000000000000000000000000000000000000000000000000600052601160045260246000fd5b600061484282612bf8565b91507fffffffffffffffffffffffffffffffffffffffffffffffffffffffffffffffff820361487457614873614808565b5b600182019050919050565b600081549050919050565b60008190508160005260206000209050919050565b600060c08301600080840185830360008701526148bc83826142f9565b9250506001840185830360208701526148d583826142f9565b925050600284015490506148e881614394565b6148f56040870182612c02565b5060038401858303606087015261490c83826142f9565b92505060048401858303608087015261492583826142f9565b9250506005840185830360a087015261493e83826142f9565b925050819250505092915050565b6000614958838361489f565b905092915050565b6000600682019050919050565b60006149788261487f565b6149828185613407565b9350836020820285016149948561488a565b8060005b858110156149cf578484038952816149b0858261494c565b94506149bb83614960565b925060208a01995050600181019050614998565b50829750879550505050505092915050565b600060408201905081810360008301526149fb818561496d565b90508181036020830152614a0f8184612aaf565b90509392505050565b600081549050919050565b60008190508160005260206000209050919050565b600060a0830160008084018583036000870152614a5583826142f9565b92505060018401549050614a6881614394565b614a756020870182612c02565b50600284018583036040870152614a8c83826142f9565b925050600384018583036060870152614aa583826142f9565b92505060048401549050614ab881614394565b614ac56080870182612c02565b50819250505092915050565b6000614add8383614a38565b905092915050565b6000600582019050919050565b6000614afd82614a18565b614b078185612b8d565b935083602082028501614b1985614a23565b8060005b85811015614b5457848403895281614b358582614ad1565b9450614b4083614ae5565b925060208a01995050600181019050614b1d565b50829750879550505050505092915050565b60006040820190508181036000830152614b808185614af2565b90508181036020830152614b948184612aaf565b90509392505050565b600081549050919050565b60008190508160005260206000209050919050565b60006080830160008084018583036000870152614bda83826142f9565b925050600184018583036020870152614bf383826142f9565b92505060028401549050614c0681614394565b614c136040870182612c02565b5060038401549050614c2481614394565b614c316060870182612c02565b50819250505092915050565b6000614c498383614bbd565b905092915050565b6000600482019050919050565b6000614c6982614b9d565b614c738185612d58565b935083602082028501614c8585614ba8565b8060005b85811015614cc057848403895281614ca18582614c3d565b9450614cac83614c51565b925060208a01995050600181019050614c89565b50829750879550505050505092915050565b60006040820190508181036000830152614cec8185614c5e565b90508181036020830152614d008184612aaf565b9050939250505056fea26469706673582212206e32d4e88d0624edc5e3e8d3136c505abd1d298ea6fac5439388963c3e562b3364736f6c63430008130033",
  "immutableReferences": {},
  "source": "// SPDX-License-Identifier: MIT\npragma solidity ^0.8.0;\n\ncontract UserContract {\n    struct UserData {\n        string email;\n        string name;\n        uint256 age;\n    }\n\n    struct EducationInfo {\n        string schoolName;\n        string degree;\n        uint256 startedYear;\n        uint256 graduationYear;\n    }\n\n    struct BankInfo {\n        string bankName;\n        uint256 accountBalance;\n        string accountNumber;\n        string accountType;\n        uint256 accountOpeningDate;\n    }\n\n    struct HospitalInfo {\n        string hospitalName;\n        string doctorName;\n        string name;\n        string symptoms;\n        string diagnosticMethods;\n        uint256 date;\n        string treatmentOptions;\n        string importantInformation;\n    }\n\n    struct NotaryInfo {\n        string title;\n        string description;\n        uint256 date;\n        string notaryName;\n        string typeOfDocument;\n        string partiesInvolved;\n    }\n\n    struct TaxDebtInfo {\n        string taxpayer;\n        uint256 debtAmount;\n        uint256 expiryDate;\n        string typeOfTax;\n        bool isPaid;\n        uint256 paymentDate;\n        uint256 paymentAmount;\n    }\n\n    struct UserEducation {\n        EducationInfo[] educationInfos;\n        string ipfsHash;\n    }\n\n    struct UserBank {\n        BankInfo[] bankInfos;\n        string ipfsHash;\n    }\n\n    struct UserHospital {\n        HospitalInfo[] hospitalInfos;\n        string ipfsHash;\n    }\n\n    struct UserNotary {\n        NotaryInfo[] notaryInfos;\n        string ipfsHash;\n    }\n\n    struct UserTaxDebt {\n        TaxDebtInfo[] taxDebtInfos;\n        string ipfsHash;\n    }\n\n    mapping(string => UserEducation) private educationRecords;\n    mapping(string => UserBank) private bankRecords;\n    mapping(string => UserHospital) private hospitalRecords;\n    mapping(string => UserNotary) private notaryRecords;\n    mapping(string => UserTaxDebt) private taxDebtRecords;\n\n    mapping(string => UserData) users;\n\n    event UserUpdated(\n        string indexed userId,\n        string email,\n        string name,\n        uint256 age\n    );\n\n    event UserEducationUpdated(\n        string indexed userId,\n        EducationInfo[] educationInfos,\n        string ipfsHash\n    );\n\n    event UserBankUpdated(\n        string indexed userId,\n        BankInfo[] bankInfos,\n        string ipfsHash\n    );\n\n    event UserHospitalUpdated(\n        string indexed userId,\n        HospitalInfo[] hospitalInfos,\n        string ipfsHash\n    );\n\n    event UserNotaryUpdated(\n        string indexed userId,\n        NotaryInfo[] notaryInfos,\n        string ipfsHash\n    );\n\n    event UserTaxDebtUpdated(\n        string indexed userId,\n        TaxDebtInfo[] taxDebtInfos,\n        string ipfsHash\n    );\n\n    function setUserData(\n        string memory userId,\n        UserData memory userData\n    ) public {\n        UserData memory newUser = UserData(\n            userData.email,\n            userData.name,\n            userData.age\n        );\n        users[userId] = newUser;\n        emit UserUpdated(userId, userData.email, userData.name, userData.age);\n    }\n\n    function getUserData(\n        string memory userId\n    )\n        public\n        view\n        returns (string memory email, string memory name, uint256 age)\n    {\n        UserData storage user = users[userId];\n        return (user.email, user.name, user.age);\n    }\n\n    // function setEducationRecord(\n    //     string memory userId,\n    //     EducationInfo[] memory educationInfos,\n    //     string memory ipfsHash\n    // ) public {\n    //     UserEducation storage userEducation = educationRecords[userId];\n\n    //     userEducation.educationInfos = educationInfos;\n    //     userEducation.ipfsHash = ipfsHash;\n\n    //     // UserEducation memory newUserEducation = UserEducation(\n    //     //     educationInfos,\n    //     //     ipfsHash\n    //     // );\n\n    //     educationRecords[userId] = userEducation;\n    //     emit UserEducationUpdated(userId, educationInfos, ipfsHash);\n    // }\n\n    function setEducationRecord(\n        string memory userId,\n        string[] memory schoolNames,\n        string[] memory degrees,\n        uint256[] memory startedYears,\n        uint256[] memory graduationYears,\n        string memory ipfsHash\n    ) public {\n        require(\n            schoolNames.length == degrees.length &&\n                degrees.length == startedYears.length &&\n                startedYears.length == graduationYears.length,\n            \"Input arrays must have the same length\"\n        );\n\n        for (uint256 i = 0; i < schoolNames.length; i++) {\n            EducationInfo memory newEducation = EducationInfo({\n                schoolName: schoolNames[i],\n                degree: degrees[i],\n                startedYear: startedYears[i],\n                graduationYear: graduationYears[i]\n            });\n\n            educationRecords[userId].educationInfos.push(newEducation);\n        }\n\n        educationRecords[userId].ipfsHash = ipfsHash;\n\n        emit UserEducationUpdated(\n            userId,\n            educationRecords[userId].educationInfos,\n            ipfsHash\n        );\n    }\n\n    function getEducationRecords(\n        string memory userId\n    ) public view returns (EducationInfo[] memory) {\n        return educationRecords[userId].educationInfos;\n    }\n\n    function setEducationIPFSHash(\n        string memory userId,\n        string memory ipfsHash\n    ) public {\n        UserEducation storage userEducation = educationRecords[userId];\n\n        userEducation.ipfsHash = ipfsHash;\n\n        emit UserEducationUpdated(\n            userId,\n            userEducation.educationInfos,\n            ipfsHash\n        );\n    }\n\n    function getEducationIPFSHash(\n        string memory userId\n    ) public view returns (string memory) {\n        return educationRecords[userId].ipfsHash;\n    }\n\n    function setBankRecord(\n        string memory userId,\n        string[] memory bankNames,\n        uint256[] memory accountBalances,\n        string[] memory accountNumbers,\n        string[] memory accountTypes,\n        uint256[] memory accountOpeningDates,\n        string memory ipfsHash\n    ) public {\n        require(\n            bankNames.length == accountBalances.length &&\n                accountBalances.length == accountNumbers.length &&\n                accountNumbers.length == accountTypes.length &&\n                accountTypes.length == accountOpeningDates.length,\n            \"Input arrays must have the same length\"\n        );\n\n        for (uint256 i = 0; i < bankNames.length; i++) {\n            BankInfo memory newBank = BankInfo({\n                bankName: bankNames[i],\n                accountBalance: accountBalances[i],\n                accountNumber: accountNumbers[i],\n                accountType: accountTypes[i],\n                accountOpeningDate: accountOpeningDates[i]\n            });\n\n            bankRecords[userId].bankInfos.push(newBank);\n        }\n\n        bankRecords[userId].ipfsHash = ipfsHash;\n\n        emit UserBankUpdated(userId, bankRecords[userId].bankInfos, ipfsHash);\n    }\n\n    function getBankRecords(\n        string memory userId\n    ) public view returns (BankInfo[] memory) {\n        return bankRecords[userId].bankInfos;\n    }\n\n    function setBankIPFSHash(\n        string memory userId,\n        string memory ipfsHash\n    ) public {\n        UserBank storage userBank = bankRecords[userId];\n\n        userBank.ipfsHash = ipfsHash;\n\n        emit UserBankUpdated(userId, userBank.bankInfos, ipfsHash);\n    }\n\n    function getBankIPFSHash(\n        string memory userId\n    ) public view returns (string memory) {\n        return bankRecords[userId].ipfsHash;\n    }\n\n    function setHospitalRecord(\n        string memory userId,\n        string[] memory hospitalNames,\n        string[] memory doctorNames,\n        string[] memory names,\n        string[] memory symptomss,\n        string[] memory diagnosticMethodss,\n        uint256[] memory dates,\n        string[] memory treatmentOptionss,\n        string[] memory importantInformations,\n        string memory ipfsHash\n    ) public {\n        require(\n            hospitalNames.length == doctorNames.length &&\n                doctorNames.length == names.length &&\n                names.length == symptomss.length &&\n                symptomss.length == diagnosticMethodss.length &&\n                diagnosticMethodss.length == dates.length &&\n                dates.length == treatmentOptionss.length &&\n                treatmentOptionss.length == importantInformations.length,\n            \"Input arrays must have the same length\"\n        );\n\n        for (uint256 i = 0; i < hospitalNames.length; i++) {\n            HospitalInfo memory newHospital = HospitalInfo({\n                hospitalName: hospitalNames[i],\n                doctorName: doctorNames[i],\n                name: names[i],\n                symptoms: symptomss[i],\n                diagnosticMethods: diagnosticMethodss[i],\n                date: dates[i],\n                treatmentOptions: treatmentOptionss[i],\n                importantInformation: importantInformations[i]\n            });\n\n            hospitalRecords[userId].hospitalInfos.push(newHospital);\n        }\n\n        hospitalRecords[userId].ipfsHash = ipfsHash;\n\n        emit UserHospitalUpdated(\n            userId,\n            hospitalRecords[userId].hospitalInfos,\n            ipfsHash\n        );\n    }\n\n    function getHospitalRecords(\n        string memory userId\n    ) public view returns (HospitalInfo[] memory) {\n        return hospitalRecords[userId].hospitalInfos;\n    }\n\n    function setHospitalIPFSHash(\n        string memory userId,\n        string memory ipfsHash\n    ) public {\n        UserHospital storage userHospital = hospitalRecords[userId];\n\n        userHospital.ipfsHash = ipfsHash;\n\n        emit UserHospitalUpdated(userId, userHospital.hospitalInfos, ipfsHash);\n    }\n\n    function getHospitalIPFSHash(\n        string memory userId\n    ) public view returns (string memory) {\n        return hospitalRecords[userId].ipfsHash;\n    }\n\n    function setNotaryRecord(\n        string memory userId,\n        string[] memory titles,\n        string[] memory descriptions,\n        uint256[] memory dates,\n        string[] memory notaryNames,\n        string[] memory typeOfDocuments,\n        string[] memory partiesInvolveds,\n        string memory ipfsHash\n    ) public {\n        require(\n            titles.length == descriptions.length &&\n                descriptions.length == dates.length &&\n                dates.length == notaryNames.length &&\n                notaryNames.length == typeOfDocuments.length &&\n                typeOfDocuments.length == partiesInvolveds.length,\n            \"Input arrays must have the same length\"\n        );\n\n        for (uint256 i = 0; i < titles.length; i++) {\n            NotaryInfo memory newNotary = NotaryInfo({\n                title: titles[i],\n                description: descriptions[i],\n                date: dates[i],\n                notaryName: notaryNames[i],\n                typeOfDocument: typeOfDocuments[i],\n                partiesInvolved: partiesInvolveds[i]\n            });\n\n            notaryRecords[userId].notaryInfos.push(newNotary);\n        }\n\n        notaryRecords[userId].ipfsHash = ipfsHash;\n\n        emit UserNotaryUpdated(\n            userId,\n            notaryRecords[userId].notaryInfos,\n            ipfsHash\n        );\n    }\n\n    function getNotaryRecords(\n        string memory userId\n    ) public view returns (NotaryInfo[] memory) {\n        return notaryRecords[userId].notaryInfos;\n    }\n\n    function setNotaryIPFSHash(\n        string memory userId,\n        string memory ipfsHash\n    ) public {\n        UserNotary storage userNotary = notaryRecords[userId];\n\n        userNotary.ipfsHash = ipfsHash;\n\n        emit UserNotaryUpdated(userId, userNotary.notaryInfos, ipfsHash);\n    }\n\n    function getNotaryIPFSHash(\n        string memory userId\n    ) public view returns (string memory) {\n        return notaryRecords[userId].ipfsHash;\n    }\n\n    function setTaxDebtRecord(\n        string memory userId,\n        string[] memory taxpayers,\n        uint256[] memory debtAmounts,\n        uint256[] memory expiryDates,\n        string[] memory typeOfTaxs,\n        bool[] memory isPaids,\n        uint256[] memory paymentDates,\n        uint256[] memory paymentAmounts,\n        string memory ipfsHash\n    ) public {\n        require(\n            taxpayers.length == debtAmounts.length &&\n                debtAmounts.length == expiryDates.length &&\n                expiryDates.length == typeOfTaxs.length &&\n                typeOfTaxs.length == isPaids.length &&\n                isPaids.length == paymentDates.length &&\n                paymentDates.length == paymentAmounts.length,\n            \"Input arrays must have the same length\"\n        );\n\n        for (uint256 i = 0; i < taxpayers.length; i++) {\n            TaxDebtInfo memory newTaxDebt = TaxDebtInfo({\n                taxpayer: taxpayers[i],\n                debtAmount: debtAmounts[i],\n                expiryDate: expiryDates[i],\n                typeOfTax: typeOfTaxs[i],\n                isPaid: isPaids[i],\n                paymentDate: paymentDates[i],\n                paymentAmount: paymentAmounts[i]\n            });\n\n            taxDebtRecords[userId].taxDebtInfos.push(newTaxDebt);\n        }\n\n        taxDebtRecords[userId].ipfsHash = ipfsHash;\n\n        emit UserTaxDebtUpdated(\n            userId,\n            taxDebtRecords[userId].taxDebtInfos,\n            ipfsHash\n        );\n    }\n\n    function getTaxDebtRecords(\n        string memory userId\n    ) public view returns (TaxDebtInfo[] memory) {\n        return taxDebtRecords[userId].taxDebtInfos;\n    }\n\n    function setTaxDebtIPFSHash(\n        string memory userId,\n        string memory ipfsHash\n    ) public {\n        UserTaxDebt storage userTaxDebt = taxDebtRecords[userId];\n\n        userTaxDebt.ipfsHash = ipfsHash;\n\n        emit UserTaxDebtUpdated(userId, userTaxDebt.taxDebtInfos, ipfsHash);\n    }\n\n    function getTaxDebtIPFSHash(\n        string memory userId\n    ) public view returns (string memory) {\n        return taxDebtRecords[userId].ipfsHash;\n    }\n}\n",
  "sourcePath": "/Users/kmlcnclk/Documents/Projects_NEU/my-devlet/contracts/UserContract.sol",
  "compiler": {
    "name": "solc",
    "version": "0.8.19+commit.7dd6d404.Emscripten.clang"
  },
  "schemaVersion": "3.4.15",
  "updatedAt": "2024-01-02T18:49:16.695Z",
  "devdoc": {
    "kind": "dev",
    "methods": {},
    "version": 1
  },
  "userdoc": {
    "kind": "user",
    "methods": {},
    "version": 1
  }
}