{
  "contractName": "UserContract",
  "abi": [
    {
      "anonymous": false,
      "inputs": [
        {
          "indexed": true,
          "internalType": "string",
          "name": "userId",
          "type": "string"
        },
        {
          "components": [
            {
              "internalType": "string",
              "name": "schoolName",
              "type": "string"
            },
            {
              "internalType": "string",
              "name": "degree",
              "type": "string"
            },
            {
              "internalType": "uint256",
              "name": "startedYear",
              "type": "uint256"
            },
            {
              "internalType": "uint256",
              "name": "graduationYear",
              "type": "uint256"
            }
          ],
          "indexed": false,
          "internalType": "struct UserContract.EducationInfo[]",
          "name": "educationInfos",
          "type": "tuple[]"
        },
        {
          "indexed": false,
          "internalType": "string",
          "name": "ipfsHash",
          "type": "string"
        }
      ],
      "name": "UserEducationUpdated",
      "type": "event"
    },
    {
      "anonymous": false,
      "inputs": [
        {
          "indexed": true,
          "internalType": "string",
          "name": "userId",
          "type": "string"
        },
        {
          "indexed": false,
          "internalType": "string",
          "name": "email",
          "type": "string"
        },
        {
          "indexed": false,
          "internalType": "string",
          "name": "name",
          "type": "string"
        },
        {
          "indexed": false,
          "internalType": "uint256",
          "name": "age",
          "type": "uint256"
        }
      ],
      "name": "UserUpdated",
      "type": "event"
    },
    {
      "inputs": [
        {
          "internalType": "string",
          "name": "userId",
          "type": "string"
        },
        {
          "components": [
            {
              "internalType": "string",
              "name": "email",
              "type": "string"
            },
            {
              "internalType": "string",
              "name": "name",
              "type": "string"
            },
            {
              "internalType": "uint256",
              "name": "age",
              "type": "uint256"
            }
          ],
          "internalType": "struct UserContract.UserData",
          "name": "userData",
          "type": "tuple"
        }
      ],
      "name": "setUserData",
      "outputs": [],
      "stateMutability": "nonpayable",
      "type": "function"
    },
    {
      "inputs": [
        {
          "internalType": "string",
          "name": "userId",
          "type": "string"
        }
      ],
      "name": "getUserData",
      "outputs": [
        {
          "internalType": "string",
          "name": "email",
          "type": "string"
        },
        {
          "internalType": "string",
          "name": "name",
          "type": "string"
        },
        {
          "internalType": "uint256",
          "name": "age",
          "type": "uint256"
        }
      ],
      "stateMutability": "view",
      "type": "function"
    },
    {
      "inputs": [
        {
          "internalType": "string",
          "name": "userId",
          "type": "string"
        },
        {
          "internalType": "string[]",
          "name": "schoolNames",
          "type": "string[]"
        },
        {
          "internalType": "string[]",
          "name": "degrees",
          "type": "string[]"
        },
        {
          "internalType": "uint256[]",
          "name": "startedYears",
          "type": "uint256[]"
        },
        {
          "internalType": "uint256[]",
          "name": "graduationYears",
          "type": "uint256[]"
        },
        {
          "internalType": "string",
          "name": "ipfsHash",
          "type": "string"
        }
      ],
      "name": "setEducationRecord",
      "outputs": [],
      "stateMutability": "nonpayable",
      "type": "function"
    },
    {
      "inputs": [
        {
          "internalType": "string",
          "name": "userId",
          "type": "string"
        }
      ],
      "name": "getEducationRecords",
      "outputs": [
        {
          "components": [
            {
              "internalType": "string",
              "name": "schoolName",
              "type": "string"
            },
            {
              "internalType": "string",
              "name": "degree",
              "type": "string"
            },
            {
              "internalType": "uint256",
              "name": "startedYear",
              "type": "uint256"
            },
            {
              "internalType": "uint256",
              "name": "graduationYear",
              "type": "uint256"
            }
          ],
          "internalType": "struct UserContract.EducationInfo[]",
          "name": "",
          "type": "tuple[]"
        }
      ],
      "stateMutability": "view",
      "type": "function"
    },
    {
      "inputs": [
        {
          "internalType": "string",
          "name": "userId",
          "type": "string"
        },
        {
          "internalType": "string",
          "name": "ipfsHash",
          "type": "string"
        }
      ],
      "name": "setIPFSHash",
      "outputs": [],
      "stateMutability": "nonpayable",
      "type": "function"
    },
    {
      "inputs": [
        {
          "internalType": "string",
          "name": "userId",
          "type": "string"
        }
      ],
      "name": "getIPFSHash",
      "outputs": [
        {
          "internalType": "string",
          "name": "",
          "type": "string"
        }
      ],
      "stateMutability": "view",
      "type": "function"
    }
  ],
  "bytecode": "0x608060405234801561001057600080fd5b50611868806100206000396000f3fe608060405234801561001057600080fd5b50600436106100625760003560e01c80634a5f66c1146100675780634f2cd1251461009757806354ab2403146100c7578063574d6554146100f9578063b1f441ef14610115578063be36f17414610131575b600080fd5b610081600480360381019061007c9190610a19565b61014d565b60405161008e9190610ae1565b60405180910390f35b6100b160048036038101906100ac9190610a19565b610200565b6040516100be9190610c92565b60405180910390f35b6100e160048036038101906100dc9190610a19565b6103b8565b6040516100f093929190610cc3565b60405180910390f35b610113600480360381019061010e9190610d08565b610511565b005b61012f600480360381019061012a9190610f55565b61059b565b005b61014b60048036038101906101469190611130565b6107da565b005b606060008260405161015f91906111e4565b9081526020016040518091039020600101805461017b9061122a565b80601f01602080910402602001604051908101604052809291908181526020018280546101a79061122a565b80156101f45780601f106101c9576101008083540402835291602001916101f4565b820191906000526020600020905b8154815290600101906020018083116101d757829003601f168201915b50505050509050919050565b606060008260405161021291906111e4565b9081526020016040518091039020600001805480602002602001604051908101604052809291908181526020016000905b828210156103ad57838290600052602060002090600402016040518060800160405290816000820180546102769061122a565b80601f01602080910402602001604051908101604052809291908181526020018280546102a29061122a565b80156102ef5780601f106102c4576101008083540402835291602001916102ef565b820191906000526020600020905b8154815290600101906020018083116102d257829003601f168201915b505050505081526020016001820180546103089061122a565b80601f01602080910402602001604051908101604052809291908181526020018280546103349061122a565b80156103815780601f1061035657610100808354040283529160200191610381565b820191906000526020600020905b81548152906001019060200180831161036457829003601f168201915b505050505081526020016002820154815260200160038201548152505081526020019060010190610243565b505050509050919050565b6060806000806001856040516103ce91906111e4565b90815260200160405180910390209050806000018160010182600201548280546103f79061122a565b80601f01602080910402602001604051908101604052809291908181526020018280546104239061122a565b80156104705780601f1061044557610100808354040283529160200191610470565b820191906000526020600020905b81548152906001019060200180831161045357829003601f168201915b505050505092508180546104839061122a565b80601f01602080910402602001604051908101604052809291908181526020018280546104af9061122a565b80156104fc5780601f106104d1576101008083540402835291602001916104fc565b820191906000526020600020905b8154815290600101906020018083116104df57829003601f168201915b50505050509150935093509350509193909250565b6000808360405161052291906111e4565b90815260200160405180910390209050818160010190816105439190611407565b508260405161055291906111e4565b60405180910390207fe1d458654f5707c5b4f344ea06155edfde34c4ca973c5e3647fa8b32f2b31db4826000018460405161058e9291906116c3565b60405180910390a2505050565b835185511480156105ad575082518451145b80156105ba575081518351145b6105f9576040517f08c379a00000000000000000000000000000000000000000000000000000000081526004016105f09061176c565b60405180910390fd5b60005b855181101561073357600060405180608001604052808884815181106106255761062461178c565b5b602002602001015181526020018784815181106106455761064461178c565b5b602002602001015181526020018684815181106106655761066461178c565b5b602002602001015181526020018584815181106106855761068461178c565b5b602002602001015181525090506000886040516106a291906111e4565b908152602001604051809103902060000181908060018154018082558091505060019003906000526020600020906004020160009091909190915060008201518160000190816106f29190611407565b5060208201518160010190816107089190611407565b506040820151816002015560608201518160030155505050808061072b906117ea565b9150506105fc565b508060008760405161074591906111e4565b908152602001604051809103902060010190816107629190611407565b508560405161077191906111e4565b60405180910390207fe1d458654f5707c5b4f344ea06155edfde34c4ca973c5e3647fa8b32f2b31db46000886040516107aa91906111e4565b9081526020016040518091039020600001836040516107ca9291906116c3565b60405180910390a2505050505050565b600060405180606001604052808360000151815260200183602001518152602001836040015181525090508060018460405161081691906111e4565b908152602001604051809103902060008201518160000190816108399190611407565b50602082015181600101908161084f9190611407565b50604082015181600201559050508260405161086b91906111e4565b60405180910390207f4f24336055d992bf20f44d53f6f7e8909075915f2bc6830d7a7963652fcbf7298360000151846020015185604001516040516108b293929190610cc3565b60405180910390a2505050565b6000604051905090565b600080fd5b600080fd5b600080fd5b600080fd5b6000601f19601f8301169050919050565b7f4e487b7100000000000000000000000000000000000000000000000000000000600052604160045260246000fd5b610926826108dd565b810181811067ffffffffffffffff82111715610945576109446108ee565b5b80604052505050565b60006109586108bf565b9050610964828261091d565b919050565b600067ffffffffffffffff821115610984576109836108ee565b5b61098d826108dd565b9050602081019050919050565b82818337600083830152505050565b60006109bc6109b784610969565b61094e565b9050828152602081018484840111156109d8576109d76108d8565b5b6109e384828561099a565b509392505050565b600082601f830112610a00576109ff6108d3565b5b8135610a108482602086016109a9565b91505092915050565b600060208284031215610a2f57610a2e6108c9565b5b600082013567ffffffffffffffff811115610a4d57610a4c6108ce565b5b610a59848285016109eb565b91505092915050565b600081519050919050565b600082825260208201905092915050565b60005b83811015610a9c578082015181840152602081019050610a81565b60008484015250505050565b6000610ab382610a62565b610abd8185610a6d565b9350610acd818560208601610a7e565b610ad6816108dd565b840191505092915050565b60006020820190508181036000830152610afb8184610aa8565b905092915050565b600081519050919050565b600082825260208201905092915050565b6000819050602082019050919050565b600082825260208201905092915050565b6000610b4b82610a62565b610b558185610b2f565b9350610b65818560208601610a7e565b610b6e816108dd565b840191505092915050565b6000819050919050565b610b8c81610b79565b82525050565b60006080830160008301518482036000860152610baf8282610b40565b91505060208301518482036020860152610bc98282610b40565b9150506040830151610bde6040860182610b83565b506060830151610bf16060860182610b83565b508091505092915050565b6000610c088383610b92565b905092915050565b6000602082019050919050565b6000610c2882610b03565b610c328185610b0e565b935083602082028501610c4485610b1f565b8060005b85811015610c805784840389528151610c618582610bfc565b9450610c6c83610c10565b925060208a01995050600181019050610c48565b50829750879550505050505092915050565b60006020820190508181036000830152610cac8184610c1d565b905092915050565b610cbd81610b79565b82525050565b60006060820190508181036000830152610cdd8186610aa8565b90508181036020830152610cf18185610aa8565b9050610d006040830184610cb4565b949350505050565b60008060408385031215610d1f57610d1e6108c9565b5b600083013567ffffffffffffffff811115610d3d57610d3c6108ce565b5b610d49858286016109eb565b925050602083013567ffffffffffffffff811115610d6a57610d696108ce565b5b610d76858286016109eb565b9150509250929050565b600067ffffffffffffffff821115610d9b57610d9a6108ee565b5b602082029050602081019050919050565b600080fd5b6000610dc4610dbf84610d80565b61094e565b90508083825260208201905060208402830185811115610de757610de6610dac565b5b835b81811015610e2e57803567ffffffffffffffff811115610e0c57610e0b6108d3565b5b808601610e1989826109eb565b85526020850194505050602081019050610de9565b5050509392505050565b600082601f830112610e4d57610e4c6108d3565b5b8135610e5d848260208601610db1565b91505092915050565b600067ffffffffffffffff821115610e8157610e806108ee565b5b602082029050602081019050919050565b610e9b81610b79565b8114610ea657600080fd5b50565b600081359050610eb881610e92565b92915050565b6000610ed1610ecc84610e66565b61094e565b90508083825260208201905060208402830185811115610ef457610ef3610dac565b5b835b81811015610f1d5780610f098882610ea9565b845260208401935050602081019050610ef6565b5050509392505050565b600082601f830112610f3c57610f3b6108d3565b5b8135610f4c848260208601610ebe565b91505092915050565b60008060008060008060c08789031215610f7257610f716108c9565b5b600087013567ffffffffffffffff811115610f9057610f8f6108ce565b5b610f9c89828a016109eb565b965050602087013567ffffffffffffffff811115610fbd57610fbc6108ce565b5b610fc989828a01610e38565b955050604087013567ffffffffffffffff811115610fea57610fe96108ce565b5b610ff689828a01610e38565b945050606087013567ffffffffffffffff811115611017576110166108ce565b5b61102389828a01610f27565b935050608087013567ffffffffffffffff811115611044576110436108ce565b5b61105089828a01610f27565b92505060a087013567ffffffffffffffff811115611071576110706108ce565b5b61107d89828a016109eb565b9150509295509295509295565b600080fd5b600080fd5b6000606082840312156110aa576110a961108a565b5b6110b4606061094e565b9050600082013567ffffffffffffffff8111156110d4576110d361108f565b5b6110e0848285016109eb565b600083015250602082013567ffffffffffffffff8111156111045761110361108f565b5b611110848285016109eb565b602083015250604061112484828501610ea9565b60408301525092915050565b60008060408385031215611147576111466108c9565b5b600083013567ffffffffffffffff811115611165576111646108ce565b5b611171858286016109eb565b925050602083013567ffffffffffffffff811115611192576111916108ce565b5b61119e85828601611094565b9150509250929050565b600081905092915050565b60006111be82610a62565b6111c881856111a8565b93506111d8818560208601610a7e565b80840191505092915050565b60006111f082846111b3565b915081905092915050565b7f4e487b7100000000000000000000000000000000000000000000000000000000600052602260045260246000fd5b6000600282049050600182168061124257607f821691505b602082108103611255576112546111fb565b5b50919050565b60008190508160005260206000209050919050565b60006020601f8301049050919050565b600082821b905092915050565b6000600883026112bd7fffffffffffffffffffffffffffffffffffffffffffffffffffffffffffffffff82611280565b6112c78683611280565b95508019841693508086168417925050509392505050565b6000819050919050565b60006113046112ff6112fa84610b79565b6112df565b610b79565b9050919050565b6000819050919050565b61131e836112e9565b61133261132a8261130b565b84845461128d565b825550505050565b600090565b61134761133a565b611352818484611315565b505050565b5b818110156113765761136b60008261133f565b600181019050611358565b5050565b601f8211156113bb5761138c8161125b565b61139584611270565b810160208510156113a4578190505b6113b86113b085611270565b830182611357565b50505b505050565b600082821c905092915050565b60006113de600019846008026113c0565b1980831691505092915050565b60006113f783836113cd565b9150826002028217905092915050565b61141082610a62565b67ffffffffffffffff811115611429576114286108ee565b5b611433825461122a565b61143e82828561137a565b600060209050601f831160018114611471576000841561145f578287015190505b61146985826113eb565b8655506114d1565b601f19841661147f8661125b565b60005b828110156114a757848901518255600182019150602085019450602081019050611482565b868310156114c457848901516114c0601f8916826113cd565b8355505b6001600288020188555050505b505050505050565b600081549050919050565b60008190508160005260206000209050919050565b600081546115068161122a565b6115108186610b2f565b9450600182166000811461152b576001811461154157611574565b60ff198316865281151560200286019350611574565b61154a8561125b565b60005b8381101561156c5781548189015260018201915060208101905061154d565b808801955050505b50505092915050565b60008160001c9050919050565b6000819050919050565b60006115a76115a28361157d565b61158a565b9050919050565b600060808301600080840185830360008701526115cb83826114f9565b9250506001840185830360208701526115e483826114f9565b925050600284015490506115f781611594565b6116046040870182610b83565b506003840154905061161581611594565b6116226060870182610b83565b50819250505092915050565b600061163a83836115ae565b905092915050565b6000600482019050919050565b600061165a826114d9565b6116648185610b0e565b935083602082028501611676856114e4565b8060005b858110156116b157848403895281611692858261162e565b945061169d83611642565b925060208a0199505060018101905061167a565b50829750879550505050505092915050565b600060408201905081810360008301526116dd818561164f565b905081810360208301526116f18184610aa8565b90509392505050565b7f496e70757420617272617973206d7573742068617665207468652073616d652060008201527f6c656e6774680000000000000000000000000000000000000000000000000000602082015250565b6000611756602683610a6d565b9150611761826116fa565b604082019050919050565b6000602082019050818103600083015261178581611749565b9050919050565b7f4e487b7100000000000000000000000000000000000000000000000000000000600052603260045260246000fd5b7f4e487b7100000000000000000000000000000000000000000000000000000000600052601160045260246000fd5b60006117f582610b79565b91507fffffffffffffffffffffffffffffffffffffffffffffffffffffffffffffffff8203611827576118266117bb565b5b60018201905091905056fea2646970667358221220e165a1f603c0268077e695805e6f5b8fbac0b079a46698202f16b7f5fd7a4cce64736f6c63430008130033",
  "immutableReferences": {},
  "source": "// SPDX-License-Identifier: MIT\npragma solidity ^0.8.0;\n\ncontract UserContract {\n    struct UserData {\n        string email;\n        string name;\n        uint256 age;\n    }\n\n    struct EducationInfo {\n        string schoolName;\n        string degree;\n        uint256 startedYear;\n        uint256 graduationYear;\n    }\n\n    struct UserEducation {\n        EducationInfo[] educationInfos;\n        string ipfsHash;\n    }\n\n    mapping(string => UserEducation) private educationRecords;\n\n    mapping(string => UserData) users;\n\n    event UserUpdated(\n        string indexed userId,\n        string email,\n        string name,\n        uint256 age\n    );\n\n    event UserEducationUpdated(\n        string indexed userId,\n        EducationInfo[] educationInfos,\n        string ipfsHash\n    );\n\n    function setUserData(\n        string memory userId,\n        UserData memory userData\n    ) public {\n        UserData memory newUser = UserData(\n            userData.email,\n            userData.name,\n            userData.age\n        );\n        users[userId] = newUser;\n        emit UserUpdated(userId, userData.email, userData.name, userData.age);\n    }\n\n    function getUserData(\n        string memory userId\n    )\n        public\n        view\n        returns (string memory email, string memory name, uint256 age)\n    {\n        UserData storage user = users[userId];\n        return (user.email, user.name, user.age);\n    }\n\n    // function setEducationRecord(\n    //     string memory userId,\n    //     EducationInfo[] memory educationInfos,\n    //     string memory ipfsHash\n    // ) public {\n    //     UserEducation storage userEducation = educationRecords[userId];\n\n    //     userEducation.educationInfos = educationInfos;\n    //     userEducation.ipfsHash = ipfsHash;\n\n    //     // UserEducation memory newUserEducation = UserEducation(\n    //     //     educationInfos,\n    //     //     ipfsHash\n    //     // );\n\n    //     educationRecords[userId] = userEducation;\n    //     emit UserEducationUpdated(userId, educationInfos, ipfsHash);\n    // }\n\n    function setEducationRecord(\n        string memory userId,\n        string[] memory schoolNames,\n        string[] memory degrees,\n        uint256[] memory startedYears,\n        uint256[] memory graduationYears,\n        string memory ipfsHash\n    ) public {\n        require(\n            schoolNames.length == degrees.length &&\n                degrees.length == startedYears.length &&\n                startedYears.length == graduationYears.length,\n            \"Input arrays must have the same length\"\n        );\n\n        for (uint256 i = 0; i < schoolNames.length; i++) {\n            EducationInfo memory newEducation = EducationInfo({\n                schoolName: schoolNames[i],\n                degree: degrees[i],\n                startedYear: startedYears[i],\n                graduationYear: graduationYears[i]\n            });\n\n            educationRecords[userId].educationInfos.push(newEducation);\n        }\n\n        educationRecords[userId].ipfsHash = ipfsHash;\n\n        emit UserEducationUpdated(\n            userId,\n            educationRecords[userId].educationInfos,\n            ipfsHash\n        );\n    }\n\n    function getEducationRecords(\n        string memory userId\n    ) public view returns (EducationInfo[] memory) {\n        return educationRecords[userId].educationInfos;\n    }\n\n    function setIPFSHash(string memory userId, string memory ipfsHash) public {\n        UserEducation storage userEducation = educationRecords[userId];\n\n        userEducation.ipfsHash = ipfsHash;\n\n        emit UserEducationUpdated(\n            userId,\n            userEducation.educationInfos,\n            ipfsHash\n        );\n    }\n\n    function getIPFSHash(\n        string memory userId\n    ) public view returns (string memory) {\n        return educationRecords[userId].ipfsHash;\n    }\n}\n",
  "sourcePath": "/Users/kmlcnclk/Documents/Projects_NEU/my-devlet/contracts/UserContract.sol",
  "compiler": {
    "name": "solc",
    "version": "0.8.19+commit.7dd6d404.Emscripten.clang"
  },
  "schemaVersion": "3.4.15",
  "updatedAt": "2023-10-01T17:01:16.237Z",
  "devdoc": {
    "kind": "dev",
    "methods": {},
    "version": 1
  },
  "userdoc": {
    "kind": "user",
    "methods": {},
    "version": 1
  }
}