{
  "contractName": "UserContract1",
  "abi": [
    {
      "anonymous": false,
      "inputs": [
        {
          "indexed": true,
          "internalType": "string",
          "name": "userId",
          "type": "string"
        },
        {
          "components": [
            {
              "internalType": "string",
              "name": "name",
              "type": "string"
            },
            {
              "internalType": "string",
              "name": "typeOfAsset",
              "type": "string"
            },
            {
              "internalType": "string",
              "name": "description",
              "type": "string"
            },
            {
              "internalType": "string",
              "name": "location",
              "type": "string"
            },
            {
              "internalType": "uint256",
              "name": "purchaseDate",
              "type": "uint256"
            },
            {
              "internalType": "uint256",
              "name": "purchasePrice",
              "type": "uint256"
            },
            {
              "internalType": "string",
              "name": "previousOwner",
              "type": "string"
            }
          ],
          "indexed": false,
          "internalType": "struct UserContract1.AssetInfo[]",
          "name": "assetInfos",
          "type": "tuple[]"
        },
        {
          "indexed": false,
          "internalType": "string",
          "name": "ipfsHash",
          "type": "string"
        }
      ],
      "name": "UserAssetUpdated",
      "type": "event"
    },
    {
      "anonymous": false,
      "inputs": [
        {
          "indexed": true,
          "internalType": "string",
          "name": "userId",
          "type": "string"
        },
        {
          "components": [
            {
              "internalType": "string",
              "name": "gender",
              "type": "string"
            },
            {
              "internalType": "string",
              "name": "degreeOfRelationship",
              "type": "string"
            },
            {
              "internalType": "string",
              "name": "name",
              "type": "string"
            },
            {
              "internalType": "string",
              "name": "surname",
              "type": "string"
            },
            {
              "internalType": "string",
              "name": "fathersName",
              "type": "string"
            },
            {
              "internalType": "string",
              "name": "mothersName",
              "type": "string"
            },
            {
              "internalType": "uint256",
              "name": "dateOfBirth",
              "type": "uint256"
            },
            {
              "internalType": "string",
              "name": "status",
              "type": "string"
            },
            {
              "internalType": "uint256",
              "name": "dateOfDeath",
              "type": "uint256"
            }
          ],
          "indexed": false,
          "internalType": "struct UserContract1.FamilyTreeInfo[]",
          "name": "familyTreeInfos",
          "type": "tuple[]"
        },
        {
          "indexed": false,
          "internalType": "string",
          "name": "ipfsHash",
          "type": "string"
        }
      ],
      "name": "UserFamilyTreeUpdated",
      "type": "event"
    },
    {
      "anonymous": false,
      "inputs": [
        {
          "indexed": true,
          "internalType": "string",
          "name": "userId",
          "type": "string"
        },
        {
          "components": [
            {
              "internalType": "string",
              "name": "name",
              "type": "string"
            },
            {
              "internalType": "uint256",
              "name": "dateOfBirth",
              "type": "uint256"
            },
            {
              "internalType": "string",
              "name": "stateOfMilitary",
              "type": "string"
            },
            {
              "internalType": "uint256",
              "name": "postponementDate",
              "type": "uint256"
            },
            {
              "internalType": "uint256",
              "name": "dateOfConstruction",
              "type": "uint256"
            }
          ],
          "indexed": false,
          "internalType": "struct UserContract1.MilitaryInfo[]",
          "name": "militrayInfos",
          "type": "tuple[]"
        },
        {
          "indexed": false,
          "internalType": "string",
          "name": "ipfsHash",
          "type": "string"
        }
      ],
      "name": "UserMilitaryUpdated",
      "type": "event"
    },
    {
      "anonymous": false,
      "inputs": [
        {
          "indexed": true,
          "internalType": "string",
          "name": "userId",
          "type": "string"
        },
        {
          "components": [
            {
              "internalType": "string",
              "name": "name",
              "type": "string"
            },
            {
              "internalType": "string",
              "name": "surname",
              "type": "string"
            },
            {
              "internalType": "string",
              "name": "typeOfAddress",
              "type": "string"
            },
            {
              "internalType": "string",
              "name": "locationOfAddress",
              "type": "string"
            },
            {
              "internalType": "bool",
              "name": "isCurrentAddress",
              "type": "bool"
            },
            {
              "internalType": "uint256",
              "name": "settlementDate",
              "type": "uint256"
            },
            {
              "internalType": "uint256",
              "name": "leavingDate",
              "type": "uint256"
            }
          ],
          "indexed": false,
          "internalType": "struct UserContract1.PlaceOfResidenceInfo[]",
          "name": "placeOfResidenceInfos",
          "type": "tuple[]"
        },
        {
          "indexed": false,
          "internalType": "string",
          "name": "ipfsHash",
          "type": "string"
        }
      ],
      "name": "UserPlaceOfResidenceUpdated",
      "type": "event"
    },
    {
      "anonymous": false,
      "inputs": [
        {
          "indexed": true,
          "internalType": "string",
          "name": "userId",
          "type": "string"
        },
        {
          "components": [
            {
              "internalType": "string",
              "name": "subscriptionType",
              "type": "string"
            },
            {
              "internalType": "string",
              "name": "companyName",
              "type": "string"
            },
            {
              "internalType": "uint256",
              "name": "subscriptionStartDate",
              "type": "uint256"
            },
            {
              "internalType": "uint256",
              "name": "subscriptionEndDate",
              "type": "uint256"
            },
            {
              "internalType": "string",
              "name": "subscriberName",
              "type": "string"
            },
            {
              "internalType": "string",
              "name": "subscriberSurname",
              "type": "string"
            }
          ],
          "indexed": false,
          "internalType": "struct UserContract1.SubscriptionTransactionInfo[]",
          "name": "subscriptionTransactionInfos",
          "type": "tuple[]"
        },
        {
          "indexed": false,
          "internalType": "string",
          "name": "ipfsHash",
          "type": "string"
        }
      ],
      "name": "UserSubscriptionTransactionUpdated",
      "type": "event"
    },
    {
      "anonymous": false,
      "inputs": [
        {
          "indexed": true,
          "internalType": "string",
          "name": "userId",
          "type": "string"
        },
        {
          "components": [
            {
              "internalType": "string",
              "name": "debtPayer",
              "type": "string"
            },
            {
              "internalType": "uint256",
              "name": "debtAmount",
              "type": "uint256"
            },
            {
              "internalType": "uint256",
              "name": "expiryDate",
              "type": "uint256"
            },
            {
              "internalType": "string",
              "name": "licensePlate",
              "type": "string"
            },
            {
              "internalType": "bool",
              "name": "isPaid",
              "type": "bool"
            },
            {
              "internalType": "uint256",
              "name": "paymentDate",
              "type": "uint256"
            },
            {
              "internalType": "uint256",
              "name": "paymentAmount",
              "type": "uint256"
            }
          ],
          "indexed": false,
          "internalType": "struct UserContract1.TrafficDebtInfo[]",
          "name": "trafficDebtInfos",
          "type": "tuple[]"
        },
        {
          "indexed": false,
          "internalType": "string",
          "name": "ipfsHash",
          "type": "string"
        }
      ],
      "name": "UserTrafficDebtUpdated",
      "type": "event"
    },
    {
      "anonymous": false,
      "inputs": [
        {
          "indexed": true,
          "internalType": "string",
          "name": "userId",
          "type": "string"
        },
        {
          "indexed": false,
          "internalType": "string",
          "name": "email",
          "type": "string"
        },
        {
          "indexed": false,
          "internalType": "string",
          "name": "name",
          "type": "string"
        },
        {
          "indexed": false,
          "internalType": "uint256",
          "name": "age",
          "type": "uint256"
        }
      ],
      "name": "UserUpdated",
      "type": "event"
    },
    {
      "inputs": [
        {
          "internalType": "string",
          "name": "userId",
          "type": "string"
        },
        {
          "components": [
            {
              "internalType": "string",
              "name": "email",
              "type": "string"
            },
            {
              "internalType": "string",
              "name": "name",
              "type": "string"
            },
            {
              "internalType": "uint256",
              "name": "age",
              "type": "uint256"
            }
          ],
          "internalType": "struct UserContract1.UserData",
          "name": "userData",
          "type": "tuple"
        }
      ],
      "name": "setUserData",
      "outputs": [],
      "stateMutability": "nonpayable",
      "type": "function"
    },
    {
      "inputs": [
        {
          "internalType": "string",
          "name": "userId",
          "type": "string"
        }
      ],
      "name": "getUserData",
      "outputs": [
        {
          "internalType": "string",
          "name": "email",
          "type": "string"
        },
        {
          "internalType": "string",
          "name": "name",
          "type": "string"
        },
        {
          "internalType": "uint256",
          "name": "age",
          "type": "uint256"
        }
      ],
      "stateMutability": "view",
      "type": "function"
    },
    {
      "inputs": [
        {
          "internalType": "string",
          "name": "userId",
          "type": "string"
        },
        {
          "internalType": "string[]",
          "name": "names",
          "type": "string[]"
        },
        {
          "internalType": "string[]",
          "name": "typeOfAssets",
          "type": "string[]"
        },
        {
          "internalType": "string[]",
          "name": "descriptions",
          "type": "string[]"
        },
        {
          "internalType": "string[]",
          "name": "locations",
          "type": "string[]"
        },
        {
          "internalType": "uint256[]",
          "name": "purchaseDates",
          "type": "uint256[]"
        },
        {
          "internalType": "uint256[]",
          "name": "purchasePrices",
          "type": "uint256[]"
        },
        {
          "internalType": "string[]",
          "name": "previousOwners",
          "type": "string[]"
        },
        {
          "internalType": "string",
          "name": "ipfsHash",
          "type": "string"
        }
      ],
      "name": "setAssetRecord",
      "outputs": [],
      "stateMutability": "nonpayable",
      "type": "function"
    },
    {
      "inputs": [
        {
          "internalType": "string",
          "name": "userId",
          "type": "string"
        }
      ],
      "name": "getAssetRecords",
      "outputs": [
        {
          "components": [
            {
              "internalType": "string",
              "name": "name",
              "type": "string"
            },
            {
              "internalType": "string",
              "name": "typeOfAsset",
              "type": "string"
            },
            {
              "internalType": "string",
              "name": "description",
              "type": "string"
            },
            {
              "internalType": "string",
              "name": "location",
              "type": "string"
            },
            {
              "internalType": "uint256",
              "name": "purchaseDate",
              "type": "uint256"
            },
            {
              "internalType": "uint256",
              "name": "purchasePrice",
              "type": "uint256"
            },
            {
              "internalType": "string",
              "name": "previousOwner",
              "type": "string"
            }
          ],
          "internalType": "struct UserContract1.AssetInfo[]",
          "name": "",
          "type": "tuple[]"
        }
      ],
      "stateMutability": "view",
      "type": "function"
    },
    {
      "inputs": [
        {
          "internalType": "string",
          "name": "userId",
          "type": "string"
        },
        {
          "internalType": "string",
          "name": "ipfsHash",
          "type": "string"
        }
      ],
      "name": "setAssetIPFSHash",
      "outputs": [],
      "stateMutability": "nonpayable",
      "type": "function"
    },
    {
      "inputs": [
        {
          "internalType": "string",
          "name": "userId",
          "type": "string"
        }
      ],
      "name": "getAssetIPFSHash",
      "outputs": [
        {
          "internalType": "string",
          "name": "",
          "type": "string"
        }
      ],
      "stateMutability": "view",
      "type": "function"
    },
    {
      "inputs": [
        {
          "internalType": "string",
          "name": "userId",
          "type": "string"
        },
        {
          "internalType": "string[]",
          "name": "names",
          "type": "string[]"
        },
        {
          "internalType": "uint256[]",
          "name": "dateOfBirths",
          "type": "uint256[]"
        },
        {
          "internalType": "string[]",
          "name": "stateOfMilitarys",
          "type": "string[]"
        },
        {
          "internalType": "uint256[]",
          "name": "postponementDates",
          "type": "uint256[]"
        },
        {
          "internalType": "uint256[]",
          "name": "dateOfConstructions",
          "type": "uint256[]"
        },
        {
          "internalType": "string",
          "name": "ipfsHash",
          "type": "string"
        }
      ],
      "name": "setMilitaryRecord",
      "outputs": [],
      "stateMutability": "nonpayable",
      "type": "function"
    },
    {
      "inputs": [
        {
          "internalType": "string",
          "name": "userId",
          "type": "string"
        }
      ],
      "name": "getMilitaryRecords",
      "outputs": [
        {
          "components": [
            {
              "internalType": "string",
              "name": "name",
              "type": "string"
            },
            {
              "internalType": "uint256",
              "name": "dateOfBirth",
              "type": "uint256"
            },
            {
              "internalType": "string",
              "name": "stateOfMilitary",
              "type": "string"
            },
            {
              "internalType": "uint256",
              "name": "postponementDate",
              "type": "uint256"
            },
            {
              "internalType": "uint256",
              "name": "dateOfConstruction",
              "type": "uint256"
            }
          ],
          "internalType": "struct UserContract1.MilitaryInfo[]",
          "name": "",
          "type": "tuple[]"
        }
      ],
      "stateMutability": "view",
      "type": "function"
    },
    {
      "inputs": [
        {
          "internalType": "string",
          "name": "userId",
          "type": "string"
        },
        {
          "internalType": "string",
          "name": "ipfsHash",
          "type": "string"
        }
      ],
      "name": "setMilitaryIPFSHash",
      "outputs": [],
      "stateMutability": "nonpayable",
      "type": "function"
    },
    {
      "inputs": [
        {
          "internalType": "string",
          "name": "userId",
          "type": "string"
        }
      ],
      "name": "getMilitaryIPFSHash",
      "outputs": [
        {
          "internalType": "string",
          "name": "",
          "type": "string"
        }
      ],
      "stateMutability": "view",
      "type": "function"
    },
    {
      "inputs": [
        {
          "internalType": "string",
          "name": "userId",
          "type": "string"
        },
        {
          "internalType": "string[]",
          "name": "genders",
          "type": "string[]"
        },
        {
          "internalType": "string[]",
          "name": "degreeOfRelationships",
          "type": "string[]"
        },
        {
          "internalType": "string[]",
          "name": "names",
          "type": "string[]"
        },
        {
          "internalType": "string[]",
          "name": "surnames",
          "type": "string[]"
        },
        {
          "internalType": "string[]",
          "name": "fathersNames",
          "type": "string[]"
        },
        {
          "internalType": "string[]",
          "name": "mothersNames",
          "type": "string[]"
        },
        {
          "internalType": "uint256[]",
          "name": "dateOfBirths",
          "type": "uint256[]"
        },
        {
          "internalType": "string[]",
          "name": "statuss",
          "type": "string[]"
        },
        {
          "internalType": "uint256[]",
          "name": "dateOfDeaths",
          "type": "uint256[]"
        },
        {
          "internalType": "string",
          "name": "ipfsHash",
          "type": "string"
        }
      ],
      "name": "setFamilyTreeRecord",
      "outputs": [],
      "stateMutability": "nonpayable",
      "type": "function"
    },
    {
      "inputs": [
        {
          "internalType": "string",
          "name": "userId",
          "type": "string"
        }
      ],
      "name": "getFamilyTreeRecords",
      "outputs": [
        {
          "components": [
            {
              "internalType": "string",
              "name": "gender",
              "type": "string"
            },
            {
              "internalType": "string",
              "name": "degreeOfRelationship",
              "type": "string"
            },
            {
              "internalType": "string",
              "name": "name",
              "type": "string"
            },
            {
              "internalType": "string",
              "name": "surname",
              "type": "string"
            },
            {
              "internalType": "string",
              "name": "fathersName",
              "type": "string"
            },
            {
              "internalType": "string",
              "name": "mothersName",
              "type": "string"
            },
            {
              "internalType": "uint256",
              "name": "dateOfBirth",
              "type": "uint256"
            },
            {
              "internalType": "string",
              "name": "status",
              "type": "string"
            },
            {
              "internalType": "uint256",
              "name": "dateOfDeath",
              "type": "uint256"
            }
          ],
          "internalType": "struct UserContract1.FamilyTreeInfo[]",
          "name": "",
          "type": "tuple[]"
        }
      ],
      "stateMutability": "view",
      "type": "function"
    },
    {
      "inputs": [
        {
          "internalType": "string",
          "name": "userId",
          "type": "string"
        },
        {
          "internalType": "string",
          "name": "ipfsHash",
          "type": "string"
        }
      ],
      "name": "setFamilyTreeIPFSHash",
      "outputs": [],
      "stateMutability": "nonpayable",
      "type": "function"
    },
    {
      "inputs": [
        {
          "internalType": "string",
          "name": "userId",
          "type": "string"
        }
      ],
      "name": "getFamilyTreeIPFSHash",
      "outputs": [
        {
          "internalType": "string",
          "name": "",
          "type": "string"
        }
      ],
      "stateMutability": "view",
      "type": "function"
    },
    {
      "inputs": [
        {
          "internalType": "string",
          "name": "userId",
          "type": "string"
        },
        {
          "internalType": "string[]",
          "name": "subscriptionTypes",
          "type": "string[]"
        },
        {
          "internalType": "string[]",
          "name": "companyNames",
          "type": "string[]"
        },
        {
          "internalType": "uint256[]",
          "name": "subscriptionStartDates",
          "type": "uint256[]"
        },
        {
          "internalType": "uint256[]",
          "name": "subscriptionEndDates",
          "type": "uint256[]"
        },
        {
          "internalType": "string[]",
          "name": "subscriberNames",
          "type": "string[]"
        },
        {
          "internalType": "string[]",
          "name": "subscriberSurnames",
          "type": "string[]"
        },
        {
          "internalType": "string",
          "name": "ipfsHash",
          "type": "string"
        }
      ],
      "name": "setSubscriptionTransactionRecord",
      "outputs": [],
      "stateMutability": "nonpayable",
      "type": "function"
    },
    {
      "inputs": [
        {
          "internalType": "string",
          "name": "userId",
          "type": "string"
        }
      ],
      "name": "getSubscriptionTransactionRecords",
      "outputs": [
        {
          "components": [
            {
              "internalType": "string",
              "name": "subscriptionType",
              "type": "string"
            },
            {
              "internalType": "string",
              "name": "companyName",
              "type": "string"
            },
            {
              "internalType": "uint256",
              "name": "subscriptionStartDate",
              "type": "uint256"
            },
            {
              "internalType": "uint256",
              "name": "subscriptionEndDate",
              "type": "uint256"
            },
            {
              "internalType": "string",
              "name": "subscriberName",
              "type": "string"
            },
            {
              "internalType": "string",
              "name": "subscriberSurname",
              "type": "string"
            }
          ],
          "internalType": "struct UserContract1.SubscriptionTransactionInfo[]",
          "name": "",
          "type": "tuple[]"
        }
      ],
      "stateMutability": "view",
      "type": "function"
    },
    {
      "inputs": [
        {
          "internalType": "string",
          "name": "userId",
          "type": "string"
        },
        {
          "internalType": "string",
          "name": "ipfsHash",
          "type": "string"
        }
      ],
      "name": "setSubscriptionTransactionIPFSHash",
      "outputs": [],
      "stateMutability": "nonpayable",
      "type": "function"
    },
    {
      "inputs": [
        {
          "internalType": "string",
          "name": "userId",
          "type": "string"
        }
      ],
      "name": "getSubscriptionTransactionIPFSHash",
      "outputs": [
        {
          "internalType": "string",
          "name": "",
          "type": "string"
        }
      ],
      "stateMutability": "view",
      "type": "function"
    },
    {
      "inputs": [
        {
          "internalType": "string",
          "name": "userId",
          "type": "string"
        },
        {
          "internalType": "string[]",
          "name": "debtPayers",
          "type": "string[]"
        },
        {
          "internalType": "uint256[]",
          "name": "debtAmounts",
          "type": "uint256[]"
        },
        {
          "internalType": "uint256[]",
          "name": "expiryDates",
          "type": "uint256[]"
        },
        {
          "internalType": "string[]",
          "name": "licensePlates",
          "type": "string[]"
        },
        {
          "internalType": "bool[]",
          "name": "isPaids",
          "type": "bool[]"
        },
        {
          "internalType": "uint256[]",
          "name": "paymentDates",
          "type": "uint256[]"
        },
        {
          "internalType": "uint256[]",
          "name": "paymentAmounts",
          "type": "uint256[]"
        },
        {
          "internalType": "string",
          "name": "ipfsHash",
          "type": "string"
        }
      ],
      "name": "setTrafficDebtRecord",
      "outputs": [],
      "stateMutability": "nonpayable",
      "type": "function"
    },
    {
      "inputs": [
        {
          "internalType": "string",
          "name": "userId",
          "type": "string"
        }
      ],
      "name": "getTrafficDebtRecords",
      "outputs": [
        {
          "components": [
            {
              "internalType": "string",
              "name": "debtPayer",
              "type": "string"
            },
            {
              "internalType": "uint256",
              "name": "debtAmount",
              "type": "uint256"
            },
            {
              "internalType": "uint256",
              "name": "expiryDate",
              "type": "uint256"
            },
            {
              "internalType": "string",
              "name": "licensePlate",
              "type": "string"
            },
            {
              "internalType": "bool",
              "name": "isPaid",
              "type": "bool"
            },
            {
              "internalType": "uint256",
              "name": "paymentDate",
              "type": "uint256"
            },
            {
              "internalType": "uint256",
              "name": "paymentAmount",
              "type": "uint256"
            }
          ],
          "internalType": "struct UserContract1.TrafficDebtInfo[]",
          "name": "",
          "type": "tuple[]"
        }
      ],
      "stateMutability": "view",
      "type": "function"
    },
    {
      "inputs": [
        {
          "internalType": "string",
          "name": "userId",
          "type": "string"
        },
        {
          "internalType": "string",
          "name": "ipfsHash",
          "type": "string"
        }
      ],
      "name": "setTrafficDebtIPFSHash",
      "outputs": [],
      "stateMutability": "nonpayable",
      "type": "function"
    },
    {
      "inputs": [
        {
          "internalType": "string",
          "name": "userId",
          "type": "string"
        }
      ],
      "name": "getTrafficDebtIPFSHash",
      "outputs": [
        {
          "internalType": "string",
          "name": "",
          "type": "string"
        }
      ],
      "stateMutability": "view",
      "type": "function"
    },
    {
      "inputs": [
        {
          "internalType": "string",
          "name": "userId",
          "type": "string"
        },
        {
          "internalType": "string[]",
          "name": "names",
          "type": "string[]"
        },
        {
          "internalType": "string[]",
          "name": "surnames",
          "type": "string[]"
        },
        {
          "internalType": "string[]",
          "name": "typeOfAddresses",
          "type": "string[]"
        },
        {
          "internalType": "string[]",
          "name": "locationOfAddresses",
          "type": "string[]"
        },
        {
          "internalType": "bool[]",
          "name": "isCurrentAddresses",
          "type": "bool[]"
        },
        {
          "internalType": "uint256[]",
          "name": "settlementDates",
          "type": "uint256[]"
        },
        {
          "internalType": "uint256[]",
          "name": "leavingDates",
          "type": "uint256[]"
        },
        {
          "internalType": "string",
          "name": "ipfsHash",
          "type": "string"
        }
      ],
      "name": "setPlaceOfResidenceRecord",
      "outputs": [],
      "stateMutability": "nonpayable",
      "type": "function"
    },
    {
      "inputs": [
        {
          "internalType": "string",
          "name": "userId",
          "type": "string"
        }
      ],
      "name": "getPlaceOfResidenceRecords",
      "outputs": [
        {
          "components": [
            {
              "internalType": "string",
              "name": "name",
              "type": "string"
            },
            {
              "internalType": "string",
              "name": "surname",
              "type": "string"
            },
            {
              "internalType": "string",
              "name": "typeOfAddress",
              "type": "string"
            },
            {
              "internalType": "string",
              "name": "locationOfAddress",
              "type": "string"
            },
            {
              "internalType": "bool",
              "name": "isCurrentAddress",
              "type": "bool"
            },
            {
              "internalType": "uint256",
              "name": "settlementDate",
              "type": "uint256"
            },
            {
              "internalType": "uint256",
              "name": "leavingDate",
              "type": "uint256"
            }
          ],
          "internalType": "struct UserContract1.PlaceOfResidenceInfo[]",
          "name": "",
          "type": "tuple[]"
        }
      ],
      "stateMutability": "view",
      "type": "function"
    },
    {
      "inputs": [
        {
          "internalType": "string",
          "name": "userId",
          "type": "string"
        },
        {
          "internalType": "string",
          "name": "ipfsHash",
          "type": "string"
        }
      ],
      "name": "setPlaceOfResidenceIPFSHash",
      "outputs": [],
      "stateMutability": "nonpayable",
      "type": "function"
    },
    {
      "inputs": [
        {
          "internalType": "string",
          "name": "userId",
          "type": "string"
        }
      ],
      "name": "getPlaceOfResidenceIPFSHash",
      "outputs": [
        {
          "internalType": "string",
          "name": "",
          "type": "string"
        }
      ],
      "stateMutability": "view",
      "type": "function"
    }
  ],
  "bytecode": "0x608060405234801561001057600080fd5b50615dae80620000216000396000f3fe608060405234801561001057600080fd5b506004361061018e5760003560e01c80638f48e0d6116100de578063b0afe8b711610097578063db8bd66011610071578063db8bd660146104ed578063e713dbd814610509578063ed57160e14610539578063f2220a7d146105555761018e565b8063b0afe8b714610485578063be36f174146104a1578063d9504313146104bd5761018e565b80638f48e0d6146103a15780639e77c19d146103bd578063a7fadecd146103ed578063a8c34f3f1461041d578063ab8eba401461044d578063abab28bd146104695761018e565b806336be5d681161014b57806370b930d81161012557806370b930d8146103095780637231d0641461032557806379cd86b1146103415780638af95e2a146103715761018e565b806336be5d681461028b5780633de353b4146102a757806354ab2403146102d75761018e565b806307b1ff76146101935780630f6cbd43146101af5780631e438a62146101df57806320b0b7981461020f578063258780d01461023f5780632bc890a41461025b575b600080fd5b6101ad60048036038101906101a891906135cc565b610571565b005b6101c960048036038101906101c49190613732565b6107e8565b6040516101d691906137fa565b60405180910390f35b6101f960048036038101906101f49190613732565b61089b565b60405161020691906137fa565b60405180910390f35b61022960048036038101906102249190613732565b61094e565b60405161023691906139f5565b60405180910390f35b61025960048036038101906102549190613a17565b610b35565b005b61027560048036038101906102709190613732565b610bc0565b6040516102829190613c40565b60405180910390f35b6102a560048036038101906102a09190613a17565b611053565b005b6102c160048036038101906102bc9190613732565b6110dd565b6040516102ce91906137fa565b60405180910390f35b6102f160048036038101906102ec9190613732565b611190565b60405161030093929190613c71565b60405180910390f35b610323600480360381019061031e9190613a17565b6112e9565b005b61033f600480360381019061033a9190613a17565b611374565b005b61035b60048036038101906103569190613732565b6113ff565b60405161036891906137fa565b60405180910390f35b61038b60048036038101906103869190613732565b6114b2565b60405161039891906137fa565b60405180910390f35b6103bb60048036038101906103b69190613a17565b611565565b005b6103d760048036038101906103d29190613732565b6115f0565b6040516103e49190613e29565b60405180910390f35b61040760048036038101906104029190613732565b6118e7565b6040516104149190613f8a565b60405180910390f35b61043760048036038101906104329190613732565b611aa9565b60405161044491906137fa565b60405180910390f35b6104676004803603810190610462919061409b565b611b5c565b005b610483600480360381019061047e9190614261565b611e5b565b005b61049f600480360381019061049a9190614427565b612172565b005b6104bb60048036038101906104b691906146f5565b612507565b005b6104d760048036038101906104d29190613732565b6125ec565b6040516104e491906148e7565b60405180910390f35b61050760048036038101906105029190614909565b61295a565b005b610523600480360381019061051e9190613732565b612c21565b6040516105309190614bff565b60405180910390f35b610553600480360381019061054e9190614c21565b612efd565b005b61056f600480360381019061056a9190613a17565b613208565b005b84518651148015610583575083518551145b8015610590575082518451145b801561059d575081518351145b6105dc576040517f08c379a00000000000000000000000000000000000000000000000000000000081526004016105d390614e59565b60405180910390fd5b60005b86518110156107405760006040518060a0016040528089848151811061060857610607614e79565b5b6020026020010151815260200188848151811061062857610627614e79565b5b6020026020010151815260200187848151811061064857610647614e79565b5b6020026020010151815260200186848151811061066857610667614e79565b5b6020026020010151815260200185848151811061068857610687614e79565b5b602002602001015181525090506001896040516106a59190614ee4565b908152602001604051809103902060000181908060018154018082558091505060019003906000526020600020906005020160009091909190915060008201518160000190816106f59190615107565b506020820151816001015560408201518160020190816107159190615107565b506060820151816003015560808201518160040155505050808061073890615208565b9150506105df565b50806001886040516107529190614ee4565b9081526020016040518091039020600101908161076f9190615107565b508660405161077e9190614ee4565b60405180910390207fe846e5c8527de6621c9ff6536ceef75e2bdaf39aa3d060c3ce5ec4caf88a69026001896040516107b79190614ee4565b9081526020016040518091039020600001836040516107d7929190615458565b60405180910390a250505050505050565b60606005826040516107fa9190614ee4565b9081526020016040518091039020600101805461081690614f2a565b80601f016020809104026020016040519081016040528092919081815260200182805461084290614f2a565b801561088f5780601f106108645761010080835404028352916020019161088f565b820191906000526020600020905b81548152906001019060200180831161087257829003601f168201915b50505050509050919050565b60606002826040516108ad9190614ee4565b908152602001604051809103902060010180546108c990614f2a565b80601f01602080910402602001604051908101604052809291908181526020018280546108f590614f2a565b80156109425780601f1061091757610100808354040283529160200191610942565b820191906000526020600020905b81548152906001019060200180831161092557829003601f168201915b50505050509050919050565b60606004826040516109609190614ee4565b9081526020016040518091039020600001805480602002602001604051908101604052809291908181526020016000905b82821015610b2a57838290600052602060002090600702016040518060e00160405290816000820180546109c490614f2a565b80601f01602080910402602001604051908101604052809291908181526020018280546109f090614f2a565b8015610a3d5780601f10610a1257610100808354040283529160200191610a3d565b820191906000526020600020905b815481529060010190602001808311610a2057829003601f168201915b505050505081526020016001820154815260200160028201548152602001600382018054610a6a90614f2a565b80601f0160208091040260200160405190810160405280929190818152602001828054610a9690614f2a565b8015610ae35780601f10610ab857610100808354040283529160200191610ae3565b820191906000526020600020905b815481529060010190602001808311610ac657829003601f168201915b505050505081526020016004820160009054906101000a900460ff161515151581526020016005820154815260200160068201548152505081526020019060010190610991565b505050509050919050565b6000600183604051610b479190614ee4565b9081526020016040518091039020905081816001019081610b689190615107565b5082604051610b779190614ee4565b60405180910390207fe846e5c8527de6621c9ff6536ceef75e2bdaf39aa3d060c3ce5ec4caf88a69028260000184604051610bb3929190615458565b60405180910390a2505050565b6060600282604051610bd29190614ee4565b9081526020016040518091039020600001805480602002602001604051908101604052809291908181526020016000905b82821015611048578382906000526020600020906009020160405180610120016040529081600082018054610c3790614f2a565b80601f0160208091040260200160405190810160405280929190818152602001828054610c6390614f2a565b8015610cb05780601f10610c8557610100808354040283529160200191610cb0565b820191906000526020600020905b815481529060010190602001808311610c9357829003601f168201915b50505050508152602001600182018054610cc990614f2a565b80601f0160208091040260200160405190810160405280929190818152602001828054610cf590614f2a565b8015610d425780601f10610d1757610100808354040283529160200191610d42565b820191906000526020600020905b815481529060010190602001808311610d2557829003601f168201915b50505050508152602001600282018054610d5b90614f2a565b80601f0160208091040260200160405190810160405280929190818152602001828054610d8790614f2a565b8015610dd45780601f10610da957610100808354040283529160200191610dd4565b820191906000526020600020905b815481529060010190602001808311610db757829003601f168201915b50505050508152602001600382018054610ded90614f2a565b80601f0160208091040260200160405190810160405280929190818152602001828054610e1990614f2a565b8015610e665780601f10610e3b57610100808354040283529160200191610e66565b820191906000526020600020905b815481529060010190602001808311610e4957829003601f168201915b50505050508152602001600482018054610e7f90614f2a565b80601f0160208091040260200160405190810160405280929190818152602001828054610eab90614f2a565b8015610ef85780601f10610ecd57610100808354040283529160200191610ef8565b820191906000526020600020905b815481529060010190602001808311610edb57829003601f168201915b50505050508152602001600582018054610f1190614f2a565b80601f0160208091040260200160405190810160405280929190818152602001828054610f3d90614f2a565b8015610f8a5780601f10610f5f57610100808354040283529160200191610f8a565b820191906000526020600020905b815481529060010190602001808311610f6d57829003601f168201915b5050505050815260200160068201548152602001600782018054610fad90614f2a565b80601f0160208091040260200160405190810160405280929190818152602001828054610fd990614f2a565b80156110265780601f10610ffb57610100808354040283529160200191611026565b820191906000526020600020905b81548152906001019060200180831161100957829003601f168201915b5050505050815260200160088201548152505081526020019060010190610c03565b505050509050919050565b600080836040516110649190614ee4565b90815260200160405180910390209050818160010190816110859190615107565b50826040516110949190614ee4565b60405180910390207f0e75504658d8f7da833ca990d560e9f28e66c5605d2796eb99b9960f8386779582600001846040516110d092919061560f565b60405180910390a2505050565b60606000826040516110ef9190614ee4565b9081526020016040518091039020600101805461110b90614f2a565b80601f016020809104026020016040519081016040528092919081815260200182805461113790614f2a565b80156111845780601f1061115957610100808354040283529160200191611184565b820191906000526020600020905b81548152906001019060200180831161116757829003601f168201915b50505050509050919050565b6060806000806006856040516111a69190614ee4565b90815260200160405180910390209050806000018160010182600201548280546111cf90614f2a565b80601f01602080910402602001604051908101604052809291908181526020018280546111fb90614f2a565b80156112485780601f1061121d57610100808354040283529160200191611248565b820191906000526020600020905b81548152906001019060200180831161122b57829003601f168201915b5050505050925081805461125b90614f2a565b80601f016020809104026020016040519081016040528092919081815260200182805461128790614f2a565b80156112d45780601f106112a9576101008083540402835291602001916112d4565b820191906000526020600020905b8154815290600101906020018083116112b757829003601f168201915b50505050509150935093509350509193909250565b60006002836040516112fb9190614ee4565b908152602001604051809103902090508181600101908161131c9190615107565b508260405161132b9190614ee4565b60405180910390207f9c223b809f5d8e71d43f0c72892e8e61c6ab78086b06fc5ffb93951ccfa03fa382600001846040516113679291906157fa565b60405180910390a2505050565b60006005836040516113869190614ee4565b90815260200160405180910390209050818160010190816113a79190615107565b50826040516113b69190614ee4565b60405180910390207ff7c644b9ebe81a243b965ed633ad5f3dfaef79214c362f293598e48fe96285af82600001846040516113f29291906159dd565b60405180910390a2505050565b60606001826040516114119190614ee4565b9081526020016040518091039020600101805461142d90614f2a565b80601f016020809104026020016040519081016040528092919081815260200182805461145990614f2a565b80156114a65780601f1061147b576101008083540402835291602001916114a6565b820191906000526020600020905b81548152906001019060200180831161148957829003601f168201915b50505050509050919050565b60606003826040516114c49190614ee4565b908152602001604051809103902060010180546114e090614f2a565b80601f016020809104026020016040519081016040528092919081815260200182805461150c90614f2a565b80156115595780601f1061152e57610100808354040283529160200191611559565b820191906000526020600020905b81548152906001019060200180831161153c57829003601f168201915b50505050509050919050565b60006003836040516115779190614ee4565b90815260200160405180910390209050818160010190816115989190615107565b50826040516115a79190614ee4565b60405180910390207f43e8ba3286379b0a9976dad95472a757535dc174574357e5675fd8532549b43582600001846040516115e3929190615b7b565b60405180910390a2505050565b60606005826040516116029190614ee4565b9081526020016040518091039020600001805480602002602001604051908101604052809291908181526020016000905b828210156118dc57838290600052602060002090600702016040518060e001604052908160008201805461166690614f2a565b80601f016020809104026020016040519081016040528092919081815260200182805461169290614f2a565b80156116df5780601f106116b4576101008083540402835291602001916116df565b820191906000526020600020905b8154815290600101906020018083116116c257829003601f168201915b505050505081526020016001820180546116f890614f2a565b80601f016020809104026020016040519081016040528092919081815260200182805461172490614f2a565b80156117715780601f1061174657610100808354040283529160200191611771565b820191906000526020600020905b81548152906001019060200180831161175457829003601f168201915b5050505050815260200160028201805461178a90614f2a565b80601f01602080910402602001604051908101604052809291908181526020018280546117b690614f2a565b80156118035780601f106117d857610100808354040283529160200191611803565b820191906000526020600020905b8154815290600101906020018083116117e657829003601f168201915b5050505050815260200160038201805461181c90614f2a565b80601f016020809104026020016040519081016040528092919081815260200182805461184890614f2a565b80156118955780601f1061186a57610100808354040283529160200191611895565b820191906000526020600020905b81548152906001019060200180831161187857829003601f168201915b505050505081526020016004820160009054906101000a900460ff161515151581526020016005820154815260200160068201548152505081526020019060010190611633565b505050509050919050565b60606001826040516118f99190614ee4565b9081526020016040518091039020600001805480602002602001604051908101604052809291908181526020016000905b82821015611a9e57838290600052602060002090600502016040518060a001604052908160008201805461195d90614f2a565b80601f016020809104026020016040519081016040528092919081815260200182805461198990614f2a565b80156119d65780601f106119ab576101008083540402835291602001916119d6565b820191906000526020600020905b8154815290600101906020018083116119b957829003601f168201915b50505050508152602001600182015481526020016002820180546119f990614f2a565b80601f0160208091040260200160405190810160405280929190818152602001828054611a2590614f2a565b8015611a725780601f10611a4757610100808354040283529160200191611a72565b820191906000526020600020905b815481529060010190602001808311611a5557829003601f168201915b50505050508152602001600382015481526020016004820154815250508152602001906001019061192a565b505050509050919050565b6060600482604051611abb9190614ee4565b90815260200160405180910390206001018054611ad790614f2a565b80601f0160208091040260200160405190810160405280929190818152602001828054611b0390614f2a565b8015611b505780601f10611b2557610100808354040283529160200191611b50565b820191906000526020600020905b815481529060010190602001808311611b3357829003601f168201915b50505050509050919050565b86518851148015611b6e575085518751145b8015611b7b575084518651145b8015611b88575083518551145b8015611b95575082518451145b8015611ba2575081518351145b611be1576040517f08c379a0000000000000000000000000000000000000000000000000000000008152600401611bd890614e59565b60405180910390fd5b60005b8851811015611db15760006040518060e001604052808b8481518110611c0d57611c0c614e79565b5b602002602001015181526020018a8481518110611c2d57611c2c614e79565b5b60200260200101518152602001898481518110611c4d57611c4c614e79565b5b60200260200101518152602001888481518110611c6d57611c6c614e79565b5b60200260200101518152602001878481518110611c8d57611c8c614e79565b5b602002602001015115158152602001868481518110611caf57611cae614e79565b5b60200260200101518152602001858481518110611ccf57611cce614e79565b5b6020026020010151815250905060048b604051611cec9190614ee4565b90815260200160405180910390206000018190806001815401808255809150506001900390600052602060002090600702016000909190919091506000820151816000019081611d3c9190615107565b5060208201518160010155604082015181600201556060820151816003019081611d669190615107565b5060808201518160040160006101000a81548160ff02191690831515021790555060a0820151816005015560c082015181600601555050508080611da990615208565b915050611be4565b508060048a604051611dc39190614ee4565b90815260200160405180910390206001019081611de09190615107565b5088604051611def9190614ee4565b60405180910390207f453b283a875512bc7137102acd47b26671e5e9d566a3e5feb6ca73e5878043ac60048b604051611e289190614ee4565b908152602001604051809103902060000183604051611e48929190615d41565b60405180910390a2505050505050505050565b86518851148015611e6d575085518751145b8015611e7a575084518651145b8015611e87575083518551145b8015611e94575082518451145b8015611ea1575081518351145b611ee0576040517f08c379a0000000000000000000000000000000000000000000000000000000008152600401611ed790614e59565b60405180910390fd5b60005b88518110156120c85760006040518060e001604052808b8481518110611f0c57611f0b614e79565b5b602002602001015181526020018a8481518110611f2c57611f2b614e79565b5b60200260200101518152602001898481518110611f4c57611f4b614e79565b5b60200260200101518152602001888481518110611f6c57611f6b614e79565b5b60200260200101518152602001878481518110611f8c57611f8b614e79565b5b602002602001015115158152602001868481518110611fae57611fad614e79565b5b60200260200101518152602001858481518110611fce57611fcd614e79565b5b6020026020010151815250905060058b604051611feb9190614ee4565b9081526020016040518091039020600001819080600181540180825580915050600190039060005260206000209060070201600090919091909150600082015181600001908161203b9190615107565b5060208201518160010190816120519190615107565b5060408201518160020190816120679190615107565b50606082015181600301908161207d9190615107565b5060808201518160040160006101000a81548160ff02191690831515021790555060a0820151816005015560c0820151816006015550505080806120c090615208565b915050611ee3565b508060058a6040516120da9190614ee4565b908152602001604051809103902060010190816120f79190615107565b50886040516121069190614ee4565b60405180910390207ff7c644b9ebe81a243b965ed633ad5f3dfaef79214c362f293598e48fe96285af60058b60405161213f9190614ee4565b90815260200160405180910390206000018360405161215f9291906159dd565b60405180910390a2505050505050505050565b88518a51148015612184575087518951145b8015612191575086518851145b801561219e575085518751145b80156121ab575084518651145b80156121b8575083518551145b80156121c5575082518451145b80156121d2575081518351145b612211576040517f08c379a000000000000000000000000000000000000000000000000000000000815260040161220890614e59565b60405180910390fd5b60005b8a5181101561245b5760006040518061012001604052808d848151811061223e5761223d614e79565b5b602002602001015181526020018c848151811061225e5761225d614e79565b5b602002602001015181526020018b848151811061227e5761227d614e79565b5b602002602001015181526020018a848151811061229e5761229d614e79565b5b602002602001015181526020018984815181106122be576122bd614e79565b5b602002602001015181526020018884815181106122de576122dd614e79565b5b602002602001015181526020018784815181106122fe576122fd614e79565b5b6020026020010151815260200186848151811061231e5761231d614e79565b5b6020026020010151815260200185848151811061233e5761233d614e79565b5b6020026020010151815250905060028d60405161235b9190614ee4565b908152602001604051809103902060000181908060018154018082558091505060019003906000526020600020906009020160009091909190915060008201518160000190816123ab9190615107565b5060208201518160010190816123c19190615107565b5060408201518160020190816123d79190615107565b5060608201518160030190816123ed9190615107565b5060808201518160040190816124039190615107565b5060a08201518160050190816124199190615107565b5060c0820151816006015560e08201518160070190816124399190615107565b506101008201518160080155505050808061245390615208565b915050612214565b508060028c60405161246d9190614ee4565b9081526020016040518091039020600101908161248a9190615107565b508a6040516124999190614ee4565b60405180910390207f9c223b809f5d8e71d43f0c72892e8e61c6ab78086b06fc5ffb93951ccfa03fa360028d6040516124d29190614ee4565b9081526020016040518091039020600001836040516124f29291906157fa565b60405180910390a25050505050505050505050565b60006040518060600160405280836000015181526020018360200151815260200183604001518152509050806006846040516125439190614ee4565b908152602001604051809103902060008201518160000190816125669190615107565b50602082015181600101908161257c9190615107565b5060408201518160020155905050826040516125989190614ee4565b60405180910390207f4f24336055d992bf20f44d53f6f7e8909075915f2bc6830d7a7963652fcbf7298360000151846020015185604001516040516125df93929190613c71565b60405180910390a2505050565b60606000826040516125fe9190614ee4565b9081526020016040518091039020600001805480602002602001604051908101604052809291908181526020016000905b8282101561294f57838290600052602060002090600702016040518060e001604052908160008201805461266290614f2a565b80601f016020809104026020016040519081016040528092919081815260200182805461268e90614f2a565b80156126db5780601f106126b0576101008083540402835291602001916126db565b820191906000526020600020905b8154815290600101906020018083116126be57829003601f168201915b505050505081526020016001820180546126f490614f2a565b80601f016020809104026020016040519081016040528092919081815260200182805461272090614f2a565b801561276d5780601f106127425761010080835404028352916020019161276d565b820191906000526020600020905b81548152906001019060200180831161275057829003601f168201915b5050505050815260200160028201805461278690614f2a565b80601f01602080910402602001604051908101604052809291908181526020018280546127b290614f2a565b80156127ff5780601f106127d4576101008083540402835291602001916127ff565b820191906000526020600020905b8154815290600101906020018083116127e257829003601f168201915b5050505050815260200160038201805461281890614f2a565b80601f016020809104026020016040519081016040528092919081815260200182805461284490614f2a565b80156128915780601f1061286657610100808354040283529160200191612891565b820191906000526020600020905b81548152906001019060200180831161287457829003601f168201915b5050505050815260200160048201548152602001600582015481526020016006820180546128be90614f2a565b80601f01602080910402602001604051908101604052809291908181526020018280546128ea90614f2a565b80156129375780601f1061290c57610100808354040283529160200191612937565b820191906000526020600020905b81548152906001019060200180831161291a57829003601f168201915b5050505050815250508152602001906001019061262f565b505050509050919050565b8551875114801561296c575084518651145b8015612979575083518551145b8015612986575082518451145b8015612993575081518351145b6129d2576040517f08c379a00000000000000000000000000000000000000000000000000000000081526004016129c990614e59565b60405180910390fd5b60005b8751811015612b785760006040518060c001604052808a84815181106129fe576129fd614e79565b5b60200260200101518152602001898481518110612a1e57612a1d614e79565b5b60200260200101518152602001888481518110612a3e57612a3d614e79565b5b60200260200101518152602001878481518110612a5e57612a5d614e79565b5b60200260200101518152602001868481518110612a7e57612a7d614e79565b5b60200260200101518152602001858481518110612a9e57612a9d614e79565b5b6020026020010151815250905060038a604051612abb9190614ee4565b90815260200160405180910390206000018190806001815401808255809150506001900390600052602060002090600602016000909190919091506000820151816000019081612b0b9190615107565b506020820151816001019081612b219190615107565b5060408201518160020155606082015181600301556080820151816004019081612b4b9190615107565b5060a0820151816005019081612b619190615107565b505050508080612b7090615208565b9150506129d5565b5080600389604051612b8a9190614ee4565b90815260200160405180910390206001019081612ba79190615107565b5087604051612bb69190614ee4565b60405180910390207f43e8ba3286379b0a9976dad95472a757535dc174574357e5675fd8532549b43560038a604051612bef9190614ee4565b908152602001604051809103902060000183604051612c0f929190615b7b565b60405180910390a25050505050505050565b6060600382604051612c339190614ee4565b9081526020016040518091039020600001805480602002602001604051908101604052809291908181526020016000905b82821015612ef257838290600052602060002090600602016040518060c0016040529081600082018054612c9790614f2a565b80601f0160208091040260200160405190810160405280929190818152602001828054612cc390614f2a565b8015612d105780601f10612ce557610100808354040283529160200191612d10565b820191906000526020600020905b815481529060010190602001808311612cf357829003601f168201915b50505050508152602001600182018054612d2990614f2a565b80601f0160208091040260200160405190810160405280929190818152602001828054612d5590614f2a565b8015612da25780601f10612d7757610100808354040283529160200191612da2565b820191906000526020600020905b815481529060010190602001808311612d8557829003601f168201915b505050505081526020016002820154815260200160038201548152602001600482018054612dcf90614f2a565b80601f0160208091040260200160405190810160405280929190818152602001828054612dfb90614f2a565b8015612e485780601f10612e1d57610100808354040283529160200191612e48565b820191906000526020600020905b815481529060010190602001808311612e2b57829003601f168201915b50505050508152602001600582018054612e6190614f2a565b80601f0160208091040260200160405190810160405280929190818152602001828054612e8d90614f2a565b8015612eda5780601f10612eaf57610100808354040283529160200191612eda565b820191906000526020600020905b815481529060010190602001808311612ebd57829003601f168201915b50505050508152505081526020019060010190612c64565b505050509050919050565b86518851148015612f0f575085518751145b8015612f1c575084518651145b8015612f29575083518551145b8015612f36575082518451145b8015612f43575081518351145b612f82576040517f08c379a0000000000000000000000000000000000000000000000000000000008152600401612f7990614e59565b60405180910390fd5b60005b885181101561315e5760006040518060e001604052808b8481518110612fae57612fad614e79565b5b602002602001015181526020018a8481518110612fce57612fcd614e79565b5b60200260200101518152602001898481518110612fee57612fed614e79565b5b6020026020010151815260200188848151811061300e5761300d614e79565b5b6020026020010151815260200187848151811061302e5761302d614e79565b5b6020026020010151815260200186848151811061304e5761304d614e79565b5b6020026020010151815260200185848151811061306e5761306d614e79565b5b6020026020010151815250905060008b60405161308b9190614ee4565b908152602001604051809103902060000181908060018154018082558091505060019003906000526020600020906007020160009091909190915060008201518160000190816130db9190615107565b5060208201518160010190816130f19190615107565b5060408201518160020190816131079190615107565b50606082015181600301908161311d9190615107565b506080820151816004015560a0820151816005015560c08201518160060190816131479190615107565b50505050808061315690615208565b915050612f85565b508060008a6040516131709190614ee4565b9081526020016040518091039020600101908161318d9190615107565b508860405161319c9190614ee4565b60405180910390207f0e75504658d8f7da833ca990d560e9f28e66c5605d2796eb99b9960f8386779560008b6040516131d59190614ee4565b9081526020016040518091039020600001836040516131f592919061560f565b60405180910390a2505050505050505050565b600060048360405161321a9190614ee4565b908152602001604051809103902090508181600101908161323b9190615107565b508260405161324a9190614ee4565b60405180910390207f453b283a875512bc7137102acd47b26671e5e9d566a3e5feb6ca73e5878043ac8260000184604051613286929190615d41565b60405180910390a2505050565b6000604051905090565b600080fd5b600080fd5b600080fd5b600080fd5b6000601f19601f8301169050919050565b7f4e487b7100000000000000000000000000000000000000000000000000000000600052604160045260246000fd5b6132fa826132b1565b810181811067ffffffffffffffff82111715613319576133186132c2565b5b80604052505050565b600061332c613293565b905061333882826132f1565b919050565b600067ffffffffffffffff821115613358576133576132c2565b5b613361826132b1565b9050602081019050919050565b82818337600083830152505050565b600061339061338b8461333d565b613322565b9050828152602081018484840111156133ac576133ab6132ac565b5b6133b784828561336e565b509392505050565b600082601f8301126133d4576133d36132a7565b5b81356133e484826020860161337d565b91505092915050565b600067ffffffffffffffff821115613408576134076132c2565b5b602082029050602081019050919050565b600080fd5b600061343161342c846133ed565b613322565b9050808382526020820190506020840283018581111561345457613453613419565b5b835b8181101561349b57803567ffffffffffffffff811115613479576134786132a7565b5b80860161348689826133bf565b85526020850194505050602081019050613456565b5050509392505050565b600082601f8301126134ba576134b96132a7565b5b81356134ca84826020860161341e565b91505092915050565b600067ffffffffffffffff8211156134ee576134ed6132c2565b5b602082029050602081019050919050565b6000819050919050565b613512816134ff565b811461351d57600080fd5b50565b60008135905061352f81613509565b92915050565b6000613548613543846134d3565b613322565b9050808382526020820190506020840283018581111561356b5761356a613419565b5b835b8181101561359457806135808882613520565b84526020840193505060208101905061356d565b5050509392505050565b600082601f8301126135b3576135b26132a7565b5b81356135c3848260208601613535565b91505092915050565b600080600080600080600060e0888a0312156135eb576135ea61329d565b5b600088013567ffffffffffffffff811115613609576136086132a2565b5b6136158a828b016133bf565b975050602088013567ffffffffffffffff811115613636576136356132a2565b5b6136428a828b016134a5565b965050604088013567ffffffffffffffff811115613663576136626132a2565b5b61366f8a828b0161359e565b955050606088013567ffffffffffffffff8111156136905761368f6132a2565b5b61369c8a828b016134a5565b945050608088013567ffffffffffffffff8111156136bd576136bc6132a2565b5b6136c98a828b0161359e565b93505060a088013567ffffffffffffffff8111156136ea576136e96132a2565b5b6136f68a828b0161359e565b92505060c088013567ffffffffffffffff811115613717576137166132a2565b5b6137238a828b016133bf565b91505092959891949750929550565b6000602082840312156137485761374761329d565b5b600082013567ffffffffffffffff811115613766576137656132a2565b5b613772848285016133bf565b91505092915050565b600081519050919050565b600082825260208201905092915050565b60005b838110156137b557808201518184015260208101905061379a565b60008484015250505050565b60006137cc8261377b565b6137d68185613786565b93506137e6818560208601613797565b6137ef816132b1565b840191505092915050565b6000602082019050818103600083015261381481846137c1565b905092915050565b600081519050919050565b600082825260208201905092915050565b6000819050602082019050919050565b600082825260208201905092915050565b60006138648261377b565b61386e8185613848565b935061387e818560208601613797565b613887816132b1565b840191505092915050565b61389b816134ff565b82525050565b60008115159050919050565b6138b6816138a1565b82525050565b600060e08301600083015184820360008601526138d98282613859565b91505060208301516138ee6020860182613892565b5060408301516139016040860182613892565b50606083015184820360608601526139198282613859565b915050608083015161392e60808601826138ad565b5060a083015161394160a0860182613892565b5060c083015161395460c0860182613892565b508091505092915050565b600061396b83836138bc565b905092915050565b6000602082019050919050565b600061398b8261381c565b6139958185613827565b9350836020820285016139a785613838565b8060005b858110156139e357848403895281516139c4858261395f565b94506139cf83613973565b925060208a019950506001810190506139ab565b50829750879550505050505092915050565b60006020820190508181036000830152613a0f8184613980565b905092915050565b60008060408385031215613a2e57613a2d61329d565b5b600083013567ffffffffffffffff811115613a4c57613a4b6132a2565b5b613a58858286016133bf565b925050602083013567ffffffffffffffff811115613a7957613a786132a2565b5b613a85858286016133bf565b9150509250929050565b600081519050919050565b600082825260208201905092915050565b6000819050602082019050919050565b6000610120830160008301518482036000860152613ad98282613859565b91505060208301518482036020860152613af38282613859565b91505060408301518482036040860152613b0d8282613859565b91505060608301518482036060860152613b278282613859565b91505060808301518482036080860152613b418282613859565b91505060a083015184820360a0860152613b5b8282613859565b91505060c0830151613b7060c0860182613892565b5060e083015184820360e0860152613b888282613859565b915050610100830151613b9f610100860182613892565b508091505092915050565b6000613bb68383613abb565b905092915050565b6000602082019050919050565b6000613bd682613a8f565b613be08185613a9a565b935083602082028501613bf285613aab565b8060005b85811015613c2e5784840389528151613c0f8582613baa565b9450613c1a83613bbe565b925060208a01995050600181019050613bf6565b50829750879550505050505092915050565b60006020820190508181036000830152613c5a8184613bcb565b905092915050565b613c6b816134ff565b82525050565b60006060820190508181036000830152613c8b81866137c1565b90508181036020830152613c9f81856137c1565b9050613cae6040830184613c62565b949350505050565b600081519050919050565b600082825260208201905092915050565b6000819050602082019050919050565b600060e0830160008301518482036000860152613cff8282613859565b91505060208301518482036020860152613d198282613859565b91505060408301518482036040860152613d338282613859565b91505060608301518482036060860152613d4d8282613859565b9150506080830151613d6260808601826138ad565b5060a0830151613d7560a0860182613892565b5060c0830151613d8860c0860182613892565b508091505092915050565b6000613d9f8383613ce2565b905092915050565b6000602082019050919050565b6000613dbf82613cb6565b613dc98185613cc1565b935083602082028501613ddb85613cd2565b8060005b85811015613e175784840389528151613df88582613d93565b9450613e0383613da7565b925060208a01995050600181019050613ddf565b50829750879550505050505092915050565b60006020820190508181036000830152613e438184613db4565b905092915050565b600081519050919050565b600082825260208201905092915050565b6000819050602082019050919050565b600060a0830160008301518482036000860152613e948282613859565b9150506020830151613ea96020860182613892565b5060408301518482036040860152613ec18282613859565b9150506060830151613ed66060860182613892565b506080830151613ee96080860182613892565b508091505092915050565b6000613f008383613e77565b905092915050565b6000602082019050919050565b6000613f2082613e4b565b613f2a8185613e56565b935083602082028501613f3c85613e67565b8060005b85811015613f785784840389528151613f598582613ef4565b9450613f6483613f08565b925060208a01995050600181019050613f40565b50829750879550505050505092915050565b60006020820190508181036000830152613fa48184613f15565b905092915050565b600067ffffffffffffffff821115613fc757613fc66132c2565b5b602082029050602081019050919050565b613fe1816138a1565b8114613fec57600080fd5b50565b600081359050613ffe81613fd8565b92915050565b600061401761401284613fac565b613322565b9050808382526020820190506020840283018581111561403a57614039613419565b5b835b81811015614063578061404f8882613fef565b84526020840193505060208101905061403c565b5050509392505050565b600082601f830112614082576140816132a7565b5b8135614092848260208601614004565b91505092915050565b60008060008060008060008060006101208a8c0312156140be576140bd61329d565b5b60008a013567ffffffffffffffff8111156140dc576140db6132a2565b5b6140e88c828d016133bf565b99505060208a013567ffffffffffffffff811115614109576141086132a2565b5b6141158c828d016134a5565b98505060408a013567ffffffffffffffff811115614136576141356132a2565b5b6141428c828d0161359e565b97505060608a013567ffffffffffffffff811115614163576141626132a2565b5b61416f8c828d0161359e565b96505060808a013567ffffffffffffffff8111156141905761418f6132a2565b5b61419c8c828d016134a5565b95505060a08a013567ffffffffffffffff8111156141bd576141bc6132a2565b5b6141c98c828d0161406d565b94505060c08a013567ffffffffffffffff8111156141ea576141e96132a2565b5b6141f68c828d0161359e565b93505060e08a013567ffffffffffffffff811115614217576142166132a2565b5b6142238c828d0161359e565b9250506101008a013567ffffffffffffffff811115614245576142446132a2565b5b6142518c828d016133bf565b9150509295985092959850929598565b60008060008060008060008060006101208a8c0312156142845761428361329d565b5b60008a013567ffffffffffffffff8111156142a2576142a16132a2565b5b6142ae8c828d016133bf565b99505060208a013567ffffffffffffffff8111156142cf576142ce6132a2565b5b6142db8c828d016134a5565b98505060408a013567ffffffffffffffff8111156142fc576142fb6132a2565b5b6143088c828d016134a5565b97505060608a013567ffffffffffffffff811115614329576143286132a2565b5b6143358c828d016134a5565b96505060808a013567ffffffffffffffff811115614356576143556132a2565b5b6143628c828d016134a5565b95505060a08a013567ffffffffffffffff811115614383576143826132a2565b5b61438f8c828d0161406d565b94505060c08a013567ffffffffffffffff8111156143b0576143af6132a2565b5b6143bc8c828d0161359e565b93505060e08a013567ffffffffffffffff8111156143dd576143dc6132a2565b5b6143e98c828d0161359e565b9250506101008a013567ffffffffffffffff81111561440b5761440a6132a2565b5b6144178c828d016133bf565b9150509295985092959850929598565b60008060008060008060008060008060006101608c8e03121561444d5761444c61329d565b5b60008c013567ffffffffffffffff81111561446b5761446a6132a2565b5b6144778e828f016133bf565b9b505060208c013567ffffffffffffffff811115614498576144976132a2565b5b6144a48e828f016134a5565b9a505060408c013567ffffffffffffffff8111156144c5576144c46132a2565b5b6144d18e828f016134a5565b99505060608c013567ffffffffffffffff8111156144f2576144f16132a2565b5b6144fe8e828f016134a5565b98505060808c013567ffffffffffffffff81111561451f5761451e6132a2565b5b61452b8e828f016134a5565b97505060a08c013567ffffffffffffffff81111561454c5761454b6132a2565b5b6145588e828f016134a5565b96505060c08c013567ffffffffffffffff811115614579576145786132a2565b5b6145858e828f016134a5565b95505060e08c013567ffffffffffffffff8111156145a6576145a56132a2565b5b6145b28e828f0161359e565b9450506101008c013567ffffffffffffffff8111156145d4576145d36132a2565b5b6145e08e828f016134a5565b9350506101208c013567ffffffffffffffff811115614602576146016132a2565b5b61460e8e828f0161359e565b9250506101408c013567ffffffffffffffff8111156146305761462f6132a2565b5b61463c8e828f016133bf565b9150509295989b509295989b9093969950565b600080fd5b600080fd5b60006060828403121561466f5761466e61464f565b5b6146796060613322565b9050600082013567ffffffffffffffff81111561469957614698614654565b5b6146a5848285016133bf565b600083015250602082013567ffffffffffffffff8111156146c9576146c8614654565b5b6146d5848285016133bf565b60208301525060406146e984828501613520565b60408301525092915050565b6000806040838503121561470c5761470b61329d565b5b600083013567ffffffffffffffff81111561472a576147296132a2565b5b614736858286016133bf565b925050602083013567ffffffffffffffff811115614757576147566132a2565b5b61476385828601614659565b9150509250929050565b600081519050919050565b600082825260208201905092915050565b6000819050602082019050919050565b600060e08301600083015184820360008601526147b68282613859565b915050602083015184820360208601526147d08282613859565b915050604083015184820360408601526147ea8282613859565b915050606083015184820360608601526148048282613859565b91505060808301516148196080860182613892565b5060a083015161482c60a0860182613892565b5060c083015184820360c08601526148448282613859565b9150508091505092915050565b600061485d8383614799565b905092915050565b6000602082019050919050565b600061487d8261476d565b6148878185614778565b93508360208202850161489985614789565b8060005b858110156148d557848403895281516148b68582614851565b94506148c183614865565b925060208a0199505060018101905061489d565b50829750879550505050505092915050565b600060208201905081810360008301526149018184614872565b905092915050565b600080600080600080600080610100898b03121561492a5761492961329d565b5b600089013567ffffffffffffffff811115614948576149476132a2565b5b6149548b828c016133bf565b985050602089013567ffffffffffffffff811115614975576149746132a2565b5b6149818b828c016134a5565b975050604089013567ffffffffffffffff8111156149a2576149a16132a2565b5b6149ae8b828c016134a5565b965050606089013567ffffffffffffffff8111156149cf576149ce6132a2565b5b6149db8b828c0161359e565b955050608089013567ffffffffffffffff8111156149fc576149fb6132a2565b5b614a088b828c0161359e565b94505060a089013567ffffffffffffffff811115614a2957614a286132a2565b5b614a358b828c016134a5565b93505060c089013567ffffffffffffffff811115614a5657614a556132a2565b5b614a628b828c016134a5565b92505060e089013567ffffffffffffffff811115614a8357614a826132a2565b5b614a8f8b828c016133bf565b9150509295985092959890939650565b600081519050919050565b600082825260208201905092915050565b6000819050602082019050919050565b600060c0830160008301518482036000860152614ae88282613859565b91505060208301518482036020860152614b028282613859565b9150506040830151614b176040860182613892565b506060830151614b2a6060860182613892565b5060808301518482036080860152614b428282613859565b91505060a083015184820360a0860152614b5c8282613859565b9150508091505092915050565b6000614b758383614acb565b905092915050565b6000602082019050919050565b6000614b9582614a9f565b614b9f8185614aaa565b935083602082028501614bb185614abb565b8060005b85811015614bed5784840389528151614bce8582614b69565b9450614bd983614b7d565b925060208a01995050600181019050614bb5565b50829750879550505050505092915050565b60006020820190508181036000830152614c198184614b8a565b905092915050565b60008060008060008060008060006101208a8c031215614c4457614c4361329d565b5b60008a013567ffffffffffffffff811115614c6257614c616132a2565b5b614c6e8c828d016133bf565b99505060208a013567ffffffffffffffff811115614c8f57614c8e6132a2565b5b614c9b8c828d016134a5565b98505060408a013567ffffffffffffffff811115614cbc57614cbb6132a2565b5b614cc88c828d016134a5565b97505060608a013567ffffffffffffffff811115614ce957614ce86132a2565b5b614cf58c828d016134a5565b96505060808a013567ffffffffffffffff811115614d1657614d156132a2565b5b614d228c828d016134a5565b95505060a08a013567ffffffffffffffff811115614d4357614d426132a2565b5b614d4f8c828d0161359e565b94505060c08a013567ffffffffffffffff811115614d7057614d6f6132a2565b5b614d7c8c828d0161359e565b93505060e08a013567ffffffffffffffff811115614d9d57614d9c6132a2565b5b614da98c828d016134a5565b9250506101008a013567ffffffffffffffff811115614dcb57614dca6132a2565b5b614dd78c828d016133bf565b9150509295985092959850929598565b7f496e70757420617272617973206d7573742068617665207468652073616d652060008201527f6c656e6774680000000000000000000000000000000000000000000000000000602082015250565b6000614e43602683613786565b9150614e4e82614de7565b604082019050919050565b60006020820190508181036000830152614e7281614e36565b9050919050565b7f4e487b7100000000000000000000000000000000000000000000000000000000600052603260045260246000fd5b600081905092915050565b6000614ebe8261377b565b614ec88185614ea8565b9350614ed8818560208601613797565b80840191505092915050565b6000614ef08284614eb3565b915081905092915050565b7f4e487b7100000000000000000000000000000000000000000000000000000000600052602260045260246000fd5b60006002820490506001821680614f4257607f821691505b602082108103614f5557614f54614efb565b5b50919050565b60008190508160005260206000209050919050565b60006020601f8301049050919050565b600082821b905092915050565b600060088302614fbd7fffffffffffffffffffffffffffffffffffffffffffffffffffffffffffffffff82614f80565b614fc78683614f80565b95508019841693508086168417925050509392505050565b6000819050919050565b6000615004614fff614ffa846134ff565b614fdf565b6134ff565b9050919050565b6000819050919050565b61501e83614fe9565b61503261502a8261500b565b848454614f8d565b825550505050565b600090565b61504761503a565b615052818484615015565b505050565b5b818110156150765761506b60008261503f565b600181019050615058565b5050565b601f8211156150bb5761508c81614f5b565b61509584614f70565b810160208510156150a4578190505b6150b86150b085614f70565b830182615057565b50505b505050565b600082821c905092915050565b60006150de600019846008026150c0565b1980831691505092915050565b60006150f783836150cd565b9150826002028217905092915050565b6151108261377b565b67ffffffffffffffff811115615129576151286132c2565b5b6151338254614f2a565b61513e82828561507a565b600060209050601f831160018114615171576000841561515f578287015190505b61516985826150eb565b8655506151d1565b601f19841661517f86614f5b565b60005b828110156151a757848901518255600182019150602085019450602081019050615182565b868310156151c457848901516151c0601f8916826150cd565b8355505b6001600288020188555050505b505050505050565b7f4e487b7100000000000000000000000000000000000000000000000000000000600052601160045260246000fd5b6000615213826134ff565b91507fffffffffffffffffffffffffffffffffffffffffffffffffffffffffffffffff8203615245576152446151d9565b5b600182019050919050565b600081549050919050565b60008190508160005260206000209050919050565b6000815461527d81614f2a565b6152878186613848565b945060018216600081146152a257600181146152b8576152eb565b60ff1983168652811515602002860193506152eb565b6152c185614f5b565b60005b838110156152e3578154818901526001820191506020810190506152c4565b808801955050505b50505092915050565b60008160001c9050919050565b6000819050919050565b600061531e615319836152f4565b615301565b9050919050565b600060a08301600080840185830360008701526153428382615270565b925050600184015490506153558161530b565b6153626020870182613892565b506002840185830360408701526153798382615270565b9250506003840154905061538c8161530b565b6153996060870182613892565b50600484015490506153aa8161530b565b6153b76080870182613892565b50819250505092915050565b60006153cf8383615325565b905092915050565b6000600582019050919050565b60006153ef82615250565b6153f98185613e56565b93508360208202850161540b8561525b565b8060005b858110156154465784840389528161542785826153c3565b9450615432836153d7565b925060208a0199505060018101905061540f565b50829750879550505050505092915050565b6000604082019050818103600083015261547281856153e4565b9050818103602083015261548681846137c1565b90509392505050565b600081549050919050565b60008190508160005260206000209050919050565b600060e08301600080840185830360008701526154cc8382615270565b9250506001840185830360208701526154e58382615270565b9250506002840185830360408701526154fe8382615270565b9250506003840185830360608701526155178382615270565b9250506004840154905061552a8161530b565b6155376080870182613892565b50600584015490506155488161530b565b61555560a0870182613892565b506006840185830360c087015261556c8382615270565b925050819250505092915050565b600061558683836154af565b905092915050565b6000600782019050919050565b60006155a68261548f565b6155b08185614778565b9350836020820285016155c28561549a565b8060005b858110156155fd578484038952816155de858261557a565b94506155e98361558e565b925060208a019950506001810190506155c6565b50829750879550505050505092915050565b60006040820190508181036000830152615629818561559b565b9050818103602083015261563d81846137c1565b90509392505050565b600081549050919050565b60008190508160005260206000209050919050565b60006101208301600080840185830360008701526156848382615270565b92505060018401858303602087015261569d8382615270565b9250506002840185830360408701526156b68382615270565b9250506003840185830360608701526156cf8382615270565b9250506004840185830360808701526156e88382615270565b9250506005840185830360a08701526157018382615270565b925050600684015490506157148161530b565b61572160c0870182613892565b506007840185830360e08701526157388382615270565b9250506008840154905061574b8161530b565b615759610100870182613892565b50819250505092915050565b60006157718383615666565b905092915050565b6000600982019050919050565b600061579182615646565b61579b8185613a9a565b9350836020820285016157ad85615651565b8060005b858110156157e8578484038952816157c98582615765565b94506157d483615779565b925060208a019950506001810190506157b1565b50829750879550505050505092915050565b600060408201905081810360008301526158148185615786565b9050818103602083015261582881846137c1565b90509392505050565b600081549050919050565b60008190508160005260206000209050919050565b600060ff82169050919050565b600061587161586c836152f4565b615851565b9050919050565b600060e08301600080840185830360008701526158958382615270565b9250506001840185830360208701526158ae8382615270565b9250506002840185830360408701526158c78382615270565b9250506003840185830360608701526158e08382615270565b925050600484015490506158f38161585e565b61590060808701826138ad565b50600584015490506159118161530b565b61591e60a0870182613892565b506006840154905061592f8161530b565b61593c60c0870182613892565b50819250505092915050565b60006159548383615878565b905092915050565b6000600782019050919050565b600061597482615831565b61597e8185613cc1565b9350836020820285016159908561583c565b8060005b858110156159cb578484038952816159ac8582615948565b94506159b78361595c565b925060208a01995050600181019050615994565b50829750879550505050505092915050565b600060408201905081810360008301526159f78185615969565b90508181036020830152615a0b81846137c1565b90509392505050565b600081549050919050565b60008190508160005260206000209050919050565b600060c0830160008084018583036000870152615a518382615270565b925050600184018583036020870152615a6a8382615270565b92505060028401549050615a7d8161530b565b615a8a6040870182613892565b5060038401549050615a9b8161530b565b615aa86060870182613892565b50600484018583036080870152615abf8382615270565b9250506005840185830360a0870152615ad88382615270565b925050819250505092915050565b6000615af28383615a34565b905092915050565b6000600682019050919050565b6000615b1282615a14565b615b1c8185614aaa565b935083602082028501615b2e85615a1f565b8060005b85811015615b6957848403895281615b4a8582615ae6565b9450615b5583615afa565b925060208a01995050600181019050615b32565b50829750879550505050505092915050565b60006040820190508181036000830152615b958185615b07565b90508181036020830152615ba981846137c1565b90509392505050565b600081549050919050565b60008190508160005260206000209050919050565b600060e0830160008084018583036000870152615bef8382615270565b92505060018401549050615c028161530b565b615c0f6020870182613892565b5060028401549050615c208161530b565b615c2d6040870182613892565b50600384018583036060870152615c448382615270565b92505060048401549050615c578161585e565b615c6460808701826138ad565b5060058401549050615c758161530b565b615c8260a0870182613892565b5060068401549050615c938161530b565b615ca060c0870182613892565b50819250505092915050565b6000615cb88383615bd2565b905092915050565b6000600782019050919050565b6000615cd882615bb2565b615ce28185613827565b935083602082028501615cf485615bbd565b8060005b85811015615d2f57848403895281615d108582615cac565b9450615d1b83615cc0565b925060208a01995050600181019050615cf8565b50829750879550505050505092915050565b60006040820190508181036000830152615d5b8185615ccd565b90508181036020830152615d6f81846137c1565b9050939250505056fea26469706673582212201989fb8b87d7fcd2a5d5c5c8d975c3587f052c648fbb46c7acaf93411991d8bb64736f6c63430008130033",
  "immutableReferences": {},
  "source": "// SPDX-License-Identifier: MIT\npragma solidity ^0.8.0;\n\ncontract UserContract1 {\n    struct UserData {\n        string email;\n        string name;\n        uint256 age;\n    }\n\n    struct AssetInfo {\n        string name;\n        string typeOfAsset;\n        string description;\n        string location;\n        uint256 purchaseDate;\n        uint256 purchasePrice;\n        string previousOwner;\n    }\n\n    struct MilitaryInfo {\n        string name;\n        uint256 dateOfBirth;\n        string stateOfMilitary;\n        uint256 postponementDate;\n        uint256 dateOfConstruction;\n    }\n\n    struct FamilyTreeInfo {\n        string gender;\n        string degreeOfRelationship;\n        string name;\n        string surname;\n        string fathersName;\n        string mothersName;\n        uint256 dateOfBirth;\n        string status;\n        uint256 dateOfDeath;\n    }\n\n    struct SubscriptionTransactionInfo {\n        string subscriptionType;\n        string companyName;\n        uint256 subscriptionStartDate;\n        uint256 subscriptionEndDate;\n        string subscriberName;\n        string subscriberSurname;\n    }\n\n    struct TrafficDebtInfo {\n        string debtPayer;\n        uint256 debtAmount;\n        uint256 expiryDate;\n        string licensePlate;\n        bool isPaid;\n        uint256 paymentDate;\n        uint256 paymentAmount;\n    }\n\n    struct PlaceOfResidenceInfo {\n        string name;\n        string surname;\n        string typeOfAddress;\n        string locationOfAddress;\n        bool isCurrentAddress;\n        uint256 settlementDate;\n        uint256 leavingDate;\n    }\n\n    struct UserAsset {\n        AssetInfo[] assetInfos;\n        string ipfsHash;\n    }\n\n    struct UserMilitary {\n        MilitaryInfo[] militaryInfos;\n        string ipfsHash;\n    }\n\n    struct UserFamilyTree {\n        FamilyTreeInfo[] familyTreeInfos;\n        string ipfsHash;\n    }\n\n    struct UserSubscriptionTransaction {\n        SubscriptionTransactionInfo[] subscriptionTransactionInfos;\n        string ipfsHash;\n    }\n\n    struct UserTrafficDebt {\n        TrafficDebtInfo[] trafficDebtInfos;\n        string ipfsHash;\n    }\n\n    struct UserPlaceOfResidence {\n        PlaceOfResidenceInfo[] placeOfResidenceInfos;\n        string ipfsHash;\n    }\n\n    mapping(string => UserAsset) private assetRecords;\n    mapping(string => UserMilitary) private militaryRecords;\n    mapping(string => UserFamilyTree) private familyTreeRecords;\n    mapping(string => UserSubscriptionTransaction)\n        private subscriptionTransactionRecords;\n    mapping(string => UserTrafficDebt) private trafficDebtRecords;\n    mapping(string => UserPlaceOfResidence) private placeOfResidenceRecords;\n\n    mapping(string => UserData) users;\n\n    event UserUpdated(\n        string indexed userId,\n        string email,\n        string name,\n        uint256 age\n    );\n\n    event UserAssetUpdated(\n        string indexed userId,\n        AssetInfo[] assetInfos,\n        string ipfsHash\n    );\n\n    event UserMilitaryUpdated(\n        string indexed userId,\n        MilitaryInfo[] militrayInfos,\n        string ipfsHash\n    );\n\n    event UserFamilyTreeUpdated(\n        string indexed userId,\n        FamilyTreeInfo[] familyTreeInfos,\n        string ipfsHash\n    );\n\n    event UserSubscriptionTransactionUpdated(\n        string indexed userId,\n        SubscriptionTransactionInfo[] subscriptionTransactionInfos,\n        string ipfsHash\n    );\n\n    event UserTrafficDebtUpdated(\n        string indexed userId,\n        TrafficDebtInfo[] trafficDebtInfos,\n        string ipfsHash\n    );\n\n    event UserPlaceOfResidenceUpdated(\n        string indexed userId,\n        PlaceOfResidenceInfo[] placeOfResidenceInfos,\n        string ipfsHash\n    );\n\n    function setUserData(\n        string memory userId,\n        UserData memory userData\n    ) public {\n        UserData memory newUser = UserData(\n            userData.email,\n            userData.name,\n            userData.age\n        );\n        users[userId] = newUser;\n        emit UserUpdated(userId, userData.email, userData.name, userData.age);\n    }\n\n    function getUserData(\n        string memory userId\n    )\n        public\n        view\n        returns (string memory email, string memory name, uint256 age)\n    {\n        UserData storage user = users[userId];\n        return (user.email, user.name, user.age);\n    }\n\n    function setAssetRecord(\n        string memory userId,\n        string[] memory names,\n        string[] memory typeOfAssets,\n        string[] memory descriptions,\n        string[] memory locations,\n        uint256[] memory purchaseDates,\n        uint256[] memory purchasePrices,\n        string[] memory previousOwners,\n        string memory ipfsHash\n    ) public {\n        require(\n            names.length == typeOfAssets.length &&\n                typeOfAssets.length == descriptions.length &&\n                descriptions.length == locations.length &&\n                locations.length == purchaseDates.length &&\n                purchaseDates.length == purchasePrices.length &&\n                purchasePrices.length == previousOwners.length,\n            \"Input arrays must have the same length\"\n        );\n\n        for (uint256 i = 0; i < names.length; i++) {\n            AssetInfo memory newAsset = AssetInfo({\n                name: names[i],\n                typeOfAsset: typeOfAssets[i],\n                description: descriptions[i],\n                location: locations[i],\n                purchaseDate: purchaseDates[i],\n                purchasePrice: purchasePrices[i],\n                previousOwner: previousOwners[i]\n            });\n\n            assetRecords[userId].assetInfos.push(newAsset);\n        }\n\n        assetRecords[userId].ipfsHash = ipfsHash;\n\n        emit UserAssetUpdated(\n            userId,\n            assetRecords[userId].assetInfos,\n            ipfsHash\n        );\n    }\n\n    function getAssetRecords(\n        string memory userId\n    ) public view returns (AssetInfo[] memory) {\n        return assetRecords[userId].assetInfos;\n    }\n\n    function setAssetIPFSHash(\n        string memory userId,\n        string memory ipfsHash\n    ) public {\n        UserAsset storage userAsset = assetRecords[userId];\n\n        userAsset.ipfsHash = ipfsHash;\n\n        emit UserAssetUpdated(userId, userAsset.assetInfos, ipfsHash);\n    }\n\n    function getAssetIPFSHash(\n        string memory userId\n    ) public view returns (string memory) {\n        return assetRecords[userId].ipfsHash;\n    }\n\n    function setMilitaryRecord(\n        string memory userId,\n        string[] memory names,\n        uint256[] memory dateOfBirths,\n        string[] memory stateOfMilitarys,\n        uint256[] memory postponementDates,\n        uint256[] memory dateOfConstructions,\n        string memory ipfsHash\n    ) public {\n        require(\n            names.length == dateOfBirths.length &&\n                dateOfBirths.length == stateOfMilitarys.length &&\n                stateOfMilitarys.length == postponementDates.length &&\n                postponementDates.length == dateOfConstructions.length,\n            \"Input arrays must have the same length\"\n        );\n\n        for (uint256 i = 0; i < names.length; i++) {\n            MilitaryInfo memory newMilitary = MilitaryInfo({\n                name: names[i],\n                dateOfBirth: dateOfBirths[i],\n                stateOfMilitary: stateOfMilitarys[i],\n                postponementDate: postponementDates[i],\n                dateOfConstruction: dateOfConstructions[i]\n            });\n\n            militaryRecords[userId].militaryInfos.push(newMilitary);\n        }\n\n        militaryRecords[userId].ipfsHash = ipfsHash;\n\n        emit UserMilitaryUpdated(\n            userId,\n            militaryRecords[userId].militaryInfos,\n            ipfsHash\n        );\n    }\n\n    function getMilitaryRecords(\n        string memory userId\n    ) public view returns (MilitaryInfo[] memory) {\n        return militaryRecords[userId].militaryInfos;\n    }\n\n    function setMilitaryIPFSHash(\n        string memory userId,\n        string memory ipfsHash\n    ) public {\n        UserMilitary storage userMilitary = militaryRecords[userId];\n\n        userMilitary.ipfsHash = ipfsHash;\n\n        emit UserMilitaryUpdated(userId, userMilitary.militaryInfos, ipfsHash);\n    }\n\n    function getMilitaryIPFSHash(\n        string memory userId\n    ) public view returns (string memory) {\n        return militaryRecords[userId].ipfsHash;\n    }\n\n    function setFamilyTreeRecord(\n        string memory userId,\n        string[] memory genders,\n        string[] memory degreeOfRelationships,\n        string[] memory names,\n        string[] memory surnames,\n        string[] memory fathersNames,\n        string[] memory mothersNames,\n        uint256[] memory dateOfBirths,\n        string[] memory statuss,\n        uint256[] memory dateOfDeaths,\n        string memory ipfsHash\n    ) public {\n        require(\n            genders.length == degreeOfRelationships.length &&\n                degreeOfRelationships.length == names.length &&\n                names.length == surnames.length &&\n                surnames.length == fathersNames.length &&\n                fathersNames.length == mothersNames.length &&\n                mothersNames.length == dateOfBirths.length &&\n                dateOfBirths.length == statuss.length &&\n                statuss.length == dateOfDeaths.length,\n            \"Input arrays must have the same length\"\n        );\n\n        for (uint256 i = 0; i < genders.length; i++) {\n            FamilyTreeInfo memory newFamilyTree = FamilyTreeInfo({\n                gender: genders[i],\n                degreeOfRelationship: degreeOfRelationships[i],\n                name: names[i],\n                surname: surnames[i],\n                fathersName: fathersNames[i],\n                mothersName: mothersNames[i],\n                dateOfBirth: dateOfBirths[i],\n                status: statuss[i],\n                dateOfDeath: dateOfDeaths[i]\n            });\n\n            familyTreeRecords[userId].familyTreeInfos.push(newFamilyTree);\n        }\n\n        familyTreeRecords[userId].ipfsHash = ipfsHash;\n\n        emit UserFamilyTreeUpdated(\n            userId,\n            familyTreeRecords[userId].familyTreeInfos,\n            ipfsHash\n        );\n    }\n\n    function getFamilyTreeRecords(\n        string memory userId\n    ) public view returns (FamilyTreeInfo[] memory) {\n        return familyTreeRecords[userId].familyTreeInfos;\n    }\n\n    function setFamilyTreeIPFSHash(\n        string memory userId,\n        string memory ipfsHash\n    ) public {\n        UserFamilyTree storage userFamilyTree = familyTreeRecords[userId];\n\n        userFamilyTree.ipfsHash = ipfsHash;\n\n        emit UserFamilyTreeUpdated(\n            userId,\n            userFamilyTree.familyTreeInfos,\n            ipfsHash\n        );\n    }\n\n    function getFamilyTreeIPFSHash(\n        string memory userId\n    ) public view returns (string memory) {\n        return familyTreeRecords[userId].ipfsHash;\n    }\n\n    function setSubscriptionTransactionRecord(\n        string memory userId,\n        string[] memory subscriptionTypes,\n        string[] memory companyNames,\n        uint256[] memory subscriptionStartDates,\n        uint256[] memory subscriptionEndDates,\n        string[] memory subscriberNames,\n        string[] memory subscriberSurnames,\n        string memory ipfsHash\n    ) public {\n        require(\n            subscriptionTypes.length == companyNames.length &&\n                companyNames.length == subscriptionStartDates.length &&\n                subscriptionStartDates.length == subscriptionEndDates.length &&\n                subscriptionEndDates.length == subscriberNames.length &&\n                subscriberNames.length == subscriberSurnames.length,\n            \"Input arrays must have the same length\"\n        );\n\n        for (uint256 i = 0; i < subscriptionTypes.length; i++) {\n            SubscriptionTransactionInfo\n                memory newSubscriptionTransaction = SubscriptionTransactionInfo({\n                    subscriptionType: subscriptionTypes[i],\n                    companyName: companyNames[i],\n                    subscriptionStartDate: subscriptionStartDates[i],\n                    subscriptionEndDate: subscriptionEndDates[i],\n                    subscriberName: subscriberNames[i],\n                    subscriberSurname: subscriberSurnames[i]\n                });\n\n            subscriptionTransactionRecords[userId]\n                .subscriptionTransactionInfos\n                .push(newSubscriptionTransaction);\n        }\n\n        subscriptionTransactionRecords[userId].ipfsHash = ipfsHash;\n\n        emit UserSubscriptionTransactionUpdated(\n            userId,\n            subscriptionTransactionRecords[userId].subscriptionTransactionInfos,\n            ipfsHash\n        );\n    }\n\n    function getSubscriptionTransactionRecords(\n        string memory userId\n    ) public view returns (SubscriptionTransactionInfo[] memory) {\n        return\n            subscriptionTransactionRecords[userId].subscriptionTransactionInfos;\n    }\n\n    function setSubscriptionTransactionIPFSHash(\n        string memory userId,\n        string memory ipfsHash\n    ) public {\n        UserSubscriptionTransaction\n            storage userSubscriptionTransaction = subscriptionTransactionRecords[\n                userId\n            ];\n\n        userSubscriptionTransaction.ipfsHash = ipfsHash;\n\n        emit UserSubscriptionTransactionUpdated(\n            userId,\n            userSubscriptionTransaction.subscriptionTransactionInfos,\n            ipfsHash\n        );\n    }\n\n    function getSubscriptionTransactionIPFSHash(\n        string memory userId\n    ) public view returns (string memory) {\n        return subscriptionTransactionRecords[userId].ipfsHash;\n    }\n\n    function setTrafficDebtRecord(\n        string memory userId,\n        string[] memory debtPayers,\n        uint256[] memory debtAmounts,\n        uint256[] memory expiryDates,\n        string[] memory licensePlates,\n        bool[] memory isPaids,\n        uint256[] memory paymentDates,\n        uint256[] memory paymentAmounts,\n        string memory ipfsHash\n    ) public {\n        require(\n            debtPayers.length == debtAmounts.length &&\n                debtAmounts.length == expiryDates.length &&\n                expiryDates.length == licensePlates.length &&\n                licensePlates.length == isPaids.length &&\n                isPaids.length == paymentDates.length &&\n                paymentDates.length == paymentAmounts.length,\n            \"Input arrays must have the same length\"\n        );\n\n        for (uint256 i = 0; i < debtPayers.length; i++) {\n            TrafficDebtInfo memory newTrafficDebt = TrafficDebtInfo({\n                debtPayer: debtPayers[i],\n                debtAmount: debtAmounts[i],\n                expiryDate: expiryDates[i],\n                licensePlate: licensePlates[i],\n                isPaid: isPaids[i],\n                paymentDate: paymentDates[i],\n                paymentAmount: paymentAmounts[i]\n            });\n\n            trafficDebtRecords[userId].trafficDebtInfos.push(newTrafficDebt);\n        }\n\n        trafficDebtRecords[userId].ipfsHash = ipfsHash;\n\n        emit UserTrafficDebtUpdated(\n            userId,\n            trafficDebtRecords[userId].trafficDebtInfos,\n            ipfsHash\n        );\n    }\n\n    function getTrafficDebtRecords(\n        string memory userId\n    ) public view returns (TrafficDebtInfo[] memory) {\n        return trafficDebtRecords[userId].trafficDebtInfos;\n    }\n\n    function setTrafficDebtIPFSHash(\n        string memory userId,\n        string memory ipfsHash\n    ) public {\n        UserTrafficDebt storage userTrafficDebt = trafficDebtRecords[userId];\n\n        userTrafficDebt.ipfsHash = ipfsHash;\n\n        emit UserTrafficDebtUpdated(\n            userId,\n            userTrafficDebt.trafficDebtInfos,\n            ipfsHash\n        );\n    }\n\n    function getTrafficDebtIPFSHash(\n        string memory userId\n    ) public view returns (string memory) {\n        return trafficDebtRecords[userId].ipfsHash;\n    }\n\n    function setPlaceOfResidenceRecord(\n        string memory userId,\n        string[] memory names,\n        string[] memory surnames,\n        string[] memory typeOfAddresses,\n        string[] memory locationOfAddresses,\n        bool[] memory isCurrentAddresses,\n        uint256[] memory settlementDates,\n        uint256[] memory leavingDates,\n        string memory ipfsHash\n    ) public {\n        require(\n            names.length == surnames.length &&\n                surnames.length == typeOfAddresses.length &&\n                typeOfAddresses.length == locationOfAddresses.length &&\n                locationOfAddresses.length == isCurrentAddresses.length &&\n                isCurrentAddresses.length == settlementDates.length &&\n                settlementDates.length == leavingDates.length,\n            \"Input arrays must have the same length\"\n        );\n\n        for (uint256 i = 0; i < names.length; i++) {\n            PlaceOfResidenceInfo\n                memory newPlaceOfResidence = PlaceOfResidenceInfo({\n                    name: names[i],\n                    surname: surnames[i],\n                    typeOfAddress: typeOfAddresses[i],\n                    locationOfAddress: locationOfAddresses[i],\n                    isCurrentAddress: isCurrentAddresses[i],\n                    settlementDate: settlementDates[i],\n                    leavingDate: leavingDates[i]\n                });\n\n            placeOfResidenceRecords[userId].placeOfResidenceInfos.push(\n                newPlaceOfResidence\n            );\n        }\n\n        placeOfResidenceRecords[userId].ipfsHash = ipfsHash;\n\n        emit UserPlaceOfResidenceUpdated(\n            userId,\n            placeOfResidenceRecords[userId].placeOfResidenceInfos,\n            ipfsHash\n        );\n    }\n\n    function getPlaceOfResidenceRecords(\n        string memory userId\n    ) public view returns (PlaceOfResidenceInfo[] memory) {\n        return placeOfResidenceRecords[userId].placeOfResidenceInfos;\n    }\n\n    function setPlaceOfResidenceIPFSHash(\n        string memory userId,\n        string memory ipfsHash\n    ) public {\n        UserPlaceOfResidence\n            storage userPlaceOfResidence = placeOfResidenceRecords[userId];\n\n        userPlaceOfResidence.ipfsHash = ipfsHash;\n\n        emit UserPlaceOfResidenceUpdated(\n            userId,\n            userPlaceOfResidence.placeOfResidenceInfos,\n            ipfsHash\n        );\n    }\n\n    function getPlaceOfResidenceIPFSHash(\n        string memory userId\n    ) public view returns (string memory) {\n        return placeOfResidenceRecords[userId].ipfsHash;\n    }\n}\n",
  "sourcePath": "/Users/kmlcnclk/Projects/Github/my-devlet/contracts/UserContract1.sol",
  "compiler": {
    "name": "solc",
    "version": "0.8.19+commit.7dd6d404.Emscripten.clang"
  },
  "schemaVersion": "3.4.16",
  "updatedAt": "2024-06-05T16:23:41.088Z",
  "devdoc": {
    "kind": "dev",
    "methods": {},
    "version": 1
  },
  "userdoc": {
    "kind": "user",
    "methods": {},
    "version": 1
  }
}