{
  "contractName": "UserContract1",
  "abi": [
    {
      "anonymous": false,
      "inputs": [
        {
          "indexed": true,
          "internalType": "string",
          "name": "userId",
          "type": "string"
        },
        {
          "components": [
            {
              "internalType": "string",
              "name": "name",
              "type": "string"
            },
            {
              "internalType": "string",
              "name": "typeOfAsset",
              "type": "string"
            },
            {
              "internalType": "string",
              "name": "description",
              "type": "string"
            },
            {
              "internalType": "string",
              "name": "location",
              "type": "string"
            },
            {
              "internalType": "uint256",
              "name": "purchaseDate",
              "type": "uint256"
            },
            {
              "internalType": "uint256",
              "name": "purchasePrice",
              "type": "uint256"
            },
            {
              "internalType": "string",
              "name": "previousOwner",
              "type": "string"
            }
          ],
          "indexed": false,
          "internalType": "struct UserContract1.AssetInfo[]",
          "name": "assetInfos",
          "type": "tuple[]"
        },
        {
          "indexed": false,
          "internalType": "string",
          "name": "ipfsHash",
          "type": "string"
        }
      ],
      "name": "UserAssetUpdated",
      "type": "event"
    },
    {
      "anonymous": false,
      "inputs": [
        {
          "indexed": true,
          "internalType": "string",
          "name": "userId",
          "type": "string"
        },
        {
          "components": [
            {
              "internalType": "string",
              "name": "gender",
              "type": "string"
            },
            {
              "internalType": "string",
              "name": "degreeOfRelationship",
              "type": "string"
            },
            {
              "internalType": "string",
              "name": "name",
              "type": "string"
            },
            {
              "internalType": "string",
              "name": "surname",
              "type": "string"
            },
            {
              "internalType": "string",
              "name": "fathersName",
              "type": "string"
            },
            {
              "internalType": "string",
              "name": "mothersName",
              "type": "string"
            },
            {
              "internalType": "uint256",
              "name": "dateOfBirth",
              "type": "uint256"
            },
            {
              "internalType": "string",
              "name": "status",
              "type": "string"
            },
            {
              "internalType": "uint256",
              "name": "dateOfDeath",
              "type": "uint256"
            }
          ],
          "indexed": false,
          "internalType": "struct UserContract1.FamilyTreeInfo[]",
          "name": "familyTreeInfos",
          "type": "tuple[]"
        },
        {
          "indexed": false,
          "internalType": "string",
          "name": "ipfsHash",
          "type": "string"
        }
      ],
      "name": "UserFamilyTreeUpdated",
      "type": "event"
    },
    {
      "anonymous": false,
      "inputs": [
        {
          "indexed": true,
          "internalType": "string",
          "name": "userId",
          "type": "string"
        },
        {
          "components": [
            {
              "internalType": "string",
              "name": "name",
              "type": "string"
            },
            {
              "internalType": "uint256",
              "name": "dateOfBirth",
              "type": "uint256"
            },
            {
              "internalType": "string",
              "name": "stateOfMilitary",
              "type": "string"
            },
            {
              "internalType": "uint256",
              "name": "postponementDate",
              "type": "uint256"
            },
            {
              "internalType": "uint256",
              "name": "dateOfConstruction",
              "type": "uint256"
            }
          ],
          "indexed": false,
          "internalType": "struct UserContract1.MilitaryInfo[]",
          "name": "militrayInfos",
          "type": "tuple[]"
        },
        {
          "indexed": false,
          "internalType": "string",
          "name": "ipfsHash",
          "type": "string"
        }
      ],
      "name": "UserMilitaryUpdated",
      "type": "event"
    },
    {
      "anonymous": false,
      "inputs": [
        {
          "indexed": true,
          "internalType": "string",
          "name": "userId",
          "type": "string"
        },
        {
          "components": [
            {
              "internalType": "string",
              "name": "subscriptionType",
              "type": "string"
            },
            {
              "internalType": "string",
              "name": "companyName",
              "type": "string"
            },
            {
              "internalType": "uint256",
              "name": "subscriptionStartDate",
              "type": "uint256"
            },
            {
              "internalType": "uint256",
              "name": "subscriptionEndDate",
              "type": "uint256"
            },
            {
              "internalType": "string",
              "name": "subscriberName",
              "type": "string"
            },
            {
              "internalType": "string",
              "name": "subscriberSurname",
              "type": "string"
            }
          ],
          "indexed": false,
          "internalType": "struct UserContract1.SubscriptionTransactionInfo[]",
          "name": "subscriptionTransactionInfos",
          "type": "tuple[]"
        },
        {
          "indexed": false,
          "internalType": "string",
          "name": "ipfsHash",
          "type": "string"
        }
      ],
      "name": "UserSubscriptionTransactionUpdated",
      "type": "event"
    },
    {
      "anonymous": false,
      "inputs": [
        {
          "indexed": true,
          "internalType": "string",
          "name": "userId",
          "type": "string"
        },
        {
          "components": [
            {
              "internalType": "string",
              "name": "debtPayer",
              "type": "string"
            },
            {
              "internalType": "uint256",
              "name": "debtAmount",
              "type": "uint256"
            },
            {
              "internalType": "uint256",
              "name": "expiryDate",
              "type": "uint256"
            },
            {
              "internalType": "string",
              "name": "licensePlate",
              "type": "string"
            },
            {
              "internalType": "bool",
              "name": "isPaid",
              "type": "bool"
            },
            {
              "internalType": "uint256",
              "name": "paymentDate",
              "type": "uint256"
            },
            {
              "internalType": "uint256",
              "name": "paymentAmount",
              "type": "uint256"
            }
          ],
          "indexed": false,
          "internalType": "struct UserContract1.TrafficDebtInfo[]",
          "name": "trafficDebtInfos",
          "type": "tuple[]"
        },
        {
          "indexed": false,
          "internalType": "string",
          "name": "ipfsHash",
          "type": "string"
        }
      ],
      "name": "UserTrafficDebtUpdated",
      "type": "event"
    },
    {
      "anonymous": false,
      "inputs": [
        {
          "indexed": true,
          "internalType": "string",
          "name": "userId",
          "type": "string"
        },
        {
          "indexed": false,
          "internalType": "string",
          "name": "email",
          "type": "string"
        },
        {
          "indexed": false,
          "internalType": "string",
          "name": "name",
          "type": "string"
        },
        {
          "indexed": false,
          "internalType": "uint256",
          "name": "age",
          "type": "uint256"
        }
      ],
      "name": "UserUpdated",
      "type": "event"
    },
    {
      "inputs": [
        {
          "internalType": "string",
          "name": "userId",
          "type": "string"
        },
        {
          "components": [
            {
              "internalType": "string",
              "name": "email",
              "type": "string"
            },
            {
              "internalType": "string",
              "name": "name",
              "type": "string"
            },
            {
              "internalType": "uint256",
              "name": "age",
              "type": "uint256"
            }
          ],
          "internalType": "struct UserContract1.UserData",
          "name": "userData",
          "type": "tuple"
        }
      ],
      "name": "setUserData",
      "outputs": [],
      "stateMutability": "nonpayable",
      "type": "function"
    },
    {
      "inputs": [
        {
          "internalType": "string",
          "name": "userId",
          "type": "string"
        }
      ],
      "name": "getUserData",
      "outputs": [
        {
          "internalType": "string",
          "name": "email",
          "type": "string"
        },
        {
          "internalType": "string",
          "name": "name",
          "type": "string"
        },
        {
          "internalType": "uint256",
          "name": "age",
          "type": "uint256"
        }
      ],
      "stateMutability": "view",
      "type": "function"
    },
    {
      "inputs": [
        {
          "internalType": "string",
          "name": "userId",
          "type": "string"
        },
        {
          "internalType": "string[]",
          "name": "names",
          "type": "string[]"
        },
        {
          "internalType": "string[]",
          "name": "typeOfAssets",
          "type": "string[]"
        },
        {
          "internalType": "string[]",
          "name": "descriptions",
          "type": "string[]"
        },
        {
          "internalType": "string[]",
          "name": "locations",
          "type": "string[]"
        },
        {
          "internalType": "uint256[]",
          "name": "purchaseDates",
          "type": "uint256[]"
        },
        {
          "internalType": "uint256[]",
          "name": "purchasePrices",
          "type": "uint256[]"
        },
        {
          "internalType": "string[]",
          "name": "previousOwners",
          "type": "string[]"
        },
        {
          "internalType": "string",
          "name": "ipfsHash",
          "type": "string"
        }
      ],
      "name": "setAssetRecord",
      "outputs": [],
      "stateMutability": "nonpayable",
      "type": "function"
    },
    {
      "inputs": [
        {
          "internalType": "string",
          "name": "userId",
          "type": "string"
        }
      ],
      "name": "getAssetRecords",
      "outputs": [
        {
          "components": [
            {
              "internalType": "string",
              "name": "name",
              "type": "string"
            },
            {
              "internalType": "string",
              "name": "typeOfAsset",
              "type": "string"
            },
            {
              "internalType": "string",
              "name": "description",
              "type": "string"
            },
            {
              "internalType": "string",
              "name": "location",
              "type": "string"
            },
            {
              "internalType": "uint256",
              "name": "purchaseDate",
              "type": "uint256"
            },
            {
              "internalType": "uint256",
              "name": "purchasePrice",
              "type": "uint256"
            },
            {
              "internalType": "string",
              "name": "previousOwner",
              "type": "string"
            }
          ],
          "internalType": "struct UserContract1.AssetInfo[]",
          "name": "",
          "type": "tuple[]"
        }
      ],
      "stateMutability": "view",
      "type": "function"
    },
    {
      "inputs": [
        {
          "internalType": "string",
          "name": "userId",
          "type": "string"
        },
        {
          "internalType": "string",
          "name": "ipfsHash",
          "type": "string"
        }
      ],
      "name": "setAssetIPFSHash",
      "outputs": [],
      "stateMutability": "nonpayable",
      "type": "function"
    },
    {
      "inputs": [
        {
          "internalType": "string",
          "name": "userId",
          "type": "string"
        }
      ],
      "name": "getAssetIPFSHash",
      "outputs": [
        {
          "internalType": "string",
          "name": "",
          "type": "string"
        }
      ],
      "stateMutability": "view",
      "type": "function"
    },
    {
      "inputs": [
        {
          "internalType": "string",
          "name": "userId",
          "type": "string"
        },
        {
          "internalType": "string[]",
          "name": "names",
          "type": "string[]"
        },
        {
          "internalType": "uint256[]",
          "name": "dateOfBirths",
          "type": "uint256[]"
        },
        {
          "internalType": "string[]",
          "name": "stateOfMilitarys",
          "type": "string[]"
        },
        {
          "internalType": "uint256[]",
          "name": "postponementDates",
          "type": "uint256[]"
        },
        {
          "internalType": "uint256[]",
          "name": "dateOfConstructions",
          "type": "uint256[]"
        },
        {
          "internalType": "string",
          "name": "ipfsHash",
          "type": "string"
        }
      ],
      "name": "setMilitaryRecord",
      "outputs": [],
      "stateMutability": "nonpayable",
      "type": "function"
    },
    {
      "inputs": [
        {
          "internalType": "string",
          "name": "userId",
          "type": "string"
        }
      ],
      "name": "getMilitaryRecords",
      "outputs": [
        {
          "components": [
            {
              "internalType": "string",
              "name": "name",
              "type": "string"
            },
            {
              "internalType": "uint256",
              "name": "dateOfBirth",
              "type": "uint256"
            },
            {
              "internalType": "string",
              "name": "stateOfMilitary",
              "type": "string"
            },
            {
              "internalType": "uint256",
              "name": "postponementDate",
              "type": "uint256"
            },
            {
              "internalType": "uint256",
              "name": "dateOfConstruction",
              "type": "uint256"
            }
          ],
          "internalType": "struct UserContract1.MilitaryInfo[]",
          "name": "",
          "type": "tuple[]"
        }
      ],
      "stateMutability": "view",
      "type": "function"
    },
    {
      "inputs": [
        {
          "internalType": "string",
          "name": "userId",
          "type": "string"
        },
        {
          "internalType": "string",
          "name": "ipfsHash",
          "type": "string"
        }
      ],
      "name": "setMilitaryIPFSHash",
      "outputs": [],
      "stateMutability": "nonpayable",
      "type": "function"
    },
    {
      "inputs": [
        {
          "internalType": "string",
          "name": "userId",
          "type": "string"
        }
      ],
      "name": "getMilitaryIPFSHash",
      "outputs": [
        {
          "internalType": "string",
          "name": "",
          "type": "string"
        }
      ],
      "stateMutability": "view",
      "type": "function"
    },
    {
      "inputs": [
        {
          "internalType": "string",
          "name": "userId",
          "type": "string"
        },
        {
          "internalType": "string[]",
          "name": "genders",
          "type": "string[]"
        },
        {
          "internalType": "string[]",
          "name": "degreeOfRelationships",
          "type": "string[]"
        },
        {
          "internalType": "string[]",
          "name": "names",
          "type": "string[]"
        },
        {
          "internalType": "string[]",
          "name": "surnames",
          "type": "string[]"
        },
        {
          "internalType": "string[]",
          "name": "fathersNames",
          "type": "string[]"
        },
        {
          "internalType": "string[]",
          "name": "mothersNames",
          "type": "string[]"
        },
        {
          "internalType": "uint256[]",
          "name": "dateOfBirths",
          "type": "uint256[]"
        },
        {
          "internalType": "string[]",
          "name": "statuss",
          "type": "string[]"
        },
        {
          "internalType": "uint256[]",
          "name": "dateOfDeaths",
          "type": "uint256[]"
        },
        {
          "internalType": "string",
          "name": "ipfsHash",
          "type": "string"
        }
      ],
      "name": "setFamilyTreeRecord",
      "outputs": [],
      "stateMutability": "nonpayable",
      "type": "function"
    },
    {
      "inputs": [
        {
          "internalType": "string",
          "name": "userId",
          "type": "string"
        }
      ],
      "name": "getFamilyTreeRecords",
      "outputs": [
        {
          "components": [
            {
              "internalType": "string",
              "name": "gender",
              "type": "string"
            },
            {
              "internalType": "string",
              "name": "degreeOfRelationship",
              "type": "string"
            },
            {
              "internalType": "string",
              "name": "name",
              "type": "string"
            },
            {
              "internalType": "string",
              "name": "surname",
              "type": "string"
            },
            {
              "internalType": "string",
              "name": "fathersName",
              "type": "string"
            },
            {
              "internalType": "string",
              "name": "mothersName",
              "type": "string"
            },
            {
              "internalType": "uint256",
              "name": "dateOfBirth",
              "type": "uint256"
            },
            {
              "internalType": "string",
              "name": "status",
              "type": "string"
            },
            {
              "internalType": "uint256",
              "name": "dateOfDeath",
              "type": "uint256"
            }
          ],
          "internalType": "struct UserContract1.FamilyTreeInfo[]",
          "name": "",
          "type": "tuple[]"
        }
      ],
      "stateMutability": "view",
      "type": "function"
    },
    {
      "inputs": [
        {
          "internalType": "string",
          "name": "userId",
          "type": "string"
        },
        {
          "internalType": "string",
          "name": "ipfsHash",
          "type": "string"
        }
      ],
      "name": "setFamilyTreeIPFSHash",
      "outputs": [],
      "stateMutability": "nonpayable",
      "type": "function"
    },
    {
      "inputs": [
        {
          "internalType": "string",
          "name": "userId",
          "type": "string"
        }
      ],
      "name": "getFamilyTreeIPFSHash",
      "outputs": [
        {
          "internalType": "string",
          "name": "",
          "type": "string"
        }
      ],
      "stateMutability": "view",
      "type": "function"
    },
    {
      "inputs": [
        {
          "internalType": "string",
          "name": "userId",
          "type": "string"
        },
        {
          "internalType": "string[]",
          "name": "subscriptionTypes",
          "type": "string[]"
        },
        {
          "internalType": "string[]",
          "name": "companyNames",
          "type": "string[]"
        },
        {
          "internalType": "uint256[]",
          "name": "subscriptionStartDates",
          "type": "uint256[]"
        },
        {
          "internalType": "uint256[]",
          "name": "subscriptionEndDates",
          "type": "uint256[]"
        },
        {
          "internalType": "string[]",
          "name": "subscriberNames",
          "type": "string[]"
        },
        {
          "internalType": "string[]",
          "name": "subscriberSurnames",
          "type": "string[]"
        },
        {
          "internalType": "string",
          "name": "ipfsHash",
          "type": "string"
        }
      ],
      "name": "setSubscriptionTransactionRecord",
      "outputs": [],
      "stateMutability": "nonpayable",
      "type": "function"
    },
    {
      "inputs": [
        {
          "internalType": "string",
          "name": "userId",
          "type": "string"
        }
      ],
      "name": "getSubscriptionTransactionRecords",
      "outputs": [
        {
          "components": [
            {
              "internalType": "string",
              "name": "subscriptionType",
              "type": "string"
            },
            {
              "internalType": "string",
              "name": "companyName",
              "type": "string"
            },
            {
              "internalType": "uint256",
              "name": "subscriptionStartDate",
              "type": "uint256"
            },
            {
              "internalType": "uint256",
              "name": "subscriptionEndDate",
              "type": "uint256"
            },
            {
              "internalType": "string",
              "name": "subscriberName",
              "type": "string"
            },
            {
              "internalType": "string",
              "name": "subscriberSurname",
              "type": "string"
            }
          ],
          "internalType": "struct UserContract1.SubscriptionTransactionInfo[]",
          "name": "",
          "type": "tuple[]"
        }
      ],
      "stateMutability": "view",
      "type": "function"
    },
    {
      "inputs": [
        {
          "internalType": "string",
          "name": "userId",
          "type": "string"
        },
        {
          "internalType": "string",
          "name": "ipfsHash",
          "type": "string"
        }
      ],
      "name": "setSubscriptionTransactionIPFSHash",
      "outputs": [],
      "stateMutability": "nonpayable",
      "type": "function"
    },
    {
      "inputs": [
        {
          "internalType": "string",
          "name": "userId",
          "type": "string"
        }
      ],
      "name": "getSubscriptionTransactionIPFSHash",
      "outputs": [
        {
          "internalType": "string",
          "name": "",
          "type": "string"
        }
      ],
      "stateMutability": "view",
      "type": "function"
    },
    {
      "inputs": [
        {
          "internalType": "string",
          "name": "userId",
          "type": "string"
        },
        {
          "internalType": "string[]",
          "name": "debtPayers",
          "type": "string[]"
        },
        {
          "internalType": "uint256[]",
          "name": "debtAmounts",
          "type": "uint256[]"
        },
        {
          "internalType": "uint256[]",
          "name": "expiryDates",
          "type": "uint256[]"
        },
        {
          "internalType": "string[]",
          "name": "licensePlates",
          "type": "string[]"
        },
        {
          "internalType": "bool[]",
          "name": "isPaids",
          "type": "bool[]"
        },
        {
          "internalType": "uint256[]",
          "name": "paymentDates",
          "type": "uint256[]"
        },
        {
          "internalType": "uint256[]",
          "name": "paymentAmounts",
          "type": "uint256[]"
        },
        {
          "internalType": "string",
          "name": "ipfsHash",
          "type": "string"
        }
      ],
      "name": "setTrafficDebtRecord",
      "outputs": [],
      "stateMutability": "nonpayable",
      "type": "function"
    },
    {
      "inputs": [
        {
          "internalType": "string",
          "name": "userId",
          "type": "string"
        }
      ],
      "name": "getTrafficDebtRecords",
      "outputs": [
        {
          "components": [
            {
              "internalType": "string",
              "name": "debtPayer",
              "type": "string"
            },
            {
              "internalType": "uint256",
              "name": "debtAmount",
              "type": "uint256"
            },
            {
              "internalType": "uint256",
              "name": "expiryDate",
              "type": "uint256"
            },
            {
              "internalType": "string",
              "name": "licensePlate",
              "type": "string"
            },
            {
              "internalType": "bool",
              "name": "isPaid",
              "type": "bool"
            },
            {
              "internalType": "uint256",
              "name": "paymentDate",
              "type": "uint256"
            },
            {
              "internalType": "uint256",
              "name": "paymentAmount",
              "type": "uint256"
            }
          ],
          "internalType": "struct UserContract1.TrafficDebtInfo[]",
          "name": "",
          "type": "tuple[]"
        }
      ],
      "stateMutability": "view",
      "type": "function"
    },
    {
      "inputs": [
        {
          "internalType": "string",
          "name": "userId",
          "type": "string"
        },
        {
          "internalType": "string",
          "name": "ipfsHash",
          "type": "string"
        }
      ],
      "name": "setTrafficDebtIPFSHash",
      "outputs": [],
      "stateMutability": "nonpayable",
      "type": "function"
    },
    {
      "inputs": [
        {
          "internalType": "string",
          "name": "userId",
          "type": "string"
        }
      ],
      "name": "getTrafficDebtIPFSHash",
      "outputs": [
        {
          "internalType": "string",
          "name": "",
          "type": "string"
        }
      ],
      "stateMutability": "view",
      "type": "function"
    }
  ],
  "bytecode": "0x608060405234801561001057600080fd5b50615067806100206000396000f3fe608060405234801561001057600080fd5b50600436106101425760003560e01c80638f48e0d6116100b8578063be36f1741161007c578063be36f174146103bd578063d9504313146103d9578063db8bd66014610409578063e713dbd814610425578063ed57160e14610455578063f2220a7d1461047157610142565b80638f48e0d614610309578063a7fadecd14610325578063a8c34f3f14610355578063ab8eba4014610385578063b0afe8b7146103a157610142565b806336be5d681161010a57806336be5d681461020f5780633de353b41461022b57806354ab24031461025b57806370b930d81461028d57806379cd86b1146102a95780638af95e2a146102d957610142565b806307b1ff76146101475780631e438a621461016357806320b0b79814610193578063258780d0146101c35780632bc890a4146101df575b600080fd5b610161600480360381019061015c9190612d9c565b61048d565b005b61017d60048036038101906101789190612f02565b610704565b60405161018a9190612fca565b60405180910390f35b6101ad60048036038101906101a89190612f02565b6107b7565b6040516101ba91906131c5565b60405180910390f35b6101dd60048036038101906101d891906131e7565b61099e565b005b6101f960048036038101906101f49190612f02565b610a29565b6040516102069190613410565b60405180910390f35b610229600480360381019061022491906131e7565b610ebc565b005b61024560048036038101906102409190612f02565b610f46565b6040516102529190612fca565b60405180910390f35b61027560048036038101906102709190612f02565b610ff9565b60405161028493929190613441565b60405180910390f35b6102a760048036038101906102a291906131e7565b611152565b005b6102c360048036038101906102be9190612f02565b6111dd565b6040516102d09190612fca565b60405180910390f35b6102f360048036038101906102ee9190612f02565b611290565b6040516103009190612fca565b60405180910390f35b610323600480360381019061031e91906131e7565b611343565b005b61033f600480360381019061033a9190612f02565b6113ce565b60405161034c91906135c5565b60405180910390f35b61036f600480360381019061036a9190612f02565b611590565b60405161037c9190612fca565b60405180910390f35b61039f600480360381019061039a91906136d6565b611643565b005b6103bb60048036038101906103b6919061389c565b611942565b005b6103d760048036038101906103d29190613b6a565b611cd7565b005b6103f360048036038101906103ee9190612f02565b611dbc565b6040516104009190613d5c565b60405180910390f35b610423600480360381019061041e9190613d7e565b61212a565b005b61043f600480360381019061043a9190612f02565b6123f1565b60405161044c9190614074565b60405180910390f35b61046f600480360381019061046a9190614096565b6126cd565b005b61048b600480360381019061048691906131e7565b6129d8565b005b8451865114801561049f575083518551145b80156104ac575082518451145b80156104b9575081518351145b6104f8576040517f08c379a00000000000000000000000000000000000000000000000000000000081526004016104ef906142ce565b60405180910390fd5b60005b865181101561065c5760006040518060a00160405280898481518110610524576105236142ee565b5b60200260200101518152602001888481518110610544576105436142ee565b5b60200260200101518152602001878481518110610564576105636142ee565b5b60200260200101518152602001868481518110610584576105836142ee565b5b602002602001015181526020018584815181106105a4576105a36142ee565b5b602002602001015181525090506001896040516105c19190614359565b90815260200160405180910390206000018190806001815401808255809150506001900390600052602060002090600502016000909190919091506000820151816000019081610611919061457c565b50602082015181600101556040820151816002019081610631919061457c565b50606082015181600301556080820151816004015550505080806106549061467d565b9150506104fb565b508060018860405161066e9190614359565b9081526020016040518091039020600101908161068b919061457c565b508660405161069a9190614359565b60405180910390207fe846e5c8527de6621c9ff6536ceef75e2bdaf39aa3d060c3ce5ec4caf88a69026001896040516106d39190614359565b9081526020016040518091039020600001836040516106f39291906148cd565b60405180910390a250505050505050565b60606002826040516107169190614359565b908152602001604051809103902060010180546107329061439f565b80601f016020809104026020016040519081016040528092919081815260200182805461075e9061439f565b80156107ab5780601f10610780576101008083540402835291602001916107ab565b820191906000526020600020905b81548152906001019060200180831161078e57829003601f168201915b50505050509050919050565b60606004826040516107c99190614359565b9081526020016040518091039020600001805480602002602001604051908101604052809291908181526020016000905b8282101561099357838290600052602060002090600702016040518060e001604052908160008201805461082d9061439f565b80601f01602080910402602001604051908101604052809291908181526020018280546108599061439f565b80156108a65780601f1061087b576101008083540402835291602001916108a6565b820191906000526020600020905b81548152906001019060200180831161088957829003601f168201915b5050505050815260200160018201548152602001600282015481526020016003820180546108d39061439f565b80601f01602080910402602001604051908101604052809291908181526020018280546108ff9061439f565b801561094c5780601f106109215761010080835404028352916020019161094c565b820191906000526020600020905b81548152906001019060200180831161092f57829003601f168201915b505050505081526020016004820160009054906101000a900460ff1615151515815260200160058201548152602001600682015481525050815260200190600101906107fa565b505050509050919050565b60006001836040516109b09190614359565b90815260200160405180910390209050818160010190816109d1919061457c565b50826040516109e09190614359565b60405180910390207fe846e5c8527de6621c9ff6536ceef75e2bdaf39aa3d060c3ce5ec4caf88a69028260000184604051610a1c9291906148cd565b60405180910390a2505050565b6060600282604051610a3b9190614359565b9081526020016040518091039020600001805480602002602001604051908101604052809291908181526020016000905b82821015610eb1578382906000526020600020906009020160405180610120016040529081600082018054610aa09061439f565b80601f0160208091040260200160405190810160405280929190818152602001828054610acc9061439f565b8015610b195780601f10610aee57610100808354040283529160200191610b19565b820191906000526020600020905b815481529060010190602001808311610afc57829003601f168201915b50505050508152602001600182018054610b329061439f565b80601f0160208091040260200160405190810160405280929190818152602001828054610b5e9061439f565b8015610bab5780601f10610b8057610100808354040283529160200191610bab565b820191906000526020600020905b815481529060010190602001808311610b8e57829003601f168201915b50505050508152602001600282018054610bc49061439f565b80601f0160208091040260200160405190810160405280929190818152602001828054610bf09061439f565b8015610c3d5780601f10610c1257610100808354040283529160200191610c3d565b820191906000526020600020905b815481529060010190602001808311610c2057829003601f168201915b50505050508152602001600382018054610c569061439f565b80601f0160208091040260200160405190810160405280929190818152602001828054610c829061439f565b8015610ccf5780601f10610ca457610100808354040283529160200191610ccf565b820191906000526020600020905b815481529060010190602001808311610cb257829003601f168201915b50505050508152602001600482018054610ce89061439f565b80601f0160208091040260200160405190810160405280929190818152602001828054610d149061439f565b8015610d615780601f10610d3657610100808354040283529160200191610d61565b820191906000526020600020905b815481529060010190602001808311610d4457829003601f168201915b50505050508152602001600582018054610d7a9061439f565b80601f0160208091040260200160405190810160405280929190818152602001828054610da69061439f565b8015610df35780601f10610dc857610100808354040283529160200191610df3565b820191906000526020600020905b815481529060010190602001808311610dd657829003601f168201915b5050505050815260200160068201548152602001600782018054610e169061439f565b80601f0160208091040260200160405190810160405280929190818152602001828054610e429061439f565b8015610e8f5780601f10610e6457610100808354040283529160200191610e8f565b820191906000526020600020905b815481529060010190602001808311610e7257829003601f168201915b5050505050815260200160088201548152505081526020019060010190610a6c565b505050509050919050565b60008083604051610ecd9190614359565b9081526020016040518091039020905081816001019081610eee919061457c565b5082604051610efd9190614359565b60405180910390207f0e75504658d8f7da833ca990d560e9f28e66c5605d2796eb99b9960f838677958260000184604051610f39929190614a84565b60405180910390a2505050565b6060600082604051610f589190614359565b90815260200160405180910390206001018054610f749061439f565b80601f0160208091040260200160405190810160405280929190818152602001828054610fa09061439f565b8015610fed5780601f10610fc257610100808354040283529160200191610fed565b820191906000526020600020905b815481529060010190602001808311610fd057829003601f168201915b50505050509050919050565b60608060008060058560405161100f9190614359565b90815260200160405180910390209050806000018160010182600201548280546110389061439f565b80601f01602080910402602001604051908101604052809291908181526020018280546110649061439f565b80156110b15780601f10611086576101008083540402835291602001916110b1565b820191906000526020600020905b81548152906001019060200180831161109457829003601f168201915b505050505092508180546110c49061439f565b80601f01602080910402602001604051908101604052809291908181526020018280546110f09061439f565b801561113d5780601f106111125761010080835404028352916020019161113d565b820191906000526020600020905b81548152906001019060200180831161112057829003601f168201915b50505050509150935093509350509193909250565b60006002836040516111649190614359565b9081526020016040518091039020905081816001019081611185919061457c565b50826040516111949190614359565b60405180910390207f9c223b809f5d8e71d43f0c72892e8e61c6ab78086b06fc5ffb93951ccfa03fa382600001846040516111d0929190614c6f565b60405180910390a2505050565b60606001826040516111ef9190614359565b9081526020016040518091039020600101805461120b9061439f565b80601f01602080910402602001604051908101604052809291908181526020018280546112379061439f565b80156112845780601f1061125957610100808354040283529160200191611284565b820191906000526020600020905b81548152906001019060200180831161126757829003601f168201915b50505050509050919050565b60606003826040516112a29190614359565b908152602001604051809103902060010180546112be9061439f565b80601f01602080910402602001604051908101604052809291908181526020018280546112ea9061439f565b80156113375780601f1061130c57610100808354040283529160200191611337565b820191906000526020600020905b81548152906001019060200180831161131a57829003601f168201915b50505050509050919050565b60006003836040516113559190614359565b9081526020016040518091039020905081816001019081611376919061457c565b50826040516113859190614359565b60405180910390207f43e8ba3286379b0a9976dad95472a757535dc174574357e5675fd8532549b43582600001846040516113c1929190614e0d565b60405180910390a2505050565b60606001826040516113e09190614359565b9081526020016040518091039020600001805480602002602001604051908101604052809291908181526020016000905b8282101561158557838290600052602060002090600502016040518060a00160405290816000820180546114449061439f565b80601f01602080910402602001604051908101604052809291908181526020018280546114709061439f565b80156114bd5780601f10611492576101008083540402835291602001916114bd565b820191906000526020600020905b8154815290600101906020018083116114a057829003601f168201915b50505050508152602001600182015481526020016002820180546114e09061439f565b80601f016020809104026020016040519081016040528092919081815260200182805461150c9061439f565b80156115595780601f1061152e57610100808354040283529160200191611559565b820191906000526020600020905b81548152906001019060200180831161153c57829003601f168201915b505050505081526020016003820154815260200160048201548152505081526020019060010190611411565b505050509050919050565b60606004826040516115a29190614359565b908152602001604051809103902060010180546115be9061439f565b80601f01602080910402602001604051908101604052809291908181526020018280546115ea9061439f565b80156116375780601f1061160c57610100808354040283529160200191611637565b820191906000526020600020905b81548152906001019060200180831161161a57829003601f168201915b50505050509050919050565b86518851148015611655575085518751145b8015611662575084518651145b801561166f575083518551145b801561167c575082518451145b8015611689575081518351145b6116c8576040517f08c379a00000000000000000000000000000000000000000000000000000000081526004016116bf906142ce565b60405180910390fd5b60005b88518110156118985760006040518060e001604052808b84815181106116f4576116f36142ee565b5b602002602001015181526020018a8481518110611714576117136142ee565b5b60200260200101518152602001898481518110611734576117336142ee565b5b60200260200101518152602001888481518110611754576117536142ee565b5b60200260200101518152602001878481518110611774576117736142ee565b5b602002602001015115158152602001868481518110611796576117956142ee565b5b602002602001015181526020018584815181106117b6576117b56142ee565b5b6020026020010151815250905060048b6040516117d39190614359565b90815260200160405180910390206000018190806001815401808255809150506001900390600052602060002090600702016000909190919091506000820151816000019081611823919061457c565b506020820151816001015560408201518160020155606082015181600301908161184d919061457c565b5060808201518160040160006101000a81548160ff02191690831515021790555060a0820151816005015560c0820151816006015550505080806118909061467d565b9150506116cb565b508060048a6040516118aa9190614359565b908152602001604051809103902060010190816118c7919061457c565b50886040516118d69190614359565b60405180910390207f453b283a875512bc7137102acd47b26671e5e9d566a3e5feb6ca73e5878043ac60048b60405161190f9190614359565b90815260200160405180910390206000018360405161192f929190614ffa565b60405180910390a2505050505050505050565b88518a51148015611954575087518951145b8015611961575086518851145b801561196e575085518751145b801561197b575084518651145b8015611988575083518551145b8015611995575082518451145b80156119a2575081518351145b6119e1576040517f08c379a00000000000000000000000000000000000000000000000000000000081526004016119d8906142ce565b60405180910390fd5b60005b8a51811015611c2b5760006040518061012001604052808d8481518110611a0e57611a0d6142ee565b5b602002602001015181526020018c8481518110611a2e57611a2d6142ee565b5b602002602001015181526020018b8481518110611a4e57611a4d6142ee565b5b602002602001015181526020018a8481518110611a6e57611a6d6142ee565b5b60200260200101518152602001898481518110611a8e57611a8d6142ee565b5b60200260200101518152602001888481518110611aae57611aad6142ee565b5b60200260200101518152602001878481518110611ace57611acd6142ee565b5b60200260200101518152602001868481518110611aee57611aed6142ee565b5b60200260200101518152602001858481518110611b0e57611b0d6142ee565b5b6020026020010151815250905060028d604051611b2b9190614359565b90815260200160405180910390206000018190806001815401808255809150506001900390600052602060002090600902016000909190919091506000820151816000019081611b7b919061457c565b506020820151816001019081611b91919061457c565b506040820151816002019081611ba7919061457c565b506060820151816003019081611bbd919061457c565b506080820151816004019081611bd3919061457c565b5060a0820151816005019081611be9919061457c565b5060c0820151816006015560e0820151816007019081611c09919061457c565b5061010082015181600801555050508080611c239061467d565b9150506119e4565b508060028c604051611c3d9190614359565b90815260200160405180910390206001019081611c5a919061457c565b508a604051611c699190614359565b60405180910390207f9c223b809f5d8e71d43f0c72892e8e61c6ab78086b06fc5ffb93951ccfa03fa360028d604051611ca29190614359565b908152602001604051809103902060000183604051611cc2929190614c6f565b60405180910390a25050505050505050505050565b6000604051806060016040528083600001518152602001836020015181526020018360400151815250905080600584604051611d139190614359565b90815260200160405180910390206000820151816000019081611d36919061457c565b506020820151816001019081611d4c919061457c565b506040820151816002015590505082604051611d689190614359565b60405180910390207f4f24336055d992bf20f44d53f6f7e8909075915f2bc6830d7a7963652fcbf729836000015184602001518560400151604051611daf93929190613441565b60405180910390a2505050565b6060600082604051611dce9190614359565b9081526020016040518091039020600001805480602002602001604051908101604052809291908181526020016000905b8282101561211f57838290600052602060002090600702016040518060e0016040529081600082018054611e329061439f565b80601f0160208091040260200160405190810160405280929190818152602001828054611e5e9061439f565b8015611eab5780601f10611e8057610100808354040283529160200191611eab565b820191906000526020600020905b815481529060010190602001808311611e8e57829003601f168201915b50505050508152602001600182018054611ec49061439f565b80601f0160208091040260200160405190810160405280929190818152602001828054611ef09061439f565b8015611f3d5780601f10611f1257610100808354040283529160200191611f3d565b820191906000526020600020905b815481529060010190602001808311611f2057829003601f168201915b50505050508152602001600282018054611f569061439f565b80601f0160208091040260200160405190810160405280929190818152602001828054611f829061439f565b8015611fcf5780601f10611fa457610100808354040283529160200191611fcf565b820191906000526020600020905b815481529060010190602001808311611fb257829003601f168201915b50505050508152602001600382018054611fe89061439f565b80601f01602080910402602001604051908101604052809291908181526020018280546120149061439f565b80156120615780601f1061203657610100808354040283529160200191612061565b820191906000526020600020905b81548152906001019060200180831161204457829003601f168201915b50505050508152602001600482015481526020016005820154815260200160068201805461208e9061439f565b80601f01602080910402602001604051908101604052809291908181526020018280546120ba9061439f565b80156121075780601f106120dc57610100808354040283529160200191612107565b820191906000526020600020905b8154815290600101906020018083116120ea57829003601f168201915b50505050508152505081526020019060010190611dff565b505050509050919050565b8551875114801561213c575084518651145b8015612149575083518551145b8015612156575082518451145b8015612163575081518351145b6121a2576040517f08c379a0000000000000000000000000000000000000000000000000000000008152600401612199906142ce565b60405180910390fd5b60005b87518110156123485760006040518060c001604052808a84815181106121ce576121cd6142ee565b5b602002602001015181526020018984815181106121ee576121ed6142ee565b5b6020026020010151815260200188848151811061220e5761220d6142ee565b5b6020026020010151815260200187848151811061222e5761222d6142ee565b5b6020026020010151815260200186848151811061224e5761224d6142ee565b5b6020026020010151815260200185848151811061226e5761226d6142ee565b5b6020026020010151815250905060038a60405161228b9190614359565b908152602001604051809103902060000181908060018154018082558091505060019003906000526020600020906006020160009091909190915060008201518160000190816122db919061457c565b5060208201518160010190816122f1919061457c565b506040820151816002015560608201518160030155608082015181600401908161231b919061457c565b5060a0820151816005019081612331919061457c565b5050505080806123409061467d565b9150506121a5565b508060038960405161235a9190614359565b90815260200160405180910390206001019081612377919061457c565b50876040516123869190614359565b60405180910390207f43e8ba3286379b0a9976dad95472a757535dc174574357e5675fd8532549b43560038a6040516123bf9190614359565b9081526020016040518091039020600001836040516123df929190614e0d565b60405180910390a25050505050505050565b60606003826040516124039190614359565b9081526020016040518091039020600001805480602002602001604051908101604052809291908181526020016000905b828210156126c257838290600052602060002090600602016040518060c00160405290816000820180546124679061439f565b80601f01602080910402602001604051908101604052809291908181526020018280546124939061439f565b80156124e05780601f106124b5576101008083540402835291602001916124e0565b820191906000526020600020905b8154815290600101906020018083116124c357829003601f168201915b505050505081526020016001820180546124f99061439f565b80601f01602080910402602001604051908101604052809291908181526020018280546125259061439f565b80156125725780601f1061254757610100808354040283529160200191612572565b820191906000526020600020905b81548152906001019060200180831161255557829003601f168201915b50505050508152602001600282015481526020016003820154815260200160048201805461259f9061439f565b80601f01602080910402602001604051908101604052809291908181526020018280546125cb9061439f565b80156126185780601f106125ed57610100808354040283529160200191612618565b820191906000526020600020905b8154815290600101906020018083116125fb57829003601f168201915b505050505081526020016005820180546126319061439f565b80601f016020809104026020016040519081016040528092919081815260200182805461265d9061439f565b80156126aa5780601f1061267f576101008083540402835291602001916126aa565b820191906000526020600020905b81548152906001019060200180831161268d57829003601f168201915b50505050508152505081526020019060010190612434565b505050509050919050565b865188511480156126df575085518751145b80156126ec575084518651145b80156126f9575083518551145b8015612706575082518451145b8015612713575081518351145b612752576040517f08c379a0000000000000000000000000000000000000000000000000000000008152600401612749906142ce565b60405180910390fd5b60005b885181101561292e5760006040518060e001604052808b848151811061277e5761277d6142ee565b5b602002602001015181526020018a848151811061279e5761279d6142ee565b5b602002602001015181526020018984815181106127be576127bd6142ee565b5b602002602001015181526020018884815181106127de576127dd6142ee565b5b602002602001015181526020018784815181106127fe576127fd6142ee565b5b6020026020010151815260200186848151811061281e5761281d6142ee565b5b6020026020010151815260200185848151811061283e5761283d6142ee565b5b6020026020010151815250905060008b60405161285b9190614359565b908152602001604051809103902060000181908060018154018082558091505060019003906000526020600020906007020160009091909190915060008201518160000190816128ab919061457c565b5060208201518160010190816128c1919061457c565b5060408201518160020190816128d7919061457c565b5060608201518160030190816128ed919061457c565b506080820151816004015560a0820151816005015560c0820151816006019081612917919061457c565b5050505080806129269061467d565b915050612755565b508060008a6040516129409190614359565b9081526020016040518091039020600101908161295d919061457c565b508860405161296c9190614359565b60405180910390207f0e75504658d8f7da833ca990d560e9f28e66c5605d2796eb99b9960f8386779560008b6040516129a59190614359565b9081526020016040518091039020600001836040516129c5929190614a84565b60405180910390a2505050505050505050565b60006004836040516129ea9190614359565b9081526020016040518091039020905081816001019081612a0b919061457c565b5082604051612a1a9190614359565b60405180910390207f453b283a875512bc7137102acd47b26671e5e9d566a3e5feb6ca73e5878043ac8260000184604051612a56929190614ffa565b60405180910390a2505050565b6000604051905090565b600080fd5b600080fd5b600080fd5b600080fd5b6000601f19601f8301169050919050565b7f4e487b7100000000000000000000000000000000000000000000000000000000600052604160045260246000fd5b612aca82612a81565b810181811067ffffffffffffffff82111715612ae957612ae8612a92565b5b80604052505050565b6000612afc612a63565b9050612b088282612ac1565b919050565b600067ffffffffffffffff821115612b2857612b27612a92565b5b612b3182612a81565b9050602081019050919050565b82818337600083830152505050565b6000612b60612b5b84612b0d565b612af2565b905082815260208101848484011115612b7c57612b7b612a7c565b5b612b87848285612b3e565b509392505050565b600082601f830112612ba457612ba3612a77565b5b8135612bb4848260208601612b4d565b91505092915050565b600067ffffffffffffffff821115612bd857612bd7612a92565b5b602082029050602081019050919050565b600080fd5b6000612c01612bfc84612bbd565b612af2565b90508083825260208201905060208402830185811115612c2457612c23612be9565b5b835b81811015612c6b57803567ffffffffffffffff811115612c4957612c48612a77565b5b808601612c568982612b8f565b85526020850194505050602081019050612c26565b5050509392505050565b600082601f830112612c8a57612c89612a77565b5b8135612c9a848260208601612bee565b91505092915050565b600067ffffffffffffffff821115612cbe57612cbd612a92565b5b602082029050602081019050919050565b6000819050919050565b612ce281612ccf565b8114612ced57600080fd5b50565b600081359050612cff81612cd9565b92915050565b6000612d18612d1384612ca3565b612af2565b90508083825260208201905060208402830185811115612d3b57612d3a612be9565b5b835b81811015612d645780612d508882612cf0565b845260208401935050602081019050612d3d565b5050509392505050565b600082601f830112612d8357612d82612a77565b5b8135612d93848260208601612d05565b91505092915050565b600080600080600080600060e0888a031215612dbb57612dba612a6d565b5b600088013567ffffffffffffffff811115612dd957612dd8612a72565b5b612de58a828b01612b8f565b975050602088013567ffffffffffffffff811115612e0657612e05612a72565b5b612e128a828b01612c75565b965050604088013567ffffffffffffffff811115612e3357612e32612a72565b5b612e3f8a828b01612d6e565b955050606088013567ffffffffffffffff811115612e6057612e5f612a72565b5b612e6c8a828b01612c75565b945050608088013567ffffffffffffffff811115612e8d57612e8c612a72565b5b612e998a828b01612d6e565b93505060a088013567ffffffffffffffff811115612eba57612eb9612a72565b5b612ec68a828b01612d6e565b92505060c088013567ffffffffffffffff811115612ee757612ee6612a72565b5b612ef38a828b01612b8f565b91505092959891949750929550565b600060208284031215612f1857612f17612a6d565b5b600082013567ffffffffffffffff811115612f3657612f35612a72565b5b612f4284828501612b8f565b91505092915050565b600081519050919050565b600082825260208201905092915050565b60005b83811015612f85578082015181840152602081019050612f6a565b60008484015250505050565b6000612f9c82612f4b565b612fa68185612f56565b9350612fb6818560208601612f67565b612fbf81612a81565b840191505092915050565b60006020820190508181036000830152612fe48184612f91565b905092915050565b600081519050919050565b600082825260208201905092915050565b6000819050602082019050919050565b600082825260208201905092915050565b600061303482612f4b565b61303e8185613018565b935061304e818560208601612f67565b61305781612a81565b840191505092915050565b61306b81612ccf565b82525050565b60008115159050919050565b61308681613071565b82525050565b600060e08301600083015184820360008601526130a98282613029565b91505060208301516130be6020860182613062565b5060408301516130d16040860182613062565b50606083015184820360608601526130e98282613029565b91505060808301516130fe608086018261307d565b5060a083015161311160a0860182613062565b5060c083015161312460c0860182613062565b508091505092915050565b600061313b838361308c565b905092915050565b6000602082019050919050565b600061315b82612fec565b6131658185612ff7565b93508360208202850161317785613008565b8060005b858110156131b35784840389528151613194858261312f565b945061319f83613143565b925060208a0199505060018101905061317b565b50829750879550505050505092915050565b600060208201905081810360008301526131df8184613150565b905092915050565b600080604083850312156131fe576131fd612a6d565b5b600083013567ffffffffffffffff81111561321c5761321b612a72565b5b61322885828601612b8f565b925050602083013567ffffffffffffffff81111561324957613248612a72565b5b61325585828601612b8f565b9150509250929050565b600081519050919050565b600082825260208201905092915050565b6000819050602082019050919050565b60006101208301600083015184820360008601526132a98282613029565b915050602083015184820360208601526132c38282613029565b915050604083015184820360408601526132dd8282613029565b915050606083015184820360608601526132f78282613029565b915050608083015184820360808601526133118282613029565b91505060a083015184820360a086015261332b8282613029565b91505060c083015161334060c0860182613062565b5060e083015184820360e08601526133588282613029565b91505061010083015161336f610100860182613062565b508091505092915050565b6000613386838361328b565b905092915050565b6000602082019050919050565b60006133a68261325f565b6133b0818561326a565b9350836020820285016133c28561327b565b8060005b858110156133fe57848403895281516133df858261337a565b94506133ea8361338e565b925060208a019950506001810190506133c6565b50829750879550505050505092915050565b6000602082019050818103600083015261342a818461339b565b905092915050565b61343b81612ccf565b82525050565b6000606082019050818103600083015261345b8186612f91565b9050818103602083015261346f8185612f91565b905061347e6040830184613432565b949350505050565b600081519050919050565b600082825260208201905092915050565b6000819050602082019050919050565b600060a08301600083015184820360008601526134cf8282613029565b91505060208301516134e46020860182613062565b50604083015184820360408601526134fc8282613029565b91505060608301516135116060860182613062565b5060808301516135246080860182613062565b508091505092915050565b600061353b83836134b2565b905092915050565b6000602082019050919050565b600061355b82613486565b6135658185613491565b935083602082028501613577856134a2565b8060005b858110156135b35784840389528151613594858261352f565b945061359f83613543565b925060208a0199505060018101905061357b565b50829750879550505050505092915050565b600060208201905081810360008301526135df8184613550565b905092915050565b600067ffffffffffffffff82111561360257613601612a92565b5b602082029050602081019050919050565b61361c81613071565b811461362757600080fd5b50565b60008135905061363981613613565b92915050565b600061365261364d846135e7565b612af2565b9050808382526020820190506020840283018581111561367557613674612be9565b5b835b8181101561369e578061368a888261362a565b845260208401935050602081019050613677565b5050509392505050565b600082601f8301126136bd576136bc612a77565b5b81356136cd84826020860161363f565b91505092915050565b60008060008060008060008060006101208a8c0312156136f9576136f8612a6d565b5b60008a013567ffffffffffffffff81111561371757613716612a72565b5b6137238c828d01612b8f565b99505060208a013567ffffffffffffffff81111561374457613743612a72565b5b6137508c828d01612c75565b98505060408a013567ffffffffffffffff81111561377157613770612a72565b5b61377d8c828d01612d6e565b97505060608a013567ffffffffffffffff81111561379e5761379d612a72565b5b6137aa8c828d01612d6e565b96505060808a013567ffffffffffffffff8111156137cb576137ca612a72565b5b6137d78c828d01612c75565b95505060a08a013567ffffffffffffffff8111156137f8576137f7612a72565b5b6138048c828d016136a8565b94505060c08a013567ffffffffffffffff81111561382557613824612a72565b5b6138318c828d01612d6e565b93505060e08a013567ffffffffffffffff81111561385257613851612a72565b5b61385e8c828d01612d6e565b9250506101008a013567ffffffffffffffff8111156138805761387f612a72565b5b61388c8c828d01612b8f565b9150509295985092959850929598565b60008060008060008060008060008060006101608c8e0312156138c2576138c1612a6d565b5b60008c013567ffffffffffffffff8111156138e0576138df612a72565b5b6138ec8e828f01612b8f565b9b505060208c013567ffffffffffffffff81111561390d5761390c612a72565b5b6139198e828f01612c75565b9a505060408c013567ffffffffffffffff81111561393a57613939612a72565b5b6139468e828f01612c75565b99505060608c013567ffffffffffffffff81111561396757613966612a72565b5b6139738e828f01612c75565b98505060808c013567ffffffffffffffff81111561399457613993612a72565b5b6139a08e828f01612c75565b97505060a08c013567ffffffffffffffff8111156139c1576139c0612a72565b5b6139cd8e828f01612c75565b96505060c08c013567ffffffffffffffff8111156139ee576139ed612a72565b5b6139fa8e828f01612c75565b95505060e08c013567ffffffffffffffff811115613a1b57613a1a612a72565b5b613a278e828f01612d6e565b9450506101008c013567ffffffffffffffff811115613a4957613a48612a72565b5b613a558e828f01612c75565b9350506101208c013567ffffffffffffffff811115613a7757613a76612a72565b5b613a838e828f01612d6e565b9250506101408c013567ffffffffffffffff811115613aa557613aa4612a72565b5b613ab18e828f01612b8f565b9150509295989b509295989b9093969950565b600080fd5b600080fd5b600060608284031215613ae457613ae3613ac4565b5b613aee6060612af2565b9050600082013567ffffffffffffffff811115613b0e57613b0d613ac9565b5b613b1a84828501612b8f565b600083015250602082013567ffffffffffffffff811115613b3e57613b3d613ac9565b5b613b4a84828501612b8f565b6020830152506040613b5e84828501612cf0565b60408301525092915050565b60008060408385031215613b8157613b80612a6d565b5b600083013567ffffffffffffffff811115613b9f57613b9e612a72565b5b613bab85828601612b8f565b925050602083013567ffffffffffffffff811115613bcc57613bcb612a72565b5b613bd885828601613ace565b9150509250929050565b600081519050919050565b600082825260208201905092915050565b6000819050602082019050919050565b600060e0830160008301518482036000860152613c2b8282613029565b91505060208301518482036020860152613c458282613029565b91505060408301518482036040860152613c5f8282613029565b91505060608301518482036060860152613c798282613029565b9150506080830151613c8e6080860182613062565b5060a0830151613ca160a0860182613062565b5060c083015184820360c0860152613cb98282613029565b9150508091505092915050565b6000613cd28383613c0e565b905092915050565b6000602082019050919050565b6000613cf282613be2565b613cfc8185613bed565b935083602082028501613d0e85613bfe565b8060005b85811015613d4a5784840389528151613d2b8582613cc6565b9450613d3683613cda565b925060208a01995050600181019050613d12565b50829750879550505050505092915050565b60006020820190508181036000830152613d768184613ce7565b905092915050565b600080600080600080600080610100898b031215613d9f57613d9e612a6d565b5b600089013567ffffffffffffffff811115613dbd57613dbc612a72565b5b613dc98b828c01612b8f565b985050602089013567ffffffffffffffff811115613dea57613de9612a72565b5b613df68b828c01612c75565b975050604089013567ffffffffffffffff811115613e1757613e16612a72565b5b613e238b828c01612c75565b965050606089013567ffffffffffffffff811115613e4457613e43612a72565b5b613e508b828c01612d6e565b955050608089013567ffffffffffffffff811115613e7157613e70612a72565b5b613e7d8b828c01612d6e565b94505060a089013567ffffffffffffffff811115613e9e57613e9d612a72565b5b613eaa8b828c01612c75565b93505060c089013567ffffffffffffffff811115613ecb57613eca612a72565b5b613ed78b828c01612c75565b92505060e089013567ffffffffffffffff811115613ef857613ef7612a72565b5b613f048b828c01612b8f565b9150509295985092959890939650565b600081519050919050565b600082825260208201905092915050565b6000819050602082019050919050565b600060c0830160008301518482036000860152613f5d8282613029565b91505060208301518482036020860152613f778282613029565b9150506040830151613f8c6040860182613062565b506060830151613f9f6060860182613062565b5060808301518482036080860152613fb78282613029565b91505060a083015184820360a0860152613fd18282613029565b9150508091505092915050565b6000613fea8383613f40565b905092915050565b6000602082019050919050565b600061400a82613f14565b6140148185613f1f565b93508360208202850161402685613f30565b8060005b8581101561406257848403895281516140438582613fde565b945061404e83613ff2565b925060208a0199505060018101905061402a565b50829750879550505050505092915050565b6000602082019050818103600083015261408e8184613fff565b905092915050565b60008060008060008060008060006101208a8c0312156140b9576140b8612a6d565b5b60008a013567ffffffffffffffff8111156140d7576140d6612a72565b5b6140e38c828d01612b8f565b99505060208a013567ffffffffffffffff81111561410457614103612a72565b5b6141108c828d01612c75565b98505060408a013567ffffffffffffffff81111561413157614130612a72565b5b61413d8c828d01612c75565b97505060608a013567ffffffffffffffff81111561415e5761415d612a72565b5b61416a8c828d01612c75565b96505060808a013567ffffffffffffffff81111561418b5761418a612a72565b5b6141978c828d01612c75565b95505060a08a013567ffffffffffffffff8111156141b8576141b7612a72565b5b6141c48c828d01612d6e565b94505060c08a013567ffffffffffffffff8111156141e5576141e4612a72565b5b6141f18c828d01612d6e565b93505060e08a013567ffffffffffffffff81111561421257614211612a72565b5b61421e8c828d01612c75565b9250506101008a013567ffffffffffffffff8111156142405761423f612a72565b5b61424c8c828d01612b8f565b9150509295985092959850929598565b7f496e70757420617272617973206d7573742068617665207468652073616d652060008201527f6c656e6774680000000000000000000000000000000000000000000000000000602082015250565b60006142b8602683612f56565b91506142c38261425c565b604082019050919050565b600060208201905081810360008301526142e7816142ab565b9050919050565b7f4e487b7100000000000000000000000000000000000000000000000000000000600052603260045260246000fd5b600081905092915050565b600061433382612f4b565b61433d818561431d565b935061434d818560208601612f67565b80840191505092915050565b60006143658284614328565b915081905092915050565b7f4e487b7100000000000000000000000000000000000000000000000000000000600052602260045260246000fd5b600060028204905060018216806143b757607f821691505b6020821081036143ca576143c9614370565b5b50919050565b60008190508160005260206000209050919050565b60006020601f8301049050919050565b600082821b905092915050565b6000600883026144327fffffffffffffffffffffffffffffffffffffffffffffffffffffffffffffffff826143f5565b61443c86836143f5565b95508019841693508086168417925050509392505050565b6000819050919050565b600061447961447461446f84612ccf565b614454565b612ccf565b9050919050565b6000819050919050565b6144938361445e565b6144a761449f82614480565b848454614402565b825550505050565b600090565b6144bc6144af565b6144c781848461448a565b505050565b5b818110156144eb576144e06000826144b4565b6001810190506144cd565b5050565b601f82111561453057614501816143d0565b61450a846143e5565b81016020851015614519578190505b61452d614525856143e5565b8301826144cc565b50505b505050565b600082821c905092915050565b600061455360001984600802614535565b1980831691505092915050565b600061456c8383614542565b9150826002028217905092915050565b61458582612f4b565b67ffffffffffffffff81111561459e5761459d612a92565b5b6145a8825461439f565b6145b38282856144ef565b600060209050601f8311600181146145e657600084156145d4578287015190505b6145de8582614560565b865550614646565b601f1984166145f4866143d0565b60005b8281101561461c578489015182556001820191506020850194506020810190506145f7565b868310156146395784890151614635601f891682614542565b8355505b6001600288020188555050505b505050505050565b7f4e487b7100000000000000000000000000000000000000000000000000000000600052601160045260246000fd5b600061468882612ccf565b91507fffffffffffffffffffffffffffffffffffffffffffffffffffffffffffffffff82036146ba576146b961464e565b5b600182019050919050565b600081549050919050565b60008190508160005260206000209050919050565b600081546146f28161439f565b6146fc8186613018565b94506001821660008114614717576001811461472d57614760565b60ff198316865281151560200286019350614760565b614736856143d0565b60005b8381101561475857815481890152600182019150602081019050614739565b808801955050505b50505092915050565b60008160001c9050919050565b6000819050919050565b600061479361478e83614769565b614776565b9050919050565b600060a08301600080840185830360008701526147b783826146e5565b925050600184015490506147ca81614780565b6147d76020870182613062565b506002840185830360408701526147ee83826146e5565b9250506003840154905061480181614780565b61480e6060870182613062565b506004840154905061481f81614780565b61482c6080870182613062565b50819250505092915050565b6000614844838361479a565b905092915050565b6000600582019050919050565b6000614864826146c5565b61486e8185613491565b935083602082028501614880856146d0565b8060005b858110156148bb5784840389528161489c8582614838565b94506148a78361484c565b925060208a01995050600181019050614884565b50829750879550505050505092915050565b600060408201905081810360008301526148e78185614859565b905081810360208301526148fb8184612f91565b90509392505050565b600081549050919050565b60008190508160005260206000209050919050565b600060e083016000808401858303600087015261494183826146e5565b92505060018401858303602087015261495a83826146e5565b92505060028401858303604087015261497383826146e5565b92505060038401858303606087015261498c83826146e5565b9250506004840154905061499f81614780565b6149ac6080870182613062565b50600584015490506149bd81614780565b6149ca60a0870182613062565b506006840185830360c08701526149e183826146e5565b925050819250505092915050565b60006149fb8383614924565b905092915050565b6000600782019050919050565b6000614a1b82614904565b614a258185613bed565b935083602082028501614a378561490f565b8060005b85811015614a7257848403895281614a5385826149ef565b9450614a5e83614a03565b925060208a01995050600181019050614a3b565b50829750879550505050505092915050565b60006040820190508181036000830152614a9e8185614a10565b90508181036020830152614ab28184612f91565b90509392505050565b600081549050919050565b60008190508160005260206000209050919050565b6000610120830160008084018583036000870152614af983826146e5565b925050600184018583036020870152614b1283826146e5565b925050600284018583036040870152614b2b83826146e5565b925050600384018583036060870152614b4483826146e5565b925050600484018583036080870152614b5d83826146e5565b9250506005840185830360a0870152614b7683826146e5565b92505060068401549050614b8981614780565b614b9660c0870182613062565b506007840185830360e0870152614bad83826146e5565b92505060088401549050614bc081614780565b614bce610100870182613062565b50819250505092915050565b6000614be68383614adb565b905092915050565b6000600982019050919050565b6000614c0682614abb565b614c10818561326a565b935083602082028501614c2285614ac6565b8060005b85811015614c5d57848403895281614c3e8582614bda565b9450614c4983614bee565b925060208a01995050600181019050614c26565b50829750879550505050505092915050565b60006040820190508181036000830152614c898185614bfb565b90508181036020830152614c9d8184612f91565b90509392505050565b600081549050919050565b60008190508160005260206000209050919050565b600060c0830160008084018583036000870152614ce383826146e5565b925050600184018583036020870152614cfc83826146e5565b92505060028401549050614d0f81614780565b614d1c6040870182613062565b5060038401549050614d2d81614780565b614d3a6060870182613062565b50600484018583036080870152614d5183826146e5565b9250506005840185830360a0870152614d6a83826146e5565b925050819250505092915050565b6000614d848383614cc6565b905092915050565b6000600682019050919050565b6000614da482614ca6565b614dae8185613f1f565b935083602082028501614dc085614cb1565b8060005b85811015614dfb57848403895281614ddc8582614d78565b9450614de783614d8c565b925060208a01995050600181019050614dc4565b50829750879550505050505092915050565b60006040820190508181036000830152614e278185614d99565b90508181036020830152614e3b8184612f91565b90509392505050565b600081549050919050565b60008190508160005260206000209050919050565b600060ff82169050919050565b6000614e84614e7f83614769565b614e64565b9050919050565b600060e0830160008084018583036000870152614ea883826146e5565b92505060018401549050614ebb81614780565b614ec86020870182613062565b5060028401549050614ed981614780565b614ee66040870182613062565b50600384018583036060870152614efd83826146e5565b92505060048401549050614f1081614e71565b614f1d608087018261307d565b5060058401549050614f2e81614780565b614f3b60a0870182613062565b5060068401549050614f4c81614780565b614f5960c0870182613062565b50819250505092915050565b6000614f718383614e8b565b905092915050565b6000600782019050919050565b6000614f9182614e44565b614f9b8185612ff7565b935083602082028501614fad85614e4f565b8060005b85811015614fe857848403895281614fc98582614f65565b9450614fd483614f79565b925060208a01995050600181019050614fb1565b50829750879550505050505092915050565b600060408201905081810360008301526150148185614f86565b905081810360208301526150288184612f91565b9050939250505056fea2646970667358221220c21b8cbab751add8b815ccf44410288c1650e6c910170ae2a2aa3bb63197a54b64736f6c63430008130033",
  "immutableReferences": {},
  "source": "// SPDX-License-Identifier: MIT\npragma solidity ^0.8.0;\n\ncontract UserContract1 {\n    struct UserData {\n        string email;\n        string name;\n        uint256 age;\n    }\n\n    struct AssetInfo {\n        string name;\n        string typeOfAsset;\n        string description;\n        string location;\n        uint256 purchaseDate;\n        uint256 purchasePrice;\n        string previousOwner;\n    }\n\n    struct MilitaryInfo {\n        string name;\n        uint256 dateOfBirth;\n        string stateOfMilitary;\n        uint256 postponementDate;\n        uint256 dateOfConstruction;\n    }\n\n    struct FamilyTreeInfo {\n        string gender;\n        string degreeOfRelationship;\n        string name;\n        string surname;\n        string fathersName;\n        string mothersName;\n        uint256 dateOfBirth;\n        string status;\n        uint256 dateOfDeath;\n    }\n\n    struct SubscriptionTransactionInfo {\n        string subscriptionType;\n        string companyName;\n        uint256 subscriptionStartDate;\n        uint256 subscriptionEndDate;\n        string subscriberName;\n        string subscriberSurname;\n    }\n\n    struct TrafficDebtInfo {\n        string debtPayer;\n        uint256 debtAmount;\n        uint256 expiryDate;\n        string licensePlate;\n        bool isPaid;\n        uint256 paymentDate;\n        uint256 paymentAmount;\n    }\n\n    struct UserAsset {\n        AssetInfo[] assetInfos;\n        string ipfsHash;\n    }\n\n    struct UserMilitary {\n        MilitaryInfo[] militaryInfos;\n        string ipfsHash;\n    }\n\n    struct UserFamilyTree {\n        FamilyTreeInfo[] familyTreeInfos;\n        string ipfsHash;\n    }\n\n    struct UserSubscriptionTransaction {\n        SubscriptionTransactionInfo[] subscriptionTransactionInfos;\n        string ipfsHash;\n    }\n\n    struct UserTrafficDebt {\n        TrafficDebtInfo[] trafficDebtInfos;\n        string ipfsHash;\n    }\n\n    mapping(string => UserAsset) private assetRecords;\n    mapping(string => UserMilitary) private militaryRecords;\n    mapping(string => UserFamilyTree) private familyTreeRecords;\n    mapping(string => UserSubscriptionTransaction)\n        private subscriptionTransactionRecords;\n    mapping(string => UserTrafficDebt) private trafficDebtRecords;\n\n    mapping(string => UserData) users;\n\n    event UserUpdated(\n        string indexed userId,\n        string email,\n        string name,\n        uint256 age\n    );\n\n    event UserAssetUpdated(\n        string indexed userId,\n        AssetInfo[] assetInfos,\n        string ipfsHash\n    );\n\n    event UserMilitaryUpdated(\n        string indexed userId,\n        MilitaryInfo[] militrayInfos,\n        string ipfsHash\n    );\n\n    event UserFamilyTreeUpdated(\n        string indexed userId,\n        FamilyTreeInfo[] familyTreeInfos,\n        string ipfsHash\n    );\n\n    event UserSubscriptionTransactionUpdated(\n        string indexed userId,\n        SubscriptionTransactionInfo[] subscriptionTransactionInfos,\n        string ipfsHash\n    );\n\n    event UserTrafficDebtUpdated(\n        string indexed userId,\n        TrafficDebtInfo[] trafficDebtInfos,\n        string ipfsHash\n    );\n\n    function setUserData(\n        string memory userId,\n        UserData memory userData\n    ) public {\n        UserData memory newUser = UserData(\n            userData.email,\n            userData.name,\n            userData.age\n        );\n        users[userId] = newUser;\n        emit UserUpdated(userId, userData.email, userData.name, userData.age);\n    }\n\n    function getUserData(\n        string memory userId\n    )\n        public\n        view\n        returns (string memory email, string memory name, uint256 age)\n    {\n        UserData storage user = users[userId];\n        return (user.email, user.name, user.age);\n    }\n\n    function setAssetRecord(\n        string memory userId,\n        string[] memory names,\n        string[] memory typeOfAssets,\n        string[] memory descriptions,\n        string[] memory locations,\n        uint256[] memory purchaseDates,\n        uint256[] memory purchasePrices,\n        string[] memory previousOwners,\n        string memory ipfsHash\n    ) public {\n        require(\n            names.length == typeOfAssets.length &&\n                typeOfAssets.length == descriptions.length &&\n                descriptions.length == locations.length &&\n                locations.length == purchaseDates.length &&\n                purchaseDates.length == purchasePrices.length &&\n                purchasePrices.length == previousOwners.length,\n            \"Input arrays must have the same length\"\n        );\n\n        for (uint256 i = 0; i < names.length; i++) {\n            AssetInfo memory newAsset = AssetInfo({\n                name: names[i],\n                typeOfAsset: typeOfAssets[i],\n                description: descriptions[i],\n                location: locations[i],\n                purchaseDate: purchaseDates[i],\n                purchasePrice: purchasePrices[i],\n                previousOwner: previousOwners[i]\n            });\n\n            assetRecords[userId].assetInfos.push(newAsset);\n        }\n\n        assetRecords[userId].ipfsHash = ipfsHash;\n\n        emit UserAssetUpdated(\n            userId,\n            assetRecords[userId].assetInfos,\n            ipfsHash\n        );\n    }\n\n    function getAssetRecords(\n        string memory userId\n    ) public view returns (AssetInfo[] memory) {\n        return assetRecords[userId].assetInfos;\n    }\n\n    function setAssetIPFSHash(\n        string memory userId,\n        string memory ipfsHash\n    ) public {\n        UserAsset storage userAsset = assetRecords[userId];\n\n        userAsset.ipfsHash = ipfsHash;\n\n        emit UserAssetUpdated(userId, userAsset.assetInfos, ipfsHash);\n    }\n\n    function getAssetIPFSHash(\n        string memory userId\n    ) public view returns (string memory) {\n        return assetRecords[userId].ipfsHash;\n    }\n\n    function setMilitaryRecord(\n        string memory userId,\n        string[] memory names,\n        uint256[] memory dateOfBirths,\n        string[] memory stateOfMilitarys,\n        uint256[] memory postponementDates,\n        uint256[] memory dateOfConstructions,\n        string memory ipfsHash\n    ) public {\n        require(\n            names.length == dateOfBirths.length &&\n                dateOfBirths.length == stateOfMilitarys.length &&\n                stateOfMilitarys.length == postponementDates.length &&\n                postponementDates.length == dateOfConstructions.length,\n            \"Input arrays must have the same length\"\n        );\n\n        for (uint256 i = 0; i < names.length; i++) {\n            MilitaryInfo memory newMilitary = MilitaryInfo({\n                name: names[i],\n                dateOfBirth: dateOfBirths[i],\n                stateOfMilitary: stateOfMilitarys[i],\n                postponementDate: postponementDates[i],\n                dateOfConstruction: dateOfConstructions[i]\n            });\n\n            militaryRecords[userId].militaryInfos.push(newMilitary);\n        }\n\n        militaryRecords[userId].ipfsHash = ipfsHash;\n\n        emit UserMilitaryUpdated(\n            userId,\n            militaryRecords[userId].militaryInfos,\n            ipfsHash\n        );\n    }\n\n    function getMilitaryRecords(\n        string memory userId\n    ) public view returns (MilitaryInfo[] memory) {\n        return militaryRecords[userId].militaryInfos;\n    }\n\n    function setMilitaryIPFSHash(\n        string memory userId,\n        string memory ipfsHash\n    ) public {\n        UserMilitary storage userMilitary = militaryRecords[userId];\n\n        userMilitary.ipfsHash = ipfsHash;\n\n        emit UserMilitaryUpdated(userId, userMilitary.militaryInfos, ipfsHash);\n    }\n\n    function getMilitaryIPFSHash(\n        string memory userId\n    ) public view returns (string memory) {\n        return militaryRecords[userId].ipfsHash;\n    }\n\n    function setFamilyTreeRecord(\n        string memory userId,\n        string[] memory genders,\n        string[] memory degreeOfRelationships,\n        string[] memory names,\n        string[] memory surnames,\n        string[] memory fathersNames,\n        string[] memory mothersNames,\n        uint256[] memory dateOfBirths,\n        string[] memory statuss,\n        uint256[] memory dateOfDeaths,\n        string memory ipfsHash\n    ) public {\n        require(\n            genders.length == degreeOfRelationships.length &&\n                degreeOfRelationships.length == names.length &&\n                names.length == surnames.length &&\n                surnames.length == fathersNames.length &&\n                fathersNames.length == mothersNames.length &&\n                mothersNames.length == dateOfBirths.length &&\n                dateOfBirths.length == statuss.length &&\n                statuss.length == dateOfDeaths.length,\n            \"Input arrays must have the same length\"\n        );\n\n        for (uint256 i = 0; i < genders.length; i++) {\n            FamilyTreeInfo memory newFamilyTree = FamilyTreeInfo({\n                gender: genders[i],\n                degreeOfRelationship: degreeOfRelationships[i],\n                name: names[i],\n                surname: surnames[i],\n                fathersName: fathersNames[i],\n                mothersName: mothersNames[i],\n                dateOfBirth: dateOfBirths[i],\n                status: statuss[i],\n                dateOfDeath: dateOfDeaths[i]\n            });\n\n            familyTreeRecords[userId].familyTreeInfos.push(newFamilyTree);\n        }\n\n        familyTreeRecords[userId].ipfsHash = ipfsHash;\n\n        emit UserFamilyTreeUpdated(\n            userId,\n            familyTreeRecords[userId].familyTreeInfos,\n            ipfsHash\n        );\n    }\n\n    function getFamilyTreeRecords(\n        string memory userId\n    ) public view returns (FamilyTreeInfo[] memory) {\n        return familyTreeRecords[userId].familyTreeInfos;\n    }\n\n    function setFamilyTreeIPFSHash(\n        string memory userId,\n        string memory ipfsHash\n    ) public {\n        UserFamilyTree storage userFamilyTree = familyTreeRecords[userId];\n\n        userFamilyTree.ipfsHash = ipfsHash;\n\n        emit UserFamilyTreeUpdated(\n            userId,\n            userFamilyTree.familyTreeInfos,\n            ipfsHash\n        );\n    }\n\n    function getFamilyTreeIPFSHash(\n        string memory userId\n    ) public view returns (string memory) {\n        return familyTreeRecords[userId].ipfsHash;\n    }\n\n    function setSubscriptionTransactionRecord(\n        string memory userId,\n        string[] memory subscriptionTypes,\n        string[] memory companyNames,\n        uint256[] memory subscriptionStartDates,\n        uint256[] memory subscriptionEndDates,\n        string[] memory subscriberNames,\n        string[] memory subscriberSurnames,\n        string memory ipfsHash\n    ) public {\n        require(\n            subscriptionTypes.length == companyNames.length &&\n                companyNames.length == subscriptionStartDates.length &&\n                subscriptionStartDates.length == subscriptionEndDates.length &&\n                subscriptionEndDates.length == subscriberNames.length &&\n                subscriberNames.length == subscriberSurnames.length,\n            \"Input arrays must have the same length\"\n        );\n\n        for (uint256 i = 0; i < subscriptionTypes.length; i++) {\n            SubscriptionTransactionInfo\n                memory newSubscriptionTransaction = SubscriptionTransactionInfo({\n                    subscriptionType: subscriptionTypes[i],\n                    companyName: companyNames[i],\n                    subscriptionStartDate: subscriptionStartDates[i],\n                    subscriptionEndDate: subscriptionEndDates[i],\n                    subscriberName: subscriberNames[i],\n                    subscriberSurname: subscriberSurnames[i]\n                });\n\n            subscriptionTransactionRecords[userId]\n                .subscriptionTransactionInfos\n                .push(newSubscriptionTransaction);\n        }\n\n        subscriptionTransactionRecords[userId].ipfsHash = ipfsHash;\n\n        emit UserSubscriptionTransactionUpdated(\n            userId,\n            subscriptionTransactionRecords[userId].subscriptionTransactionInfos,\n            ipfsHash\n        );\n    }\n\n    function getSubscriptionTransactionRecords(\n        string memory userId\n    ) public view returns (SubscriptionTransactionInfo[] memory) {\n        return\n            subscriptionTransactionRecords[userId].subscriptionTransactionInfos;\n    }\n\n    function setSubscriptionTransactionIPFSHash(\n        string memory userId,\n        string memory ipfsHash\n    ) public {\n        UserSubscriptionTransaction\n            storage userSubscriptionTransaction = subscriptionTransactionRecords[\n                userId\n            ];\n\n        userSubscriptionTransaction.ipfsHash = ipfsHash;\n\n        emit UserSubscriptionTransactionUpdated(\n            userId,\n            userSubscriptionTransaction.subscriptionTransactionInfos,\n            ipfsHash\n        );\n    }\n\n    function getSubscriptionTransactionIPFSHash(\n        string memory userId\n    ) public view returns (string memory) {\n        return subscriptionTransactionRecords[userId].ipfsHash;\n    }\n\n    function setTrafficDebtRecord(\n        string memory userId,\n        string[] memory debtPayers,\n        uint256[] memory debtAmounts,\n        uint256[] memory expiryDates,\n        string[] memory licensePlates,\n        bool[] memory isPaids,\n        uint256[] memory paymentDates,\n        uint256[] memory paymentAmounts,\n        string memory ipfsHash\n    ) public {\n        require(\n            debtPayers.length == debtAmounts.length &&\n                debtAmounts.length == expiryDates.length &&\n                expiryDates.length == licensePlates.length &&\n                licensePlates.length == isPaids.length &&\n                isPaids.length == paymentDates.length &&\n                paymentDates.length == paymentAmounts.length,\n            \"Input arrays must have the same length\"\n        );\n\n        for (uint256 i = 0; i < debtPayers.length; i++) {\n            TrafficDebtInfo memory newTrafficDebt = TrafficDebtInfo({\n                debtPayer: debtPayers[i],\n                debtAmount: debtAmounts[i],\n                expiryDate: expiryDates[i],\n                licensePlate: licensePlates[i],\n                isPaid: isPaids[i],\n                paymentDate: paymentDates[i],\n                paymentAmount: paymentAmounts[i]\n            });\n\n            trafficDebtRecords[userId].trafficDebtInfos.push(newTrafficDebt);\n        }\n\n        trafficDebtRecords[userId].ipfsHash = ipfsHash;\n\n        emit UserTrafficDebtUpdated(\n            userId,\n            trafficDebtRecords[userId].trafficDebtInfos,\n            ipfsHash\n        );\n    }\n\n    function getTrafficDebtRecords(\n        string memory userId\n    ) public view returns (TrafficDebtInfo[] memory) {\n        return trafficDebtRecords[userId].trafficDebtInfos;\n    }\n\n    function setTrafficDebtIPFSHash(\n        string memory userId,\n        string memory ipfsHash\n    ) public {\n        UserTrafficDebt storage userTrafficDebt = trafficDebtRecords[userId];\n\n        userTrafficDebt.ipfsHash = ipfsHash;\n\n        emit UserTrafficDebtUpdated(\n            userId,\n            userTrafficDebt.trafficDebtInfos,\n            ipfsHash\n        );\n    }\n\n    function getTrafficDebtIPFSHash(\n        string memory userId\n    ) public view returns (string memory) {\n        return trafficDebtRecords[userId].ipfsHash;\n    }\n}\n",
  "sourcePath": "/Users/kmlcnclk/Projects/Github/my-devlet/contracts/UserContract1.sol",
  "compiler": {
    "name": "solc",
    "version": "0.8.19+commit.7dd6d404.Emscripten.clang"
  },
  "schemaVersion": "3.4.16",
  "updatedAt": "2024-06-02T16:49:14.963Z",
  "devdoc": {
    "kind": "dev",
    "methods": {},
    "version": 1
  },
  "userdoc": {
    "kind": "user",
    "methods": {},
    "version": 1
  }
}