{
  "contractName": "UserContract",
  "abi": [
    {
      "anonymous": false,
      "inputs": [
        {
          "indexed": true,
          "internalType": "string",
          "name": "userId",
          "type": "string"
        },
        {
          "components": [
            {
              "internalType": "string",
              "name": "bankName",
              "type": "string"
            },
            {
              "internalType": "uint256",
              "name": "accountBalance",
              "type": "uint256"
            },
            {
              "internalType": "string",
              "name": "accountNumber",
              "type": "string"
            },
            {
              "internalType": "string",
              "name": "accountType",
              "type": "string"
            },
            {
              "internalType": "uint256",
              "name": "accountOpeningDate",
              "type": "uint256"
            }
          ],
          "indexed": false,
          "internalType": "struct UserContract.BankInfo[]",
          "name": "bankInfos",
          "type": "tuple[]"
        },
        {
          "indexed": false,
          "internalType": "string",
          "name": "ipfsHash",
          "type": "string"
        }
      ],
      "name": "UserBankUpdated",
      "type": "event"
    },
    {
      "anonymous": false,
      "inputs": [
        {
          "indexed": true,
          "internalType": "string",
          "name": "userId",
          "type": "string"
        },
        {
          "components": [
            {
              "internalType": "string",
              "name": "caseNumber",
              "type": "string"
            },
            {
              "internalType": "string",
              "name": "court",
              "type": "string"
            },
            {
              "internalType": "string",
              "name": "prosecutor",
              "type": "string"
            },
            {
              "internalType": "string",
              "name": "defendant",
              "type": "string"
            },
            {
              "internalType": "uint256",
              "name": "incidentDate",
              "type": "uint256"
            },
            {
              "internalType": "uint256",
              "name": "trialDate",
              "type": "uint256"
            },
            {
              "internalType": "string",
              "name": "trialOutcome",
              "type": "string"
            },
            {
              "internalType": "string",
              "name": "evidence",
              "type": "string"
            },
            {
              "internalType": "string",
              "name": "lawyers",
              "type": "string"
            }
          ],
          "indexed": false,
          "internalType": "struct UserContract.CriminalRecordInfo[]",
          "name": "criminalRecordInfos",
          "type": "tuple[]"
        },
        {
          "indexed": false,
          "internalType": "string",
          "name": "ipfsHash",
          "type": "string"
        }
      ],
      "name": "UserCriminalRecordUpdated",
      "type": "event"
    },
    {
      "anonymous": false,
      "inputs": [
        {
          "indexed": true,
          "internalType": "string",
          "name": "userId",
          "type": "string"
        },
        {
          "components": [
            {
              "internalType": "string",
              "name": "schoolName",
              "type": "string"
            },
            {
              "internalType": "string",
              "name": "degree",
              "type": "string"
            },
            {
              "internalType": "uint256",
              "name": "startedYear",
              "type": "uint256"
            },
            {
              "internalType": "uint256",
              "name": "graduationYear",
              "type": "uint256"
            }
          ],
          "indexed": false,
          "internalType": "struct UserContract.EducationInfo[]",
          "name": "educationInfos",
          "type": "tuple[]"
        },
        {
          "indexed": false,
          "internalType": "string",
          "name": "ipfsHash",
          "type": "string"
        }
      ],
      "name": "UserEducationUpdated",
      "type": "event"
    },
    {
      "anonymous": false,
      "inputs": [
        {
          "indexed": true,
          "internalType": "string",
          "name": "userId",
          "type": "string"
        },
        {
          "components": [
            {
              "internalType": "string",
              "name": "hospitalName",
              "type": "string"
            },
            {
              "internalType": "string",
              "name": "doctorName",
              "type": "string"
            },
            {
              "internalType": "string",
              "name": "name",
              "type": "string"
            },
            {
              "internalType": "string",
              "name": "symptoms",
              "type": "string"
            },
            {
              "internalType": "string",
              "name": "diagnosticMethods",
              "type": "string"
            },
            {
              "internalType": "uint256",
              "name": "date",
              "type": "uint256"
            },
            {
              "internalType": "string",
              "name": "treatmentOptions",
              "type": "string"
            },
            {
              "internalType": "string",
              "name": "importantInformation",
              "type": "string"
            }
          ],
          "indexed": false,
          "internalType": "struct UserContract.HospitalInfo[]",
          "name": "hospitalInfos",
          "type": "tuple[]"
        },
        {
          "indexed": false,
          "internalType": "string",
          "name": "ipfsHash",
          "type": "string"
        }
      ],
      "name": "UserHospitalUpdated",
      "type": "event"
    },
    {
      "anonymous": false,
      "inputs": [
        {
          "indexed": true,
          "internalType": "string",
          "name": "userId",
          "type": "string"
        },
        {
          "components": [
            {
              "internalType": "string",
              "name": "title",
              "type": "string"
            },
            {
              "internalType": "string",
              "name": "description",
              "type": "string"
            },
            {
              "internalType": "uint256",
              "name": "date",
              "type": "uint256"
            },
            {
              "internalType": "string",
              "name": "notaryName",
              "type": "string"
            },
            {
              "internalType": "string",
              "name": "typeOfDocument",
              "type": "string"
            },
            {
              "internalType": "string",
              "name": "partiesInvolved",
              "type": "string"
            }
          ],
          "indexed": false,
          "internalType": "struct UserContract.NotaryInfo[]",
          "name": "notaryInfos",
          "type": "tuple[]"
        },
        {
          "indexed": false,
          "internalType": "string",
          "name": "ipfsHash",
          "type": "string"
        }
      ],
      "name": "UserNotaryUpdated",
      "type": "event"
    },
    {
      "anonymous": false,
      "inputs": [
        {
          "indexed": true,
          "internalType": "string",
          "name": "userId",
          "type": "string"
        },
        {
          "components": [
            {
              "internalType": "string",
              "name": "taxpayer",
              "type": "string"
            },
            {
              "internalType": "uint256",
              "name": "debtAmount",
              "type": "uint256"
            },
            {
              "internalType": "uint256",
              "name": "expiryDate",
              "type": "uint256"
            },
            {
              "internalType": "string",
              "name": "typeOfTax",
              "type": "string"
            },
            {
              "internalType": "bool",
              "name": "isPaid",
              "type": "bool"
            },
            {
              "internalType": "uint256",
              "name": "paymentDate",
              "type": "uint256"
            },
            {
              "internalType": "uint256",
              "name": "paymentAmount",
              "type": "uint256"
            }
          ],
          "indexed": false,
          "internalType": "struct UserContract.TaxDebtInfo[]",
          "name": "taxDebtInfos",
          "type": "tuple[]"
        },
        {
          "indexed": false,
          "internalType": "string",
          "name": "ipfsHash",
          "type": "string"
        }
      ],
      "name": "UserTaxDebtUpdated",
      "type": "event"
    },
    {
      "anonymous": false,
      "inputs": [
        {
          "indexed": true,
          "internalType": "string",
          "name": "userId",
          "type": "string"
        },
        {
          "indexed": false,
          "internalType": "string",
          "name": "email",
          "type": "string"
        },
        {
          "indexed": false,
          "internalType": "string",
          "name": "name",
          "type": "string"
        },
        {
          "indexed": false,
          "internalType": "uint256",
          "name": "age",
          "type": "uint256"
        }
      ],
      "name": "UserUpdated",
      "type": "event"
    },
    {
      "inputs": [
        {
          "internalType": "string",
          "name": "userId",
          "type": "string"
        },
        {
          "components": [
            {
              "internalType": "string",
              "name": "email",
              "type": "string"
            },
            {
              "internalType": "string",
              "name": "name",
              "type": "string"
            },
            {
              "internalType": "uint256",
              "name": "age",
              "type": "uint256"
            }
          ],
          "internalType": "struct UserContract.UserData",
          "name": "userData",
          "type": "tuple"
        }
      ],
      "name": "setUserData",
      "outputs": [],
      "stateMutability": "nonpayable",
      "type": "function"
    },
    {
      "inputs": [
        {
          "internalType": "string",
          "name": "userId",
          "type": "string"
        }
      ],
      "name": "getUserData",
      "outputs": [
        {
          "internalType": "string",
          "name": "email",
          "type": "string"
        },
        {
          "internalType": "string",
          "name": "name",
          "type": "string"
        },
        {
          "internalType": "uint256",
          "name": "age",
          "type": "uint256"
        }
      ],
      "stateMutability": "view",
      "type": "function"
    },
    {
      "inputs": [
        {
          "internalType": "string",
          "name": "userId",
          "type": "string"
        },
        {
          "internalType": "string[]",
          "name": "schoolNames",
          "type": "string[]"
        },
        {
          "internalType": "string[]",
          "name": "degrees",
          "type": "string[]"
        },
        {
          "internalType": "uint256[]",
          "name": "startedYears",
          "type": "uint256[]"
        },
        {
          "internalType": "uint256[]",
          "name": "graduationYears",
          "type": "uint256[]"
        },
        {
          "internalType": "string",
          "name": "ipfsHash",
          "type": "string"
        }
      ],
      "name": "setEducationRecord",
      "outputs": [],
      "stateMutability": "nonpayable",
      "type": "function"
    },
    {
      "inputs": [
        {
          "internalType": "string",
          "name": "userId",
          "type": "string"
        }
      ],
      "name": "getEducationRecords",
      "outputs": [
        {
          "components": [
            {
              "internalType": "string",
              "name": "schoolName",
              "type": "string"
            },
            {
              "internalType": "string",
              "name": "degree",
              "type": "string"
            },
            {
              "internalType": "uint256",
              "name": "startedYear",
              "type": "uint256"
            },
            {
              "internalType": "uint256",
              "name": "graduationYear",
              "type": "uint256"
            }
          ],
          "internalType": "struct UserContract.EducationInfo[]",
          "name": "",
          "type": "tuple[]"
        }
      ],
      "stateMutability": "view",
      "type": "function"
    },
    {
      "inputs": [
        {
          "internalType": "string",
          "name": "userId",
          "type": "string"
        },
        {
          "internalType": "string",
          "name": "ipfsHash",
          "type": "string"
        }
      ],
      "name": "setEducationIPFSHash",
      "outputs": [],
      "stateMutability": "nonpayable",
      "type": "function"
    },
    {
      "inputs": [
        {
          "internalType": "string",
          "name": "userId",
          "type": "string"
        }
      ],
      "name": "getEducationIPFSHash",
      "outputs": [
        {
          "internalType": "string",
          "name": "",
          "type": "string"
        }
      ],
      "stateMutability": "view",
      "type": "function"
    },
    {
      "inputs": [
        {
          "internalType": "string",
          "name": "userId",
          "type": "string"
        },
        {
          "internalType": "string[]",
          "name": "bankNames",
          "type": "string[]"
        },
        {
          "internalType": "uint256[]",
          "name": "accountBalances",
          "type": "uint256[]"
        },
        {
          "internalType": "string[]",
          "name": "accountNumbers",
          "type": "string[]"
        },
        {
          "internalType": "string[]",
          "name": "accountTypes",
          "type": "string[]"
        },
        {
          "internalType": "uint256[]",
          "name": "accountOpeningDates",
          "type": "uint256[]"
        },
        {
          "internalType": "string",
          "name": "ipfsHash",
          "type": "string"
        }
      ],
      "name": "setBankRecord",
      "outputs": [],
      "stateMutability": "nonpayable",
      "type": "function"
    },
    {
      "inputs": [
        {
          "internalType": "string",
          "name": "userId",
          "type": "string"
        }
      ],
      "name": "getBankRecords",
      "outputs": [
        {
          "components": [
            {
              "internalType": "string",
              "name": "bankName",
              "type": "string"
            },
            {
              "internalType": "uint256",
              "name": "accountBalance",
              "type": "uint256"
            },
            {
              "internalType": "string",
              "name": "accountNumber",
              "type": "string"
            },
            {
              "internalType": "string",
              "name": "accountType",
              "type": "string"
            },
            {
              "internalType": "uint256",
              "name": "accountOpeningDate",
              "type": "uint256"
            }
          ],
          "internalType": "struct UserContract.BankInfo[]",
          "name": "",
          "type": "tuple[]"
        }
      ],
      "stateMutability": "view",
      "type": "function"
    },
    {
      "inputs": [
        {
          "internalType": "string",
          "name": "userId",
          "type": "string"
        },
        {
          "internalType": "string",
          "name": "ipfsHash",
          "type": "string"
        }
      ],
      "name": "setBankIPFSHash",
      "outputs": [],
      "stateMutability": "nonpayable",
      "type": "function"
    },
    {
      "inputs": [
        {
          "internalType": "string",
          "name": "userId",
          "type": "string"
        }
      ],
      "name": "getBankIPFSHash",
      "outputs": [
        {
          "internalType": "string",
          "name": "",
          "type": "string"
        }
      ],
      "stateMutability": "view",
      "type": "function"
    },
    {
      "inputs": [
        {
          "internalType": "string",
          "name": "userId",
          "type": "string"
        },
        {
          "internalType": "string[]",
          "name": "hospitalNames",
          "type": "string[]"
        },
        {
          "internalType": "string[]",
          "name": "doctorNames",
          "type": "string[]"
        },
        {
          "internalType": "string[]",
          "name": "names",
          "type": "string[]"
        },
        {
          "internalType": "string[]",
          "name": "symptomss",
          "type": "string[]"
        },
        {
          "internalType": "string[]",
          "name": "diagnosticMethodss",
          "type": "string[]"
        },
        {
          "internalType": "uint256[]",
          "name": "dates",
          "type": "uint256[]"
        },
        {
          "internalType": "string[]",
          "name": "treatmentOptionss",
          "type": "string[]"
        },
        {
          "internalType": "string[]",
          "name": "importantInformations",
          "type": "string[]"
        },
        {
          "internalType": "string",
          "name": "ipfsHash",
          "type": "string"
        }
      ],
      "name": "setHospitalRecord",
      "outputs": [],
      "stateMutability": "nonpayable",
      "type": "function"
    },
    {
      "inputs": [
        {
          "internalType": "string",
          "name": "userId",
          "type": "string"
        }
      ],
      "name": "getHospitalRecords",
      "outputs": [
        {
          "components": [
            {
              "internalType": "string",
              "name": "hospitalName",
              "type": "string"
            },
            {
              "internalType": "string",
              "name": "doctorName",
              "type": "string"
            },
            {
              "internalType": "string",
              "name": "name",
              "type": "string"
            },
            {
              "internalType": "string",
              "name": "symptoms",
              "type": "string"
            },
            {
              "internalType": "string",
              "name": "diagnosticMethods",
              "type": "string"
            },
            {
              "internalType": "uint256",
              "name": "date",
              "type": "uint256"
            },
            {
              "internalType": "string",
              "name": "treatmentOptions",
              "type": "string"
            },
            {
              "internalType": "string",
              "name": "importantInformation",
              "type": "string"
            }
          ],
          "internalType": "struct UserContract.HospitalInfo[]",
          "name": "",
          "type": "tuple[]"
        }
      ],
      "stateMutability": "view",
      "type": "function"
    },
    {
      "inputs": [
        {
          "internalType": "string",
          "name": "userId",
          "type": "string"
        },
        {
          "internalType": "string",
          "name": "ipfsHash",
          "type": "string"
        }
      ],
      "name": "setHospitalIPFSHash",
      "outputs": [],
      "stateMutability": "nonpayable",
      "type": "function"
    },
    {
      "inputs": [
        {
          "internalType": "string",
          "name": "userId",
          "type": "string"
        }
      ],
      "name": "getHospitalIPFSHash",
      "outputs": [
        {
          "internalType": "string",
          "name": "",
          "type": "string"
        }
      ],
      "stateMutability": "view",
      "type": "function"
    },
    {
      "inputs": [
        {
          "internalType": "string",
          "name": "userId",
          "type": "string"
        },
        {
          "internalType": "string[]",
          "name": "titles",
          "type": "string[]"
        },
        {
          "internalType": "string[]",
          "name": "descriptions",
          "type": "string[]"
        },
        {
          "internalType": "uint256[]",
          "name": "dates",
          "type": "uint256[]"
        },
        {
          "internalType": "string[]",
          "name": "notaryNames",
          "type": "string[]"
        },
        {
          "internalType": "string[]",
          "name": "typeOfDocuments",
          "type": "string[]"
        },
        {
          "internalType": "string[]",
          "name": "partiesInvolveds",
          "type": "string[]"
        },
        {
          "internalType": "string",
          "name": "ipfsHash",
          "type": "string"
        }
      ],
      "name": "setNotaryRecord",
      "outputs": [],
      "stateMutability": "nonpayable",
      "type": "function"
    },
    {
      "inputs": [
        {
          "internalType": "string",
          "name": "userId",
          "type": "string"
        }
      ],
      "name": "getNotaryRecords",
      "outputs": [
        {
          "components": [
            {
              "internalType": "string",
              "name": "title",
              "type": "string"
            },
            {
              "internalType": "string",
              "name": "description",
              "type": "string"
            },
            {
              "internalType": "uint256",
              "name": "date",
              "type": "uint256"
            },
            {
              "internalType": "string",
              "name": "notaryName",
              "type": "string"
            },
            {
              "internalType": "string",
              "name": "typeOfDocument",
              "type": "string"
            },
            {
              "internalType": "string",
              "name": "partiesInvolved",
              "type": "string"
            }
          ],
          "internalType": "struct UserContract.NotaryInfo[]",
          "name": "",
          "type": "tuple[]"
        }
      ],
      "stateMutability": "view",
      "type": "function"
    },
    {
      "inputs": [
        {
          "internalType": "string",
          "name": "userId",
          "type": "string"
        },
        {
          "internalType": "string",
          "name": "ipfsHash",
          "type": "string"
        }
      ],
      "name": "setNotaryIPFSHash",
      "outputs": [],
      "stateMutability": "nonpayable",
      "type": "function"
    },
    {
      "inputs": [
        {
          "internalType": "string",
          "name": "userId",
          "type": "string"
        }
      ],
      "name": "getNotaryIPFSHash",
      "outputs": [
        {
          "internalType": "string",
          "name": "",
          "type": "string"
        }
      ],
      "stateMutability": "view",
      "type": "function"
    },
    {
      "inputs": [
        {
          "internalType": "string",
          "name": "userId",
          "type": "string"
        },
        {
          "internalType": "string[]",
          "name": "taxpayers",
          "type": "string[]"
        },
        {
          "internalType": "uint256[]",
          "name": "debtAmounts",
          "type": "uint256[]"
        },
        {
          "internalType": "uint256[]",
          "name": "expiryDates",
          "type": "uint256[]"
        },
        {
          "internalType": "string[]",
          "name": "typeOfTaxs",
          "type": "string[]"
        },
        {
          "internalType": "bool[]",
          "name": "isPaids",
          "type": "bool[]"
        },
        {
          "internalType": "uint256[]",
          "name": "paymentDates",
          "type": "uint256[]"
        },
        {
          "internalType": "uint256[]",
          "name": "paymentAmounts",
          "type": "uint256[]"
        },
        {
          "internalType": "string",
          "name": "ipfsHash",
          "type": "string"
        }
      ],
      "name": "setTaxDebtRecord",
      "outputs": [],
      "stateMutability": "nonpayable",
      "type": "function"
    },
    {
      "inputs": [
        {
          "internalType": "string",
          "name": "userId",
          "type": "string"
        }
      ],
      "name": "getTaxDebtRecords",
      "outputs": [
        {
          "components": [
            {
              "internalType": "string",
              "name": "taxpayer",
              "type": "string"
            },
            {
              "internalType": "uint256",
              "name": "debtAmount",
              "type": "uint256"
            },
            {
              "internalType": "uint256",
              "name": "expiryDate",
              "type": "uint256"
            },
            {
              "internalType": "string",
              "name": "typeOfTax",
              "type": "string"
            },
            {
              "internalType": "bool",
              "name": "isPaid",
              "type": "bool"
            },
            {
              "internalType": "uint256",
              "name": "paymentDate",
              "type": "uint256"
            },
            {
              "internalType": "uint256",
              "name": "paymentAmount",
              "type": "uint256"
            }
          ],
          "internalType": "struct UserContract.TaxDebtInfo[]",
          "name": "",
          "type": "tuple[]"
        }
      ],
      "stateMutability": "view",
      "type": "function"
    },
    {
      "inputs": [
        {
          "internalType": "string",
          "name": "userId",
          "type": "string"
        },
        {
          "internalType": "string",
          "name": "ipfsHash",
          "type": "string"
        }
      ],
      "name": "setTaxDebtIPFSHash",
      "outputs": [],
      "stateMutability": "nonpayable",
      "type": "function"
    },
    {
      "inputs": [
        {
          "internalType": "string",
          "name": "userId",
          "type": "string"
        }
      ],
      "name": "getTaxDebtIPFSHash",
      "outputs": [
        {
          "internalType": "string",
          "name": "",
          "type": "string"
        }
      ],
      "stateMutability": "view",
      "type": "function"
    },
    {
      "inputs": [
        {
          "internalType": "string",
          "name": "userId",
          "type": "string"
        },
        {
          "internalType": "string[]",
          "name": "caseNumbers",
          "type": "string[]"
        },
        {
          "internalType": "string[]",
          "name": "courts",
          "type": "string[]"
        },
        {
          "internalType": "string[]",
          "name": "prosecutors",
          "type": "string[]"
        },
        {
          "internalType": "string[]",
          "name": "defendants",
          "type": "string[]"
        },
        {
          "internalType": "uint256[]",
          "name": "incidentDates",
          "type": "uint256[]"
        },
        {
          "internalType": "uint256[]",
          "name": "trialDates",
          "type": "uint256[]"
        },
        {
          "internalType": "string[]",
          "name": "trialOutcomes",
          "type": "string[]"
        },
        {
          "internalType": "string[]",
          "name": "evidences",
          "type": "string[]"
        },
        {
          "internalType": "string[]",
          "name": "lawyerss",
          "type": "string[]"
        },
        {
          "internalType": "string",
          "name": "ipfsHash",
          "type": "string"
        }
      ],
      "name": "setCriminalRecordRecord",
      "outputs": [],
      "stateMutability": "nonpayable",
      "type": "function"
    },
    {
      "inputs": [
        {
          "internalType": "string",
          "name": "userId",
          "type": "string"
        }
      ],
      "name": "getCriminalRecordRecords",
      "outputs": [
        {
          "components": [
            {
              "internalType": "string",
              "name": "caseNumber",
              "type": "string"
            },
            {
              "internalType": "string",
              "name": "court",
              "type": "string"
            },
            {
              "internalType": "string",
              "name": "prosecutor",
              "type": "string"
            },
            {
              "internalType": "string",
              "name": "defendant",
              "type": "string"
            },
            {
              "internalType": "uint256",
              "name": "incidentDate",
              "type": "uint256"
            },
            {
              "internalType": "uint256",
              "name": "trialDate",
              "type": "uint256"
            },
            {
              "internalType": "string",
              "name": "trialOutcome",
              "type": "string"
            },
            {
              "internalType": "string",
              "name": "evidence",
              "type": "string"
            },
            {
              "internalType": "string",
              "name": "lawyers",
              "type": "string"
            }
          ],
          "internalType": "struct UserContract.CriminalRecordInfo[]",
          "name": "",
          "type": "tuple[]"
        }
      ],
      "stateMutability": "view",
      "type": "function"
    },
    {
      "inputs": [
        {
          "internalType": "string",
          "name": "userId",
          "type": "string"
        },
        {
          "internalType": "string",
          "name": "ipfsHash",
          "type": "string"
        }
      ],
      "name": "setCriminalRecordIPFSHash",
      "outputs": [],
      "stateMutability": "nonpayable",
      "type": "function"
    },
    {
      "inputs": [
        {
          "internalType": "string",
          "name": "userId",
          "type": "string"
        }
      ],
      "name": "getCriminalRecordIPFSHash",
      "outputs": [
        {
          "internalType": "string",
          "name": "",
          "type": "string"
        }
      ],
      "stateMutability": "view",
      "type": "function"
    }
  ],
  "bytecode": "0x608060405234801561001057600080fd5b50615d6f80620000216000396000f3fe608060405234801561001057600080fd5b506004361061018e5760003560e01c80637d29e5a3116100de578063be36f17411610097578063e952945a11610071578063e952945a14610501578063f402c2c91461051d578063f616637914610539578063f695abe2146105555761018e565b8063be36f174146104ad578063cbe7360c146104c9578063e63f9d25146104e55761018e565b80637d29e5a3146103b557806386c37fb6146103e55780638bf2679414610415578063a4c9f0be14610445578063a581a76d14610461578063b1f441ef146104915761018e565b806335ce38331161014b57806354ab24031161012557806354ab2403146103075780636476bfc5146103395780636ede9383146103695780636f2f79ba146103855761018e565b806335ce3833146102775780634402db82146102a75780634f2cd125146102d75761018e565b806309ac5173146101935780630ac6b530146101c35780630c793d7c146101df57806324ca04d51461020f5780632ba6467e1461023f5780633152e8041461025b575b600080fd5b6101ad60048036038101906101a8919061346a565b610571565b6040516101ba9190613532565b60405180910390f35b6101dd60048036038101906101d89190613554565b610624565b005b6101f960048036038101906101f4919061346a565b6106af565b6040516102069190613532565b60405180910390f35b6102296004803603810190610224919061346a565b610762565b6040516102369190613532565b60405180910390f35b61025960048036038101906102549190613554565b610815565b005b61027560048036038101906102709190613554565b6108a0565b005b610291600480360381019061028c919061346a565b61092b565b60405161029e9190613532565b60405180910390f35b6102c160048036038101906102bc919061346a565b6109de565b6040516102ce9190613775565b60405180910390f35b6102f160048036038101906102ec919061346a565b610c28565b6040516102fe91906138c3565b60405180910390f35b610321600480360381019061031c919061346a565b610de0565b604051610330939291906138f4565b60405180910390f35b610353600480360381019061034e919061346a565b610f39565b6040516103609190613532565b60405180910390f35b610383600480360381019061037e9190613b0e565b610fec565b005b61039f600480360381019061039a919061346a565b6112bf565b6040516103ac9190613e24565b60405180910390f35b6103cf60048036038101906103ca919061346a565b6114a6565b6040516103dc9190613fad565b60405180910390f35b6103ff60048036038101906103fa919061346a565b61180a565b60405161040c919061416b565b60405180910390f35b61042f600480360381019061042a919061346a565b611c93565b60405161043c919061433e565b60405180910390f35b61045f600480360381019061045a9190613554565b612126565b005b61047b6004803603810190610476919061346a565b6121b1565b6040516104889190613532565b60405180910390f35b6104ab60048036038101906104a69190614360565b612264565b005b6104c760048036038101906104c2919061453b565b6124a3565b005b6104e360048036038101906104de91906145b3565b612588565b005b6104ff60048036038101906104fa9190614719565b61280b565b005b61051b60048036038101906105169190614910565b612b67565b005b61053760048036038101906105329190613554565b612efc565b005b610553600480360381019061054e9190613554565b612f86565b005b61056f600480360381019061056a9190614c27565b613011565b005b60606003826040516105839190614e29565b9081526020016040518091039020600101805461059f90614e6f565b80601f01602080910402602001604051908101604052809291908181526020018280546105cb90614e6f565b80156106185780601f106105ed57610100808354040283529160200191610618565b820191906000526020600020905b8154815290600101906020018083116105fb57829003601f168201915b50505050509050919050565b60006005836040516106369190614e29565b9081526020016040518091039020905081816001019081610657919061504c565b50826040516106669190614e29565b60405180910390207f92da1c0c41885cd731ee47ddb889c6c199af24ced267393a5d079444f581f51682600001846040516106a2929190615387565b60405180910390a2505050565b60606000826040516106c19190614e29565b908152602001604051809103902060010180546106dd90614e6f565b80601f016020809104026020016040519081016040528092919081815260200182805461070990614e6f565b80156107565780601f1061072b57610100808354040283529160200191610756565b820191906000526020600020905b81548152906001019060200180831161073957829003601f168201915b50505050509050919050565b60606001826040516107749190614e29565b9081526020016040518091039020600101805461079090614e6f565b80601f01602080910402602001604051908101604052809291908181526020018280546107bc90614e6f565b80156108095780601f106107de57610100808354040283529160200191610809565b820191906000526020600020905b8154815290600101906020018083116107ec57829003601f168201915b50505050509050919050565b60006004836040516108279190614e29565b9081526020016040518091039020905081816001019081610848919061504c565b50826040516108579190614e29565b60405180910390207f145d21640bca172e24e08c3c82ee35d24c5ff1db94ca48bf9a18240cbbdf19698260000184604051610893929190615574565b60405180910390a2505050565b60006002836040516108b29190614e29565b90815260200160405180910390209050818160010190816108d3919061504c565b50826040516108e29190614e29565b60405180910390207f5f60f857012493da3c65fcf0df4c087fbd203856172f2658031a4305573ea12f826000018460405161091e929190615740565b60405180910390a2505050565b606060028260405161093d9190614e29565b9081526020016040518091039020600101805461095990614e6f565b80601f016020809104026020016040519081016040528092919081815260200182805461098590614e6f565b80156109d25780601f106109a7576101008083540402835291602001916109d2565b820191906000526020600020905b8154815290600101906020018083116109b557829003601f168201915b50505050509050919050565b60606001826040516109f09190614e29565b9081526020016040518091039020600001805480602002602001604051908101604052809291908181526020016000905b82821015610c1d57838290600052602060002090600502016040518060a0016040529081600082018054610a5490614e6f565b80601f0160208091040260200160405190810160405280929190818152602001828054610a8090614e6f565b8015610acd5780601f10610aa257610100808354040283529160200191610acd565b820191906000526020600020905b815481529060010190602001808311610ab057829003601f168201915b5050505050815260200160018201548152602001600282018054610af090614e6f565b80601f0160208091040260200160405190810160405280929190818152602001828054610b1c90614e6f565b8015610b695780601f10610b3e57610100808354040283529160200191610b69565b820191906000526020600020905b815481529060010190602001808311610b4c57829003601f168201915b50505050508152602001600382018054610b8290614e6f565b80601f0160208091040260200160405190810160405280929190818152602001828054610bae90614e6f565b8015610bfb5780601f10610bd057610100808354040283529160200191610bfb565b820191906000526020600020905b815481529060010190602001808311610bde57829003601f168201915b5050505050815260200160048201548152505081526020019060010190610a21565b505050509050919050565b6060600082604051610c3a9190614e29565b9081526020016040518091039020600001805480602002602001604051908101604052809291908181526020016000905b82821015610dd55783829060005260206000209060040201604051806080016040529081600082018054610c9e90614e6f565b80601f0160208091040260200160405190810160405280929190818152602001828054610cca90614e6f565b8015610d175780601f10610cec57610100808354040283529160200191610d17565b820191906000526020600020905b815481529060010190602001808311610cfa57829003601f168201915b50505050508152602001600182018054610d3090614e6f565b80601f0160208091040260200160405190810160405280929190818152602001828054610d5c90614e6f565b8015610da95780601f10610d7e57610100808354040283529160200191610da9565b820191906000526020600020905b815481529060010190602001808311610d8c57829003601f168201915b505050505081526020016002820154815260200160038201548152505081526020019060010190610c6b565b505050509050919050565b606080600080600685604051610df69190614e29565b9081526020016040518091039020905080600001816001018260020154828054610e1f90614e6f565b80601f0160208091040260200160405190810160405280929190818152602001828054610e4b90614e6f565b8015610e985780601f10610e6d57610100808354040283529160200191610e98565b820191906000526020600020905b815481529060010190602001808311610e7b57829003601f168201915b50505050509250818054610eab90614e6f565b80601f0160208091040260200160405190810160405280929190818152602001828054610ed790614e6f565b8015610f245780601f10610ef957610100808354040283529160200191610f24565b820191906000526020600020905b815481529060010190602001808311610f0757829003601f168201915b50505050509150935093509350509193909250565b6060600582604051610f4b9190614e29565b90815260200160405180910390206001018054610f6790614e6f565b80601f0160208091040260200160405190810160405280929190818152602001828054610f9390614e6f565b8015610fe05780601f10610fb557610100808354040283529160200191610fe0565b820191906000526020600020905b815481529060010190602001808311610fc357829003601f168201915b50505050509050919050565b85518751148015610ffe575084518651145b801561100b575083518551145b8015611018575082518451145b8015611025575081518351145b611064576040517f08c379a000000000000000000000000000000000000000000000000000000000815260040161105b906157e9565b60405180910390fd5b60005b87518110156112165760006040518060c001604052808a84815181106110905761108f615809565b5b602002602001015181526020018984815181106110b0576110af615809565b5b602002602001015181526020018884815181106110d0576110cf615809565b5b602002602001015181526020018784815181106110f0576110ef615809565b5b602002602001015181526020018684815181106111105761110f615809565b5b602002602001015181526020018584815181106111305761112f615809565b5b6020026020010151815250905060038a60405161114d9190614e29565b9081526020016040518091039020600001819080600181540180825580915050600190039060005260206000209060060201600090919091909150600082015181600001908161119d919061504c565b5060208201518160010190816111b3919061504c565b506040820151816002015560608201518160030190816111d3919061504c565b5060808201518160040190816111e9919061504c565b5060a08201518160050190816111ff919061504c565b50505050808061120e90615867565b915050611067565b50806003896040516112289190614e29565b90815260200160405180910390206001019081611245919061504c565b50876040516112549190614e29565b60405180910390207f631949410f916403288729dc6612564d8010e74289fbb57d82a64f3494ac3bbe60038a60405161128d9190614e29565b9081526020016040518091039020600001836040516112ad929190615a11565b60405180910390a25050505050505050565b60606004826040516112d19190614e29565b9081526020016040518091039020600001805480602002602001604051908101604052809291908181526020016000905b8282101561149b57838290600052602060002090600702016040518060e001604052908160008201805461133590614e6f565b80601f016020809104026020016040519081016040528092919081815260200182805461136190614e6f565b80156113ae5780601f10611383576101008083540402835291602001916113ae565b820191906000526020600020905b81548152906001019060200180831161139157829003601f168201915b5050505050815260200160018201548152602001600282015481526020016003820180546113db90614e6f565b80601f016020809104026020016040519081016040528092919081815260200182805461140790614e6f565b80156114545780601f1061142957610100808354040283529160200191611454565b820191906000526020600020905b81548152906001019060200180831161143757829003601f168201915b505050505081526020016004820160009054906101000a900460ff161515151581526020016005820154815260200160068201548152505081526020019060010190611302565b505050509050919050565b60606003826040516114b89190614e29565b9081526020016040518091039020600001805480602002602001604051908101604052809291908181526020016000905b828210156117ff57838290600052602060002090600602016040518060c001604052908160008201805461151c90614e6f565b80601f016020809104026020016040519081016040528092919081815260200182805461154890614e6f565b80156115955780601f1061156a57610100808354040283529160200191611595565b820191906000526020600020905b81548152906001019060200180831161157857829003601f168201915b505050505081526020016001820180546115ae90614e6f565b80601f01602080910402602001604051908101604052809291908181526020018280546115da90614e6f565b80156116275780601f106115fc57610100808354040283529160200191611627565b820191906000526020600020905b81548152906001019060200180831161160a57829003601f168201915b505050505081526020016002820154815260200160038201805461164a90614e6f565b80601f016020809104026020016040519081016040528092919081815260200182805461167690614e6f565b80156116c35780601f10611698576101008083540402835291602001916116c3565b820191906000526020600020905b8154815290600101906020018083116116a657829003601f168201915b505050505081526020016004820180546116dc90614e6f565b80601f016020809104026020016040519081016040528092919081815260200182805461170890614e6f565b80156117555780601f1061172a57610100808354040283529160200191611755565b820191906000526020600020905b81548152906001019060200180831161173857829003601f168201915b5050505050815260200160058201805461176e90614e6f565b80601f016020809104026020016040519081016040528092919081815260200182805461179a90614e6f565b80156117e75780601f106117bc576101008083540402835291602001916117e7565b820191906000526020600020905b8154815290600101906020018083116117ca57829003601f168201915b505050505081525050815260200190600101906114e9565b505050509050919050565b606060028260405161181c9190614e29565b9081526020016040518091039020600001805480602002602001604051908101604052809291908181526020016000905b82821015611c8857838290600052602060002090600802016040518061010001604052908160008201805461188190614e6f565b80601f01602080910402602001604051908101604052809291908181526020018280546118ad90614e6f565b80156118fa5780601f106118cf576101008083540402835291602001916118fa565b820191906000526020600020905b8154815290600101906020018083116118dd57829003601f168201915b5050505050815260200160018201805461191390614e6f565b80601f016020809104026020016040519081016040528092919081815260200182805461193f90614e6f565b801561198c5780601f106119615761010080835404028352916020019161198c565b820191906000526020600020905b81548152906001019060200180831161196f57829003601f168201915b505050505081526020016002820180546119a590614e6f565b80601f01602080910402602001604051908101604052809291908181526020018280546119d190614e6f565b8015611a1e5780601f106119f357610100808354040283529160200191611a1e565b820191906000526020600020905b815481529060010190602001808311611a0157829003601f168201915b50505050508152602001600382018054611a3790614e6f565b80601f0160208091040260200160405190810160405280929190818152602001828054611a6390614e6f565b8015611ab05780601f10611a8557610100808354040283529160200191611ab0565b820191906000526020600020905b815481529060010190602001808311611a9357829003601f168201915b50505050508152602001600482018054611ac990614e6f565b80601f0160208091040260200160405190810160405280929190818152602001828054611af590614e6f565b8015611b425780601f10611b1757610100808354040283529160200191611b42565b820191906000526020600020905b815481529060010190602001808311611b2557829003601f168201915b5050505050815260200160058201548152602001600682018054611b6590614e6f565b80601f0160208091040260200160405190810160405280929190818152602001828054611b9190614e6f565b8015611bde5780601f10611bb357610100808354040283529160200191611bde565b820191906000526020600020905b815481529060010190602001808311611bc157829003601f168201915b50505050508152602001600782018054611bf790614e6f565b80601f0160208091040260200160405190810160405280929190818152602001828054611c2390614e6f565b8015611c705780601f10611c4557610100808354040283529160200191611c70565b820191906000526020600020905b815481529060010190602001808311611c5357829003601f168201915b5050505050815250508152602001906001019061184d565b505050509050919050565b6060600582604051611ca59190614e29565b9081526020016040518091039020600001805480602002602001604051908101604052809291908181526020016000905b8282101561211b578382906000526020600020906009020160405180610120016040529081600082018054611d0a90614e6f565b80601f0160208091040260200160405190810160405280929190818152602001828054611d3690614e6f565b8015611d835780601f10611d5857610100808354040283529160200191611d83565b820191906000526020600020905b815481529060010190602001808311611d6657829003601f168201915b50505050508152602001600182018054611d9c90614e6f565b80601f0160208091040260200160405190810160405280929190818152602001828054611dc890614e6f565b8015611e155780601f10611dea57610100808354040283529160200191611e15565b820191906000526020600020905b815481529060010190602001808311611df857829003601f168201915b50505050508152602001600282018054611e2e90614e6f565b80601f0160208091040260200160405190810160405280929190818152602001828054611e5a90614e6f565b8015611ea75780601f10611e7c57610100808354040283529160200191611ea7565b820191906000526020600020905b815481529060010190602001808311611e8a57829003601f168201915b50505050508152602001600382018054611ec090614e6f565b80601f0160208091040260200160405190810160405280929190818152602001828054611eec90614e6f565b8015611f395780601f10611f0e57610100808354040283529160200191611f39565b820191906000526020600020905b815481529060010190602001808311611f1c57829003601f168201915b505050505081526020016004820154815260200160058201548152602001600682018054611f6690614e6f565b80601f0160208091040260200160405190810160405280929190818152602001828054611f9290614e6f565b8015611fdf5780601f10611fb457610100808354040283529160200191611fdf565b820191906000526020600020905b815481529060010190602001808311611fc257829003601f168201915b50505050508152602001600782018054611ff890614e6f565b80601f016020809104026020016040519081016040528092919081815260200182805461202490614e6f565b80156120715780601f1061204657610100808354040283529160200191612071565b820191906000526020600020905b81548152906001019060200180831161205457829003601f168201915b5050505050815260200160088201805461208a90614e6f565b80601f01602080910402602001604051908101604052809291908181526020018280546120b690614e6f565b80156121035780601f106120d857610100808354040283529160200191612103565b820191906000526020600020905b8154815290600101906020018083116120e657829003601f168201915b50505050508152505081526020019060010190611cd6565b505050509050919050565b60006001836040516121389190614e29565b9081526020016040518091039020905081816001019081612159919061504c565b50826040516121689190614e29565b60405180910390207f7b1ac6b8cbddaca0fca5e3db838619d5943ce7fec69918b95811c7a43ddfa4fc82600001846040516121a4929190615b96565b60405180910390a2505050565b60606004826040516121c39190614e29565b908152602001604051809103902060010180546121df90614e6f565b80601f016020809104026020016040519081016040528092919081815260200182805461220b90614e6f565b80156122585780601f1061222d57610100808354040283529160200191612258565b820191906000526020600020905b81548152906001019060200180831161223b57829003601f168201915b50505050509050919050565b83518551148015612276575082518451145b8015612283575081518351145b6122c2576040517f08c379a00000000000000000000000000000000000000000000000000000000081526004016122b9906157e9565b60405180910390fd5b60005b85518110156123fc57600060405180608001604052808884815181106122ee576122ed615809565b5b6020026020010151815260200187848151811061230e5761230d615809565b5b6020026020010151815260200186848151811061232e5761232d615809565b5b6020026020010151815260200185848151811061234e5761234d615809565b5b6020026020010151815250905060008860405161236b9190614e29565b908152602001604051809103902060000181908060018154018082558091505060019003906000526020600020906004020160009091909190915060008201518160000190816123bb919061504c565b5060208201518160010190816123d1919061504c565b50604082015181600201556060820151816003015550505080806123f490615867565b9150506122c5565b508060008760405161240e9190614e29565b9081526020016040518091039020600101908161242b919061504c565b508560405161243a9190614e29565b60405180910390207fe1d458654f5707c5b4f344ea06155edfde34c4ca973c5e3647fa8b32f2b31db46000886040516124739190614e29565b908152602001604051809103902060000183604051612493929190615d02565b60405180910390a2505050505050565b60006040518060600160405280836000015181526020018360200151815260200183604001518152509050806006846040516124df9190614e29565b90815260200160405180910390206000820151816000019081612502919061504c565b506020820151816001019081612518919061504c565b5060408201518160020155905050826040516125349190614e29565b60405180910390207f4f24336055d992bf20f44d53f6f7e8909075915f2bc6830d7a7963652fcbf72983600001518460200151856040015160405161257b939291906138f4565b60405180910390a2505050565b8451865114801561259a575083518551145b80156125a7575082518451145b80156125b4575081518351145b6125f3576040517f08c379a00000000000000000000000000000000000000000000000000000000081526004016125ea906157e9565b60405180910390fd5b60005b86518110156127635760006040518060a0016040528089848151811061261f5761261e615809565b5b6020026020010151815260200188848151811061263f5761263e615809565b5b6020026020010151815260200187848151811061265f5761265e615809565b5b6020026020010151815260200186848151811061267f5761267e615809565b5b6020026020010151815260200185848151811061269f5761269e615809565b5b602002602001015181525090506001896040516126bc9190614e29565b9081526020016040518091039020600001819080600181540180825580915050600190039060005260206000209060050201600090919091909150600082015181600001908161270c919061504c565b5060208201518160010155604082015181600201908161272c919061504c565b506060820151816003019081612742919061504c565b5060808201518160040155505050808061275b90615867565b9150506125f6565b50806001886040516127759190614e29565b90815260200160405180910390206001019081612792919061504c565b50866040516127a19190614e29565b60405180910390207f7b1ac6b8cbddaca0fca5e3db838619d5943ce7fec69918b95811c7a43ddfa4fc6001896040516127da9190614e29565b9081526020016040518091039020600001836040516127fa929190615b96565b60405180910390a250505050505050565b8751895114801561281d575086518851145b801561282a575085518751145b8015612837575084518651145b8015612844575083518551145b8015612851575082518451145b801561285e575081518351145b61289d576040517f08c379a0000000000000000000000000000000000000000000000000000000008152600401612894906157e9565b60405180910390fd5b60005b8951811015612abc5760006040518061010001604052808c84815181106128ca576128c9615809565b5b602002602001015181526020018b84815181106128ea576128e9615809565b5b602002602001015181526020018a848151811061290a57612909615809565b5b6020026020010151815260200189848151811061292a57612929615809565b5b6020026020010151815260200188848151811061294a57612949615809565b5b6020026020010151815260200187848151811061296a57612969615809565b5b6020026020010151815260200186848151811061298a57612989615809565b5b602002602001015181526020018584815181106129aa576129a9615809565b5b6020026020010151815250905060028c6040516129c79190614e29565b90815260200160405180910390206000018190806001815401808255809150506001900390600052602060002090600802016000909190919091506000820151816000019081612a17919061504c565b506020820151816001019081612a2d919061504c565b506040820151816002019081612a43919061504c565b506060820151816003019081612a59919061504c565b506080820151816004019081612a6f919061504c565b5060a0820151816005015560c0820151816006019081612a8f919061504c565b5060e0820151816007019081612aa5919061504c565b505050508080612ab490615867565b9150506128a0565b508060028b604051612ace9190614e29565b90815260200160405180910390206001019081612aeb919061504c565b5089604051612afa9190614e29565b60405180910390207f5f60f857012493da3c65fcf0df4c087fbd203856172f2658031a4305573ea12f60028c604051612b339190614e29565b908152602001604051809103902060000183604051612b53929190615740565b60405180910390a250505050505050505050565b88518a51148015612b79575087518951145b8015612b86575086518851145b8015612b93575085518751145b8015612ba0575084518651145b8015612bad575083518551145b8015612bba575082518451145b8015612bc7575081518351145b612c06576040517f08c379a0000000000000000000000000000000000000000000000000000000008152600401612bfd906157e9565b60405180910390fd5b60005b8a51811015612e505760006040518061012001604052808d8481518110612c3357612c32615809565b5b602002602001015181526020018c8481518110612c5357612c52615809565b5b602002602001015181526020018b8481518110612c7357612c72615809565b5b602002602001015181526020018a8481518110612c9357612c92615809565b5b60200260200101518152602001898481518110612cb357612cb2615809565b5b60200260200101518152602001888481518110612cd357612cd2615809565b5b60200260200101518152602001878481518110612cf357612cf2615809565b5b60200260200101518152602001868481518110612d1357612d12615809565b5b60200260200101518152602001858481518110612d3357612d32615809565b5b6020026020010151815250905060058d604051612d509190614e29565b90815260200160405180910390206000018190806001815401808255809150506001900390600052602060002090600902016000909190919091506000820151816000019081612da0919061504c565b506020820151816001019081612db6919061504c565b506040820151816002019081612dcc919061504c565b506060820151816003019081612de2919061504c565b506080820151816004015560a0820151816005015560c0820151816006019081612e0c919061504c565b5060e0820151816007019081612e22919061504c565b50610100820151816008019081612e39919061504c565b505050508080612e4890615867565b915050612c09565b508060058c604051612e629190614e29565b90815260200160405180910390206001019081612e7f919061504c565b508a604051612e8e9190614e29565b60405180910390207f92da1c0c41885cd731ee47ddb889c6c199af24ced267393a5d079444f581f51660058d604051612ec79190614e29565b908152602001604051809103902060000183604051612ee7929190615387565b60405180910390a25050505050505050505050565b60008083604051612f0d9190614e29565b9081526020016040518091039020905081816001019081612f2e919061504c565b5082604051612f3d9190614e29565b60405180910390207fe1d458654f5707c5b4f344ea06155edfde34c4ca973c5e3647fa8b32f2b31db48260000184604051612f79929190615d02565b60405180910390a2505050565b6000600383604051612f989190614e29565b9081526020016040518091039020905081816001019081612fb9919061504c565b5082604051612fc89190614e29565b60405180910390207f631949410f916403288729dc6612564d8010e74289fbb57d82a64f3494ac3bbe8260000184604051613004929190615a11565b60405180910390a2505050565b86518851148015613023575085518751145b8015613030575084518651145b801561303d575083518551145b801561304a575082518451145b8015613057575081518351145b613096576040517f08c379a000000000000000000000000000000000000000000000000000000000815260040161308d906157e9565b60405180910390fd5b60005b88518110156132665760006040518060e001604052808b84815181106130c2576130c1615809565b5b602002602001015181526020018a84815181106130e2576130e1615809565b5b6020026020010151815260200189848151811061310257613101615809565b5b6020026020010151815260200188848151811061312257613121615809565b5b6020026020010151815260200187848151811061314257613141615809565b5b60200260200101511515815260200186848151811061316457613163615809565b5b6020026020010151815260200185848151811061318457613183615809565b5b6020026020010151815250905060048b6040516131a19190614e29565b908152602001604051809103902060000181908060018154018082558091505060019003906000526020600020906007020160009091909190915060008201518160000190816131f1919061504c565b506020820151816001015560408201518160020155606082015181600301908161321b919061504c565b5060808201518160040160006101000a81548160ff02191690831515021790555060a0820151816005015560c08201518160060155505050808061325e90615867565b915050613099565b508060048a6040516132789190614e29565b90815260200160405180910390206001019081613295919061504c565b50886040516132a49190614e29565b60405180910390207f145d21640bca172e24e08c3c82ee35d24c5ff1db94ca48bf9a18240cbbdf196960048b6040516132dd9190614e29565b9081526020016040518091039020600001836040516132fd929190615574565b60405180910390a2505050505050505050565b6000604051905090565b600080fd5b600080fd5b600080fd5b600080fd5b6000601f19601f8301169050919050565b7f4e487b7100000000000000000000000000000000000000000000000000000000600052604160045260246000fd5b6133778261332e565b810181811067ffffffffffffffff821117156133965761339561333f565b5b80604052505050565b60006133a9613310565b90506133b5828261336e565b919050565b600067ffffffffffffffff8211156133d5576133d461333f565b5b6133de8261332e565b9050602081019050919050565b82818337600083830152505050565b600061340d613408846133ba565b61339f565b90508281526020810184848401111561342957613428613329565b5b6134348482856133eb565b509392505050565b600082601f83011261345157613450613324565b5b81356134618482602086016133fa565b91505092915050565b6000602082840312156134805761347f61331a565b5b600082013567ffffffffffffffff81111561349e5761349d61331f565b5b6134aa8482850161343c565b91505092915050565b600081519050919050565b600082825260208201905092915050565b60005b838110156134ed5780820151818401526020810190506134d2565b60008484015250505050565b6000613504826134b3565b61350e81856134be565b935061351e8185602086016134cf565b6135278161332e565b840191505092915050565b6000602082019050818103600083015261354c81846134f9565b905092915050565b6000806040838503121561356b5761356a61331a565b5b600083013567ffffffffffffffff8111156135895761358861331f565b5b6135958582860161343c565b925050602083013567ffffffffffffffff8111156135b6576135b561331f565b5b6135c28582860161343c565b9150509250929050565b600081519050919050565b600082825260208201905092915050565b6000819050602082019050919050565b600082825260208201905092915050565b6000613614826134b3565b61361e81856135f8565b935061362e8185602086016134cf565b6136378161332e565b840191505092915050565b6000819050919050565b61365581613642565b82525050565b600060a08301600083015184820360008601526136788282613609565b915050602083015161368d602086018261364c565b50604083015184820360408601526136a58282613609565b915050606083015184820360608601526136bf8282613609565b91505060808301516136d4608086018261364c565b508091505092915050565b60006136eb838361365b565b905092915050565b6000602082019050919050565b600061370b826135cc565b61371581856135d7565b935083602082028501613727856135e8565b8060005b85811015613763578484038952815161374485826136df565b945061374f836136f3565b925060208a0199505060018101905061372b565b50829750879550505050505092915050565b6000602082019050818103600083015261378f8184613700565b905092915050565b600081519050919050565b600082825260208201905092915050565b6000819050602082019050919050565b600060808301600083015184820360008601526137e08282613609565b915050602083015184820360208601526137fa8282613609565b915050604083015161380f604086018261364c565b506060830151613822606086018261364c565b508091505092915050565b600061383983836137c3565b905092915050565b6000602082019050919050565b600061385982613797565b61386381856137a2565b935083602082028501613875856137b3565b8060005b858110156138b15784840389528151613892858261382d565b945061389d83613841565b925060208a01995050600181019050613879565b50829750879550505050505092915050565b600060208201905081810360008301526138dd818461384e565b905092915050565b6138ee81613642565b82525050565b6000606082019050818103600083015261390e81866134f9565b9050818103602083015261392281856134f9565b905061393160408301846138e5565b949350505050565b600067ffffffffffffffff8211156139545761395361333f565b5b602082029050602081019050919050565b600080fd5b600061397d61397884613939565b61339f565b905080838252602082019050602084028301858111156139a05761399f613965565b5b835b818110156139e757803567ffffffffffffffff8111156139c5576139c4613324565b5b8086016139d2898261343c565b855260208501945050506020810190506139a2565b5050509392505050565b600082601f830112613a0657613a05613324565b5b8135613a1684826020860161396a565b91505092915050565b600067ffffffffffffffff821115613a3a57613a3961333f565b5b602082029050602081019050919050565b613a5481613642565b8114613a5f57600080fd5b50565b600081359050613a7181613a4b565b92915050565b6000613a8a613a8584613a1f565b61339f565b90508083825260208201905060208402830185811115613aad57613aac613965565b5b835b81811015613ad65780613ac28882613a62565b845260208401935050602081019050613aaf565b5050509392505050565b600082601f830112613af557613af4613324565b5b8135613b05848260208601613a77565b91505092915050565b600080600080600080600080610100898b031215613b2f57613b2e61331a565b5b600089013567ffffffffffffffff811115613b4d57613b4c61331f565b5b613b598b828c0161343c565b985050602089013567ffffffffffffffff811115613b7a57613b7961331f565b5b613b868b828c016139f1565b975050604089013567ffffffffffffffff811115613ba757613ba661331f565b5b613bb38b828c016139f1565b965050606089013567ffffffffffffffff811115613bd457613bd361331f565b5b613be08b828c01613ae0565b955050608089013567ffffffffffffffff811115613c0157613c0061331f565b5b613c0d8b828c016139f1565b94505060a089013567ffffffffffffffff811115613c2e57613c2d61331f565b5b613c3a8b828c016139f1565b93505060c089013567ffffffffffffffff811115613c5b57613c5a61331f565b5b613c678b828c016139f1565b92505060e089013567ffffffffffffffff811115613c8857613c8761331f565b5b613c948b828c0161343c565b9150509295985092959890939650565b600081519050919050565b600082825260208201905092915050565b6000819050602082019050919050565b60008115159050919050565b613ce581613cd0565b82525050565b600060e0830160008301518482036000860152613d088282613609565b9150506020830151613d1d602086018261364c565b506040830151613d30604086018261364c565b5060608301518482036060860152613d488282613609565b9150506080830151613d5d6080860182613cdc565b5060a0830151613d7060a086018261364c565b5060c0830151613d8360c086018261364c565b508091505092915050565b6000613d9a8383613ceb565b905092915050565b6000602082019050919050565b6000613dba82613ca4565b613dc48185613caf565b935083602082028501613dd685613cc0565b8060005b85811015613e125784840389528151613df38582613d8e565b9450613dfe83613da2565b925060208a01995050600181019050613dda565b50829750879550505050505092915050565b60006020820190508181036000830152613e3e8184613daf565b905092915050565b600081519050919050565b600082825260208201905092915050565b6000819050602082019050919050565b600060c0830160008301518482036000860152613e8f8282613609565b91505060208301518482036020860152613ea98282613609565b9150506040830151613ebe604086018261364c565b5060608301518482036060860152613ed68282613609565b91505060808301518482036080860152613ef08282613609565b91505060a083015184820360a0860152613f0a8282613609565b9150508091505092915050565b6000613f238383613e72565b905092915050565b6000602082019050919050565b6000613f4382613e46565b613f4d8185613e51565b935083602082028501613f5f85613e62565b8060005b85811015613f9b5784840389528151613f7c8582613f17565b9450613f8783613f2b565b925060208a01995050600181019050613f63565b50829750879550505050505092915050565b60006020820190508181036000830152613fc78184613f38565b905092915050565b600081519050919050565b600082825260208201905092915050565b6000819050602082019050919050565b60006101008301600083015184820360008601526140198282613609565b915050602083015184820360208601526140338282613609565b9150506040830151848203604086015261404d8282613609565b915050606083015184820360608601526140678282613609565b915050608083015184820360808601526140818282613609565b91505060a083015161409660a086018261364c565b5060c083015184820360c08601526140ae8282613609565b91505060e083015184820360e08601526140c88282613609565b9150508091505092915050565b60006140e18383613ffb565b905092915050565b6000602082019050919050565b600061410182613fcf565b61410b8185613fda565b93508360208202850161411d85613feb565b8060005b85811015614159578484038952815161413a85826140d5565b9450614145836140e9565b925060208a01995050600181019050614121565b50829750879550505050505092915050565b6000602082019050818103600083015261418581846140f6565b905092915050565b600081519050919050565b600082825260208201905092915050565b6000819050602082019050919050565b60006101208301600083015184820360008601526141d78282613609565b915050602083015184820360208601526141f18282613609565b9150506040830151848203604086015261420b8282613609565b915050606083015184820360608601526142258282613609565b915050608083015161423a608086018261364c565b5060a083015161424d60a086018261364c565b5060c083015184820360c08601526142658282613609565b91505060e083015184820360e086015261427f8282613609565b91505061010083015184820361010086015261429b8282613609565b9150508091505092915050565b60006142b483836141b9565b905092915050565b6000602082019050919050565b60006142d48261418d565b6142de8185614198565b9350836020820285016142f0856141a9565b8060005b8581101561432c578484038952815161430d85826142a8565b9450614318836142bc565b925060208a019950506001810190506142f4565b50829750879550505050505092915050565b6000602082019050818103600083015261435881846142c9565b905092915050565b60008060008060008060c0878903121561437d5761437c61331a565b5b600087013567ffffffffffffffff81111561439b5761439a61331f565b5b6143a789828a0161343c565b965050602087013567ffffffffffffffff8111156143c8576143c761331f565b5b6143d489828a016139f1565b955050604087013567ffffffffffffffff8111156143f5576143f461331f565b5b61440189828a016139f1565b945050606087013567ffffffffffffffff8111156144225761442161331f565b5b61442e89828a01613ae0565b935050608087013567ffffffffffffffff81111561444f5761444e61331f565b5b61445b89828a01613ae0565b92505060a087013567ffffffffffffffff81111561447c5761447b61331f565b5b61448889828a0161343c565b9150509295509295509295565b600080fd5b600080fd5b6000606082840312156144b5576144b4614495565b5b6144bf606061339f565b9050600082013567ffffffffffffffff8111156144df576144de61449a565b5b6144eb8482850161343c565b600083015250602082013567ffffffffffffffff81111561450f5761450e61449a565b5b61451b8482850161343c565b602083015250604061452f84828501613a62565b60408301525092915050565b600080604083850312156145525761455161331a565b5b600083013567ffffffffffffffff8111156145705761456f61331f565b5b61457c8582860161343c565b925050602083013567ffffffffffffffff81111561459d5761459c61331f565b5b6145a98582860161449f565b9150509250929050565b600080600080600080600060e0888a0312156145d2576145d161331a565b5b600088013567ffffffffffffffff8111156145f0576145ef61331f565b5b6145fc8a828b0161343c565b975050602088013567ffffffffffffffff81111561461d5761461c61331f565b5b6146298a828b016139f1565b965050604088013567ffffffffffffffff81111561464a5761464961331f565b5b6146568a828b01613ae0565b955050606088013567ffffffffffffffff8111156146775761467661331f565b5b6146838a828b016139f1565b945050608088013567ffffffffffffffff8111156146a4576146a361331f565b5b6146b08a828b016139f1565b93505060a088013567ffffffffffffffff8111156146d1576146d061331f565b5b6146dd8a828b01613ae0565b92505060c088013567ffffffffffffffff8111156146fe576146fd61331f565b5b61470a8a828b0161343c565b91505092959891949750929550565b6000806000806000806000806000806101408b8d03121561473d5761473c61331a565b5b60008b013567ffffffffffffffff81111561475b5761475a61331f565b5b6147678d828e0161343c565b9a505060208b013567ffffffffffffffff8111156147885761478761331f565b5b6147948d828e016139f1565b99505060408b013567ffffffffffffffff8111156147b5576147b461331f565b5b6147c18d828e016139f1565b98505060608b013567ffffffffffffffff8111156147e2576147e161331f565b5b6147ee8d828e016139f1565b97505060808b013567ffffffffffffffff81111561480f5761480e61331f565b5b61481b8d828e016139f1565b96505060a08b013567ffffffffffffffff81111561483c5761483b61331f565b5b6148488d828e016139f1565b95505060c08b013567ffffffffffffffff8111156148695761486861331f565b5b6148758d828e01613ae0565b94505060e08b013567ffffffffffffffff8111156148965761489561331f565b5b6148a28d828e016139f1565b9350506101008b013567ffffffffffffffff8111156148c4576148c361331f565b5b6148d08d828e016139f1565b9250506101208b013567ffffffffffffffff8111156148f2576148f161331f565b5b6148fe8d828e0161343c565b9150509295989b9194979a5092959850565b60008060008060008060008060008060006101608c8e0312156149365761493561331a565b5b60008c013567ffffffffffffffff8111156149545761495361331f565b5b6149608e828f0161343c565b9b505060208c013567ffffffffffffffff8111156149815761498061331f565b5b61498d8e828f016139f1565b9a505060408c013567ffffffffffffffff8111156149ae576149ad61331f565b5b6149ba8e828f016139f1565b99505060608c013567ffffffffffffffff8111156149db576149da61331f565b5b6149e78e828f016139f1565b98505060808c013567ffffffffffffffff811115614a0857614a0761331f565b5b614a148e828f016139f1565b97505060a08c013567ffffffffffffffff811115614a3557614a3461331f565b5b614a418e828f01613ae0565b96505060c08c013567ffffffffffffffff811115614a6257614a6161331f565b5b614a6e8e828f01613ae0565b95505060e08c013567ffffffffffffffff811115614a8f57614a8e61331f565b5b614a9b8e828f016139f1565b9450506101008c013567ffffffffffffffff811115614abd57614abc61331f565b5b614ac98e828f016139f1565b9350506101208c013567ffffffffffffffff811115614aeb57614aea61331f565b5b614af78e828f016139f1565b9250506101408c013567ffffffffffffffff811115614b1957614b1861331f565b5b614b258e828f0161343c565b9150509295989b509295989b9093969950565b600067ffffffffffffffff821115614b5357614b5261333f565b5b602082029050602081019050919050565b614b6d81613cd0565b8114614b7857600080fd5b50565b600081359050614b8a81614b64565b92915050565b6000614ba3614b9e84614b38565b61339f565b90508083825260208201905060208402830185811115614bc657614bc5613965565b5b835b81811015614bef5780614bdb8882614b7b565b845260208401935050602081019050614bc8565b5050509392505050565b600082601f830112614c0e57614c0d613324565b5b8135614c1e848260208601614b90565b91505092915050565b60008060008060008060008060006101208a8c031215614c4a57614c4961331a565b5b60008a013567ffffffffffffffff811115614c6857614c6761331f565b5b614c748c828d0161343c565b99505060208a013567ffffffffffffffff811115614c9557614c9461331f565b5b614ca18c828d016139f1565b98505060408a013567ffffffffffffffff811115614cc257614cc161331f565b5b614cce8c828d01613ae0565b97505060608a013567ffffffffffffffff811115614cef57614cee61331f565b5b614cfb8c828d01613ae0565b96505060808a013567ffffffffffffffff811115614d1c57614d1b61331f565b5b614d288c828d016139f1565b95505060a08a013567ffffffffffffffff811115614d4957614d4861331f565b5b614d558c828d01614bf9565b94505060c08a013567ffffffffffffffff811115614d7657614d7561331f565b5b614d828c828d01613ae0565b93505060e08a013567ffffffffffffffff811115614da357614da261331f565b5b614daf8c828d01613ae0565b9250506101008a013567ffffffffffffffff811115614dd157614dd061331f565b5b614ddd8c828d0161343c565b9150509295985092959850929598565b600081905092915050565b6000614e03826134b3565b614e0d8185614ded565b9350614e1d8185602086016134cf565b80840191505092915050565b6000614e358284614df8565b915081905092915050565b7f4e487b7100000000000000000000000000000000000000000000000000000000600052602260045260246000fd5b60006002820490506001821680614e8757607f821691505b602082108103614e9a57614e99614e40565b5b50919050565b60008190508160005260206000209050919050565b60006020601f8301049050919050565b600082821b905092915050565b600060088302614f027fffffffffffffffffffffffffffffffffffffffffffffffffffffffffffffffff82614ec5565b614f0c8683614ec5565b95508019841693508086168417925050509392505050565b6000819050919050565b6000614f49614f44614f3f84613642565b614f24565b613642565b9050919050565b6000819050919050565b614f6383614f2e565b614f77614f6f82614f50565b848454614ed2565b825550505050565b600090565b614f8c614f7f565b614f97818484614f5a565b505050565b5b81811015614fbb57614fb0600082614f84565b600181019050614f9d565b5050565b601f82111561500057614fd181614ea0565b614fda84614eb5565b81016020851015614fe9578190505b614ffd614ff585614eb5565b830182614f9c565b50505b505050565b600082821c905092915050565b600061502360001984600802615005565b1980831691505092915050565b600061503c8383615012565b9150826002028217905092915050565b615055826134b3565b67ffffffffffffffff81111561506e5761506d61333f565b5b6150788254614e6f565b615083828285614fbf565b600060209050601f8311600181146150b657600084156150a4578287015190505b6150ae8582615030565b865550615116565b601f1984166150c486614ea0565b60005b828110156150ec578489015182556001820191506020850194506020810190506150c7565b868310156151095784890151615105601f891682615012565b8355505b6001600288020188555050505b505050505050565b600081549050919050565b60008190508160005260206000209050919050565b6000815461514b81614e6f565b61515581866135f8565b945060018216600081146151705760018114615186576151b9565b60ff1983168652811515602002860193506151b9565b61518f85614ea0565b60005b838110156151b157815481890152600182019150602081019050615192565b808801955050505b50505092915050565b60008160001c9050919050565b6000819050919050565b60006151ec6151e7836151c2565b6151cf565b9050919050565b6000610120830160008084018583036000870152615211838261513e565b92505060018401858303602087015261522a838261513e565b925050600284018583036040870152615243838261513e565b92505060038401858303606087015261525c838261513e565b9250506004840154905061526f816151d9565b61527c608087018261364c565b506005840154905061528d816151d9565b61529a60a087018261364c565b506006840185830360c08701526152b1838261513e565b9250506007840185830360e08701526152ca838261513e565b925050600884018583036101008701526152e4838261513e565b925050819250505092915050565b60006152fe83836151f3565b905092915050565b6000600982019050919050565b600061531e8261511e565b6153288185614198565b93508360208202850161533a85615129565b8060005b858110156153755784840389528161535685826152f2565b945061536183615306565b925060208a0199505060018101905061533e565b50829750879550505050505092915050565b600060408201905081810360008301526153a18185615313565b905081810360208301526153b581846134f9565b90509392505050565b600081549050919050565b60008190508160005260206000209050919050565b600060ff82169050919050565b60006153fe6153f9836151c2565b6153de565b9050919050565b600060e0830160008084018583036000870152615422838261513e565b92505060018401549050615435816151d9565b615442602087018261364c565b5060028401549050615453816151d9565b615460604087018261364c565b50600384018583036060870152615477838261513e565b9250506004840154905061548a816153eb565b6154976080870182613cdc565b50600584015490506154a8816151d9565b6154b560a087018261364c565b50600684015490506154c6816151d9565b6154d360c087018261364c565b50819250505092915050565b60006154eb8383615405565b905092915050565b6000600782019050919050565b600061550b826153be565b6155158185613caf565b935083602082028501615527856153c9565b8060005b858110156155625784840389528161554385826154df565b945061554e836154f3565b925060208a0199505060018101905061552b565b50829750879550505050505092915050565b6000604082019050818103600083015261558e8185615500565b905081810360208301526155a281846134f9565b90509392505050565b600081549050919050565b60008190508160005260206000209050919050565b60006101008301600080840185830360008701526155e9838261513e565b925050600184018583036020870152615602838261513e565b92505060028401858303604087015261561b838261513e565b925050600384018583036060870152615634838261513e565b92505060048401858303608087015261564d838261513e565b92505060058401549050615660816151d9565b61566d60a087018261364c565b506006840185830360c0870152615684838261513e565b9250506007840185830360e087015261569d838261513e565b925050819250505092915050565b60006156b783836155cb565b905092915050565b6000600882019050919050565b60006156d7826155ab565b6156e18185613fda565b9350836020820285016156f3856155b6565b8060005b8581101561572e5784840389528161570f85826156ab565b945061571a836156bf565b925060208a019950506001810190506156f7565b50829750879550505050505092915050565b6000604082019050818103600083015261575a81856156cc565b9050818103602083015261576e81846134f9565b90509392505050565b7f496e70757420617272617973206d7573742068617665207468652073616d652060008201527f6c656e6774680000000000000000000000000000000000000000000000000000602082015250565b60006157d36026836134be565b91506157de82615777565b604082019050919050565b60006020820190508181036000830152615802816157c6565b9050919050565b7f4e487b7100000000000000000000000000000000000000000000000000000000600052603260045260246000fd5b7f4e487b7100000000000000000000000000000000000000000000000000000000600052601160045260246000fd5b600061587282613642565b91507fffffffffffffffffffffffffffffffffffffffffffffffffffffffffffffffff82036158a4576158a3615838565b5b600182019050919050565b600081549050919050565b60008190508160005260206000209050919050565b600060c08301600080840185830360008701526158ec838261513e565b925050600184018583036020870152615905838261513e565b92505060028401549050615918816151d9565b615925604087018261364c565b5060038401858303606087015261593c838261513e565b925050600484018583036080870152615955838261513e565b9250506005840185830360a087015261596e838261513e565b925050819250505092915050565b600061598883836158cf565b905092915050565b6000600682019050919050565b60006159a8826158af565b6159b28185613e51565b9350836020820285016159c4856158ba565b8060005b858110156159ff578484038952816159e0858261597c565b94506159eb83615990565b925060208a019950506001810190506159c8565b50829750879550505050505092915050565b60006040820190508181036000830152615a2b818561599d565b90508181036020830152615a3f81846134f9565b90509392505050565b600081549050919050565b60008190508160005260206000209050919050565b600060a0830160008084018583036000870152615a85838261513e565b92505060018401549050615a98816151d9565b615aa5602087018261364c565b50600284018583036040870152615abc838261513e565b925050600384018583036060870152615ad5838261513e565b92505060048401549050615ae8816151d9565b615af5608087018261364c565b50819250505092915050565b6000615b0d8383615a68565b905092915050565b6000600582019050919050565b6000615b2d82615a48565b615b3781856135d7565b935083602082028501615b4985615a53565b8060005b85811015615b8457848403895281615b658582615b01565b9450615b7083615b15565b925060208a01995050600181019050615b4d565b50829750879550505050505092915050565b60006040820190508181036000830152615bb08185615b22565b90508181036020830152615bc481846134f9565b90509392505050565b600081549050919050565b60008190508160005260206000209050919050565b60006080830160008084018583036000870152615c0a838261513e565b925050600184018583036020870152615c23838261513e565b92505060028401549050615c36816151d9565b615c43604087018261364c565b5060038401549050615c54816151d9565b615c61606087018261364c565b50819250505092915050565b6000615c798383615bed565b905092915050565b6000600482019050919050565b6000615c9982615bcd565b615ca381856137a2565b935083602082028501615cb585615bd8565b8060005b85811015615cf057848403895281615cd18582615c6d565b9450615cdc83615c81565b925060208a01995050600181019050615cb9565b50829750879550505050505092915050565b60006040820190508181036000830152615d1c8185615c8e565b90508181036020830152615d3081846134f9565b9050939250505056fea26469706673582212201ae0ff4097f0a471b9f4b00e9bf45920492ac4e1f367a2fe3351b82e514ea4ce64736f6c63430008130033",
  "immutableReferences": {},
  "source": "// SPDX-License-Identifier: MIT\npragma solidity ^0.8.0;\n\ncontract UserContract {\n    struct UserData {\n        string email;\n        string name;\n        uint256 age;\n    }\n\n    struct EducationInfo {\n        string schoolName;\n        string degree;\n        uint256 startedYear;\n        uint256 graduationYear;\n    }\n\n    struct BankInfo {\n        string bankName;\n        uint256 accountBalance;\n        string accountNumber;\n        string accountType;\n        uint256 accountOpeningDate;\n    }\n\n    struct HospitalInfo {\n        string hospitalName;\n        string doctorName;\n        string name;\n        string symptoms;\n        string diagnosticMethods;\n        uint256 date;\n        string treatmentOptions;\n        string importantInformation;\n    }\n\n    struct NotaryInfo {\n        string title;\n        string description;\n        uint256 date;\n        string notaryName;\n        string typeOfDocument;\n        string partiesInvolved;\n    }\n\n    struct TaxDebtInfo {\n        string taxpayer;\n        uint256 debtAmount;\n        uint256 expiryDate;\n        string typeOfTax;\n        bool isPaid;\n        uint256 paymentDate;\n        uint256 paymentAmount;\n    }\n\n    struct CriminalRecordInfo {\n        string caseNumber;\n        string court;\n        string prosecutor;\n        string defendant;\n        uint256 incidentDate;\n        uint256 trialDate;\n        string trialOutcome;\n        string evidence;\n        string lawyers;\n    }\n\n    struct UserEducation {\n        EducationInfo[] educationInfos;\n        string ipfsHash;\n    }\n\n    struct UserBank {\n        BankInfo[] bankInfos;\n        string ipfsHash;\n    }\n\n    struct UserHospital {\n        HospitalInfo[] hospitalInfos;\n        string ipfsHash;\n    }\n\n    struct UserNotary {\n        NotaryInfo[] notaryInfos;\n        string ipfsHash;\n    }\n\n    struct UserTaxDebt {\n        TaxDebtInfo[] taxDebtInfos;\n        string ipfsHash;\n    }\n\n    struct UserCriminalRecord {\n        CriminalRecordInfo[] criminalRecordInfos;\n        string ipfsHash;\n    }\n\n    mapping(string => UserEducation) private educationRecords;\n    mapping(string => UserBank) private bankRecords;\n    mapping(string => UserHospital) private hospitalRecords;\n    mapping(string => UserNotary) private notaryRecords;\n    mapping(string => UserTaxDebt) private taxDebtRecords;\n    mapping(string => UserCriminalRecord) private criminalRecordRecords;\n\n    mapping(string => UserData) users;\n\n    event UserUpdated(\n        string indexed userId,\n        string email,\n        string name,\n        uint256 age\n    );\n\n    event UserEducationUpdated(\n        string indexed userId,\n        EducationInfo[] educationInfos,\n        string ipfsHash\n    );\n\n    event UserBankUpdated(\n        string indexed userId,\n        BankInfo[] bankInfos,\n        string ipfsHash\n    );\n\n    event UserHospitalUpdated(\n        string indexed userId,\n        HospitalInfo[] hospitalInfos,\n        string ipfsHash\n    );\n\n    event UserNotaryUpdated(\n        string indexed userId,\n        NotaryInfo[] notaryInfos,\n        string ipfsHash\n    );\n\n    event UserTaxDebtUpdated(\n        string indexed userId,\n        TaxDebtInfo[] taxDebtInfos,\n        string ipfsHash\n    );\n\n    event UserCriminalRecordUpdated(\n        string indexed userId,\n        CriminalRecordInfo[] criminalRecordInfos,\n        string ipfsHash\n    );\n\n    function setUserData(\n        string memory userId,\n        UserData memory userData\n    ) public {\n        UserData memory newUser = UserData(\n            userData.email,\n            userData.name,\n            userData.age\n        );\n        users[userId] = newUser;\n        emit UserUpdated(userId, userData.email, userData.name, userData.age);\n    }\n\n    function getUserData(\n        string memory userId\n    )\n        public\n        view\n        returns (string memory email, string memory name, uint256 age)\n    {\n        UserData storage user = users[userId];\n        return (user.email, user.name, user.age);\n    }\n\n    // function setEducationRecord(\n    //     string memory userId,\n    //     EducationInfo[] memory educationInfos,\n    //     string memory ipfsHash\n    // ) public {\n    //     UserEducation storage userEducation = educationRecords[userId];\n\n    //     userEducation.educationInfos = educationInfos;\n    //     userEducation.ipfsHash = ipfsHash;\n\n    //     // UserEducation memory newUserEducation = UserEducation(\n    //     //     educationInfos,\n    //     //     ipfsHash\n    //     // );\n\n    //     educationRecords[userId] = userEducation;\n    //     emit UserEducationUpdated(userId, educationInfos, ipfsHash);\n    // }\n\n    function setEducationRecord(\n        string memory userId,\n        string[] memory schoolNames,\n        string[] memory degrees,\n        uint256[] memory startedYears,\n        uint256[] memory graduationYears,\n        string memory ipfsHash\n    ) public {\n        require(\n            schoolNames.length == degrees.length &&\n                degrees.length == startedYears.length &&\n                startedYears.length == graduationYears.length,\n            \"Input arrays must have the same length\"\n        );\n\n        for (uint256 i = 0; i < schoolNames.length; i++) {\n            EducationInfo memory newEducation = EducationInfo({\n                schoolName: schoolNames[i],\n                degree: degrees[i],\n                startedYear: startedYears[i],\n                graduationYear: graduationYears[i]\n            });\n\n            educationRecords[userId].educationInfos.push(newEducation);\n        }\n\n        educationRecords[userId].ipfsHash = ipfsHash;\n\n        emit UserEducationUpdated(\n            userId,\n            educationRecords[userId].educationInfos,\n            ipfsHash\n        );\n    }\n\n    function getEducationRecords(\n        string memory userId\n    ) public view returns (EducationInfo[] memory) {\n        return educationRecords[userId].educationInfos;\n    }\n\n    function setEducationIPFSHash(\n        string memory userId,\n        string memory ipfsHash\n    ) public {\n        UserEducation storage userEducation = educationRecords[userId];\n\n        userEducation.ipfsHash = ipfsHash;\n\n        emit UserEducationUpdated(\n            userId,\n            userEducation.educationInfos,\n            ipfsHash\n        );\n    }\n\n    function getEducationIPFSHash(\n        string memory userId\n    ) public view returns (string memory) {\n        return educationRecords[userId].ipfsHash;\n    }\n\n    function setBankRecord(\n        string memory userId,\n        string[] memory bankNames,\n        uint256[] memory accountBalances,\n        string[] memory accountNumbers,\n        string[] memory accountTypes,\n        uint256[] memory accountOpeningDates,\n        string memory ipfsHash\n    ) public {\n        require(\n            bankNames.length == accountBalances.length &&\n                accountBalances.length == accountNumbers.length &&\n                accountNumbers.length == accountTypes.length &&\n                accountTypes.length == accountOpeningDates.length,\n            \"Input arrays must have the same length\"\n        );\n\n        for (uint256 i = 0; i < bankNames.length; i++) {\n            BankInfo memory newBank = BankInfo({\n                bankName: bankNames[i],\n                accountBalance: accountBalances[i],\n                accountNumber: accountNumbers[i],\n                accountType: accountTypes[i],\n                accountOpeningDate: accountOpeningDates[i]\n            });\n\n            bankRecords[userId].bankInfos.push(newBank);\n        }\n\n        bankRecords[userId].ipfsHash = ipfsHash;\n\n        emit UserBankUpdated(userId, bankRecords[userId].bankInfos, ipfsHash);\n    }\n\n    function getBankRecords(\n        string memory userId\n    ) public view returns (BankInfo[] memory) {\n        return bankRecords[userId].bankInfos;\n    }\n\n    function setBankIPFSHash(\n        string memory userId,\n        string memory ipfsHash\n    ) public {\n        UserBank storage userBank = bankRecords[userId];\n\n        userBank.ipfsHash = ipfsHash;\n\n        emit UserBankUpdated(userId, userBank.bankInfos, ipfsHash);\n    }\n\n    function getBankIPFSHash(\n        string memory userId\n    ) public view returns (string memory) {\n        return bankRecords[userId].ipfsHash;\n    }\n\n    function setHospitalRecord(\n        string memory userId,\n        string[] memory hospitalNames,\n        string[] memory doctorNames,\n        string[] memory names,\n        string[] memory symptomss,\n        string[] memory diagnosticMethodss,\n        uint256[] memory dates,\n        string[] memory treatmentOptionss,\n        string[] memory importantInformations,\n        string memory ipfsHash\n    ) public {\n        require(\n            hospitalNames.length == doctorNames.length &&\n                doctorNames.length == names.length &&\n                names.length == symptomss.length &&\n                symptomss.length == diagnosticMethodss.length &&\n                diagnosticMethodss.length == dates.length &&\n                dates.length == treatmentOptionss.length &&\n                treatmentOptionss.length == importantInformations.length,\n            \"Input arrays must have the same length\"\n        );\n\n        for (uint256 i = 0; i < hospitalNames.length; i++) {\n            HospitalInfo memory newHospital = HospitalInfo({\n                hospitalName: hospitalNames[i],\n                doctorName: doctorNames[i],\n                name: names[i],\n                symptoms: symptomss[i],\n                diagnosticMethods: diagnosticMethodss[i],\n                date: dates[i],\n                treatmentOptions: treatmentOptionss[i],\n                importantInformation: importantInformations[i]\n            });\n\n            hospitalRecords[userId].hospitalInfos.push(newHospital);\n        }\n\n        hospitalRecords[userId].ipfsHash = ipfsHash;\n\n        emit UserHospitalUpdated(\n            userId,\n            hospitalRecords[userId].hospitalInfos,\n            ipfsHash\n        );\n    }\n\n    function getHospitalRecords(\n        string memory userId\n    ) public view returns (HospitalInfo[] memory) {\n        return hospitalRecords[userId].hospitalInfos;\n    }\n\n    function setHospitalIPFSHash(\n        string memory userId,\n        string memory ipfsHash\n    ) public {\n        UserHospital storage userHospital = hospitalRecords[userId];\n\n        userHospital.ipfsHash = ipfsHash;\n\n        emit UserHospitalUpdated(userId, userHospital.hospitalInfos, ipfsHash);\n    }\n\n    function getHospitalIPFSHash(\n        string memory userId\n    ) public view returns (string memory) {\n        return hospitalRecords[userId].ipfsHash;\n    }\n\n    function setNotaryRecord(\n        string memory userId,\n        string[] memory titles,\n        string[] memory descriptions,\n        uint256[] memory dates,\n        string[] memory notaryNames,\n        string[] memory typeOfDocuments,\n        string[] memory partiesInvolveds,\n        string memory ipfsHash\n    ) public {\n        require(\n            titles.length == descriptions.length &&\n                descriptions.length == dates.length &&\n                dates.length == notaryNames.length &&\n                notaryNames.length == typeOfDocuments.length &&\n                typeOfDocuments.length == partiesInvolveds.length,\n            \"Input arrays must have the same length\"\n        );\n\n        for (uint256 i = 0; i < titles.length; i++) {\n            NotaryInfo memory newNotary = NotaryInfo({\n                title: titles[i],\n                description: descriptions[i],\n                date: dates[i],\n                notaryName: notaryNames[i],\n                typeOfDocument: typeOfDocuments[i],\n                partiesInvolved: partiesInvolveds[i]\n            });\n\n            notaryRecords[userId].notaryInfos.push(newNotary);\n        }\n\n        notaryRecords[userId].ipfsHash = ipfsHash;\n\n        emit UserNotaryUpdated(\n            userId,\n            notaryRecords[userId].notaryInfos,\n            ipfsHash\n        );\n    }\n\n    function getNotaryRecords(\n        string memory userId\n    ) public view returns (NotaryInfo[] memory) {\n        return notaryRecords[userId].notaryInfos;\n    }\n\n    function setNotaryIPFSHash(\n        string memory userId,\n        string memory ipfsHash\n    ) public {\n        UserNotary storage userNotary = notaryRecords[userId];\n\n        userNotary.ipfsHash = ipfsHash;\n\n        emit UserNotaryUpdated(userId, userNotary.notaryInfos, ipfsHash);\n    }\n\n    function getNotaryIPFSHash(\n        string memory userId\n    ) public view returns (string memory) {\n        return notaryRecords[userId].ipfsHash;\n    }\n\n    function setTaxDebtRecord(\n        string memory userId,\n        string[] memory taxpayers,\n        uint256[] memory debtAmounts,\n        uint256[] memory expiryDates,\n        string[] memory typeOfTaxs,\n        bool[] memory isPaids,\n        uint256[] memory paymentDates,\n        uint256[] memory paymentAmounts,\n        string memory ipfsHash\n    ) public {\n        require(\n            taxpayers.length == debtAmounts.length &&\n                debtAmounts.length == expiryDates.length &&\n                expiryDates.length == typeOfTaxs.length &&\n                typeOfTaxs.length == isPaids.length &&\n                isPaids.length == paymentDates.length &&\n                paymentDates.length == paymentAmounts.length,\n            \"Input arrays must have the same length\"\n        );\n\n        for (uint256 i = 0; i < taxpayers.length; i++) {\n            TaxDebtInfo memory newTaxDebt = TaxDebtInfo({\n                taxpayer: taxpayers[i],\n                debtAmount: debtAmounts[i],\n                expiryDate: expiryDates[i],\n                typeOfTax: typeOfTaxs[i],\n                isPaid: isPaids[i],\n                paymentDate: paymentDates[i],\n                paymentAmount: paymentAmounts[i]\n            });\n\n            taxDebtRecords[userId].taxDebtInfos.push(newTaxDebt);\n        }\n\n        taxDebtRecords[userId].ipfsHash = ipfsHash;\n\n        emit UserTaxDebtUpdated(\n            userId,\n            taxDebtRecords[userId].taxDebtInfos,\n            ipfsHash\n        );\n    }\n\n    function getTaxDebtRecords(\n        string memory userId\n    ) public view returns (TaxDebtInfo[] memory) {\n        return taxDebtRecords[userId].taxDebtInfos;\n    }\n\n    function setTaxDebtIPFSHash(\n        string memory userId,\n        string memory ipfsHash\n    ) public {\n        UserTaxDebt storage userTaxDebt = taxDebtRecords[userId];\n\n        userTaxDebt.ipfsHash = ipfsHash;\n\n        emit UserTaxDebtUpdated(userId, userTaxDebt.taxDebtInfos, ipfsHash);\n    }\n\n    function getTaxDebtIPFSHash(\n        string memory userId\n    ) public view returns (string memory) {\n        return taxDebtRecords[userId].ipfsHash;\n    }\n\n    function setCriminalRecordRecord(\n        string memory userId,\n        string[] memory caseNumbers,\n        string[] memory courts,\n        string[] memory prosecutors,\n        string[] memory defendants,\n        uint256[] memory incidentDates,\n        uint256[] memory trialDates,\n        string[] memory trialOutcomes,\n        string[] memory evidences,\n        string[] memory lawyerss,\n        string memory ipfsHash\n    ) public {\n        require(\n            caseNumbers.length == courts.length &&\n                courts.length == prosecutors.length &&\n                prosecutors.length == defendants.length &&\n                defendants.length == incidentDates.length &&\n                incidentDates.length == trialDates.length &&\n                trialDates.length == trialOutcomes.length &&\n                trialOutcomes.length == evidences.length &&\n                evidences.length == lawyerss.length,\n            \"Input arrays must have the same length\"\n        );\n\n        for (uint256 i = 0; i < caseNumbers.length; i++) {\n            CriminalRecordInfo memory newcriminalRecord = CriminalRecordInfo({\n                caseNumber: caseNumbers[i],\n                court: courts[i],\n                prosecutor: prosecutors[i],\n                defendant: defendants[i],\n                incidentDate: incidentDates[i],\n                trialDate: trialDates[i],\n                trialOutcome: trialOutcomes[i],\n                evidence: evidences[i],\n                lawyers: lawyerss[i]\n            });\n\n            criminalRecordRecords[userId].criminalRecordInfos.push(\n                newcriminalRecord\n            );\n        }\n\n        criminalRecordRecords[userId].ipfsHash = ipfsHash;\n\n        emit UserCriminalRecordUpdated(\n            userId,\n            criminalRecordRecords[userId].criminalRecordInfos,\n            ipfsHash\n        );\n    }\n\n    function getCriminalRecordRecords(\n        string memory userId\n    ) public view returns (CriminalRecordInfo[] memory) {\n        return criminalRecordRecords[userId].criminalRecordInfos;\n    }\n\n    function setCriminalRecordIPFSHash(\n        string memory userId,\n        string memory ipfsHash\n    ) public {\n        UserCriminalRecord storage userCriminalRecord = criminalRecordRecords[\n            userId\n        ];\n\n        userCriminalRecord.ipfsHash = ipfsHash;\n\n        emit UserCriminalRecordUpdated(\n            userId,\n            userCriminalRecord.criminalRecordInfos,\n            ipfsHash\n        );\n    }\n\n    function getCriminalRecordIPFSHash(\n        string memory userId\n    ) public view returns (string memory) {\n        return criminalRecordRecords[userId].ipfsHash;\n    }\n}\n",
  "sourcePath": "/Users/kmlcnclk/Projects/Github/my-devlet/contracts/UserContract.sol",
  "compiler": {
    "name": "solc",
    "version": "0.8.19+commit.7dd6d404.Emscripten.clang"
  },
  "schemaVersion": "3.4.16",
  "updatedAt": "2024-06-02T13:41:13.392Z",
  "devdoc": {
    "kind": "dev",
    "methods": {},
    "version": 1
  },
  "userdoc": {
    "kind": "user",
    "methods": {},
    "version": 1
  }
}