{
  "contractName": "UserContract1",
  "abi": [
    {
      "anonymous": false,
      "inputs": [
        {
          "indexed": true,
          "internalType": "string",
          "name": "userId",
          "type": "string"
        },
        {
          "components": [
            {
              "internalType": "string",
              "name": "name",
              "type": "string"
            },
            {
              "internalType": "string",
              "name": "typeOfAsset",
              "type": "string"
            },
            {
              "internalType": "string",
              "name": "description",
              "type": "string"
            },
            {
              "internalType": "string",
              "name": "location",
              "type": "string"
            },
            {
              "internalType": "uint256",
              "name": "purchaseDate",
              "type": "uint256"
            },
            {
              "internalType": "uint256",
              "name": "purchasePrice",
              "type": "uint256"
            },
            {
              "internalType": "string",
              "name": "previousOwner",
              "type": "string"
            }
          ],
          "indexed": false,
          "internalType": "struct UserContract1.AssetInfo[]",
          "name": "assetInfos",
          "type": "tuple[]"
        },
        {
          "indexed": false,
          "internalType": "string",
          "name": "ipfsHash",
          "type": "string"
        }
      ],
      "name": "UserAssetUpdated",
      "type": "event"
    },
    {
      "anonymous": false,
      "inputs": [
        {
          "indexed": true,
          "internalType": "string",
          "name": "userId",
          "type": "string"
        },
        {
          "components": [
            {
              "internalType": "string",
              "name": "gender",
              "type": "string"
            },
            {
              "internalType": "string",
              "name": "degreeOfRelationship",
              "type": "string"
            },
            {
              "internalType": "string",
              "name": "name",
              "type": "string"
            },
            {
              "internalType": "string",
              "name": "surname",
              "type": "string"
            },
            {
              "internalType": "string",
              "name": "fathersName",
              "type": "string"
            },
            {
              "internalType": "string",
              "name": "mothersName",
              "type": "string"
            },
            {
              "internalType": "uint256",
              "name": "dateOfBirth",
              "type": "uint256"
            },
            {
              "internalType": "string",
              "name": "status",
              "type": "string"
            },
            {
              "internalType": "uint256",
              "name": "dateOfDeath",
              "type": "uint256"
            }
          ],
          "indexed": false,
          "internalType": "struct UserContract1.FamilyTreeInfo[]",
          "name": "familyTreeInfos",
          "type": "tuple[]"
        },
        {
          "indexed": false,
          "internalType": "string",
          "name": "ipfsHash",
          "type": "string"
        }
      ],
      "name": "UserFamilyTreeUpdated",
      "type": "event"
    },
    {
      "anonymous": false,
      "inputs": [
        {
          "indexed": true,
          "internalType": "string",
          "name": "userId",
          "type": "string"
        },
        {
          "components": [
            {
              "internalType": "string",
              "name": "name",
              "type": "string"
            },
            {
              "internalType": "uint256",
              "name": "dateOfBirth",
              "type": "uint256"
            },
            {
              "internalType": "string",
              "name": "stateOfMilitary",
              "type": "string"
            },
            {
              "internalType": "uint256",
              "name": "postponementDate",
              "type": "uint256"
            },
            {
              "internalType": "uint256",
              "name": "dateOfConstruction",
              "type": "uint256"
            }
          ],
          "indexed": false,
          "internalType": "struct UserContract1.MilitaryInfo[]",
          "name": "militrayInfos",
          "type": "tuple[]"
        },
        {
          "indexed": false,
          "internalType": "string",
          "name": "ipfsHash",
          "type": "string"
        }
      ],
      "name": "UserMilitaryUpdated",
      "type": "event"
    },
    {
      "anonymous": false,
      "inputs": [
        {
          "indexed": true,
          "internalType": "string",
          "name": "userId",
          "type": "string"
        },
        {
          "components": [
            {
              "internalType": "string",
              "name": "subscriptionType",
              "type": "string"
            },
            {
              "internalType": "string",
              "name": "companyName",
              "type": "string"
            },
            {
              "internalType": "uint256",
              "name": "subscriptionStartDate",
              "type": "uint256"
            },
            {
              "internalType": "uint256",
              "name": "subscriptionEndDate",
              "type": "uint256"
            },
            {
              "internalType": "string",
              "name": "subscriberName",
              "type": "string"
            },
            {
              "internalType": "string",
              "name": "subscriberSurname",
              "type": "string"
            }
          ],
          "indexed": false,
          "internalType": "struct UserContract1.SubscriptionTransactionInfo[]",
          "name": "subscriptionTransactionInfos",
          "type": "tuple[]"
        },
        {
          "indexed": false,
          "internalType": "string",
          "name": "ipfsHash",
          "type": "string"
        }
      ],
      "name": "UserSubscriptionTransactionUpdated",
      "type": "event"
    },
    {
      "anonymous": false,
      "inputs": [
        {
          "indexed": true,
          "internalType": "string",
          "name": "userId",
          "type": "string"
        },
        {
          "indexed": false,
          "internalType": "string",
          "name": "email",
          "type": "string"
        },
        {
          "indexed": false,
          "internalType": "string",
          "name": "name",
          "type": "string"
        },
        {
          "indexed": false,
          "internalType": "uint256",
          "name": "age",
          "type": "uint256"
        }
      ],
      "name": "UserUpdated",
      "type": "event"
    },
    {
      "inputs": [
        {
          "internalType": "string",
          "name": "userId",
          "type": "string"
        },
        {
          "components": [
            {
              "internalType": "string",
              "name": "email",
              "type": "string"
            },
            {
              "internalType": "string",
              "name": "name",
              "type": "string"
            },
            {
              "internalType": "uint256",
              "name": "age",
              "type": "uint256"
            }
          ],
          "internalType": "struct UserContract1.UserData",
          "name": "userData",
          "type": "tuple"
        }
      ],
      "name": "setUserData",
      "outputs": [],
      "stateMutability": "nonpayable",
      "type": "function"
    },
    {
      "inputs": [
        {
          "internalType": "string",
          "name": "userId",
          "type": "string"
        }
      ],
      "name": "getUserData",
      "outputs": [
        {
          "internalType": "string",
          "name": "email",
          "type": "string"
        },
        {
          "internalType": "string",
          "name": "name",
          "type": "string"
        },
        {
          "internalType": "uint256",
          "name": "age",
          "type": "uint256"
        }
      ],
      "stateMutability": "view",
      "type": "function"
    },
    {
      "inputs": [
        {
          "internalType": "string",
          "name": "userId",
          "type": "string"
        },
        {
          "internalType": "string[]",
          "name": "names",
          "type": "string[]"
        },
        {
          "internalType": "string[]",
          "name": "typeOfAssets",
          "type": "string[]"
        },
        {
          "internalType": "string[]",
          "name": "descriptions",
          "type": "string[]"
        },
        {
          "internalType": "string[]",
          "name": "locations",
          "type": "string[]"
        },
        {
          "internalType": "uint256[]",
          "name": "purchaseDates",
          "type": "uint256[]"
        },
        {
          "internalType": "uint256[]",
          "name": "purchasePrices",
          "type": "uint256[]"
        },
        {
          "internalType": "string[]",
          "name": "previousOwners",
          "type": "string[]"
        },
        {
          "internalType": "string",
          "name": "ipfsHash",
          "type": "string"
        }
      ],
      "name": "setAssetRecord",
      "outputs": [],
      "stateMutability": "nonpayable",
      "type": "function"
    },
    {
      "inputs": [
        {
          "internalType": "string",
          "name": "userId",
          "type": "string"
        }
      ],
      "name": "getAssetRecords",
      "outputs": [
        {
          "components": [
            {
              "internalType": "string",
              "name": "name",
              "type": "string"
            },
            {
              "internalType": "string",
              "name": "typeOfAsset",
              "type": "string"
            },
            {
              "internalType": "string",
              "name": "description",
              "type": "string"
            },
            {
              "internalType": "string",
              "name": "location",
              "type": "string"
            },
            {
              "internalType": "uint256",
              "name": "purchaseDate",
              "type": "uint256"
            },
            {
              "internalType": "uint256",
              "name": "purchasePrice",
              "type": "uint256"
            },
            {
              "internalType": "string",
              "name": "previousOwner",
              "type": "string"
            }
          ],
          "internalType": "struct UserContract1.AssetInfo[]",
          "name": "",
          "type": "tuple[]"
        }
      ],
      "stateMutability": "view",
      "type": "function"
    },
    {
      "inputs": [
        {
          "internalType": "string",
          "name": "userId",
          "type": "string"
        },
        {
          "internalType": "string",
          "name": "ipfsHash",
          "type": "string"
        }
      ],
      "name": "setAssetIPFSHash",
      "outputs": [],
      "stateMutability": "nonpayable",
      "type": "function"
    },
    {
      "inputs": [
        {
          "internalType": "string",
          "name": "userId",
          "type": "string"
        }
      ],
      "name": "getAssetIPFSHash",
      "outputs": [
        {
          "internalType": "string",
          "name": "",
          "type": "string"
        }
      ],
      "stateMutability": "view",
      "type": "function"
    },
    {
      "inputs": [
        {
          "internalType": "string",
          "name": "userId",
          "type": "string"
        },
        {
          "internalType": "string[]",
          "name": "names",
          "type": "string[]"
        },
        {
          "internalType": "uint256[]",
          "name": "dateOfBirths",
          "type": "uint256[]"
        },
        {
          "internalType": "string[]",
          "name": "stateOfMilitarys",
          "type": "string[]"
        },
        {
          "internalType": "uint256[]",
          "name": "postponementDates",
          "type": "uint256[]"
        },
        {
          "internalType": "uint256[]",
          "name": "dateOfConstructions",
          "type": "uint256[]"
        },
        {
          "internalType": "string",
          "name": "ipfsHash",
          "type": "string"
        }
      ],
      "name": "setMilitaryRecord",
      "outputs": [],
      "stateMutability": "nonpayable",
      "type": "function"
    },
    {
      "inputs": [
        {
          "internalType": "string",
          "name": "userId",
          "type": "string"
        }
      ],
      "name": "getMilitaryRecords",
      "outputs": [
        {
          "components": [
            {
              "internalType": "string",
              "name": "name",
              "type": "string"
            },
            {
              "internalType": "uint256",
              "name": "dateOfBirth",
              "type": "uint256"
            },
            {
              "internalType": "string",
              "name": "stateOfMilitary",
              "type": "string"
            },
            {
              "internalType": "uint256",
              "name": "postponementDate",
              "type": "uint256"
            },
            {
              "internalType": "uint256",
              "name": "dateOfConstruction",
              "type": "uint256"
            }
          ],
          "internalType": "struct UserContract1.MilitaryInfo[]",
          "name": "",
          "type": "tuple[]"
        }
      ],
      "stateMutability": "view",
      "type": "function"
    },
    {
      "inputs": [
        {
          "internalType": "string",
          "name": "userId",
          "type": "string"
        },
        {
          "internalType": "string",
          "name": "ipfsHash",
          "type": "string"
        }
      ],
      "name": "setMilitaryIPFSHash",
      "outputs": [],
      "stateMutability": "nonpayable",
      "type": "function"
    },
    {
      "inputs": [
        {
          "internalType": "string",
          "name": "userId",
          "type": "string"
        }
      ],
      "name": "getMilitaryIPFSHash",
      "outputs": [
        {
          "internalType": "string",
          "name": "",
          "type": "string"
        }
      ],
      "stateMutability": "view",
      "type": "function"
    },
    {
      "inputs": [
        {
          "internalType": "string",
          "name": "userId",
          "type": "string"
        },
        {
          "internalType": "string[]",
          "name": "genders",
          "type": "string[]"
        },
        {
          "internalType": "string[]",
          "name": "degreeOfRelationships",
          "type": "string[]"
        },
        {
          "internalType": "string[]",
          "name": "names",
          "type": "string[]"
        },
        {
          "internalType": "string[]",
          "name": "surnames",
          "type": "string[]"
        },
        {
          "internalType": "string[]",
          "name": "fathersNames",
          "type": "string[]"
        },
        {
          "internalType": "string[]",
          "name": "mothersNames",
          "type": "string[]"
        },
        {
          "internalType": "uint256[]",
          "name": "dateOfBirths",
          "type": "uint256[]"
        },
        {
          "internalType": "string[]",
          "name": "statuss",
          "type": "string[]"
        },
        {
          "internalType": "uint256[]",
          "name": "dateOfDeaths",
          "type": "uint256[]"
        },
        {
          "internalType": "string",
          "name": "ipfsHash",
          "type": "string"
        }
      ],
      "name": "setFamilyTreeRecord",
      "outputs": [],
      "stateMutability": "nonpayable",
      "type": "function"
    },
    {
      "inputs": [
        {
          "internalType": "string",
          "name": "userId",
          "type": "string"
        }
      ],
      "name": "getFamilyTreeRecords",
      "outputs": [
        {
          "components": [
            {
              "internalType": "string",
              "name": "gender",
              "type": "string"
            },
            {
              "internalType": "string",
              "name": "degreeOfRelationship",
              "type": "string"
            },
            {
              "internalType": "string",
              "name": "name",
              "type": "string"
            },
            {
              "internalType": "string",
              "name": "surname",
              "type": "string"
            },
            {
              "internalType": "string",
              "name": "fathersName",
              "type": "string"
            },
            {
              "internalType": "string",
              "name": "mothersName",
              "type": "string"
            },
            {
              "internalType": "uint256",
              "name": "dateOfBirth",
              "type": "uint256"
            },
            {
              "internalType": "string",
              "name": "status",
              "type": "string"
            },
            {
              "internalType": "uint256",
              "name": "dateOfDeath",
              "type": "uint256"
            }
          ],
          "internalType": "struct UserContract1.FamilyTreeInfo[]",
          "name": "",
          "type": "tuple[]"
        }
      ],
      "stateMutability": "view",
      "type": "function"
    },
    {
      "inputs": [
        {
          "internalType": "string",
          "name": "userId",
          "type": "string"
        },
        {
          "internalType": "string",
          "name": "ipfsHash",
          "type": "string"
        }
      ],
      "name": "setFamilyTreeIPFSHash",
      "outputs": [],
      "stateMutability": "nonpayable",
      "type": "function"
    },
    {
      "inputs": [
        {
          "internalType": "string",
          "name": "userId",
          "type": "string"
        }
      ],
      "name": "getFamilyTreeIPFSHash",
      "outputs": [
        {
          "internalType": "string",
          "name": "",
          "type": "string"
        }
      ],
      "stateMutability": "view",
      "type": "function"
    },
    {
      "inputs": [
        {
          "internalType": "string",
          "name": "userId",
          "type": "string"
        },
        {
          "internalType": "string[]",
          "name": "subscriptionTypes",
          "type": "string[]"
        },
        {
          "internalType": "string[]",
          "name": "companyNames",
          "type": "string[]"
        },
        {
          "internalType": "uint256[]",
          "name": "subscriptionStartDates",
          "type": "uint256[]"
        },
        {
          "internalType": "uint256[]",
          "name": "subscriptionEndDates",
          "type": "uint256[]"
        },
        {
          "internalType": "string[]",
          "name": "subscriberNames",
          "type": "string[]"
        },
        {
          "internalType": "string[]",
          "name": "subscriberSurnames",
          "type": "string[]"
        },
        {
          "internalType": "string",
          "name": "ipfsHash",
          "type": "string"
        }
      ],
      "name": "setSubscriptionTransactionRecord",
      "outputs": [],
      "stateMutability": "nonpayable",
      "type": "function"
    },
    {
      "inputs": [
        {
          "internalType": "string",
          "name": "userId",
          "type": "string"
        }
      ],
      "name": "getSubscriptionTransactionRecords",
      "outputs": [
        {
          "components": [
            {
              "internalType": "string",
              "name": "subscriptionType",
              "type": "string"
            },
            {
              "internalType": "string",
              "name": "companyName",
              "type": "string"
            },
            {
              "internalType": "uint256",
              "name": "subscriptionStartDate",
              "type": "uint256"
            },
            {
              "internalType": "uint256",
              "name": "subscriptionEndDate",
              "type": "uint256"
            },
            {
              "internalType": "string",
              "name": "subscriberName",
              "type": "string"
            },
            {
              "internalType": "string",
              "name": "subscriberSurname",
              "type": "string"
            }
          ],
          "internalType": "struct UserContract1.SubscriptionTransactionInfo[]",
          "name": "",
          "type": "tuple[]"
        }
      ],
      "stateMutability": "view",
      "type": "function"
    },
    {
      "inputs": [
        {
          "internalType": "string",
          "name": "userId",
          "type": "string"
        },
        {
          "internalType": "string",
          "name": "ipfsHash",
          "type": "string"
        }
      ],
      "name": "setSubscriptionTransactionIPFSHash",
      "outputs": [],
      "stateMutability": "nonpayable",
      "type": "function"
    },
    {
      "inputs": [
        {
          "internalType": "string",
          "name": "userId",
          "type": "string"
        }
      ],
      "name": "getSubscriptionTransactionIPFSHash",
      "outputs": [
        {
          "internalType": "string",
          "name": "",
          "type": "string"
        }
      ],
      "stateMutability": "view",
      "type": "function"
    }
  ],
  "bytecode": "0x608060405234801561001057600080fd5b5061433b806100206000396000f3fe608060405234801561001057600080fd5b50600436106101165760003560e01c80638af95e2a116100a2578063be36f17411610071578063be36f17414610315578063d950431314610331578063db8bd66014610361578063e713dbd81461037d578063ed57160e146103ad57610116565b80638af95e2a1461027d5780638f48e0d6146102ad578063a7fadecd146102c9578063b0afe8b7146102f957610116565b806336be5d68116100e957806336be5d68146101b35780633de353b4146101cf57806354ab2403146101ff57806370b930d81461023157806379cd86b11461024d57610116565b806307b1ff761461011b5780631e438a6214610137578063258780d0146101675780632bc890a414610183575b600080fd5b610135600480360381019061013091906126b4565b6103c9565b005b610151600480360381019061014c919061281a565b610640565b60405161015e91906128e2565b60405180910390f35b610181600480360381019061017c9190612904565b6106f3565b005b61019d6004803603810190610198919061281a565b61077e565b6040516101aa9190612b86565b60405180910390f35b6101cd60048036038101906101c89190612904565b610c11565b005b6101e960048036038101906101e4919061281a565b610c9b565b6040516101f691906128e2565b60405180910390f35b6102196004803603810190610214919061281a565b610d4e565b60405161022893929190612bb7565b60405180910390f35b61024b60048036038101906102469190612904565b610ea7565b005b6102676004803603810190610262919061281a565b610f32565b60405161027491906128e2565b60405180910390f35b6102976004803603810190610292919061281a565b610fe5565b6040516102a491906128e2565b60405180910390f35b6102c760048036038101906102c29190612904565b611098565b005b6102e360048036038101906102de919061281a565b611123565b6040516102f09190612d3b565b60405180910390f35b610313600480360381019061030e9190612d5d565b6112e5565b005b61032f600480360381019061032a919061302b565b61167a565b005b61034b6004803603810190610346919061281a565b61175f565b604051610358919061321d565b60405180910390f35b61037b6004803603810190610376919061323f565b611acd565b005b6103976004803603810190610392919061281a565b611d94565b6040516103a49190613535565b60405180910390f35b6103c760048036038101906103c29190613557565b612070565b005b845186511480156103db575083518551145b80156103e8575082518451145b80156103f5575081518351145b610434576040517f08c379a000000000000000000000000000000000000000000000000000000000815260040161042b9061378f565b60405180910390fd5b60005b86518110156105985760006040518060a001604052808984815181106104605761045f6137af565b5b602002602001015181526020018884815181106104805761047f6137af565b5b602002602001015181526020018784815181106104a05761049f6137af565b5b602002602001015181526020018684815181106104c0576104bf6137af565b5b602002602001015181526020018584815181106104e0576104df6137af565b5b602002602001015181525090506001896040516104fd919061381a565b9081526020016040518091039020600001819080600181540180825580915050600190039060005260206000209060050201600090919091909150600082015181600001908161054d9190613a3d565b5060208201518160010155604082015181600201908161056d9190613a3d565b506060820151816003015560808201518160040155505050808061059090613b3e565b915050610437565b50806001886040516105aa919061381a565b908152602001604051809103902060010190816105c79190613a3d565b50866040516105d6919061381a565b60405180910390207fe846e5c8527de6621c9ff6536ceef75e2bdaf39aa3d060c3ce5ec4caf88a690260018960405161060f919061381a565b90815260200160405180910390206000018360405161062f929190613d8e565b60405180910390a250505050505050565b6060600282604051610652919061381a565b9081526020016040518091039020600101805461066e90613860565b80601f016020809104026020016040519081016040528092919081815260200182805461069a90613860565b80156106e75780601f106106bc576101008083540402835291602001916106e7565b820191906000526020600020905b8154815290600101906020018083116106ca57829003601f168201915b50505050509050919050565b6000600183604051610705919061381a565b90815260200160405180910390209050818160010190816107269190613a3d565b5082604051610735919061381a565b60405180910390207fe846e5c8527de6621c9ff6536ceef75e2bdaf39aa3d060c3ce5ec4caf88a69028260000184604051610771929190613d8e565b60405180910390a2505050565b6060600282604051610790919061381a565b9081526020016040518091039020600001805480602002602001604051908101604052809291908181526020016000905b82821015610c065783829060005260206000209060090201604051806101200160405290816000820180546107f590613860565b80601f016020809104026020016040519081016040528092919081815260200182805461082190613860565b801561086e5780601f106108435761010080835404028352916020019161086e565b820191906000526020600020905b81548152906001019060200180831161085157829003601f168201915b5050505050815260200160018201805461088790613860565b80601f01602080910402602001604051908101604052809291908181526020018280546108b390613860565b80156109005780601f106108d557610100808354040283529160200191610900565b820191906000526020600020905b8154815290600101906020018083116108e357829003601f168201915b5050505050815260200160028201805461091990613860565b80601f016020809104026020016040519081016040528092919081815260200182805461094590613860565b80156109925780601f1061096757610100808354040283529160200191610992565b820191906000526020600020905b81548152906001019060200180831161097557829003601f168201915b505050505081526020016003820180546109ab90613860565b80601f01602080910402602001604051908101604052809291908181526020018280546109d790613860565b8015610a245780601f106109f957610100808354040283529160200191610a24565b820191906000526020600020905b815481529060010190602001808311610a0757829003601f168201915b50505050508152602001600482018054610a3d90613860565b80601f0160208091040260200160405190810160405280929190818152602001828054610a6990613860565b8015610ab65780601f10610a8b57610100808354040283529160200191610ab6565b820191906000526020600020905b815481529060010190602001808311610a9957829003601f168201915b50505050508152602001600582018054610acf90613860565b80601f0160208091040260200160405190810160405280929190818152602001828054610afb90613860565b8015610b485780601f10610b1d57610100808354040283529160200191610b48565b820191906000526020600020905b815481529060010190602001808311610b2b57829003601f168201915b5050505050815260200160068201548152602001600782018054610b6b90613860565b80601f0160208091040260200160405190810160405280929190818152602001828054610b9790613860565b8015610be45780601f10610bb957610100808354040283529160200191610be4565b820191906000526020600020905b815481529060010190602001808311610bc757829003601f168201915b50505050508152602001600882015481525050815260200190600101906107c1565b505050509050919050565b60008083604051610c22919061381a565b9081526020016040518091039020905081816001019081610c439190613a3d565b5082604051610c52919061381a565b60405180910390207f0e75504658d8f7da833ca990d560e9f28e66c5605d2796eb99b9960f838677958260000184604051610c8e929190613f45565b60405180910390a2505050565b6060600082604051610cad919061381a565b90815260200160405180910390206001018054610cc990613860565b80601f0160208091040260200160405190810160405280929190818152602001828054610cf590613860565b8015610d425780601f10610d1757610100808354040283529160200191610d42565b820191906000526020600020905b815481529060010190602001808311610d2557829003601f168201915b50505050509050919050565b606080600080600485604051610d64919061381a565b9081526020016040518091039020905080600001816001018260020154828054610d8d90613860565b80601f0160208091040260200160405190810160405280929190818152602001828054610db990613860565b8015610e065780601f10610ddb57610100808354040283529160200191610e06565b820191906000526020600020905b815481529060010190602001808311610de957829003601f168201915b50505050509250818054610e1990613860565b80601f0160208091040260200160405190810160405280929190818152602001828054610e4590613860565b8015610e925780601f10610e6757610100808354040283529160200191610e92565b820191906000526020600020905b815481529060010190602001808311610e7557829003601f168201915b50505050509150935093509350509193909250565b6000600283604051610eb9919061381a565b9081526020016040518091039020905081816001019081610eda9190613a3d565b5082604051610ee9919061381a565b60405180910390207f9c223b809f5d8e71d43f0c72892e8e61c6ab78086b06fc5ffb93951ccfa03fa38260000184604051610f25929190614130565b60405180910390a2505050565b6060600182604051610f44919061381a565b90815260200160405180910390206001018054610f6090613860565b80601f0160208091040260200160405190810160405280929190818152602001828054610f8c90613860565b8015610fd95780601f10610fae57610100808354040283529160200191610fd9565b820191906000526020600020905b815481529060010190602001808311610fbc57829003601f168201915b50505050509050919050565b6060600382604051610ff7919061381a565b9081526020016040518091039020600101805461101390613860565b80601f016020809104026020016040519081016040528092919081815260200182805461103f90613860565b801561108c5780601f106110615761010080835404028352916020019161108c565b820191906000526020600020905b81548152906001019060200180831161106f57829003601f168201915b50505050509050919050565b60006003836040516110aa919061381a565b90815260200160405180910390209050818160010190816110cb9190613a3d565b50826040516110da919061381a565b60405180910390207f43e8ba3286379b0a9976dad95472a757535dc174574357e5675fd8532549b43582600001846040516111169291906142ce565b60405180910390a2505050565b6060600182604051611135919061381a565b9081526020016040518091039020600001805480602002602001604051908101604052809291908181526020016000905b828210156112da57838290600052602060002090600502016040518060a001604052908160008201805461119990613860565b80601f01602080910402602001604051908101604052809291908181526020018280546111c590613860565b80156112125780601f106111e757610100808354040283529160200191611212565b820191906000526020600020905b8154815290600101906020018083116111f557829003601f168201915b505050505081526020016001820154815260200160028201805461123590613860565b80601f016020809104026020016040519081016040528092919081815260200182805461126190613860565b80156112ae5780601f10611283576101008083540402835291602001916112ae565b820191906000526020600020905b81548152906001019060200180831161129157829003601f168201915b505050505081526020016003820154815260200160048201548152505081526020019060010190611166565b505050509050919050565b88518a511480156112f7575087518951145b8015611304575086518851145b8015611311575085518751145b801561131e575084518651145b801561132b575083518551145b8015611338575082518451145b8015611345575081518351145b611384576040517f08c379a000000000000000000000000000000000000000000000000000000000815260040161137b9061378f565b60405180910390fd5b60005b8a518110156115ce5760006040518061012001604052808d84815181106113b1576113b06137af565b5b602002602001015181526020018c84815181106113d1576113d06137af565b5b602002602001015181526020018b84815181106113f1576113f06137af565b5b602002602001015181526020018a8481518110611411576114106137af565b5b60200260200101518152602001898481518110611431576114306137af565b5b60200260200101518152602001888481518110611451576114506137af565b5b60200260200101518152602001878481518110611471576114706137af565b5b60200260200101518152602001868481518110611491576114906137af565b5b602002602001015181526020018584815181106114b1576114b06137af565b5b6020026020010151815250905060028d6040516114ce919061381a565b9081526020016040518091039020600001819080600181540180825580915050600190039060005260206000209060090201600090919091909150600082015181600001908161151e9190613a3d565b5060208201518160010190816115349190613a3d565b50604082015181600201908161154a9190613a3d565b5060608201518160030190816115609190613a3d565b5060808201518160040190816115769190613a3d565b5060a082015181600501908161158c9190613a3d565b5060c0820151816006015560e08201518160070190816115ac9190613a3d565b50610100820151816008015550505080806115c690613b3e565b915050611387565b508060028c6040516115e0919061381a565b908152602001604051809103902060010190816115fd9190613a3d565b508a60405161160c919061381a565b60405180910390207f9c223b809f5d8e71d43f0c72892e8e61c6ab78086b06fc5ffb93951ccfa03fa360028d604051611645919061381a565b908152602001604051809103902060000183604051611665929190614130565b60405180910390a25050505050505050505050565b60006040518060600160405280836000015181526020018360200151815260200183604001518152509050806004846040516116b6919061381a565b908152602001604051809103902060008201518160000190816116d99190613a3d565b5060208201518160010190816116ef9190613a3d565b50604082015181600201559050508260405161170b919061381a565b60405180910390207f4f24336055d992bf20f44d53f6f7e8909075915f2bc6830d7a7963652fcbf72983600001518460200151856040015160405161175293929190612bb7565b60405180910390a2505050565b6060600082604051611771919061381a565b9081526020016040518091039020600001805480602002602001604051908101604052809291908181526020016000905b82821015611ac257838290600052602060002090600702016040518060e00160405290816000820180546117d590613860565b80601f016020809104026020016040519081016040528092919081815260200182805461180190613860565b801561184e5780601f106118235761010080835404028352916020019161184e565b820191906000526020600020905b81548152906001019060200180831161183157829003601f168201915b5050505050815260200160018201805461186790613860565b80601f016020809104026020016040519081016040528092919081815260200182805461189390613860565b80156118e05780601f106118b5576101008083540402835291602001916118e0565b820191906000526020600020905b8154815290600101906020018083116118c357829003601f168201915b505050505081526020016002820180546118f990613860565b80601f016020809104026020016040519081016040528092919081815260200182805461192590613860565b80156119725780601f1061194757610100808354040283529160200191611972565b820191906000526020600020905b81548152906001019060200180831161195557829003601f168201915b5050505050815260200160038201805461198b90613860565b80601f01602080910402602001604051908101604052809291908181526020018280546119b790613860565b8015611a045780601f106119d957610100808354040283529160200191611a04565b820191906000526020600020905b8154815290600101906020018083116119e757829003601f168201915b505050505081526020016004820154815260200160058201548152602001600682018054611a3190613860565b80601f0160208091040260200160405190810160405280929190818152602001828054611a5d90613860565b8015611aaa5780601f10611a7f57610100808354040283529160200191611aaa565b820191906000526020600020905b815481529060010190602001808311611a8d57829003601f168201915b505050505081525050815260200190600101906117a2565b505050509050919050565b85518751148015611adf575084518651145b8015611aec575083518551145b8015611af9575082518451145b8015611b06575081518351145b611b45576040517f08c379a0000000000000000000000000000000000000000000000000000000008152600401611b3c9061378f565b60405180910390fd5b60005b8751811015611ceb5760006040518060c001604052808a8481518110611b7157611b706137af565b5b60200260200101518152602001898481518110611b9157611b906137af565b5b60200260200101518152602001888481518110611bb157611bb06137af565b5b60200260200101518152602001878481518110611bd157611bd06137af565b5b60200260200101518152602001868481518110611bf157611bf06137af565b5b60200260200101518152602001858481518110611c1157611c106137af565b5b6020026020010151815250905060038a604051611c2e919061381a565b90815260200160405180910390206000018190806001815401808255809150506001900390600052602060002090600602016000909190919091506000820151816000019081611c7e9190613a3d565b506020820151816001019081611c949190613a3d565b5060408201518160020155606082015181600301556080820151816004019081611cbe9190613a3d565b5060a0820151816005019081611cd49190613a3d565b505050508080611ce390613b3e565b915050611b48565b5080600389604051611cfd919061381a565b90815260200160405180910390206001019081611d1a9190613a3d565b5087604051611d29919061381a565b60405180910390207f43e8ba3286379b0a9976dad95472a757535dc174574357e5675fd8532549b43560038a604051611d62919061381a565b908152602001604051809103902060000183604051611d829291906142ce565b60405180910390a25050505050505050565b6060600382604051611da6919061381a565b9081526020016040518091039020600001805480602002602001604051908101604052809291908181526020016000905b8282101561206557838290600052602060002090600602016040518060c0016040529081600082018054611e0a90613860565b80601f0160208091040260200160405190810160405280929190818152602001828054611e3690613860565b8015611e835780601f10611e5857610100808354040283529160200191611e83565b820191906000526020600020905b815481529060010190602001808311611e6657829003601f168201915b50505050508152602001600182018054611e9c90613860565b80601f0160208091040260200160405190810160405280929190818152602001828054611ec890613860565b8015611f155780601f10611eea57610100808354040283529160200191611f15565b820191906000526020600020905b815481529060010190602001808311611ef857829003601f168201915b505050505081526020016002820154815260200160038201548152602001600482018054611f4290613860565b80601f0160208091040260200160405190810160405280929190818152602001828054611f6e90613860565b8015611fbb5780601f10611f9057610100808354040283529160200191611fbb565b820191906000526020600020905b815481529060010190602001808311611f9e57829003601f168201915b50505050508152602001600582018054611fd490613860565b80601f016020809104026020016040519081016040528092919081815260200182805461200090613860565b801561204d5780601f106120225761010080835404028352916020019161204d565b820191906000526020600020905b81548152906001019060200180831161203057829003601f168201915b50505050508152505081526020019060010190611dd7565b505050509050919050565b86518851148015612082575085518751145b801561208f575084518651145b801561209c575083518551145b80156120a9575082518451145b80156120b6575081518351145b6120f5576040517f08c379a00000000000000000000000000000000000000000000000000000000081526004016120ec9061378f565b60405180910390fd5b60005b88518110156122d15760006040518060e001604052808b8481518110612121576121206137af565b5b602002602001015181526020018a8481518110612141576121406137af565b5b60200260200101518152602001898481518110612161576121606137af565b5b60200260200101518152602001888481518110612181576121806137af565b5b602002602001015181526020018784815181106121a1576121a06137af565b5b602002602001015181526020018684815181106121c1576121c06137af565b5b602002602001015181526020018584815181106121e1576121e06137af565b5b6020026020010151815250905060008b6040516121fe919061381a565b9081526020016040518091039020600001819080600181540180825580915050600190039060005260206000209060070201600090919091909150600082015181600001908161224e9190613a3d565b5060208201518160010190816122649190613a3d565b50604082015181600201908161227a9190613a3d565b5060608201518160030190816122909190613a3d565b506080820151816004015560a0820151816005015560c08201518160060190816122ba9190613a3d565b5050505080806122c990613b3e565b9150506120f8565b508060008a6040516122e3919061381a565b908152602001604051809103902060010190816123009190613a3d565b508860405161230f919061381a565b60405180910390207f0e75504658d8f7da833ca990d560e9f28e66c5605d2796eb99b9960f8386779560008b604051612348919061381a565b908152602001604051809103902060000183604051612368929190613f45565b60405180910390a2505050505050505050565b6000604051905090565b600080fd5b600080fd5b600080fd5b600080fd5b6000601f19601f8301169050919050565b7f4e487b7100000000000000000000000000000000000000000000000000000000600052604160045260246000fd5b6123e282612399565b810181811067ffffffffffffffff82111715612401576124006123aa565b5b80604052505050565b600061241461237b565b905061242082826123d9565b919050565b600067ffffffffffffffff8211156124405761243f6123aa565b5b61244982612399565b9050602081019050919050565b82818337600083830152505050565b600061247861247384612425565b61240a565b90508281526020810184848401111561249457612493612394565b5b61249f848285612456565b509392505050565b600082601f8301126124bc576124bb61238f565b5b81356124cc848260208601612465565b91505092915050565b600067ffffffffffffffff8211156124f0576124ef6123aa565b5b602082029050602081019050919050565b600080fd5b6000612519612514846124d5565b61240a565b9050808382526020820190506020840283018581111561253c5761253b612501565b5b835b8181101561258357803567ffffffffffffffff8111156125615761256061238f565b5b80860161256e89826124a7565b8552602085019450505060208101905061253e565b5050509392505050565b600082601f8301126125a2576125a161238f565b5b81356125b2848260208601612506565b91505092915050565b600067ffffffffffffffff8211156125d6576125d56123aa565b5b602082029050602081019050919050565b6000819050919050565b6125fa816125e7565b811461260557600080fd5b50565b600081359050612617816125f1565b92915050565b600061263061262b846125bb565b61240a565b9050808382526020820190506020840283018581111561265357612652612501565b5b835b8181101561267c57806126688882612608565b845260208401935050602081019050612655565b5050509392505050565b600082601f83011261269b5761269a61238f565b5b81356126ab84826020860161261d565b91505092915050565b600080600080600080600060e0888a0312156126d3576126d2612385565b5b600088013567ffffffffffffffff8111156126f1576126f061238a565b5b6126fd8a828b016124a7565b975050602088013567ffffffffffffffff81111561271e5761271d61238a565b5b61272a8a828b0161258d565b965050604088013567ffffffffffffffff81111561274b5761274a61238a565b5b6127578a828b01612686565b955050606088013567ffffffffffffffff8111156127785761277761238a565b5b6127848a828b0161258d565b945050608088013567ffffffffffffffff8111156127a5576127a461238a565b5b6127b18a828b01612686565b93505060a088013567ffffffffffffffff8111156127d2576127d161238a565b5b6127de8a828b01612686565b92505060c088013567ffffffffffffffff8111156127ff576127fe61238a565b5b61280b8a828b016124a7565b91505092959891949750929550565b6000602082840312156128305761282f612385565b5b600082013567ffffffffffffffff81111561284e5761284d61238a565b5b61285a848285016124a7565b91505092915050565b600081519050919050565b600082825260208201905092915050565b60005b8381101561289d578082015181840152602081019050612882565b60008484015250505050565b60006128b482612863565b6128be818561286e565b93506128ce81856020860161287f565b6128d781612399565b840191505092915050565b600060208201905081810360008301526128fc81846128a9565b905092915050565b6000806040838503121561291b5761291a612385565b5b600083013567ffffffffffffffff8111156129395761293861238a565b5b612945858286016124a7565b925050602083013567ffffffffffffffff8111156129665761296561238a565b5b612972858286016124a7565b9150509250929050565b600081519050919050565b600082825260208201905092915050565b6000819050602082019050919050565b600082825260208201905092915050565b60006129c482612863565b6129ce81856129a8565b93506129de81856020860161287f565b6129e781612399565b840191505092915050565b6129fb816125e7565b82525050565b6000610120830160008301518482036000860152612a1f82826129b9565b91505060208301518482036020860152612a3982826129b9565b91505060408301518482036040860152612a5382826129b9565b91505060608301518482036060860152612a6d82826129b9565b91505060808301518482036080860152612a8782826129b9565b91505060a083015184820360a0860152612aa182826129b9565b91505060c0830151612ab660c08601826129f2565b5060e083015184820360e0860152612ace82826129b9565b915050610100830151612ae56101008601826129f2565b508091505092915050565b6000612afc8383612a01565b905092915050565b6000602082019050919050565b6000612b1c8261297c565b612b268185612987565b935083602082028501612b3885612998565b8060005b85811015612b745784840389528151612b558582612af0565b9450612b6083612b04565b925060208a01995050600181019050612b3c565b50829750879550505050505092915050565b60006020820190508181036000830152612ba08184612b11565b905092915050565b612bb1816125e7565b82525050565b60006060820190508181036000830152612bd181866128a9565b90508181036020830152612be581856128a9565b9050612bf46040830184612ba8565b949350505050565b600081519050919050565b600082825260208201905092915050565b6000819050602082019050919050565b600060a0830160008301518482036000860152612c4582826129b9565b9150506020830151612c5a60208601826129f2565b5060408301518482036040860152612c7282826129b9565b9150506060830151612c8760608601826129f2565b506080830151612c9a60808601826129f2565b508091505092915050565b6000612cb18383612c28565b905092915050565b6000602082019050919050565b6000612cd182612bfc565b612cdb8185612c07565b935083602082028501612ced85612c18565b8060005b85811015612d295784840389528151612d0a8582612ca5565b9450612d1583612cb9565b925060208a01995050600181019050612cf1565b50829750879550505050505092915050565b60006020820190508181036000830152612d558184612cc6565b905092915050565b60008060008060008060008060008060006101608c8e031215612d8357612d82612385565b5b60008c013567ffffffffffffffff811115612da157612da061238a565b5b612dad8e828f016124a7565b9b505060208c013567ffffffffffffffff811115612dce57612dcd61238a565b5b612dda8e828f0161258d565b9a505060408c013567ffffffffffffffff811115612dfb57612dfa61238a565b5b612e078e828f0161258d565b99505060608c013567ffffffffffffffff811115612e2857612e2761238a565b5b612e348e828f0161258d565b98505060808c013567ffffffffffffffff811115612e5557612e5461238a565b5b612e618e828f0161258d565b97505060a08c013567ffffffffffffffff811115612e8257612e8161238a565b5b612e8e8e828f0161258d565b96505060c08c013567ffffffffffffffff811115612eaf57612eae61238a565b5b612ebb8e828f0161258d565b95505060e08c013567ffffffffffffffff811115612edc57612edb61238a565b5b612ee88e828f01612686565b9450506101008c013567ffffffffffffffff811115612f0a57612f0961238a565b5b612f168e828f0161258d565b9350506101208c013567ffffffffffffffff811115612f3857612f3761238a565b5b612f448e828f01612686565b9250506101408c013567ffffffffffffffff811115612f6657612f6561238a565b5b612f728e828f016124a7565b9150509295989b509295989b9093969950565b600080fd5b600080fd5b600060608284031215612fa557612fa4612f85565b5b612faf606061240a565b9050600082013567ffffffffffffffff811115612fcf57612fce612f8a565b5b612fdb848285016124a7565b600083015250602082013567ffffffffffffffff811115612fff57612ffe612f8a565b5b61300b848285016124a7565b602083015250604061301f84828501612608565b60408301525092915050565b6000806040838503121561304257613041612385565b5b600083013567ffffffffffffffff8111156130605761305f61238a565b5b61306c858286016124a7565b925050602083013567ffffffffffffffff81111561308d5761308c61238a565b5b61309985828601612f8f565b9150509250929050565b600081519050919050565b600082825260208201905092915050565b6000819050602082019050919050565b600060e08301600083015184820360008601526130ec82826129b9565b9150506020830151848203602086015261310682826129b9565b9150506040830151848203604086015261312082826129b9565b9150506060830151848203606086015261313a82826129b9565b915050608083015161314f60808601826129f2565b5060a083015161316260a08601826129f2565b5060c083015184820360c086015261317a82826129b9565b9150508091505092915050565b600061319383836130cf565b905092915050565b6000602082019050919050565b60006131b3826130a3565b6131bd81856130ae565b9350836020820285016131cf856130bf565b8060005b8581101561320b57848403895281516131ec8582613187565b94506131f78361319b565b925060208a019950506001810190506131d3565b50829750879550505050505092915050565b6000602082019050818103600083015261323781846131a8565b905092915050565b600080600080600080600080610100898b0312156132605761325f612385565b5b600089013567ffffffffffffffff81111561327e5761327d61238a565b5b61328a8b828c016124a7565b985050602089013567ffffffffffffffff8111156132ab576132aa61238a565b5b6132b78b828c0161258d565b975050604089013567ffffffffffffffff8111156132d8576132d761238a565b5b6132e48b828c0161258d565b965050606089013567ffffffffffffffff8111156133055761330461238a565b5b6133118b828c01612686565b955050608089013567ffffffffffffffff8111156133325761333161238a565b5b61333e8b828c01612686565b94505060a089013567ffffffffffffffff81111561335f5761335e61238a565b5b61336b8b828c0161258d565b93505060c089013567ffffffffffffffff81111561338c5761338b61238a565b5b6133988b828c0161258d565b92505060e089013567ffffffffffffffff8111156133b9576133b861238a565b5b6133c58b828c016124a7565b9150509295985092959890939650565b600081519050919050565b600082825260208201905092915050565b6000819050602082019050919050565b600060c083016000830151848203600086015261341e82826129b9565b9150506020830151848203602086015261343882826129b9565b915050604083015161344d60408601826129f2565b50606083015161346060608601826129f2565b506080830151848203608086015261347882826129b9565b91505060a083015184820360a086015261349282826129b9565b9150508091505092915050565b60006134ab8383613401565b905092915050565b6000602082019050919050565b60006134cb826133d5565b6134d581856133e0565b9350836020820285016134e7856133f1565b8060005b858110156135235784840389528151613504858261349f565b945061350f836134b3565b925060208a019950506001810190506134eb565b50829750879550505050505092915050565b6000602082019050818103600083015261354f81846134c0565b905092915050565b60008060008060008060008060006101208a8c03121561357a57613579612385565b5b60008a013567ffffffffffffffff8111156135985761359761238a565b5b6135a48c828d016124a7565b99505060208a013567ffffffffffffffff8111156135c5576135c461238a565b5b6135d18c828d0161258d565b98505060408a013567ffffffffffffffff8111156135f2576135f161238a565b5b6135fe8c828d0161258d565b97505060608a013567ffffffffffffffff81111561361f5761361e61238a565b5b61362b8c828d0161258d565b96505060808a013567ffffffffffffffff81111561364c5761364b61238a565b5b6136588c828d0161258d565b95505060a08a013567ffffffffffffffff8111156136795761367861238a565b5b6136858c828d01612686565b94505060c08a013567ffffffffffffffff8111156136a6576136a561238a565b5b6136b28c828d01612686565b93505060e08a013567ffffffffffffffff8111156136d3576136d261238a565b5b6136df8c828d0161258d565b9250506101008a013567ffffffffffffffff8111156137015761370061238a565b5b61370d8c828d016124a7565b9150509295985092959850929598565b7f496e70757420617272617973206d7573742068617665207468652073616d652060008201527f6c656e6774680000000000000000000000000000000000000000000000000000602082015250565b600061377960268361286e565b91506137848261371d565b604082019050919050565b600060208201905081810360008301526137a88161376c565b9050919050565b7f4e487b7100000000000000000000000000000000000000000000000000000000600052603260045260246000fd5b600081905092915050565b60006137f482612863565b6137fe81856137de565b935061380e81856020860161287f565b80840191505092915050565b600061382682846137e9565b915081905092915050565b7f4e487b7100000000000000000000000000000000000000000000000000000000600052602260045260246000fd5b6000600282049050600182168061387857607f821691505b60208210810361388b5761388a613831565b5b50919050565b60008190508160005260206000209050919050565b60006020601f8301049050919050565b600082821b905092915050565b6000600883026138f37fffffffffffffffffffffffffffffffffffffffffffffffffffffffffffffffff826138b6565b6138fd86836138b6565b95508019841693508086168417925050509392505050565b6000819050919050565b600061393a613935613930846125e7565b613915565b6125e7565b9050919050565b6000819050919050565b6139548361391f565b61396861396082613941565b8484546138c3565b825550505050565b600090565b61397d613970565b61398881848461394b565b505050565b5b818110156139ac576139a1600082613975565b60018101905061398e565b5050565b601f8211156139f1576139c281613891565b6139cb846138a6565b810160208510156139da578190505b6139ee6139e6856138a6565b83018261398d565b50505b505050565b600082821c905092915050565b6000613a14600019846008026139f6565b1980831691505092915050565b6000613a2d8383613a03565b9150826002028217905092915050565b613a4682612863565b67ffffffffffffffff811115613a5f57613a5e6123aa565b5b613a698254613860565b613a748282856139b0565b600060209050601f831160018114613aa75760008415613a95578287015190505b613a9f8582613a21565b865550613b07565b601f198416613ab586613891565b60005b82811015613add57848901518255600182019150602085019450602081019050613ab8565b86831015613afa5784890151613af6601f891682613a03565b8355505b6001600288020188555050505b505050505050565b7f4e487b7100000000000000000000000000000000000000000000000000000000600052601160045260246000fd5b6000613b49826125e7565b91507fffffffffffffffffffffffffffffffffffffffffffffffffffffffffffffffff8203613b7b57613b7a613b0f565b5b600182019050919050565b600081549050919050565b60008190508160005260206000209050919050565b60008154613bb381613860565b613bbd81866129a8565b94506001821660008114613bd85760018114613bee57613c21565b60ff198316865281151560200286019350613c21565b613bf785613891565b60005b83811015613c1957815481890152600182019150602081019050613bfa565b808801955050505b50505092915050565b60008160001c9050919050565b6000819050919050565b6000613c54613c4f83613c2a565b613c37565b9050919050565b600060a0830160008084018583036000870152613c788382613ba6565b92505060018401549050613c8b81613c41565b613c9860208701826129f2565b50600284018583036040870152613caf8382613ba6565b92505060038401549050613cc281613c41565b613ccf60608701826129f2565b5060048401549050613ce081613c41565b613ced60808701826129f2565b50819250505092915050565b6000613d058383613c5b565b905092915050565b6000600582019050919050565b6000613d2582613b86565b613d2f8185612c07565b935083602082028501613d4185613b91565b8060005b85811015613d7c57848403895281613d5d8582613cf9565b9450613d6883613d0d565b925060208a01995050600181019050613d45565b50829750879550505050505092915050565b60006040820190508181036000830152613da88185613d1a565b90508181036020830152613dbc81846128a9565b90509392505050565b600081549050919050565b60008190508160005260206000209050919050565b600060e0830160008084018583036000870152613e028382613ba6565b925050600184018583036020870152613e1b8382613ba6565b925050600284018583036040870152613e348382613ba6565b925050600384018583036060870152613e4d8382613ba6565b92505060048401549050613e6081613c41565b613e6d60808701826129f2565b5060058401549050613e7e81613c41565b613e8b60a08701826129f2565b506006840185830360c0870152613ea28382613ba6565b925050819250505092915050565b6000613ebc8383613de5565b905092915050565b6000600782019050919050565b6000613edc82613dc5565b613ee681856130ae565b935083602082028501613ef885613dd0565b8060005b85811015613f3357848403895281613f148582613eb0565b9450613f1f83613ec4565b925060208a01995050600181019050613efc565b50829750879550505050505092915050565b60006040820190508181036000830152613f5f8185613ed1565b90508181036020830152613f7381846128a9565b90509392505050565b600081549050919050565b60008190508160005260206000209050919050565b6000610120830160008084018583036000870152613fba8382613ba6565b925050600184018583036020870152613fd38382613ba6565b925050600284018583036040870152613fec8382613ba6565b9250506003840185830360608701526140058382613ba6565b92505060048401858303608087015261401e8382613ba6565b9250506005840185830360a08701526140378382613ba6565b9250506006840154905061404a81613c41565b61405760c08701826129f2565b506007840185830360e087015261406e8382613ba6565b9250506008840154905061408181613c41565b61408f6101008701826129f2565b50819250505092915050565b60006140a78383613f9c565b905092915050565b6000600982019050919050565b60006140c782613f7c565b6140d18185612987565b9350836020820285016140e385613f87565b8060005b8581101561411e578484038952816140ff858261409b565b945061410a836140af565b925060208a019950506001810190506140e7565b50829750879550505050505092915050565b6000604082019050818103600083015261414a81856140bc565b9050818103602083015261415e81846128a9565b90509392505050565b600081549050919050565b60008190508160005260206000209050919050565b600060c08301600080840185830360008701526141a48382613ba6565b9250506001840185830360208701526141bd8382613ba6565b925050600284015490506141d081613c41565b6141dd60408701826129f2565b50600384015490506141ee81613c41565b6141fb60608701826129f2565b506004840185830360808701526142128382613ba6565b9250506005840185830360a087015261422b8382613ba6565b925050819250505092915050565b60006142458383614187565b905092915050565b6000600682019050919050565b600061426582614167565b61426f81856133e0565b93508360208202850161428185614172565b8060005b858110156142bc5784840389528161429d8582614239565b94506142a88361424d565b925060208a01995050600181019050614285565b50829750879550505050505092915050565b600060408201905081810360008301526142e8818561425a565b905081810360208301526142fc81846128a9565b9050939250505056fea2646970667358221220ada839c0afb462d474d88ce4dd80432d70c2cc7af861685f6f3451e3dd90cd4f64736f6c63430008130033",
  "immutableReferences": {},
  "source": "// SPDX-License-Identifier: MIT\npragma solidity ^0.8.0;\n\ncontract UserContract1 {\n    struct UserData {\n        string email;\n        string name;\n        uint256 age;\n    }\n\n    struct AssetInfo {\n        string name;\n        string typeOfAsset;\n        string description;\n        string location;\n        uint256 purchaseDate;\n        uint256 purchasePrice;\n        string previousOwner;\n    }\n\n    struct MilitaryInfo {\n        string name;\n        uint256 dateOfBirth;\n        string stateOfMilitary;\n        uint256 postponementDate;\n        uint256 dateOfConstruction;\n    }\n\n    struct FamilyTreeInfo {\n        string gender;\n        string degreeOfRelationship;\n        string name;\n        string surname;\n        string fathersName;\n        string mothersName;\n        uint256 dateOfBirth;\n        string status;\n        uint256 dateOfDeath;\n    }\n\n    struct SubscriptionTransactionInfo {\n        string subscriptionType;\n        string companyName;\n        uint256 subscriptionStartDate;\n        uint256 subscriptionEndDate;\n        string subscriberName;\n        string subscriberSurname;\n    }\n\n    struct UserAsset {\n        AssetInfo[] assetInfos;\n        string ipfsHash;\n    }\n\n    struct UserMilitary {\n        MilitaryInfo[] militaryInfos;\n        string ipfsHash;\n    }\n\n    struct UserFamilyTree {\n        FamilyTreeInfo[] familyTreeInfos;\n        string ipfsHash;\n    }\n\n    struct UserSubscriptionTransaction {\n        SubscriptionTransactionInfo[] subscriptionTransactionInfos;\n        string ipfsHash;\n    }\n\n    mapping(string => UserAsset) private assetRecords;\n    mapping(string => UserMilitary) private militaryRecords;\n    mapping(string => UserFamilyTree) private familyTreeRecords;\n    mapping(string => UserSubscriptionTransaction)\n        private subscriptionTransactionRecords;\n\n    mapping(string => UserData) users;\n\n    event UserUpdated(\n        string indexed userId,\n        string email,\n        string name,\n        uint256 age\n    );\n\n    event UserAssetUpdated(\n        string indexed userId,\n        AssetInfo[] assetInfos,\n        string ipfsHash\n    );\n\n    event UserMilitaryUpdated(\n        string indexed userId,\n        MilitaryInfo[] militrayInfos,\n        string ipfsHash\n    );\n\n    event UserFamilyTreeUpdated(\n        string indexed userId,\n        FamilyTreeInfo[] familyTreeInfos,\n        string ipfsHash\n    );\n\n    event UserSubscriptionTransactionUpdated(\n        string indexed userId,\n        SubscriptionTransactionInfo[] subscriptionTransactionInfos,\n        string ipfsHash\n    );\n\n    function setUserData(\n        string memory userId,\n        UserData memory userData\n    ) public {\n        UserData memory newUser = UserData(\n            userData.email,\n            userData.name,\n            userData.age\n        );\n        users[userId] = newUser;\n        emit UserUpdated(userId, userData.email, userData.name, userData.age);\n    }\n\n    function getUserData(\n        string memory userId\n    )\n        public\n        view\n        returns (string memory email, string memory name, uint256 age)\n    {\n        UserData storage user = users[userId];\n        return (user.email, user.name, user.age);\n    }\n\n    function setAssetRecord(\n        string memory userId,\n        string[] memory names,\n        string[] memory typeOfAssets,\n        string[] memory descriptions,\n        string[] memory locations,\n        uint256[] memory purchaseDates,\n        uint256[] memory purchasePrices,\n        string[] memory previousOwners,\n        string memory ipfsHash\n    ) public {\n        require(\n            names.length == typeOfAssets.length &&\n                typeOfAssets.length == descriptions.length &&\n                descriptions.length == locations.length &&\n                locations.length == purchaseDates.length &&\n                purchaseDates.length == purchasePrices.length &&\n                purchasePrices.length == previousOwners.length,\n            \"Input arrays must have the same length\"\n        );\n\n        for (uint256 i = 0; i < names.length; i++) {\n            AssetInfo memory newAsset = AssetInfo({\n                name: names[i],\n                typeOfAsset: typeOfAssets[i],\n                description: descriptions[i],\n                location: locations[i],\n                purchaseDate: purchaseDates[i],\n                purchasePrice: purchasePrices[i],\n                previousOwner: previousOwners[i]\n            });\n\n            assetRecords[userId].assetInfos.push(newAsset);\n        }\n\n        assetRecords[userId].ipfsHash = ipfsHash;\n\n        emit UserAssetUpdated(\n            userId,\n            assetRecords[userId].assetInfos,\n            ipfsHash\n        );\n    }\n\n    function getAssetRecords(\n        string memory userId\n    ) public view returns (AssetInfo[] memory) {\n        return assetRecords[userId].assetInfos;\n    }\n\n    function setAssetIPFSHash(\n        string memory userId,\n        string memory ipfsHash\n    ) public {\n        UserAsset storage userAsset = assetRecords[userId];\n\n        userAsset.ipfsHash = ipfsHash;\n\n        emit UserAssetUpdated(userId, userAsset.assetInfos, ipfsHash);\n    }\n\n    function getAssetIPFSHash(\n        string memory userId\n    ) public view returns (string memory) {\n        return assetRecords[userId].ipfsHash;\n    }\n\n    function setMilitaryRecord(\n        string memory userId,\n        string[] memory names,\n        uint256[] memory dateOfBirths,\n        string[] memory stateOfMilitarys,\n        uint256[] memory postponementDates,\n        uint256[] memory dateOfConstructions,\n        string memory ipfsHash\n    ) public {\n        require(\n            names.length == dateOfBirths.length &&\n                dateOfBirths.length == stateOfMilitarys.length &&\n                stateOfMilitarys.length == postponementDates.length &&\n                postponementDates.length == dateOfConstructions.length,\n            \"Input arrays must have the same length\"\n        );\n\n        for (uint256 i = 0; i < names.length; i++) {\n            MilitaryInfo memory newMilitary = MilitaryInfo({\n                name: names[i],\n                dateOfBirth: dateOfBirths[i],\n                stateOfMilitary: stateOfMilitarys[i],\n                postponementDate: postponementDates[i],\n                dateOfConstruction: dateOfConstructions[i]\n            });\n\n            militaryRecords[userId].militaryInfos.push(newMilitary);\n        }\n\n        militaryRecords[userId].ipfsHash = ipfsHash;\n\n        emit UserMilitaryUpdated(\n            userId,\n            militaryRecords[userId].militaryInfos,\n            ipfsHash\n        );\n    }\n\n    function getMilitaryRecords(\n        string memory userId\n    ) public view returns (MilitaryInfo[] memory) {\n        return militaryRecords[userId].militaryInfos;\n    }\n\n    function setMilitaryIPFSHash(\n        string memory userId,\n        string memory ipfsHash\n    ) public {\n        UserMilitary storage userMilitary = militaryRecords[userId];\n\n        userMilitary.ipfsHash = ipfsHash;\n\n        emit UserMilitaryUpdated(userId, userMilitary.militaryInfos, ipfsHash);\n    }\n\n    function getMilitaryIPFSHash(\n        string memory userId\n    ) public view returns (string memory) {\n        return militaryRecords[userId].ipfsHash;\n    }\n\n    function setFamilyTreeRecord(\n        string memory userId,\n        string[] memory genders,\n        string[] memory degreeOfRelationships,\n        string[] memory names,\n        string[] memory surnames,\n        string[] memory fathersNames,\n        string[] memory mothersNames,\n        uint256[] memory dateOfBirths,\n        string[] memory statuss,\n        uint256[] memory dateOfDeaths,\n        string memory ipfsHash\n    ) public {\n        require(\n            genders.length == degreeOfRelationships.length &&\n                degreeOfRelationships.length == names.length &&\n                names.length == surnames.length &&\n                surnames.length == fathersNames.length &&\n                fathersNames.length == mothersNames.length &&\n                mothersNames.length == dateOfBirths.length &&\n                dateOfBirths.length == statuss.length &&\n                statuss.length == dateOfDeaths.length,\n            \"Input arrays must have the same length\"\n        );\n\n        for (uint256 i = 0; i < genders.length; i++) {\n            FamilyTreeInfo memory newFamilyTree = FamilyTreeInfo({\n                gender: genders[i],\n                degreeOfRelationship: degreeOfRelationships[i],\n                name: names[i],\n                surname: surnames[i],\n                fathersName: fathersNames[i],\n                mothersName: mothersNames[i],\n                dateOfBirth: dateOfBirths[i],\n                status: statuss[i],\n                dateOfDeath: dateOfDeaths[i]\n            });\n\n            familyTreeRecords[userId].familyTreeInfos.push(newFamilyTree);\n        }\n\n        familyTreeRecords[userId].ipfsHash = ipfsHash;\n\n        emit UserFamilyTreeUpdated(\n            userId,\n            familyTreeRecords[userId].familyTreeInfos,\n            ipfsHash\n        );\n    }\n\n    function getFamilyTreeRecords(\n        string memory userId\n    ) public view returns (FamilyTreeInfo[] memory) {\n        return familyTreeRecords[userId].familyTreeInfos;\n    }\n\n    function setFamilyTreeIPFSHash(\n        string memory userId,\n        string memory ipfsHash\n    ) public {\n        UserFamilyTree storage userFamilyTree = familyTreeRecords[userId];\n\n        userFamilyTree.ipfsHash = ipfsHash;\n\n        emit UserFamilyTreeUpdated(\n            userId,\n            userFamilyTree.familyTreeInfos,\n            ipfsHash\n        );\n    }\n\n    function getFamilyTreeIPFSHash(\n        string memory userId\n    ) public view returns (string memory) {\n        return familyTreeRecords[userId].ipfsHash;\n    }\n\n    function setSubscriptionTransactionRecord(\n        string memory userId,\n        string[] memory subscriptionTypes,\n        string[] memory companyNames,\n        uint256[] memory subscriptionStartDates,\n        uint256[] memory subscriptionEndDates,\n        string[] memory subscriberNames,\n        string[] memory subscriberSurnames,\n        string memory ipfsHash\n    ) public {\n        require(\n            subscriptionTypes.length == companyNames.length &&\n                companyNames.length == subscriptionStartDates.length &&\n                subscriptionStartDates.length == subscriptionEndDates.length &&\n                subscriptionEndDates.length == subscriberNames.length &&\n                subscriberNames.length == subscriberSurnames.length,\n            \"Input arrays must have the same length\"\n        );\n\n        for (uint256 i = 0; i < subscriptionTypes.length; i++) {\n            SubscriptionTransactionInfo\n                memory newSubscriptionTransaction = SubscriptionTransactionInfo({\n                    subscriptionType: subscriptionTypes[i],\n                    companyName: companyNames[i],\n                    subscriptionStartDate: subscriptionStartDates[i],\n                    subscriptionEndDate: subscriptionEndDates[i],\n                    subscriberName: subscriberNames[i],\n                    subscriberSurname: subscriberSurnames[i]\n                });\n\n            subscriptionTransactionRecords[userId]\n                .subscriptionTransactionInfos\n                .push(newSubscriptionTransaction);\n        }\n\n        subscriptionTransactionRecords[userId].ipfsHash = ipfsHash;\n\n        emit UserSubscriptionTransactionUpdated(\n            userId,\n            subscriptionTransactionRecords[userId].subscriptionTransactionInfos,\n            ipfsHash\n        );\n    }\n\n    function getSubscriptionTransactionRecords(\n        string memory userId\n    ) public view returns (SubscriptionTransactionInfo[] memory) {\n        return\n            subscriptionTransactionRecords[userId].subscriptionTransactionInfos;\n    }\n\n    function setSubscriptionTransactionIPFSHash(\n        string memory userId,\n        string memory ipfsHash\n    ) public {\n        UserSubscriptionTransaction\n            storage userSubscriptionTransaction = subscriptionTransactionRecords[\n                userId\n            ];\n\n        userSubscriptionTransaction.ipfsHash = ipfsHash;\n\n        emit UserSubscriptionTransactionUpdated(\n            userId,\n            userSubscriptionTransaction.subscriptionTransactionInfos,\n            ipfsHash\n        );\n    }\n\n    function getSubscriptionTransactionIPFSHash(\n        string memory userId\n    ) public view returns (string memory) {\n        return subscriptionTransactionRecords[userId].ipfsHash;\n    }\n}\n",
  "sourcePath": "/Users/kmlcnclk/Projects/Github/my-devlet/contracts/UserContract1.sol",
  "compiler": {
    "name": "solc",
    "version": "0.8.19+commit.7dd6d404.Emscripten.clang"
  },
  "schemaVersion": "3.4.16",
  "updatedAt": "2024-06-02T13:41:13.401Z",
  "devdoc": {
    "kind": "dev",
    "methods": {},
    "version": 1
  },
  "userdoc": {
    "kind": "user",
    "methods": {},
    "version": 1
  }
}