{
  "contractName": "UserContract1",
  "abi": [
    {
      "anonymous": false,
      "inputs": [
        {
          "indexed": true,
          "internalType": "string",
          "name": "userId",
          "type": "string"
        },
        {
          "components": [
            {
              "internalType": "string",
              "name": "name",
              "type": "string"
            },
            {
              "internalType": "string",
              "name": "typeOfAsset",
              "type": "string"
            },
            {
              "internalType": "string",
              "name": "description",
              "type": "string"
            },
            {
              "internalType": "string",
              "name": "location",
              "type": "string"
            },
            {
              "internalType": "uint256",
              "name": "purchaseDate",
              "type": "uint256"
            },
            {
              "internalType": "uint256",
              "name": "purchasePrice",
              "type": "uint256"
            },
            {
              "internalType": "string",
              "name": "previousOwner",
              "type": "string"
            }
          ],
          "indexed": false,
          "internalType": "struct UserContract1.AssetInfo[]",
          "name": "assetInfos",
          "type": "tuple[]"
        },
        {
          "indexed": false,
          "internalType": "string",
          "name": "ipfsHash",
          "type": "string"
        }
      ],
      "name": "UserAssetUpdated",
      "type": "event"
    },
    {
      "anonymous": false,
      "inputs": [
        {
          "indexed": true,
          "internalType": "string",
          "name": "userId",
          "type": "string"
        },
        {
          "components": [
            {
              "internalType": "string",
              "name": "gender",
              "type": "string"
            },
            {
              "internalType": "string",
              "name": "degreeOfRelationship",
              "type": "string"
            },
            {
              "internalType": "string",
              "name": "name",
              "type": "string"
            },
            {
              "internalType": "string",
              "name": "surname",
              "type": "string"
            },
            {
              "internalType": "string",
              "name": "fathersName",
              "type": "string"
            },
            {
              "internalType": "string",
              "name": "mothersName",
              "type": "string"
            },
            {
              "internalType": "uint256",
              "name": "dateOfBirth",
              "type": "uint256"
            },
            {
              "internalType": "string",
              "name": "status",
              "type": "string"
            },
            {
              "internalType": "uint256",
              "name": "dateOfDeath",
              "type": "uint256"
            }
          ],
          "indexed": false,
          "internalType": "struct UserContract1.FamilyTreeInfo[]",
          "name": "familyTreeInfos",
          "type": "tuple[]"
        },
        {
          "indexed": false,
          "internalType": "string",
          "name": "ipfsHash",
          "type": "string"
        }
      ],
      "name": "UserFamilyTreeUpdated",
      "type": "event"
    },
    {
      "anonymous": false,
      "inputs": [
        {
          "indexed": true,
          "internalType": "string",
          "name": "userId",
          "type": "string"
        },
        {
          "components": [
            {
              "internalType": "string",
              "name": "name",
              "type": "string"
            },
            {
              "internalType": "uint256",
              "name": "dateOfBirth",
              "type": "uint256"
            },
            {
              "internalType": "string",
              "name": "stateOfMilitary",
              "type": "string"
            },
            {
              "internalType": "uint256",
              "name": "postponementDate",
              "type": "uint256"
            },
            {
              "internalType": "uint256",
              "name": "dateOfConstruction",
              "type": "uint256"
            }
          ],
          "indexed": false,
          "internalType": "struct UserContract1.MilitaryInfo[]",
          "name": "militrayInfos",
          "type": "tuple[]"
        },
        {
          "indexed": false,
          "internalType": "string",
          "name": "ipfsHash",
          "type": "string"
        }
      ],
      "name": "UserMilitaryUpdated",
      "type": "event"
    },
    {
      "anonymous": false,
      "inputs": [
        {
          "indexed": true,
          "internalType": "string",
          "name": "userId",
          "type": "string"
        },
        {
          "indexed": false,
          "internalType": "string",
          "name": "email",
          "type": "string"
        },
        {
          "indexed": false,
          "internalType": "string",
          "name": "name",
          "type": "string"
        },
        {
          "indexed": false,
          "internalType": "uint256",
          "name": "age",
          "type": "uint256"
        }
      ],
      "name": "UserUpdated",
      "type": "event"
    },
    {
      "inputs": [
        {
          "internalType": "string",
          "name": "userId",
          "type": "string"
        },
        {
          "components": [
            {
              "internalType": "string",
              "name": "email",
              "type": "string"
            },
            {
              "internalType": "string",
              "name": "name",
              "type": "string"
            },
            {
              "internalType": "uint256",
              "name": "age",
              "type": "uint256"
            }
          ],
          "internalType": "struct UserContract1.UserData",
          "name": "userData",
          "type": "tuple"
        }
      ],
      "name": "setUserData",
      "outputs": [],
      "stateMutability": "nonpayable",
      "type": "function"
    },
    {
      "inputs": [
        {
          "internalType": "string",
          "name": "userId",
          "type": "string"
        }
      ],
      "name": "getUserData",
      "outputs": [
        {
          "internalType": "string",
          "name": "email",
          "type": "string"
        },
        {
          "internalType": "string",
          "name": "name",
          "type": "string"
        },
        {
          "internalType": "uint256",
          "name": "age",
          "type": "uint256"
        }
      ],
      "stateMutability": "view",
      "type": "function"
    },
    {
      "inputs": [
        {
          "internalType": "string",
          "name": "userId",
          "type": "string"
        },
        {
          "internalType": "string[]",
          "name": "names",
          "type": "string[]"
        },
        {
          "internalType": "string[]",
          "name": "typeOfAssets",
          "type": "string[]"
        },
        {
          "internalType": "string[]",
          "name": "descriptions",
          "type": "string[]"
        },
        {
          "internalType": "string[]",
          "name": "locations",
          "type": "string[]"
        },
        {
          "internalType": "uint256[]",
          "name": "purchaseDates",
          "type": "uint256[]"
        },
        {
          "internalType": "uint256[]",
          "name": "purchasePrices",
          "type": "uint256[]"
        },
        {
          "internalType": "string[]",
          "name": "previousOwners",
          "type": "string[]"
        },
        {
          "internalType": "string",
          "name": "ipfsHash",
          "type": "string"
        }
      ],
      "name": "setAssetRecord",
      "outputs": [],
      "stateMutability": "nonpayable",
      "type": "function"
    },
    {
      "inputs": [
        {
          "internalType": "string",
          "name": "userId",
          "type": "string"
        }
      ],
      "name": "getAssetRecords",
      "outputs": [
        {
          "components": [
            {
              "internalType": "string",
              "name": "name",
              "type": "string"
            },
            {
              "internalType": "string",
              "name": "typeOfAsset",
              "type": "string"
            },
            {
              "internalType": "string",
              "name": "description",
              "type": "string"
            },
            {
              "internalType": "string",
              "name": "location",
              "type": "string"
            },
            {
              "internalType": "uint256",
              "name": "purchaseDate",
              "type": "uint256"
            },
            {
              "internalType": "uint256",
              "name": "purchasePrice",
              "type": "uint256"
            },
            {
              "internalType": "string",
              "name": "previousOwner",
              "type": "string"
            }
          ],
          "internalType": "struct UserContract1.AssetInfo[]",
          "name": "",
          "type": "tuple[]"
        }
      ],
      "stateMutability": "view",
      "type": "function"
    },
    {
      "inputs": [
        {
          "internalType": "string",
          "name": "userId",
          "type": "string"
        },
        {
          "internalType": "string",
          "name": "ipfsHash",
          "type": "string"
        }
      ],
      "name": "setAssetIPFSHash",
      "outputs": [],
      "stateMutability": "nonpayable",
      "type": "function"
    },
    {
      "inputs": [
        {
          "internalType": "string",
          "name": "userId",
          "type": "string"
        }
      ],
      "name": "getAssetIPFSHash",
      "outputs": [
        {
          "internalType": "string",
          "name": "",
          "type": "string"
        }
      ],
      "stateMutability": "view",
      "type": "function"
    },
    {
      "inputs": [
        {
          "internalType": "string",
          "name": "userId",
          "type": "string"
        },
        {
          "internalType": "string[]",
          "name": "names",
          "type": "string[]"
        },
        {
          "internalType": "uint256[]",
          "name": "dateOfBirths",
          "type": "uint256[]"
        },
        {
          "internalType": "string[]",
          "name": "stateOfMilitarys",
          "type": "string[]"
        },
        {
          "internalType": "uint256[]",
          "name": "postponementDates",
          "type": "uint256[]"
        },
        {
          "internalType": "uint256[]",
          "name": "dateOfConstructions",
          "type": "uint256[]"
        },
        {
          "internalType": "string",
          "name": "ipfsHash",
          "type": "string"
        }
      ],
      "name": "setMilitaryRecord",
      "outputs": [],
      "stateMutability": "nonpayable",
      "type": "function"
    },
    {
      "inputs": [
        {
          "internalType": "string",
          "name": "userId",
          "type": "string"
        }
      ],
      "name": "getMilitaryRecords",
      "outputs": [
        {
          "components": [
            {
              "internalType": "string",
              "name": "name",
              "type": "string"
            },
            {
              "internalType": "uint256",
              "name": "dateOfBirth",
              "type": "uint256"
            },
            {
              "internalType": "string",
              "name": "stateOfMilitary",
              "type": "string"
            },
            {
              "internalType": "uint256",
              "name": "postponementDate",
              "type": "uint256"
            },
            {
              "internalType": "uint256",
              "name": "dateOfConstruction",
              "type": "uint256"
            }
          ],
          "internalType": "struct UserContract1.MilitaryInfo[]",
          "name": "",
          "type": "tuple[]"
        }
      ],
      "stateMutability": "view",
      "type": "function"
    },
    {
      "inputs": [
        {
          "internalType": "string",
          "name": "userId",
          "type": "string"
        },
        {
          "internalType": "string",
          "name": "ipfsHash",
          "type": "string"
        }
      ],
      "name": "setMilitaryIPFSHash",
      "outputs": [],
      "stateMutability": "nonpayable",
      "type": "function"
    },
    {
      "inputs": [
        {
          "internalType": "string",
          "name": "userId",
          "type": "string"
        }
      ],
      "name": "getMilitaryIPFSHash",
      "outputs": [
        {
          "internalType": "string",
          "name": "",
          "type": "string"
        }
      ],
      "stateMutability": "view",
      "type": "function"
    },
    {
      "inputs": [
        {
          "internalType": "string",
          "name": "userId",
          "type": "string"
        },
        {
          "internalType": "string[]",
          "name": "genders",
          "type": "string[]"
        },
        {
          "internalType": "string[]",
          "name": "degreeOfRelationships",
          "type": "string[]"
        },
        {
          "internalType": "string[]",
          "name": "names",
          "type": "string[]"
        },
        {
          "internalType": "string[]",
          "name": "surnames",
          "type": "string[]"
        },
        {
          "internalType": "string[]",
          "name": "fathersNames",
          "type": "string[]"
        },
        {
          "internalType": "string[]",
          "name": "mothersNames",
          "type": "string[]"
        },
        {
          "internalType": "uint256[]",
          "name": "dateOfBirths",
          "type": "uint256[]"
        },
        {
          "internalType": "string[]",
          "name": "statuss",
          "type": "string[]"
        },
        {
          "internalType": "uint256[]",
          "name": "dateOfDeaths",
          "type": "uint256[]"
        },
        {
          "internalType": "string",
          "name": "ipfsHash",
          "type": "string"
        }
      ],
      "name": "setFamilyTreeRecord",
      "outputs": [],
      "stateMutability": "nonpayable",
      "type": "function"
    },
    {
      "inputs": [
        {
          "internalType": "string",
          "name": "userId",
          "type": "string"
        }
      ],
      "name": "getFamilyTreeRecords",
      "outputs": [
        {
          "components": [
            {
              "internalType": "string",
              "name": "gender",
              "type": "string"
            },
            {
              "internalType": "string",
              "name": "degreeOfRelationship",
              "type": "string"
            },
            {
              "internalType": "string",
              "name": "name",
              "type": "string"
            },
            {
              "internalType": "string",
              "name": "surname",
              "type": "string"
            },
            {
              "internalType": "string",
              "name": "fathersName",
              "type": "string"
            },
            {
              "internalType": "string",
              "name": "mothersName",
              "type": "string"
            },
            {
              "internalType": "uint256",
              "name": "dateOfBirth",
              "type": "uint256"
            },
            {
              "internalType": "string",
              "name": "status",
              "type": "string"
            },
            {
              "internalType": "uint256",
              "name": "dateOfDeath",
              "type": "uint256"
            }
          ],
          "internalType": "struct UserContract1.FamilyTreeInfo[]",
          "name": "",
          "type": "tuple[]"
        }
      ],
      "stateMutability": "view",
      "type": "function"
    },
    {
      "inputs": [
        {
          "internalType": "string",
          "name": "userId",
          "type": "string"
        },
        {
          "internalType": "string",
          "name": "ipfsHash",
          "type": "string"
        }
      ],
      "name": "setFamilyTreeIPFSHash",
      "outputs": [],
      "stateMutability": "nonpayable",
      "type": "function"
    },
    {
      "inputs": [
        {
          "internalType": "string",
          "name": "userId",
          "type": "string"
        }
      ],
      "name": "getFamilyTreeIPFSHash",
      "outputs": [
        {
          "internalType": "string",
          "name": "",
          "type": "string"
        }
      ],
      "stateMutability": "view",
      "type": "function"
    }
  ],
  "bytecode": "0x608060405234801561001057600080fd5b506136e0806100206000396000f3fe608060405234801561001057600080fd5b50600436106100ea5760003560e01c806370b930d81161008c578063b0afe8b711610066578063b0afe8b714610281578063be36f1741461029d578063d9504313146102b9578063ed57160e146102e9576100ea565b806370b930d81461020557806379cd86b114610221578063a7fadecd14610251576100ea565b80632bc890a4116100c85780632bc890a41461015757806336be5d68146101875780633de353b4146101a357806354ab2403146101d3576100ea565b806307b1ff76146100ef5780631e438a621461010b578063258780d01461013b575b600080fd5b61010960048036038101906101049190611f0f565b610305565b005b61012560048036038101906101209190612075565b61057c565b604051610132919061213d565b60405180910390f35b6101556004803603810190610150919061215f565b61062f565b005b610171600480360381019061016c9190612075565b6106ba565b60405161017e91906123e1565b60405180910390f35b6101a1600480360381019061019c919061215f565b610b4d565b005b6101bd60048036038101906101b89190612075565b610bd7565b6040516101ca919061213d565b60405180910390f35b6101ed60048036038101906101e89190612075565b610c8a565b6040516101fc93929190612412565b60405180910390f35b61021f600480360381019061021a919061215f565b610de3565b005b61023b60048036038101906102369190612075565b610e6e565b604051610248919061213d565b60405180910390f35b61026b60048036038101906102669190612075565b610f21565b6040516102789190612596565b60405180910390f35b61029b600480360381019061029691906125b8565b6110e3565b005b6102b760048036038101906102b29190612886565b611478565b005b6102d360048036038101906102ce9190612075565b61155d565b6040516102e09190612a78565b60405180910390f35b61030360048036038101906102fe9190612a9a565b6118cb565b005b84518651148015610317575083518551145b8015610324575082518451145b8015610331575081518351145b610370576040517f08c379a000000000000000000000000000000000000000000000000000000000815260040161036790612cd2565b60405180910390fd5b60005b86518110156104d45760006040518060a0016040528089848151811061039c5761039b612cf2565b5b602002602001015181526020018884815181106103bc576103bb612cf2565b5b602002602001015181526020018784815181106103dc576103db612cf2565b5b602002602001015181526020018684815181106103fc576103fb612cf2565b5b6020026020010151815260200185848151811061041c5761041b612cf2565b5b602002602001015181525090506001896040516104399190612d5d565b908152602001604051809103902060000181908060018154018082558091505060019003906000526020600020906005020160009091909190915060008201518160000190816104899190612f80565b506020820151816001015560408201518160020190816104a99190612f80565b50606082015181600301556080820151816004015550505080806104cc90613081565b915050610373565b50806001886040516104e69190612d5d565b908152602001604051809103902060010190816105039190612f80565b50866040516105129190612d5d565b60405180910390207fe846e5c8527de6621c9ff6536ceef75e2bdaf39aa3d060c3ce5ec4caf88a690260018960405161054b9190612d5d565b90815260200160405180910390206000018360405161056b9291906132d1565b60405180910390a250505050505050565b606060028260405161058e9190612d5d565b908152602001604051809103902060010180546105aa90612da3565b80601f01602080910402602001604051908101604052809291908181526020018280546105d690612da3565b80156106235780601f106105f857610100808354040283529160200191610623565b820191906000526020600020905b81548152906001019060200180831161060657829003601f168201915b50505050509050919050565b60006001836040516106419190612d5d565b90815260200160405180910390209050818160010190816106629190612f80565b50826040516106719190612d5d565b60405180910390207fe846e5c8527de6621c9ff6536ceef75e2bdaf39aa3d060c3ce5ec4caf88a690282600001846040516106ad9291906132d1565b60405180910390a2505050565b60606002826040516106cc9190612d5d565b9081526020016040518091039020600001805480602002602001604051908101604052809291908181526020016000905b82821015610b4257838290600052602060002090600902016040518061012001604052908160008201805461073190612da3565b80601f016020809104026020016040519081016040528092919081815260200182805461075d90612da3565b80156107aa5780601f1061077f576101008083540402835291602001916107aa565b820191906000526020600020905b81548152906001019060200180831161078d57829003601f168201915b505050505081526020016001820180546107c390612da3565b80601f01602080910402602001604051908101604052809291908181526020018280546107ef90612da3565b801561083c5780601f106108115761010080835404028352916020019161083c565b820191906000526020600020905b81548152906001019060200180831161081f57829003601f168201915b5050505050815260200160028201805461085590612da3565b80601f016020809104026020016040519081016040528092919081815260200182805461088190612da3565b80156108ce5780601f106108a3576101008083540402835291602001916108ce565b820191906000526020600020905b8154815290600101906020018083116108b157829003601f168201915b505050505081526020016003820180546108e790612da3565b80601f016020809104026020016040519081016040528092919081815260200182805461091390612da3565b80156109605780601f1061093557610100808354040283529160200191610960565b820191906000526020600020905b81548152906001019060200180831161094357829003601f168201915b5050505050815260200160048201805461097990612da3565b80601f01602080910402602001604051908101604052809291908181526020018280546109a590612da3565b80156109f25780601f106109c7576101008083540402835291602001916109f2565b820191906000526020600020905b8154815290600101906020018083116109d557829003601f168201915b50505050508152602001600582018054610a0b90612da3565b80601f0160208091040260200160405190810160405280929190818152602001828054610a3790612da3565b8015610a845780601f10610a5957610100808354040283529160200191610a84565b820191906000526020600020905b815481529060010190602001808311610a6757829003601f168201915b5050505050815260200160068201548152602001600782018054610aa790612da3565b80601f0160208091040260200160405190810160405280929190818152602001828054610ad390612da3565b8015610b205780601f10610af557610100808354040283529160200191610b20565b820191906000526020600020905b815481529060010190602001808311610b0357829003601f168201915b50505050508152602001600882015481525050815260200190600101906106fd565b505050509050919050565b60008083604051610b5e9190612d5d565b9081526020016040518091039020905081816001019081610b7f9190612f80565b5082604051610b8e9190612d5d565b60405180910390207f0e75504658d8f7da833ca990d560e9f28e66c5605d2796eb99b9960f838677958260000184604051610bca929190613488565b60405180910390a2505050565b6060600082604051610be99190612d5d565b90815260200160405180910390206001018054610c0590612da3565b80601f0160208091040260200160405190810160405280929190818152602001828054610c3190612da3565b8015610c7e5780601f10610c5357610100808354040283529160200191610c7e565b820191906000526020600020905b815481529060010190602001808311610c6157829003601f168201915b50505050509050919050565b606080600080600385604051610ca09190612d5d565b9081526020016040518091039020905080600001816001018260020154828054610cc990612da3565b80601f0160208091040260200160405190810160405280929190818152602001828054610cf590612da3565b8015610d425780601f10610d1757610100808354040283529160200191610d42565b820191906000526020600020905b815481529060010190602001808311610d2557829003601f168201915b50505050509250818054610d5590612da3565b80601f0160208091040260200160405190810160405280929190818152602001828054610d8190612da3565b8015610dce5780601f10610da357610100808354040283529160200191610dce565b820191906000526020600020905b815481529060010190602001808311610db157829003601f168201915b50505050509150935093509350509193909250565b6000600283604051610df59190612d5d565b9081526020016040518091039020905081816001019081610e169190612f80565b5082604051610e259190612d5d565b60405180910390207f9c223b809f5d8e71d43f0c72892e8e61c6ab78086b06fc5ffb93951ccfa03fa38260000184604051610e61929190613673565b60405180910390a2505050565b6060600182604051610e809190612d5d565b90815260200160405180910390206001018054610e9c90612da3565b80601f0160208091040260200160405190810160405280929190818152602001828054610ec890612da3565b8015610f155780601f10610eea57610100808354040283529160200191610f15565b820191906000526020600020905b815481529060010190602001808311610ef857829003601f168201915b50505050509050919050565b6060600182604051610f339190612d5d565b9081526020016040518091039020600001805480602002602001604051908101604052809291908181526020016000905b828210156110d857838290600052602060002090600502016040518060a0016040529081600082018054610f9790612da3565b80601f0160208091040260200160405190810160405280929190818152602001828054610fc390612da3565b80156110105780601f10610fe557610100808354040283529160200191611010565b820191906000526020600020905b815481529060010190602001808311610ff357829003601f168201915b505050505081526020016001820154815260200160028201805461103390612da3565b80601f016020809104026020016040519081016040528092919081815260200182805461105f90612da3565b80156110ac5780601f10611081576101008083540402835291602001916110ac565b820191906000526020600020905b81548152906001019060200180831161108f57829003601f168201915b505050505081526020016003820154815260200160048201548152505081526020019060010190610f64565b505050509050919050565b88518a511480156110f5575087518951145b8015611102575086518851145b801561110f575085518751145b801561111c575084518651145b8015611129575083518551145b8015611136575082518451145b8015611143575081518351145b611182576040517f08c379a000000000000000000000000000000000000000000000000000000000815260040161117990612cd2565b60405180910390fd5b60005b8a518110156113cc5760006040518061012001604052808d84815181106111af576111ae612cf2565b5b602002602001015181526020018c84815181106111cf576111ce612cf2565b5b602002602001015181526020018b84815181106111ef576111ee612cf2565b5b602002602001015181526020018a848151811061120f5761120e612cf2565b5b6020026020010151815260200189848151811061122f5761122e612cf2565b5b6020026020010151815260200188848151811061124f5761124e612cf2565b5b6020026020010151815260200187848151811061126f5761126e612cf2565b5b6020026020010151815260200186848151811061128f5761128e612cf2565b5b602002602001015181526020018584815181106112af576112ae612cf2565b5b6020026020010151815250905060028d6040516112cc9190612d5d565b9081526020016040518091039020600001819080600181540180825580915050600190039060005260206000209060090201600090919091909150600082015181600001908161131c9190612f80565b5060208201518160010190816113329190612f80565b5060408201518160020190816113489190612f80565b50606082015181600301908161135e9190612f80565b5060808201518160040190816113749190612f80565b5060a082015181600501908161138a9190612f80565b5060c0820151816006015560e08201518160070190816113aa9190612f80565b50610100820151816008015550505080806113c490613081565b915050611185565b508060028c6040516113de9190612d5d565b908152602001604051809103902060010190816113fb9190612f80565b508a60405161140a9190612d5d565b60405180910390207f9c223b809f5d8e71d43f0c72892e8e61c6ab78086b06fc5ffb93951ccfa03fa360028d6040516114439190612d5d565b908152602001604051809103902060000183604051611463929190613673565b60405180910390a25050505050505050505050565b60006040518060600160405280836000015181526020018360200151815260200183604001518152509050806003846040516114b49190612d5d565b908152602001604051809103902060008201518160000190816114d79190612f80565b5060208201518160010190816114ed9190612f80565b5060408201518160020155905050826040516115099190612d5d565b60405180910390207f4f24336055d992bf20f44d53f6f7e8909075915f2bc6830d7a7963652fcbf72983600001518460200151856040015160405161155093929190612412565b60405180910390a2505050565b606060008260405161156f9190612d5d565b9081526020016040518091039020600001805480602002602001604051908101604052809291908181526020016000905b828210156118c057838290600052602060002090600702016040518060e00160405290816000820180546115d390612da3565b80601f01602080910402602001604051908101604052809291908181526020018280546115ff90612da3565b801561164c5780601f106116215761010080835404028352916020019161164c565b820191906000526020600020905b81548152906001019060200180831161162f57829003601f168201915b5050505050815260200160018201805461166590612da3565b80601f016020809104026020016040519081016040528092919081815260200182805461169190612da3565b80156116de5780601f106116b3576101008083540402835291602001916116de565b820191906000526020600020905b8154815290600101906020018083116116c157829003601f168201915b505050505081526020016002820180546116f790612da3565b80601f016020809104026020016040519081016040528092919081815260200182805461172390612da3565b80156117705780601f1061174557610100808354040283529160200191611770565b820191906000526020600020905b81548152906001019060200180831161175357829003601f168201915b5050505050815260200160038201805461178990612da3565b80601f01602080910402602001604051908101604052809291908181526020018280546117b590612da3565b80156118025780601f106117d757610100808354040283529160200191611802565b820191906000526020600020905b8154815290600101906020018083116117e557829003601f168201915b50505050508152602001600482015481526020016005820154815260200160068201805461182f90612da3565b80601f016020809104026020016040519081016040528092919081815260200182805461185b90612da3565b80156118a85780601f1061187d576101008083540402835291602001916118a8565b820191906000526020600020905b81548152906001019060200180831161188b57829003601f168201915b505050505081525050815260200190600101906115a0565b505050509050919050565b865188511480156118dd575085518751145b80156118ea575084518651145b80156118f7575083518551145b8015611904575082518451145b8015611911575081518351145b611950576040517f08c379a000000000000000000000000000000000000000000000000000000000815260040161194790612cd2565b60405180910390fd5b60005b8851811015611b2c5760006040518060e001604052808b848151811061197c5761197b612cf2565b5b602002602001015181526020018a848151811061199c5761199b612cf2565b5b602002602001015181526020018984815181106119bc576119bb612cf2565b5b602002602001015181526020018884815181106119dc576119db612cf2565b5b602002602001015181526020018784815181106119fc576119fb612cf2565b5b60200260200101518152602001868481518110611a1c57611a1b612cf2565b5b60200260200101518152602001858481518110611a3c57611a3b612cf2565b5b6020026020010151815250905060008b604051611a599190612d5d565b90815260200160405180910390206000018190806001815401808255809150506001900390600052602060002090600702016000909190919091506000820151816000019081611aa99190612f80565b506020820151816001019081611abf9190612f80565b506040820151816002019081611ad59190612f80565b506060820151816003019081611aeb9190612f80565b506080820151816004015560a0820151816005015560c0820151816006019081611b159190612f80565b505050508080611b2490613081565b915050611953565b508060008a604051611b3e9190612d5d565b90815260200160405180910390206001019081611b5b9190612f80565b5088604051611b6a9190612d5d565b60405180910390207f0e75504658d8f7da833ca990d560e9f28e66c5605d2796eb99b9960f8386779560008b604051611ba39190612d5d565b908152602001604051809103902060000183604051611bc3929190613488565b60405180910390a2505050505050505050565b6000604051905090565b600080fd5b600080fd5b600080fd5b600080fd5b6000601f19601f8301169050919050565b7f4e487b7100000000000000000000000000000000000000000000000000000000600052604160045260246000fd5b611c3d82611bf4565b810181811067ffffffffffffffff82111715611c5c57611c5b611c05565b5b80604052505050565b6000611c6f611bd6565b9050611c7b8282611c34565b919050565b600067ffffffffffffffff821115611c9b57611c9a611c05565b5b611ca482611bf4565b9050602081019050919050565b82818337600083830152505050565b6000611cd3611cce84611c80565b611c65565b905082815260208101848484011115611cef57611cee611bef565b5b611cfa848285611cb1565b509392505050565b600082601f830112611d1757611d16611bea565b5b8135611d27848260208601611cc0565b91505092915050565b600067ffffffffffffffff821115611d4b57611d4a611c05565b5b602082029050602081019050919050565b600080fd5b6000611d74611d6f84611d30565b611c65565b90508083825260208201905060208402830185811115611d9757611d96611d5c565b5b835b81811015611dde57803567ffffffffffffffff811115611dbc57611dbb611bea565b5b808601611dc98982611d02565b85526020850194505050602081019050611d99565b5050509392505050565b600082601f830112611dfd57611dfc611bea565b5b8135611e0d848260208601611d61565b91505092915050565b600067ffffffffffffffff821115611e3157611e30611c05565b5b602082029050602081019050919050565b6000819050919050565b611e5581611e42565b8114611e6057600080fd5b50565b600081359050611e7281611e4c565b92915050565b6000611e8b611e8684611e16565b611c65565b90508083825260208201905060208402830185811115611eae57611ead611d5c565b5b835b81811015611ed75780611ec38882611e63565b845260208401935050602081019050611eb0565b5050509392505050565b600082601f830112611ef657611ef5611bea565b5b8135611f06848260208601611e78565b91505092915050565b600080600080600080600060e0888a031215611f2e57611f2d611be0565b5b600088013567ffffffffffffffff811115611f4c57611f4b611be5565b5b611f588a828b01611d02565b975050602088013567ffffffffffffffff811115611f7957611f78611be5565b5b611f858a828b01611de8565b965050604088013567ffffffffffffffff811115611fa657611fa5611be5565b5b611fb28a828b01611ee1565b955050606088013567ffffffffffffffff811115611fd357611fd2611be5565b5b611fdf8a828b01611de8565b945050608088013567ffffffffffffffff81111561200057611fff611be5565b5b61200c8a828b01611ee1565b93505060a088013567ffffffffffffffff81111561202d5761202c611be5565b5b6120398a828b01611ee1565b92505060c088013567ffffffffffffffff81111561205a57612059611be5565b5b6120668a828b01611d02565b91505092959891949750929550565b60006020828403121561208b5761208a611be0565b5b600082013567ffffffffffffffff8111156120a9576120a8611be5565b5b6120b584828501611d02565b91505092915050565b600081519050919050565b600082825260208201905092915050565b60005b838110156120f85780820151818401526020810190506120dd565b60008484015250505050565b600061210f826120be565b61211981856120c9565b93506121298185602086016120da565b61213281611bf4565b840191505092915050565b600060208201905081810360008301526121578184612104565b905092915050565b6000806040838503121561217657612175611be0565b5b600083013567ffffffffffffffff81111561219457612193611be5565b5b6121a085828601611d02565b925050602083013567ffffffffffffffff8111156121c1576121c0611be5565b5b6121cd85828601611d02565b9150509250929050565b600081519050919050565b600082825260208201905092915050565b6000819050602082019050919050565b600082825260208201905092915050565b600061221f826120be565b6122298185612203565b93506122398185602086016120da565b61224281611bf4565b840191505092915050565b61225681611e42565b82525050565b600061012083016000830151848203600086015261227a8282612214565b915050602083015184820360208601526122948282612214565b915050604083015184820360408601526122ae8282612214565b915050606083015184820360608601526122c88282612214565b915050608083015184820360808601526122e28282612214565b91505060a083015184820360a08601526122fc8282612214565b91505060c083015161231160c086018261224d565b5060e083015184820360e08601526123298282612214565b91505061010083015161234061010086018261224d565b508091505092915050565b6000612357838361225c565b905092915050565b6000602082019050919050565b6000612377826121d7565b61238181856121e2565b935083602082028501612393856121f3565b8060005b858110156123cf57848403895281516123b0858261234b565b94506123bb8361235f565b925060208a01995050600181019050612397565b50829750879550505050505092915050565b600060208201905081810360008301526123fb818461236c565b905092915050565b61240c81611e42565b82525050565b6000606082019050818103600083015261242c8186612104565b905081810360208301526124408185612104565b905061244f6040830184612403565b949350505050565b600081519050919050565b600082825260208201905092915050565b6000819050602082019050919050565b600060a08301600083015184820360008601526124a08282612214565b91505060208301516124b5602086018261224d565b50604083015184820360408601526124cd8282612214565b91505060608301516124e2606086018261224d565b5060808301516124f5608086018261224d565b508091505092915050565b600061250c8383612483565b905092915050565b6000602082019050919050565b600061252c82612457565b6125368185612462565b93508360208202850161254885612473565b8060005b8581101561258457848403895281516125658582612500565b945061257083612514565b925060208a0199505060018101905061254c565b50829750879550505050505092915050565b600060208201905081810360008301526125b08184612521565b905092915050565b60008060008060008060008060008060006101608c8e0312156125de576125dd611be0565b5b60008c013567ffffffffffffffff8111156125fc576125fb611be5565b5b6126088e828f01611d02565b9b505060208c013567ffffffffffffffff81111561262957612628611be5565b5b6126358e828f01611de8565b9a505060408c013567ffffffffffffffff81111561265657612655611be5565b5b6126628e828f01611de8565b99505060608c013567ffffffffffffffff81111561268357612682611be5565b5b61268f8e828f01611de8565b98505060808c013567ffffffffffffffff8111156126b0576126af611be5565b5b6126bc8e828f01611de8565b97505060a08c013567ffffffffffffffff8111156126dd576126dc611be5565b5b6126e98e828f01611de8565b96505060c08c013567ffffffffffffffff81111561270a57612709611be5565b5b6127168e828f01611de8565b95505060e08c013567ffffffffffffffff81111561273757612736611be5565b5b6127438e828f01611ee1565b9450506101008c013567ffffffffffffffff81111561276557612764611be5565b5b6127718e828f01611de8565b9350506101208c013567ffffffffffffffff81111561279357612792611be5565b5b61279f8e828f01611ee1565b9250506101408c013567ffffffffffffffff8111156127c1576127c0611be5565b5b6127cd8e828f01611d02565b9150509295989b509295989b9093969950565b600080fd5b600080fd5b600060608284031215612800576127ff6127e0565b5b61280a6060611c65565b9050600082013567ffffffffffffffff81111561282a576128296127e5565b5b61283684828501611d02565b600083015250602082013567ffffffffffffffff81111561285a576128596127e5565b5b61286684828501611d02565b602083015250604061287a84828501611e63565b60408301525092915050565b6000806040838503121561289d5761289c611be0565b5b600083013567ffffffffffffffff8111156128bb576128ba611be5565b5b6128c785828601611d02565b925050602083013567ffffffffffffffff8111156128e8576128e7611be5565b5b6128f4858286016127ea565b9150509250929050565b600081519050919050565b600082825260208201905092915050565b6000819050602082019050919050565b600060e08301600083015184820360008601526129478282612214565b915050602083015184820360208601526129618282612214565b9150506040830151848203604086015261297b8282612214565b915050606083015184820360608601526129958282612214565b91505060808301516129aa608086018261224d565b5060a08301516129bd60a086018261224d565b5060c083015184820360c08601526129d58282612214565b9150508091505092915050565b60006129ee838361292a565b905092915050565b6000602082019050919050565b6000612a0e826128fe565b612a188185612909565b935083602082028501612a2a8561291a565b8060005b85811015612a665784840389528151612a4785826129e2565b9450612a52836129f6565b925060208a01995050600181019050612a2e565b50829750879550505050505092915050565b60006020820190508181036000830152612a928184612a03565b905092915050565b60008060008060008060008060006101208a8c031215612abd57612abc611be0565b5b60008a013567ffffffffffffffff811115612adb57612ada611be5565b5b612ae78c828d01611d02565b99505060208a013567ffffffffffffffff811115612b0857612b07611be5565b5b612b148c828d01611de8565b98505060408a013567ffffffffffffffff811115612b3557612b34611be5565b5b612b418c828d01611de8565b97505060608a013567ffffffffffffffff811115612b6257612b61611be5565b5b612b6e8c828d01611de8565b96505060808a013567ffffffffffffffff811115612b8f57612b8e611be5565b5b612b9b8c828d01611de8565b95505060a08a013567ffffffffffffffff811115612bbc57612bbb611be5565b5b612bc88c828d01611ee1565b94505060c08a013567ffffffffffffffff811115612be957612be8611be5565b5b612bf58c828d01611ee1565b93505060e08a013567ffffffffffffffff811115612c1657612c15611be5565b5b612c228c828d01611de8565b9250506101008a013567ffffffffffffffff811115612c4457612c43611be5565b5b612c508c828d01611d02565b9150509295985092959850929598565b7f496e70757420617272617973206d7573742068617665207468652073616d652060008201527f6c656e6774680000000000000000000000000000000000000000000000000000602082015250565b6000612cbc6026836120c9565b9150612cc782612c60565b604082019050919050565b60006020820190508181036000830152612ceb81612caf565b9050919050565b7f4e487b7100000000000000000000000000000000000000000000000000000000600052603260045260246000fd5b600081905092915050565b6000612d37826120be565b612d418185612d21565b9350612d518185602086016120da565b80840191505092915050565b6000612d698284612d2c565b915081905092915050565b7f4e487b7100000000000000000000000000000000000000000000000000000000600052602260045260246000fd5b60006002820490506001821680612dbb57607f821691505b602082108103612dce57612dcd612d74565b5b50919050565b60008190508160005260206000209050919050565b60006020601f8301049050919050565b600082821b905092915050565b600060088302612e367fffffffffffffffffffffffffffffffffffffffffffffffffffffffffffffffff82612df9565b612e408683612df9565b95508019841693508086168417925050509392505050565b6000819050919050565b6000612e7d612e78612e7384611e42565b612e58565b611e42565b9050919050565b6000819050919050565b612e9783612e62565b612eab612ea382612e84565b848454612e06565b825550505050565b600090565b612ec0612eb3565b612ecb818484612e8e565b505050565b5b81811015612eef57612ee4600082612eb8565b600181019050612ed1565b5050565b601f821115612f3457612f0581612dd4565b612f0e84612de9565b81016020851015612f1d578190505b612f31612f2985612de9565b830182612ed0565b50505b505050565b600082821c905092915050565b6000612f5760001984600802612f39565b1980831691505092915050565b6000612f708383612f46565b9150826002028217905092915050565b612f89826120be565b67ffffffffffffffff811115612fa257612fa1611c05565b5b612fac8254612da3565b612fb7828285612ef3565b600060209050601f831160018114612fea5760008415612fd8578287015190505b612fe28582612f64565b86555061304a565b601f198416612ff886612dd4565b60005b8281101561302057848901518255600182019150602085019450602081019050612ffb565b8683101561303d5784890151613039601f891682612f46565b8355505b6001600288020188555050505b505050505050565b7f4e487b7100000000000000000000000000000000000000000000000000000000600052601160045260246000fd5b600061308c82611e42565b91507fffffffffffffffffffffffffffffffffffffffffffffffffffffffffffffffff82036130be576130bd613052565b5b600182019050919050565b600081549050919050565b60008190508160005260206000209050919050565b600081546130f681612da3565b6131008186612203565b9450600182166000811461311b576001811461313157613164565b60ff198316865281151560200286019350613164565b61313a85612dd4565b60005b8381101561315c5781548189015260018201915060208101905061313d565b808801955050505b50505092915050565b60008160001c9050919050565b6000819050919050565b60006131976131928361316d565b61317a565b9050919050565b600060a08301600080840185830360008701526131bb83826130e9565b925050600184015490506131ce81613184565b6131db602087018261224d565b506002840185830360408701526131f283826130e9565b9250506003840154905061320581613184565b613212606087018261224d565b506004840154905061322381613184565b613230608087018261224d565b50819250505092915050565b6000613248838361319e565b905092915050565b6000600582019050919050565b6000613268826130c9565b6132728185612462565b935083602082028501613284856130d4565b8060005b858110156132bf578484038952816132a0858261323c565b94506132ab83613250565b925060208a01995050600181019050613288565b50829750879550505050505092915050565b600060408201905081810360008301526132eb818561325d565b905081810360208301526132ff8184612104565b90509392505050565b600081549050919050565b60008190508160005260206000209050919050565b600060e083016000808401858303600087015261334583826130e9565b92505060018401858303602087015261335e83826130e9565b92505060028401858303604087015261337783826130e9565b92505060038401858303606087015261339083826130e9565b925050600484015490506133a381613184565b6133b0608087018261224d565b50600584015490506133c181613184565b6133ce60a087018261224d565b506006840185830360c08701526133e583826130e9565b925050819250505092915050565b60006133ff8383613328565b905092915050565b6000600782019050919050565b600061341f82613308565b6134298185612909565b93508360208202850161343b85613313565b8060005b858110156134765784840389528161345785826133f3565b945061346283613407565b925060208a0199505060018101905061343f565b50829750879550505050505092915050565b600060408201905081810360008301526134a28185613414565b905081810360208301526134b68184612104565b90509392505050565b600081549050919050565b60008190508160005260206000209050919050565b60006101208301600080840185830360008701526134fd83826130e9565b92505060018401858303602087015261351683826130e9565b92505060028401858303604087015261352f83826130e9565b92505060038401858303606087015261354883826130e9565b92505060048401858303608087015261356183826130e9565b9250506005840185830360a087015261357a83826130e9565b9250506006840154905061358d81613184565b61359a60c087018261224d565b506007840185830360e08701526135b183826130e9565b925050600884015490506135c481613184565b6135d261010087018261224d565b50819250505092915050565b60006135ea83836134df565b905092915050565b6000600982019050919050565b600061360a826134bf565b61361481856121e2565b935083602082028501613626856134ca565b8060005b858110156136615784840389528161364285826135de565b945061364d836135f2565b925060208a0199505060018101905061362a565b50829750879550505050505092915050565b6000604082019050818103600083015261368d81856135ff565b905081810360208301526136a18184612104565b9050939250505056fea2646970667358221220f42c737584c827f5a1b55d8aa03e5d5614f1bc99c07df28fb37430ed70f636ad64736f6c63430008130033",
  "immutableReferences": {},
  "source": "// SPDX-License-Identifier: MIT\npragma solidity ^0.8.0;\n\ncontract UserContract1 {\n    struct UserData {\n        string email;\n        string name;\n        uint256 age;\n    }\n\n    struct AssetInfo {\n        string name;\n        string typeOfAsset;\n        string description;\n        string location;\n        uint256 purchaseDate;\n        uint256 purchasePrice;\n        string previousOwner;\n    }\n\n    struct MilitaryInfo {\n        string name;\n        uint256 dateOfBirth;\n        string stateOfMilitary;\n        uint256 postponementDate;\n        uint256 dateOfConstruction;\n    }\n\n    struct FamilyTreeInfo {\n        string gender;\n        string degreeOfRelationship;\n        string name;\n        string surname;\n        string fathersName;\n        string mothersName;\n        uint256 dateOfBirth;\n        string status;\n        uint256 dateOfDeath;\n    }\n\n    struct UserAsset {\n        AssetInfo[] assetInfos;\n        string ipfsHash;\n    }\n\n    struct UserMilitary {\n        MilitaryInfo[] militaryInfos;\n        string ipfsHash;\n    }\n\n    struct UserFamilyTree {\n        FamilyTreeInfo[] familyTreeInfos;\n        string ipfsHash;\n    }\n\n    mapping(string => UserAsset) private assetRecords;\n    mapping(string => UserMilitary) private militaryRecords;\n    mapping(string => UserFamilyTree) private familyTreeRecords;\n\n    mapping(string => UserData) users;\n\n    event UserUpdated(\n        string indexed userId,\n        string email,\n        string name,\n        uint256 age\n    );\n\n    event UserAssetUpdated(\n        string indexed userId,\n        AssetInfo[] assetInfos,\n        string ipfsHash\n    );\n\n    event UserMilitaryUpdated(\n        string indexed userId,\n        MilitaryInfo[] militrayInfos,\n        string ipfsHash\n    );\n\n    event UserFamilyTreeUpdated(\n        string indexed userId,\n        FamilyTreeInfo[] familyTreeInfos,\n        string ipfsHash\n    );\n\n    function setUserData(\n        string memory userId,\n        UserData memory userData\n    ) public {\n        UserData memory newUser = UserData(\n            userData.email,\n            userData.name,\n            userData.age\n        );\n        users[userId] = newUser;\n        emit UserUpdated(userId, userData.email, userData.name, userData.age);\n    }\n\n    function getUserData(\n        string memory userId\n    )\n        public\n        view\n        returns (string memory email, string memory name, uint256 age)\n    {\n        UserData storage user = users[userId];\n        return (user.email, user.name, user.age);\n    }\n\n    function setAssetRecord(\n        string memory userId,\n        string[] memory names,\n        string[] memory typeOfAssets,\n        string[] memory descriptions,\n        string[] memory locations,\n        uint256[] memory purchaseDates,\n        uint256[] memory purchasePrices,\n        string[] memory previousOwners,\n        string memory ipfsHash\n    ) public {\n        require(\n            names.length == typeOfAssets.length &&\n                typeOfAssets.length == descriptions.length &&\n                descriptions.length == locations.length &&\n                locations.length == purchaseDates.length &&\n                purchaseDates.length == purchasePrices.length &&\n                purchasePrices.length == previousOwners.length,\n            \"Input arrays must have the same length\"\n        );\n\n        for (uint256 i = 0; i < names.length; i++) {\n            AssetInfo memory newAsset = AssetInfo({\n                name: names[i],\n                typeOfAsset: typeOfAssets[i],\n                description: descriptions[i],\n                location: locations[i],\n                purchaseDate: purchaseDates[i],\n                purchasePrice: purchasePrices[i],\n                previousOwner: previousOwners[i]\n            });\n\n            assetRecords[userId].assetInfos.push(newAsset);\n        }\n\n        assetRecords[userId].ipfsHash = ipfsHash;\n\n        emit UserAssetUpdated(\n            userId,\n            assetRecords[userId].assetInfos,\n            ipfsHash\n        );\n    }\n\n    function getAssetRecords(\n        string memory userId\n    ) public view returns (AssetInfo[] memory) {\n        return assetRecords[userId].assetInfos;\n    }\n\n    function setAssetIPFSHash(\n        string memory userId,\n        string memory ipfsHash\n    ) public {\n        UserAsset storage userAsset = assetRecords[userId];\n\n        userAsset.ipfsHash = ipfsHash;\n\n        emit UserAssetUpdated(userId, userAsset.assetInfos, ipfsHash);\n    }\n\n    function getAssetIPFSHash(\n        string memory userId\n    ) public view returns (string memory) {\n        return assetRecords[userId].ipfsHash;\n    }\n\n    function setMilitaryRecord(\n        string memory userId,\n        string[] memory names,\n        uint256[] memory dateOfBirths,\n        string[] memory stateOfMilitarys,\n        uint256[] memory postponementDates,\n        uint256[] memory dateOfConstructions,\n        string memory ipfsHash\n    ) public {\n        require(\n            names.length == dateOfBirths.length &&\n                dateOfBirths.length == stateOfMilitarys.length &&\n                stateOfMilitarys.length == postponementDates.length &&\n                postponementDates.length == dateOfConstructions.length,\n            \"Input arrays must have the same length\"\n        );\n\n        for (uint256 i = 0; i < names.length; i++) {\n            MilitaryInfo memory newMilitary = MilitaryInfo({\n                name: names[i],\n                dateOfBirth: dateOfBirths[i],\n                stateOfMilitary: stateOfMilitarys[i],\n                postponementDate: postponementDates[i],\n                dateOfConstruction: dateOfConstructions[i]\n            });\n\n            militaryRecords[userId].militaryInfos.push(newMilitary);\n        }\n\n        militaryRecords[userId].ipfsHash = ipfsHash;\n\n        emit UserMilitaryUpdated(\n            userId,\n            militaryRecords[userId].militaryInfos,\n            ipfsHash\n        );\n    }\n\n    function getMilitaryRecords(\n        string memory userId\n    ) public view returns (MilitaryInfo[] memory) {\n        return militaryRecords[userId].militaryInfos;\n    }\n\n    function setMilitaryIPFSHash(\n        string memory userId,\n        string memory ipfsHash\n    ) public {\n        UserMilitary storage userMilitary = militaryRecords[userId];\n\n        userMilitary.ipfsHash = ipfsHash;\n\n        emit UserMilitaryUpdated(userId, userMilitary.militaryInfos, ipfsHash);\n    }\n\n    function getMilitaryIPFSHash(\n        string memory userId\n    ) public view returns (string memory) {\n        return militaryRecords[userId].ipfsHash;\n    }\n\n    function setFamilyTreeRecord(\n        string memory userId,\n        string[] memory genders,\n        string[] memory degreeOfRelationships,\n        string[] memory names,\n        string[] memory surnames,\n        string[] memory fathersNames,\n        string[] memory mothersNames,\n        uint256[] memory dateOfBirths,\n        string[] memory statuss,\n        uint256[] memory dateOfDeaths,\n        string memory ipfsHash\n    ) public {\n        require(\n            genders.length == degreeOfRelationships.length &&\n                degreeOfRelationships.length == names.length &&\n                names.length == surnames.length &&\n                surnames.length == fathersNames.length &&\n                fathersNames.length == mothersNames.length &&\n                mothersNames.length == dateOfBirths.length &&\n                dateOfBirths.length == statuss.length &&\n                statuss.length == dateOfDeaths.length,\n            \"Input arrays must have the same length\"\n        );\n\n        for (uint256 i = 0; i < genders.length; i++) {\n            FamilyTreeInfo memory newFamilyTree = FamilyTreeInfo({\n                gender: genders[i],\n                degreeOfRelationship: degreeOfRelationships[i],\n                name: names[i],\n                surname: surnames[i],\n                fathersName: fathersNames[i],\n                mothersName: mothersNames[i],\n                dateOfBirth: dateOfBirths[i],\n                status: statuss[i],\n                dateOfDeath: dateOfDeaths[i]\n            });\n\n            familyTreeRecords[userId].familyTreeInfos.push(newFamilyTree);\n        }\n\n        familyTreeRecords[userId].ipfsHash = ipfsHash;\n\n        emit UserFamilyTreeUpdated(\n            userId,\n            familyTreeRecords[userId].familyTreeInfos,\n            ipfsHash\n        );\n    }\n\n    function getFamilyTreeRecords(\n        string memory userId\n    ) public view returns (FamilyTreeInfo[] memory) {\n        return familyTreeRecords[userId].familyTreeInfos;\n    }\n\n    function setFamilyTreeIPFSHash(\n        string memory userId,\n        string memory ipfsHash\n    ) public {\n        UserFamilyTree storage userFamilyTree = familyTreeRecords[userId];\n\n        userFamilyTree.ipfsHash = ipfsHash;\n\n        emit UserFamilyTreeUpdated(\n            userId,\n            userFamilyTree.familyTreeInfos,\n            ipfsHash\n        );\n    }\n\n    function getFamilyTreeIPFSHash(\n        string memory userId\n    ) public view returns (string memory) {\n        return familyTreeRecords[userId].ipfsHash;\n    }\n}\n",
  "sourcePath": "/Users/kmlcnclk/Documents/Projects_NEU/my-devlet/contracts/UserContract1.sol",
  "compiler": {
    "name": "solc",
    "version": "0.8.19+commit.7dd6d404.Emscripten.clang"
  },
  "schemaVersion": "3.4.15",
  "updatedAt": "2024-01-15T07:52:51.093Z",
  "devdoc": {
    "kind": "dev",
    "methods": {},
    "version": 1
  },
  "userdoc": {
    "kind": "user",
    "methods": {},
    "version": 1
  }
}