{
  "contractName": "Erc20Token",
  "abi": [
    {
      "inputs": [
        {
          "internalType": "string",
          "name": "name",
          "type": "string"
        },
        {
          "internalType": "string",
          "name": "symbol",
          "type": "string"
        },
        {
          "internalType": "uint256",
          "name": "quantity",
          "type": "uint256"
        }
      ],
      "stateMutability": "nonpayable",
      "type": "constructor"
    },
    {
      "anonymous": false,
      "inputs": [
        {
          "indexed": true,
          "internalType": "address",
          "name": "owner",
          "type": "address"
        },
        {
          "indexed": true,
          "internalType": "address",
          "name": "spender",
          "type": "address"
        },
        {
          "indexed": false,
          "internalType": "uint256",
          "name": "value",
          "type": "uint256"
        }
      ],
      "name": "Approval",
      "type": "event"
    },
    {
      "anonymous": false,
      "inputs": [
        {
          "indexed": true,
          "internalType": "address",
          "name": "previousOwner",
          "type": "address"
        },
        {
          "indexed": true,
          "internalType": "address",
          "name": "newOwner",
          "type": "address"
        }
      ],
      "name": "OwnershipTransferred",
      "type": "event"
    },
    {
      "anonymous": false,
      "inputs": [
        {
          "indexed": true,
          "internalType": "address",
          "name": "from",
          "type": "address"
        },
        {
          "indexed": true,
          "internalType": "address",
          "name": "to",
          "type": "address"
        },
        {
          "indexed": false,
          "internalType": "uint256",
          "name": "value",
          "type": "uint256"
        }
      ],
      "name": "Transfer",
      "type": "event"
    },
    {
      "inputs": [],
      "name": "_quantity",
      "outputs": [
        {
          "internalType": "uint256",
          "name": "",
          "type": "uint256"
        }
      ],
      "stateMutability": "view",
      "type": "function"
    },
    {
      "inputs": [
        {
          "internalType": "address",
          "name": "owner",
          "type": "address"
        },
        {
          "internalType": "address",
          "name": "spender",
          "type": "address"
        }
      ],
      "name": "allowance",
      "outputs": [
        {
          "internalType": "uint256",
          "name": "",
          "type": "uint256"
        }
      ],
      "stateMutability": "view",
      "type": "function"
    },
    {
      "inputs": [
        {
          "internalType": "address",
          "name": "spender",
          "type": "address"
        },
        {
          "internalType": "uint256",
          "name": "amount",
          "type": "uint256"
        }
      ],
      "name": "approve",
      "outputs": [
        {
          "internalType": "bool",
          "name": "",
          "type": "bool"
        }
      ],
      "stateMutability": "nonpayable",
      "type": "function"
    },
    {
      "inputs": [
        {
          "internalType": "address",
          "name": "account",
          "type": "address"
        }
      ],
      "name": "balanceOf",
      "outputs": [
        {
          "internalType": "uint256",
          "name": "",
          "type": "uint256"
        }
      ],
      "stateMutability": "view",
      "type": "function"
    },
    {
      "inputs": [],
      "name": "decimals",
      "outputs": [
        {
          "internalType": "uint8",
          "name": "",
          "type": "uint8"
        }
      ],
      "stateMutability": "view",
      "type": "function"
    },
    {
      "inputs": [
        {
          "internalType": "address",
          "name": "spender",
          "type": "address"
        },
        {
          "internalType": "uint256",
          "name": "subtractedValue",
          "type": "uint256"
        }
      ],
      "name": "decreaseAllowance",
      "outputs": [
        {
          "internalType": "bool",
          "name": "",
          "type": "bool"
        }
      ],
      "stateMutability": "nonpayable",
      "type": "function"
    },
    {
      "inputs": [
        {
          "internalType": "address",
          "name": "spender",
          "type": "address"
        },
        {
          "internalType": "uint256",
          "name": "addedValue",
          "type": "uint256"
        }
      ],
      "name": "increaseAllowance",
      "outputs": [
        {
          "internalType": "bool",
          "name": "",
          "type": "bool"
        }
      ],
      "stateMutability": "nonpayable",
      "type": "function"
    },
    {
      "inputs": [],
      "name": "name",
      "outputs": [
        {
          "internalType": "string",
          "name": "",
          "type": "string"
        }
      ],
      "stateMutability": "view",
      "type": "function"
    },
    {
      "inputs": [],
      "name": "owner",
      "outputs": [
        {
          "internalType": "address",
          "name": "",
          "type": "address"
        }
      ],
      "stateMutability": "view",
      "type": "function"
    },
    {
      "inputs": [],
      "name": "renounceOwnership",
      "outputs": [],
      "stateMutability": "nonpayable",
      "type": "function"
    },
    {
      "inputs": [],
      "name": "symbol",
      "outputs": [
        {
          "internalType": "string",
          "name": "",
          "type": "string"
        }
      ],
      "stateMutability": "view",
      "type": "function"
    },
    {
      "inputs": [],
      "name": "totalSupply",
      "outputs": [
        {
          "internalType": "uint256",
          "name": "",
          "type": "uint256"
        }
      ],
      "stateMutability": "view",
      "type": "function"
    },
    {
      "inputs": [
        {
          "internalType": "address",
          "name": "to",
          "type": "address"
        },
        {
          "internalType": "uint256",
          "name": "amount",
          "type": "uint256"
        }
      ],
      "name": "transfer",
      "outputs": [
        {
          "internalType": "bool",
          "name": "",
          "type": "bool"
        }
      ],
      "stateMutability": "nonpayable",
      "type": "function"
    },
    {
      "inputs": [
        {
          "internalType": "address",
          "name": "from",
          "type": "address"
        },
        {
          "internalType": "address",
          "name": "to",
          "type": "address"
        },
        {
          "internalType": "uint256",
          "name": "amount",
          "type": "uint256"
        }
      ],
      "name": "transferFrom",
      "outputs": [
        {
          "internalType": "bool",
          "name": "",
          "type": "bool"
        }
      ],
      "stateMutability": "nonpayable",
      "type": "function"
    },
    {
      "inputs": [
        {
          "internalType": "address",
          "name": "newOwner",
          "type": "address"
        }
      ],
      "name": "transferOwnership",
      "outputs": [],
      "stateMutability": "nonpayable",
      "type": "function"
    },
    {
      "inputs": [
        {
          "internalType": "address",
          "name": "to",
          "type": "address"
        },
        {
          "internalType": "uint256",
          "name": "amount",
          "type": "uint256"
        }
      ],
      "name": "mint",
      "outputs": [],
      "stateMutability": "nonpayable",
      "type": "function"
    }
  ],
  "bytecode": "0x60806040523480156200001157600080fd5b5060405162001f0c38038062001f0c83398181016040528101906200003791906200032b565b828281600390816200004a919062000606565b5080600490816200005c919062000606565b5050506200007f620000736200008f60201b60201c565b6200009760201b60201c565b80600681905550505050620006ed565b600033905090565b6000600560009054906101000a900473ffffffffffffffffffffffffffffffffffffffff16905081600560006101000a81548173ffffffffffffffffffffffffffffffffffffffff021916908373ffffffffffffffffffffffffffffffffffffffff1602179055508173ffffffffffffffffffffffffffffffffffffffff168173ffffffffffffffffffffffffffffffffffffffff167f8be0079c531659141344cd1fd0a4f28419497f9722a3daafe3b4186f6b6457e060405160405180910390a35050565b6000604051905090565b600080fd5b600080fd5b600080fd5b600080fd5b6000601f19601f8301169050919050565b7f4e487b7100000000000000000000000000000000000000000000000000000000600052604160045260246000fd5b620001c6826200017b565b810181811067ffffffffffffffff82111715620001e857620001e76200018c565b5b80604052505050565b6000620001fd6200015d565b90506200020b8282620001bb565b919050565b600067ffffffffffffffff8211156200022e576200022d6200018c565b5b62000239826200017b565b9050602081019050919050565b60005b838110156200026657808201518184015260208101905062000249565b60008484015250505050565b600062000289620002838462000210565b620001f1565b905082815260208101848484011115620002a857620002a762000176565b5b620002b584828562000246565b509392505050565b600082601f830112620002d557620002d462000171565b5b8151620002e784826020860162000272565b91505092915050565b6000819050919050565b6200030581620002f0565b81146200031157600080fd5b50565b6000815190506200032581620002fa565b92915050565b60008060006060848603121562000347576200034662000167565b5b600084015167ffffffffffffffff8111156200036857620003676200016c565b5b6200037686828701620002bd565b935050602084015167ffffffffffffffff8111156200039a57620003996200016c565b5b620003a886828701620002bd565b9250506040620003bb8682870162000314565b9150509250925092565b600081519050919050565b7f4e487b7100000000000000000000000000000000000000000000000000000000600052602260045260246000fd5b600060028204905060018216806200041857607f821691505b6020821081036200042e576200042d620003d0565b5b50919050565b60008190508160005260206000209050919050565b60006020601f8301049050919050565b600082821b905092915050565b600060088302620004987fffffffffffffffffffffffffffffffffffffffffffffffffffffffffffffffff8262000459565b620004a4868362000459565b95508019841693508086168417925050509392505050565b6000819050919050565b6000620004e7620004e1620004db84620002f0565b620004bc565b620002f0565b9050919050565b6000819050919050565b6200050383620004c6565b6200051b6200051282620004ee565b84845462000466565b825550505050565b600090565b6200053262000523565b6200053f818484620004f8565b505050565b5b8181101562000567576200055b60008262000528565b60018101905062000545565b5050565b601f821115620005b657620005808162000434565b6200058b8462000449565b810160208510156200059b578190505b620005b3620005aa8562000449565b83018262000544565b50505b505050565b600082821c905092915050565b6000620005db60001984600802620005bb565b1980831691505092915050565b6000620005f68383620005c8565b9150826002028217905092915050565b6200061182620003c5565b67ffffffffffffffff8111156200062d576200062c6200018c565b5b620006398254620003ff565b620006468282856200056b565b600060209050601f8311600181146200067e576000841562000669578287015190505b620006758582620005e8565b865550620006e5565b601f1984166200068e8662000434565b60005b82811015620006b85784890151825560018201915060208501945060208101905062000691565b86831015620006d85784890151620006d4601f891682620005c8565b8355505b6001600288020188555050505b505050505050565b61180f80620006fd6000396000f3fe608060405234801561001057600080fd5b50600436106101005760003560e01c806370dc5a8411610097578063a457c2d711610066578063a457c2d71461029f578063a9059cbb146102cf578063dd62ed3e146102ff578063f2fde38b1461032f57610100565b806370dc5a841461023b578063715018a6146102595780638da5cb5b1461026357806395d89b411461028157610100565b8063313ce567116100d3578063313ce567146101a157806339509351146101bf57806340c10f19146101ef57806370a082311461020b57610100565b806306fdde0314610105578063095ea7b31461012357806318160ddd1461015357806323b872dd14610171575b600080fd5b61010d61034b565b60405161011a9190610f58565b60405180910390f35b61013d60048036038101906101389190611013565b6103dd565b60405161014a919061106e565b60405180910390f35b61015b610400565b6040516101689190611098565b60405180910390f35b61018b600480360381019061018691906110b3565b61040a565b604051610198919061106e565b60405180910390f35b6101a9610439565b6040516101b69190611122565b60405180910390f35b6101d960048036038101906101d49190611013565b610442565b6040516101e6919061106e565b60405180910390f35b61020960048036038101906102049190611013565b610479565b005b6102256004803603810190610220919061113d565b61048f565b6040516102329190611098565b60405180910390f35b6102436104d7565b6040516102509190611098565b60405180910390f35b6102616104dd565b005b61026b6104f1565b6040516102789190611179565b60405180910390f35b61028961051b565b6040516102969190610f58565b60405180910390f35b6102b960048036038101906102b49190611013565b6105ad565b6040516102c6919061106e565b60405180910390f35b6102e960048036038101906102e49190611013565b610624565b6040516102f6919061106e565b60405180910390f35b61031960048036038101906103149190611194565b610647565b6040516103269190611098565b60405180910390f35b6103496004803603810190610344919061113d565b6106ce565b005b60606003805461035a90611203565b80601f016020809104026020016040519081016040528092919081815260200182805461038690611203565b80156103d35780601f106103a8576101008083540402835291602001916103d3565b820191906000526020600020905b8154815290600101906020018083116103b657829003601f168201915b5050505050905090565b6000806103e8610751565b90506103f5818585610759565b600191505092915050565b6000600254905090565b600080610415610751565b9050610422858285610922565b61042d8585856109ae565b60019150509392505050565b60006012905090565b60008061044d610751565b905061046e81858561045f8589610647565b6104699190611263565b610759565b600191505092915050565b610481610c24565b61048b8282610ca2565b5050565b60008060008373ffffffffffffffffffffffffffffffffffffffff1673ffffffffffffffffffffffffffffffffffffffff168152602001908152602001600020549050919050565b60065481565b6104e5610c24565b6104ef6000610df8565b565b6000600560009054906101000a900473ffffffffffffffffffffffffffffffffffffffff16905090565b60606004805461052a90611203565b80601f016020809104026020016040519081016040528092919081815260200182805461055690611203565b80156105a35780601f10610578576101008083540402835291602001916105a3565b820191906000526020600020905b81548152906001019060200180831161058657829003601f168201915b5050505050905090565b6000806105b8610751565b905060006105c68286610647565b90508381101561060b576040517f08c379a000000000000000000000000000000000000000000000000000000000815260040161060290611309565b60405180910390fd5b6106188286868403610759565b60019250505092915050565b60008061062f610751565b905061063c8185856109ae565b600191505092915050565b6000600160008473ffffffffffffffffffffffffffffffffffffffff1673ffffffffffffffffffffffffffffffffffffffff16815260200190815260200160002060008373ffffffffffffffffffffffffffffffffffffffff1673ffffffffffffffffffffffffffffffffffffffff16815260200190815260200160002054905092915050565b6106d6610c24565b600073ffffffffffffffffffffffffffffffffffffffff168173ffffffffffffffffffffffffffffffffffffffff1603610745576040517f08c379a000000000000000000000000000000000000000000000000000000000815260040161073c9061139b565b60405180910390fd5b61074e81610df8565b50565b600033905090565b600073ffffffffffffffffffffffffffffffffffffffff168373ffffffffffffffffffffffffffffffffffffffff16036107c8576040517f08c379a00000000000000000000000000000000000000000000000000000000081526004016107bf9061142d565b60405180910390fd5b600073ffffffffffffffffffffffffffffffffffffffff168273ffffffffffffffffffffffffffffffffffffffff1603610837576040517f08c379a000000000000000000000000000000000000000000000000000000000815260040161082e906114bf565b60405180910390fd5b80600160008573ffffffffffffffffffffffffffffffffffffffff1673ffffffffffffffffffffffffffffffffffffffff16815260200190815260200160002060008473ffffffffffffffffffffffffffffffffffffffff1673ffffffffffffffffffffffffffffffffffffffff168152602001908152602001600020819055508173ffffffffffffffffffffffffffffffffffffffff168373ffffffffffffffffffffffffffffffffffffffff167f8c5be1e5ebec7d5bd14f71427d1e84f3dd0314c0f7b2291e5b200ac8c7c3b925836040516109159190611098565b60405180910390a3505050565b600061092e8484610647565b90507fffffffffffffffffffffffffffffffffffffffffffffffffffffffffffffffff81146109a8578181101561099a576040517f08c379a00000000000000000000000000000000000000000000000000000000081526004016109919061152b565b60405180910390fd5b6109a78484848403610759565b5b50505050565b600073ffffffffffffffffffffffffffffffffffffffff168373ffffffffffffffffffffffffffffffffffffffff1603610a1d576040517f08c379a0000000000000000000000000000000000000000000000000000000008152600401610a14906115bd565b60405180910390fd5b600073ffffffffffffffffffffffffffffffffffffffff168273ffffffffffffffffffffffffffffffffffffffff1603610a8c576040517f08c379a0000000000000000000000000000000000000000000000000000000008152600401610a839061164f565b60405180910390fd5b610a97838383610ebe565b60008060008573ffffffffffffffffffffffffffffffffffffffff1673ffffffffffffffffffffffffffffffffffffffff16815260200190815260200160002054905081811015610b1d576040517f08c379a0000000000000000000000000000000000000000000000000000000008152600401610b14906116e1565b60405180910390fd5b8181036000808673ffffffffffffffffffffffffffffffffffffffff1673ffffffffffffffffffffffffffffffffffffffff16815260200190815260200160002081905550816000808573ffffffffffffffffffffffffffffffffffffffff1673ffffffffffffffffffffffffffffffffffffffff168152602001908152602001600020600082825401925050819055508273ffffffffffffffffffffffffffffffffffffffff168473ffffffffffffffffffffffffffffffffffffffff167fddf252ad1be2c89b69c2b068fc378daa952ba7f163c4a11628f55a4df523b3ef84604051610c0b9190611098565b60405180910390a3610c1e848484610ec3565b50505050565b610c2c610751565b73ffffffffffffffffffffffffffffffffffffffff16610c4a6104f1565b73ffffffffffffffffffffffffffffffffffffffff1614610ca0576040517f08c379a0000000000000000000000000000000000000000000000000000000008152600401610c979061174d565b60405180910390fd5b565b600073ffffffffffffffffffffffffffffffffffffffff168273ffffffffffffffffffffffffffffffffffffffff1603610d11576040517f08c379a0000000000000000000000000000000000000000000000000000000008152600401610d08906117b9565b60405180910390fd5b610d1d60008383610ebe565b8060026000828254610d2f9190611263565b92505081905550806000808473ffffffffffffffffffffffffffffffffffffffff1673ffffffffffffffffffffffffffffffffffffffff168152602001908152602001600020600082825401925050819055508173ffffffffffffffffffffffffffffffffffffffff16600073ffffffffffffffffffffffffffffffffffffffff167fddf252ad1be2c89b69c2b068fc378daa952ba7f163c4a11628f55a4df523b3ef83604051610de09190611098565b60405180910390a3610df460008383610ec3565b5050565b6000600560009054906101000a900473ffffffffffffffffffffffffffffffffffffffff16905081600560006101000a81548173ffffffffffffffffffffffffffffffffffffffff021916908373ffffffffffffffffffffffffffffffffffffffff1602179055508173ffffffffffffffffffffffffffffffffffffffff168173ffffffffffffffffffffffffffffffffffffffff167f8be0079c531659141344cd1fd0a4f28419497f9722a3daafe3b4186f6b6457e060405160405180910390a35050565b505050565b505050565b600081519050919050565b600082825260208201905092915050565b60005b83811015610f02578082015181840152602081019050610ee7565b60008484015250505050565b6000601f19601f8301169050919050565b6000610f2a82610ec8565b610f348185610ed3565b9350610f44818560208601610ee4565b610f4d81610f0e565b840191505092915050565b60006020820190508181036000830152610f728184610f1f565b905092915050565b600080fd5b600073ffffffffffffffffffffffffffffffffffffffff82169050919050565b6000610faa82610f7f565b9050919050565b610fba81610f9f565b8114610fc557600080fd5b50565b600081359050610fd781610fb1565b92915050565b6000819050919050565b610ff081610fdd565b8114610ffb57600080fd5b50565b60008135905061100d81610fe7565b92915050565b6000806040838503121561102a57611029610f7a565b5b600061103885828601610fc8565b925050602061104985828601610ffe565b9150509250929050565b60008115159050919050565b61106881611053565b82525050565b6000602082019050611083600083018461105f565b92915050565b61109281610fdd565b82525050565b60006020820190506110ad6000830184611089565b92915050565b6000806000606084860312156110cc576110cb610f7a565b5b60006110da86828701610fc8565b93505060206110eb86828701610fc8565b92505060406110fc86828701610ffe565b9150509250925092565b600060ff82169050919050565b61111c81611106565b82525050565b60006020820190506111376000830184611113565b92915050565b60006020828403121561115357611152610f7a565b5b600061116184828501610fc8565b91505092915050565b61117381610f9f565b82525050565b600060208201905061118e600083018461116a565b92915050565b600080604083850312156111ab576111aa610f7a565b5b60006111b985828601610fc8565b92505060206111ca85828601610fc8565b9150509250929050565b7f4e487b7100000000000000000000000000000000000000000000000000000000600052602260045260246000fd5b6000600282049050600182168061121b57607f821691505b60208210810361122e5761122d6111d4565b5b50919050565b7f4e487b7100000000000000000000000000000000000000000000000000000000600052601160045260246000fd5b600061126e82610fdd565b915061127983610fdd565b925082820190508082111561129157611290611234565b5b92915050565b7f45524332303a2064656372656173656420616c6c6f77616e63652062656c6f7760008201527f207a65726f000000000000000000000000000000000000000000000000000000602082015250565b60006112f3602583610ed3565b91506112fe82611297565b604082019050919050565b60006020820190508181036000830152611322816112e6565b9050919050565b7f4f776e61626c653a206e6577206f776e657220697320746865207a65726f206160008201527f6464726573730000000000000000000000000000000000000000000000000000602082015250565b6000611385602683610ed3565b915061139082611329565b604082019050919050565b600060208201905081810360008301526113b481611378565b9050919050565b7f45524332303a20617070726f76652066726f6d20746865207a65726f2061646460008201527f7265737300000000000000000000000000000000000000000000000000000000602082015250565b6000611417602483610ed3565b9150611422826113bb565b604082019050919050565b600060208201905081810360008301526114468161140a565b9050919050565b7f45524332303a20617070726f766520746f20746865207a65726f20616464726560008201527f7373000000000000000000000000000000000000000000000000000000000000602082015250565b60006114a9602283610ed3565b91506114b48261144d565b604082019050919050565b600060208201905081810360008301526114d88161149c565b9050919050565b7f45524332303a20696e73756666696369656e7420616c6c6f77616e6365000000600082015250565b6000611515601d83610ed3565b9150611520826114df565b602082019050919050565b6000602082019050818103600083015261154481611508565b9050919050565b7f45524332303a207472616e736665722066726f6d20746865207a65726f20616460008201527f6472657373000000000000000000000000000000000000000000000000000000602082015250565b60006115a7602583610ed3565b91506115b28261154b565b604082019050919050565b600060208201905081810360008301526115d68161159a565b9050919050565b7f45524332303a207472616e7366657220746f20746865207a65726f206164647260008201527f6573730000000000000000000000000000000000000000000000000000000000602082015250565b6000611639602383610ed3565b9150611644826115dd565b604082019050919050565b600060208201905081810360008301526116688161162c565b9050919050565b7f45524332303a207472616e7366657220616d6f756e742065786365656473206260008201527f616c616e63650000000000000000000000000000000000000000000000000000602082015250565b60006116cb602683610ed3565b91506116d68261166f565b604082019050919050565b600060208201905081810360008301526116fa816116be565b9050919050565b7f4f776e61626c653a2063616c6c6572206973206e6f7420746865206f776e6572600082015250565b6000611737602083610ed3565b915061174282611701565b602082019050919050565b600060208201905081810360008301526117668161172a565b9050919050565b7f45524332303a206d696e7420746f20746865207a65726f206164647265737300600082015250565b60006117a3601f83610ed3565b91506117ae8261176d565b602082019050919050565b600060208201905081810360008301526117d281611796565b905091905056fea2646970667358221220cf25f688212e97e6c853847bd5d176750b2f387f9dbc82adcfb05a5e75f5a07c64736f6c63430008130033",
  "immutableReferences": {},
  "source": "// SPDX-License-Identifier: MIT\npragma solidity ^0.8.9;\n\nimport \"@openzeppelin/contracts/token/ERC20/ERC20.sol\";\nimport \"@openzeppelin/contracts/access/Ownable.sol\";\n\ncontract Erc20Token is ERC20, Ownable {\n    uint256 public _quantity;\n\n    constructor(\n        string memory name,\n        string memory symbol,\n        uint256 quantity\n    ) ERC20(name, symbol) {\n        _quantity = quantity;\n    }\n\n    function mint(address to, uint256 amount) public onlyOwner {\n        _mint(to, amount);\n    }\n}\n",
  "sourcePath": "/Users/erdem/Desktop/SUITECH/protocol-ui/contracts/Erc20Token.sol",
  "compiler": {
    "name": "solc",
    "version": "0.8.19+commit.7dd6d404.Emscripten.clang"
  },
  "schemaVersion": "3.4.15",
  "updatedAt": "2023-09-06T11:10:06.844Z",
  "devdoc": {
    "events": {
      "Approval(address,address,uint256)": {
        "details": "Emitted when the allowance of a `spender` for an `owner` is set by a call to {approve}. `value` is the new allowance."
      },
      "Transfer(address,address,uint256)": {
        "details": "Emitted when `value` tokens are moved from one account (`from`) to another (`to`). Note that `value` may be zero."
      }
    },
    "kind": "dev",
    "methods": {
      "allowance(address,address)": {
        "details": "See {IERC20-allowance}."
      },
      "approve(address,uint256)": {
        "details": "See {IERC20-approve}. NOTE: If `amount` is the maximum `uint256`, the allowance is not updated on `transferFrom`. This is semantically equivalent to an infinite approval. Requirements: - `spender` cannot be the zero address."
      },
      "balanceOf(address)": {
        "details": "See {IERC20-balanceOf}."
      },
      "decimals()": {
        "details": "Returns the number of decimals used to get its user representation. For example, if `decimals` equals `2`, a balance of `505` tokens should be displayed to a user as `5.05` (`505 / 10 ** 2`). Tokens usually opt for a value of 18, imitating the relationship between Ether and Wei. This is the default value returned by this function, unless it's overridden. NOTE: This information is only used for _display_ purposes: it in no way affects any of the arithmetic of the contract, including {IERC20-balanceOf} and {IERC20-transfer}."
      },
      "decreaseAllowance(address,uint256)": {
        "details": "Atomically decreases the allowance granted to `spender` by the caller. This is an alternative to {approve} that can be used as a mitigation for problems described in {IERC20-approve}. Emits an {Approval} event indicating the updated allowance. Requirements: - `spender` cannot be the zero address. - `spender` must have allowance for the caller of at least `subtractedValue`."
      },
      "increaseAllowance(address,uint256)": {
        "details": "Atomically increases the allowance granted to `spender` by the caller. This is an alternative to {approve} that can be used as a mitigation for problems described in {IERC20-approve}. Emits an {Approval} event indicating the updated allowance. Requirements: - `spender` cannot be the zero address."
      },
      "name()": {
        "details": "Returns the name of the token."
      },
      "owner()": {
        "details": "Returns the address of the current owner."
      },
      "renounceOwnership()": {
        "details": "Leaves the contract without owner. It will not be possible to call `onlyOwner` functions. Can only be called by the current owner. NOTE: Renouncing ownership will leave the contract without an owner, thereby disabling any functionality that is only available to the owner."
      },
      "symbol()": {
        "details": "Returns the symbol of the token, usually a shorter version of the name."
      },
      "totalSupply()": {
        "details": "See {IERC20-totalSupply}."
      },
      "transfer(address,uint256)": {
        "details": "See {IERC20-transfer}. Requirements: - `to` cannot be the zero address. - the caller must have a balance of at least `amount`."
      },
      "transferFrom(address,address,uint256)": {
        "details": "See {IERC20-transferFrom}. Emits an {Approval} event indicating the updated allowance. This is not required by the EIP. See the note at the beginning of {ERC20}. NOTE: Does not update the allowance if the current allowance is the maximum `uint256`. Requirements: - `from` and `to` cannot be the zero address. - `from` must have a balance of at least `amount`. - the caller must have allowance for ``from``'s tokens of at least `amount`."
      },
      "transferOwnership(address)": {
        "details": "Transfers ownership of the contract to a new account (`newOwner`). Can only be called by the current owner."
      }
    },
    "version": 1
  },
  "userdoc": {
    "kind": "user",
    "methods": {},
    "version": 1
  }
}