{
  "contractName": "Erc721Token",
  "abi": [
    {
      "inputs": [
        {
          "internalType": "string",
          "name": "name",
          "type": "string"
        },
        {
          "internalType": "string",
          "name": "symbol",
          "type": "string"
        }
      ],
      "stateMutability": "nonpayable",
      "type": "constructor"
    },
    {
      "anonymous": false,
      "inputs": [
        {
          "indexed": true,
          "internalType": "address",
          "name": "owner",
          "type": "address"
        },
        {
          "indexed": true,
          "internalType": "address",
          "name": "approved",
          "type": "address"
        },
        {
          "indexed": true,
          "internalType": "uint256",
          "name": "tokenId",
          "type": "uint256"
        }
      ],
      "name": "Approval",
      "type": "event"
    },
    {
      "anonymous": false,
      "inputs": [
        {
          "indexed": true,
          "internalType": "address",
          "name": "owner",
          "type": "address"
        },
        {
          "indexed": true,
          "internalType": "address",
          "name": "operator",
          "type": "address"
        },
        {
          "indexed": false,
          "internalType": "bool",
          "name": "approved",
          "type": "bool"
        }
      ],
      "name": "ApprovalForAll",
      "type": "event"
    },
    {
      "anonymous": false,
      "inputs": [
        {
          "indexed": false,
          "internalType": "uint256",
          "name": "_fromTokenId",
          "type": "uint256"
        },
        {
          "indexed": false,
          "internalType": "uint256",
          "name": "_toTokenId",
          "type": "uint256"
        }
      ],
      "name": "BatchMetadataUpdate",
      "type": "event"
    },
    {
      "anonymous": false,
      "inputs": [
        {
          "indexed": false,
          "internalType": "uint256",
          "name": "_tokenId",
          "type": "uint256"
        }
      ],
      "name": "MetadataUpdate",
      "type": "event"
    },
    {
      "anonymous": false,
      "inputs": [
        {
          "indexed": true,
          "internalType": "address",
          "name": "previousOwner",
          "type": "address"
        },
        {
          "indexed": true,
          "internalType": "address",
          "name": "newOwner",
          "type": "address"
        }
      ],
      "name": "OwnershipTransferred",
      "type": "event"
    },
    {
      "anonymous": false,
      "inputs": [
        {
          "indexed": true,
          "internalType": "address",
          "name": "from",
          "type": "address"
        },
        {
          "indexed": true,
          "internalType": "address",
          "name": "to",
          "type": "address"
        },
        {
          "indexed": true,
          "internalType": "uint256",
          "name": "tokenId",
          "type": "uint256"
        }
      ],
      "name": "Transfer",
      "type": "event"
    },
    {
      "inputs": [
        {
          "internalType": "address",
          "name": "to",
          "type": "address"
        },
        {
          "internalType": "uint256",
          "name": "tokenId",
          "type": "uint256"
        }
      ],
      "name": "approve",
      "outputs": [],
      "stateMutability": "nonpayable",
      "type": "function"
    },
    {
      "inputs": [
        {
          "internalType": "address",
          "name": "owner",
          "type": "address"
        }
      ],
      "name": "balanceOf",
      "outputs": [
        {
          "internalType": "uint256",
          "name": "",
          "type": "uint256"
        }
      ],
      "stateMutability": "view",
      "type": "function"
    },
    {
      "inputs": [
        {
          "internalType": "uint256",
          "name": "tokenId",
          "type": "uint256"
        }
      ],
      "name": "getApproved",
      "outputs": [
        {
          "internalType": "address",
          "name": "",
          "type": "address"
        }
      ],
      "stateMutability": "view",
      "type": "function"
    },
    {
      "inputs": [
        {
          "internalType": "address",
          "name": "owner",
          "type": "address"
        },
        {
          "internalType": "address",
          "name": "operator",
          "type": "address"
        }
      ],
      "name": "isApprovedForAll",
      "outputs": [
        {
          "internalType": "bool",
          "name": "",
          "type": "bool"
        }
      ],
      "stateMutability": "view",
      "type": "function"
    },
    {
      "inputs": [],
      "name": "name",
      "outputs": [
        {
          "internalType": "string",
          "name": "",
          "type": "string"
        }
      ],
      "stateMutability": "view",
      "type": "function"
    },
    {
      "inputs": [],
      "name": "owner",
      "outputs": [
        {
          "internalType": "address",
          "name": "",
          "type": "address"
        }
      ],
      "stateMutability": "view",
      "type": "function"
    },
    {
      "inputs": [
        {
          "internalType": "uint256",
          "name": "tokenId",
          "type": "uint256"
        }
      ],
      "name": "ownerOf",
      "outputs": [
        {
          "internalType": "address",
          "name": "",
          "type": "address"
        }
      ],
      "stateMutability": "view",
      "type": "function"
    },
    {
      "inputs": [],
      "name": "renounceOwnership",
      "outputs": [],
      "stateMutability": "nonpayable",
      "type": "function"
    },
    {
      "inputs": [
        {
          "internalType": "address",
          "name": "from",
          "type": "address"
        },
        {
          "internalType": "address",
          "name": "to",
          "type": "address"
        },
        {
          "internalType": "uint256",
          "name": "tokenId",
          "type": "uint256"
        }
      ],
      "name": "safeTransferFrom",
      "outputs": [],
      "stateMutability": "nonpayable",
      "type": "function"
    },
    {
      "inputs": [
        {
          "internalType": "address",
          "name": "from",
          "type": "address"
        },
        {
          "internalType": "address",
          "name": "to",
          "type": "address"
        },
        {
          "internalType": "uint256",
          "name": "tokenId",
          "type": "uint256"
        },
        {
          "internalType": "bytes",
          "name": "data",
          "type": "bytes"
        }
      ],
      "name": "safeTransferFrom",
      "outputs": [],
      "stateMutability": "nonpayable",
      "type": "function"
    },
    {
      "inputs": [
        {
          "internalType": "address",
          "name": "operator",
          "type": "address"
        },
        {
          "internalType": "bool",
          "name": "approved",
          "type": "bool"
        }
      ],
      "name": "setApprovalForAll",
      "outputs": [],
      "stateMutability": "nonpayable",
      "type": "function"
    },
    {
      "inputs": [
        {
          "internalType": "bytes4",
          "name": "interfaceId",
          "type": "bytes4"
        }
      ],
      "name": "supportsInterface",
      "outputs": [
        {
          "internalType": "bool",
          "name": "",
          "type": "bool"
        }
      ],
      "stateMutability": "view",
      "type": "function"
    },
    {
      "inputs": [],
      "name": "symbol",
      "outputs": [
        {
          "internalType": "string",
          "name": "",
          "type": "string"
        }
      ],
      "stateMutability": "view",
      "type": "function"
    },
    {
      "inputs": [
        {
          "internalType": "uint256",
          "name": "tokenId",
          "type": "uint256"
        }
      ],
      "name": "tokenURI",
      "outputs": [
        {
          "internalType": "string",
          "name": "",
          "type": "string"
        }
      ],
      "stateMutability": "view",
      "type": "function"
    },
    {
      "inputs": [
        {
          "internalType": "address",
          "name": "from",
          "type": "address"
        },
        {
          "internalType": "address",
          "name": "to",
          "type": "address"
        },
        {
          "internalType": "uint256",
          "name": "tokenId",
          "type": "uint256"
        }
      ],
      "name": "transferFrom",
      "outputs": [],
      "stateMutability": "nonpayable",
      "type": "function"
    },
    {
      "inputs": [
        {
          "internalType": "address",
          "name": "newOwner",
          "type": "address"
        }
      ],
      "name": "transferOwnership",
      "outputs": [],
      "stateMutability": "nonpayable",
      "type": "function"
    },
    {
      "inputs": [
        {
          "internalType": "address",
          "name": "to",
          "type": "address"
        },
        {
          "internalType": "string",
          "name": "uri",
          "type": "string"
        },
        {
          "internalType": "string",
          "name": "name",
          "type": "string"
        },
        {
          "internalType": "uint256",
          "name": "price",
          "type": "uint256"
        },
        {
          "internalType": "uint256",
          "name": "tokenId",
          "type": "uint256"
        }
      ],
      "name": "safeMint",
      "outputs": [],
      "stateMutability": "nonpayable",
      "type": "function"
    },
    {
      "inputs": [
        {
          "internalType": "uint256",
          "name": "tokenId",
          "type": "uint256"
        }
      ],
      "name": "getTokenName",
      "outputs": [
        {
          "internalType": "string",
          "name": "",
          "type": "string"
        }
      ],
      "stateMutability": "view",
      "type": "function"
    },
    {
      "inputs": [
        {
          "internalType": "uint256",
          "name": "tokenId",
          "type": "uint256"
        }
      ],
      "name": "getPrice",
      "outputs": [
        {
          "internalType": "uint256",
          "name": "",
          "type": "uint256"
        }
      ],
      "stateMutability": "view",
      "type": "function"
    }
  ],
  "bytecode": "0x60806040523480156200001157600080fd5b50604051620037c6380380620037c68339818101604052810190620000379190620002e8565b818181600090816200004a9190620005b8565b5080600190816200005c9190620005b8565b5050506200007f620000736200008760201b60201c565b6200008f60201b60201c565b50506200069f565b600033905090565b6000600760009054906101000a900473ffffffffffffffffffffffffffffffffffffffff16905081600760006101000a81548173ffffffffffffffffffffffffffffffffffffffff021916908373ffffffffffffffffffffffffffffffffffffffff1602179055508173ffffffffffffffffffffffffffffffffffffffff168173ffffffffffffffffffffffffffffffffffffffff167f8be0079c531659141344cd1fd0a4f28419497f9722a3daafe3b4186f6b6457e060405160405180910390a35050565b6000604051905090565b600080fd5b600080fd5b600080fd5b600080fd5b6000601f19601f8301169050919050565b7f4e487b7100000000000000000000000000000000000000000000000000000000600052604160045260246000fd5b620001be8262000173565b810181811067ffffffffffffffff82111715620001e057620001df62000184565b5b80604052505050565b6000620001f562000155565b9050620002038282620001b3565b919050565b600067ffffffffffffffff82111562000226576200022562000184565b5b620002318262000173565b9050602081019050919050565b60005b838110156200025e57808201518184015260208101905062000241565b60008484015250505050565b6000620002816200027b8462000208565b620001e9565b905082815260208101848484011115620002a0576200029f6200016e565b5b620002ad8482856200023e565b509392505050565b600082601f830112620002cd57620002cc62000169565b5b8151620002df8482602086016200026a565b91505092915050565b600080604083850312156200030257620003016200015f565b5b600083015167ffffffffffffffff81111562000323576200032262000164565b5b6200033185828601620002b5565b925050602083015167ffffffffffffffff81111562000355576200035462000164565b5b6200036385828601620002b5565b9150509250929050565b600081519050919050565b7f4e487b7100000000000000000000000000000000000000000000000000000000600052602260045260246000fd5b60006002820490506001821680620003c057607f821691505b602082108103620003d657620003d562000378565b5b50919050565b60008190508160005260206000209050919050565b60006020601f8301049050919050565b600082821b905092915050565b600060088302620004407fffffffffffffffffffffffffffffffffffffffffffffffffffffffffffffffff8262000401565b6200044c868362000401565b95508019841693508086168417925050509392505050565b6000819050919050565b6000819050919050565b600062000499620004936200048d8462000464565b6200046e565b62000464565b9050919050565b6000819050919050565b620004b58362000478565b620004cd620004c482620004a0565b8484546200040e565b825550505050565b600090565b620004e4620004d5565b620004f1818484620004aa565b505050565b5b8181101562000519576200050d600082620004da565b600181019050620004f7565b5050565b601f82111562000568576200053281620003dc565b6200053d84620003f1565b810160208510156200054d578190505b620005656200055c85620003f1565b830182620004f6565b50505b505050565b600082821c905092915050565b60006200058d600019846008026200056d565b1980831691505092915050565b6000620005a883836200057a565b9150826002028217905092915050565b620005c3826200036d565b67ffffffffffffffff811115620005df57620005de62000184565b5b620005eb8254620003a7565b620005f88282856200051d565b600060209050601f8311600181146200063057600084156200061b578287015190505b6200062785826200059a565b86555062000697565b601f1984166200064086620003dc565b60005b828110156200066a5784890151825560018201915060208501945060208101905062000643565b868310156200068a578489015162000686601f8916826200057a565b8355505b6001600288020188555050505b505050505050565b61311780620006af6000396000f3fe608060405234801561001057600080fd5b50600436106101215760003560e01c80638da5cb5b116100ad578063c87b56dd11610071578063c87b56dd146102f2578063dbe16c0714610322578063e757223014610352578063e985e9c514610382578063f2fde38b146103b257610121565b80638da5cb5b1461026257806395d89b4114610280578063a22cb4651461029e578063b88d4fde146102ba578063b896d433146102d657610121565b806323b872dd116100f457806323b872dd146101c057806342842e0e146101dc5780636352211e146101f857806370a0823114610228578063715018a61461025857610121565b806301ffc9a71461012657806306fdde0314610156578063081812fc14610174578063095ea7b3146101a4575b600080fd5b610140600480360381019061013b9190611e1f565b6103ce565b60405161014d9190611e67565b60405180910390f35b61015e61042f565b60405161016b9190611f12565b60405180910390f35b61018e60048036038101906101899190611f6a565b6104c1565b60405161019b9190611fd8565b60405180910390f35b6101be60048036038101906101b9919061201f565b610507565b005b6101da60048036038101906101d5919061205f565b61061e565b005b6101f660048036038101906101f1919061205f565b61067e565b005b610212600480360381019061020d9190611f6a565b61069e565b60405161021f9190611fd8565b60405180910390f35b610242600480360381019061023d91906120b2565b610724565b60405161024f91906120ee565b60405180910390f35b6102606107db565b005b61026a6107ef565b6040516102779190611fd8565b60405180910390f35b610288610819565b6040516102959190611f12565b60405180910390f35b6102b860048036038101906102b39190612135565b6108ab565b005b6102d460048036038101906102cf91906122aa565b6108c1565b005b6102f060048036038101906102eb91906123ce565b610923565b005b61030c60048036038101906103079190611f6a565b6109c8565b6040516103199190611f12565b60405180910390f35b61033c60048036038101906103379190611f6a565b610ada565b6040516103499190611f12565b60405180910390f35b61036c60048036038101906103679190611f6a565b610b7f565b60405161037991906120ee565b60405180910390f35b61039c60048036038101906103979190612481565b610b9c565b6040516103a99190611e67565b60405180910390f35b6103cc60048036038101906103c791906120b2565b610c30565b005b6000634906490660e01b7bffffffffffffffffffffffffffffffffffffffffffffffffffffffff1916827bffffffffffffffffffffffffffffffffffffffffffffffffffffffff19161480610428575061042782610cb3565b5b9050919050565b60606000805461043e906124f0565b80601f016020809104026020016040519081016040528092919081815260200182805461046a906124f0565b80156104b75780601f1061048c576101008083540402835291602001916104b7565b820191906000526020600020905b81548152906001019060200180831161049a57829003601f168201915b5050505050905090565b60006104cc82610d95565b6004600083815260200190815260200160002060009054906101000a900473ffffffffffffffffffffffffffffffffffffffff169050919050565b60006105128261069e565b90508073ffffffffffffffffffffffffffffffffffffffff168373ffffffffffffffffffffffffffffffffffffffff1603610582576040517f08c379a000000000000000000000000000000000000000000000000000000000815260040161057990612593565b60405180910390fd5b8073ffffffffffffffffffffffffffffffffffffffff166105a1610de0565b73ffffffffffffffffffffffffffffffffffffffff1614806105d057506105cf816105ca610de0565b610b9c565b5b61060f576040517f08c379a000000000000000000000000000000000000000000000000000000000815260040161060690612625565b60405180910390fd5b6106198383610de8565b505050565b61062f610629610de0565b82610ea1565b61066e576040517f08c379a0000000000000000000000000000000000000000000000000000000008152600401610665906126b7565b60405180910390fd5b610679838383610f36565b505050565b610699838383604051806020016040528060008152506108c1565b505050565b6000806106aa8361122f565b9050600073ffffffffffffffffffffffffffffffffffffffff168173ffffffffffffffffffffffffffffffffffffffff160361071b576040517f08c379a000000000000000000000000000000000000000000000000000000000815260040161071290612723565b60405180910390fd5b80915050919050565b60008073ffffffffffffffffffffffffffffffffffffffff168273ffffffffffffffffffffffffffffffffffffffff1603610794576040517f08c379a000000000000000000000000000000000000000000000000000000000815260040161078b906127b5565b60405180910390fd5b600360008373ffffffffffffffffffffffffffffffffffffffff1673ffffffffffffffffffffffffffffffffffffffff168152602001908152602001600020549050919050565b6107e361126c565b6107ed60006112ea565b565b6000600760009054906101000a900473ffffffffffffffffffffffffffffffffffffffff16905090565b606060018054610828906124f0565b80601f0160208091040260200160405190810160405280929190818152602001828054610854906124f0565b80156108a15780601f10610876576101008083540402835291602001916108a1565b820191906000526020600020905b81548152906001019060200180831161088457829003601f168201915b5050505050905090565b6108bd6108b6610de0565b83836113b0565b5050565b6108d26108cc610de0565b83610ea1565b610911576040517f08c379a0000000000000000000000000000000000000000000000000000000008152600401610908906126b7565b60405180910390fd5b61091d8484848461151c565b50505050565b61092b61126c565b61093481611578565b15610974576040517f08c379a000000000000000000000000000000000000000000000000000000000815260040161096b90612847565b60405180910390fd5b61097e85826115b9565b61098881856115d7565b826008600083815260200190815260200160002090816109a89190612a13565b508160096000838152602001908152602001600020819055505050505050565b60606109d382610d95565b60006006600084815260200190815260200160002080546109f3906124f0565b80601f0160208091040260200160405190810160405280929190818152602001828054610a1f906124f0565b8015610a6c5780601f10610a4157610100808354040283529160200191610a6c565b820191906000526020600020905b815481529060010190602001808311610a4f57829003601f168201915b505050505090506000610a7d61167b565b90506000815103610a92578192505050610ad5565b600082511115610ac7578082604051602001610aaf929190612b21565b60405160208183030381529060405292505050610ad5565b610ad084611692565b925050505b919050565b6060600860008381526020019081526020016000208054610afa906124f0565b80601f0160208091040260200160405190810160405280929190818152602001828054610b26906124f0565b8015610b735780601f10610b4857610100808354040283529160200191610b73565b820191906000526020600020905b815481529060010190602001808311610b5657829003601f168201915b50505050509050919050565b600060096000838152602001908152602001600020549050919050565b6000600560008473ffffffffffffffffffffffffffffffffffffffff1673ffffffffffffffffffffffffffffffffffffffff16815260200190815260200160002060008373ffffffffffffffffffffffffffffffffffffffff1673ffffffffffffffffffffffffffffffffffffffff16815260200190815260200160002060009054906101000a900460ff16905092915050565b610c3861126c565b600073ffffffffffffffffffffffffffffffffffffffff168173ffffffffffffffffffffffffffffffffffffffff1603610ca7576040517f08c379a0000000000000000000000000000000000000000000000000000000008152600401610c9e90612bb7565b60405180910390fd5b610cb0816112ea565b50565b60007f80ac58cd000000000000000000000000000000000000000000000000000000007bffffffffffffffffffffffffffffffffffffffffffffffffffffffff1916827bffffffffffffffffffffffffffffffffffffffffffffffffffffffff19161480610d7e57507f5b5e139f000000000000000000000000000000000000000000000000000000007bffffffffffffffffffffffffffffffffffffffffffffffffffffffff1916827bffffffffffffffffffffffffffffffffffffffffffffffffffffffff1916145b80610d8e5750610d8d826116fa565b5b9050919050565b610d9e81611578565b610ddd576040517f08c379a0000000000000000000000000000000000000000000000000000000008152600401610dd490612723565b60405180910390fd5b50565b600033905090565b816004600083815260200190815260200160002060006101000a81548173ffffffffffffffffffffffffffffffffffffffff021916908373ffffffffffffffffffffffffffffffffffffffff160217905550808273ffffffffffffffffffffffffffffffffffffffff16610e5b8361069e565b73ffffffffffffffffffffffffffffffffffffffff167f8c5be1e5ebec7d5bd14f71427d1e84f3dd0314c0f7b2291e5b200ac8c7c3b92560405160405180910390a45050565b600080610ead8361069e565b90508073ffffffffffffffffffffffffffffffffffffffff168473ffffffffffffffffffffffffffffffffffffffff161480610eef5750610eee8185610b9c565b5b80610f2d57508373ffffffffffffffffffffffffffffffffffffffff16610f15846104c1565b73ffffffffffffffffffffffffffffffffffffffff16145b91505092915050565b8273ffffffffffffffffffffffffffffffffffffffff16610f568261069e565b73ffffffffffffffffffffffffffffffffffffffff1614610fac576040517f08c379a0000000000000000000000000000000000000000000000000000000008152600401610fa390612c49565b60405180910390fd5b600073ffffffffffffffffffffffffffffffffffffffff168273ffffffffffffffffffffffffffffffffffffffff160361101b576040517f08c379a000000000000000000000000000000000000000000000000000000000815260040161101290612cdb565b60405180910390fd5b6110288383836001611764565b8273ffffffffffffffffffffffffffffffffffffffff166110488261069e565b73ffffffffffffffffffffffffffffffffffffffff161461109e576040517f08c379a000000000000000000000000000000000000000000000000000000000815260040161109590612c49565b60405180910390fd5b6004600082815260200190815260200160002060006101000a81549073ffffffffffffffffffffffffffffffffffffffff02191690556001600360008573ffffffffffffffffffffffffffffffffffffffff1673ffffffffffffffffffffffffffffffffffffffff168152602001908152602001600020600082825403925050819055506001600360008473ffffffffffffffffffffffffffffffffffffffff1673ffffffffffffffffffffffffffffffffffffffff16815260200190815260200160002060008282540192505081905550816002600083815260200190815260200160002060006101000a81548173ffffffffffffffffffffffffffffffffffffffff021916908373ffffffffffffffffffffffffffffffffffffffff160217905550808273ffffffffffffffffffffffffffffffffffffffff168473ffffffffffffffffffffffffffffffffffffffff167fddf252ad1be2c89b69c2b068fc378daa952ba7f163c4a11628f55a4df523b3ef60405160405180910390a461122a838383600161176a565b505050565b60006002600083815260200190815260200160002060009054906101000a900473ffffffffffffffffffffffffffffffffffffffff169050919050565b611274610de0565b73ffffffffffffffffffffffffffffffffffffffff166112926107ef565b73ffffffffffffffffffffffffffffffffffffffff16146112e8576040517f08c379a00000000000000000000000000000000000000000000000000000000081526004016112df90612d47565b60405180910390fd5b565b6000600760009054906101000a900473ffffffffffffffffffffffffffffffffffffffff16905081600760006101000a81548173ffffffffffffffffffffffffffffffffffffffff021916908373ffffffffffffffffffffffffffffffffffffffff1602179055508173ffffffffffffffffffffffffffffffffffffffff168173ffffffffffffffffffffffffffffffffffffffff167f8be0079c531659141344cd1fd0a4f28419497f9722a3daafe3b4186f6b6457e060405160405180910390a35050565b8173ffffffffffffffffffffffffffffffffffffffff168373ffffffffffffffffffffffffffffffffffffffff160361141e576040517f08c379a000000000000000000000000000000000000000000000000000000000815260040161141590612db3565b60405180910390fd5b80600560008573ffffffffffffffffffffffffffffffffffffffff1673ffffffffffffffffffffffffffffffffffffffff16815260200190815260200160002060008473ffffffffffffffffffffffffffffffffffffffff1673ffffffffffffffffffffffffffffffffffffffff16815260200190815260200160002060006101000a81548160ff0219169083151502179055508173ffffffffffffffffffffffffffffffffffffffff168373ffffffffffffffffffffffffffffffffffffffff167f17307eab39ab6107e8899845ad3d59bd9653f200f220920489ca2b5937696c318360405161150f9190611e67565b60405180910390a3505050565b611527848484610f36565b61153384848484611770565b611572576040517f08c379a000000000000000000000000000000000000000000000000000000000815260040161156990612e45565b60405180910390fd5b50505050565b60008073ffffffffffffffffffffffffffffffffffffffff1661159a8361122f565b73ffffffffffffffffffffffffffffffffffffffff1614159050919050565b6115d38282604051806020016040528060008152506118f7565b5050565b6115e082611578565b61161f576040517f08c379a000000000000000000000000000000000000000000000000000000000815260040161161690612ed7565b60405180910390fd5b8060066000848152602001908152602001600020908161163f9190612a13565b507ff8e1a15aba9398e019f0b49df1a4fde98ee17ae345cb5f6b5e2c27f5033e8ce78260405161166f91906120ee565b60405180910390a15050565b606060405180602001604052806000815250905090565b606061169d82610d95565b60006116a761167b565b905060008151116116c757604051806020016040528060008152506116f2565b806116d184611952565b6040516020016116e2929190612b21565b6040516020818303038152906040525b915050919050565b60007f01ffc9a7000000000000000000000000000000000000000000000000000000007bffffffffffffffffffffffffffffffffffffffffffffffffffffffff1916827bffffffffffffffffffffffffffffffffffffffffffffffffffffffff1916149050919050565b50505050565b50505050565b60006117918473ffffffffffffffffffffffffffffffffffffffff16611a20565b156118ea578373ffffffffffffffffffffffffffffffffffffffff1663150b7a026117ba610de0565b8786866040518563ffffffff1660e01b81526004016117dc9493929190612f4c565b6020604051808303816000875af192505050801561181857506040513d601f19601f820116820180604052508101906118159190612fad565b60015b61189a573d8060008114611848576040519150601f19603f3d011682016040523d82523d6000602084013e61184d565b606091505b506000815103611892576040517f08c379a000000000000000000000000000000000000000000000000000000000815260040161188990612e45565b60405180910390fd5b805181602001fd5b63150b7a0260e01b7bffffffffffffffffffffffffffffffffffffffffffffffffffffffff1916817bffffffffffffffffffffffffffffffffffffffffffffffffffffffff1916149150506118ef565b600190505b949350505050565b6119018383611a43565b61190e6000848484611770565b61194d576040517f08c379a000000000000000000000000000000000000000000000000000000000815260040161194490612e45565b60405180910390fd5b505050565b60606000600161196184611c60565b01905060008167ffffffffffffffff8111156119805761197f61217f565b5b6040519080825280601f01601f1916602001820160405280156119b25781602001600182028036833780820191505090505b509050600082602001820190505b600115611a15578080600190039150507f3031323334353637383961626364656600000000000000000000000000000000600a86061a8153600a8581611a0957611a08612fda565b5b049450600085036119c0575b819350505050919050565b6000808273ffffffffffffffffffffffffffffffffffffffff163b119050919050565b600073ffffffffffffffffffffffffffffffffffffffff168273ffffffffffffffffffffffffffffffffffffffff1603611ab2576040517f08c379a0000000000000000000000000000000000000000000000000000000008152600401611aa990613055565b60405180910390fd5b611abb81611578565b15611afb576040517f08c379a0000000000000000000000000000000000000000000000000000000008152600401611af2906130c1565b60405180910390fd5b611b09600083836001611764565b611b1281611578565b15611b52576040517f08c379a0000000000000000000000000000000000000000000000000000000008152600401611b49906130c1565b60405180910390fd5b6001600360008473ffffffffffffffffffffffffffffffffffffffff1673ffffffffffffffffffffffffffffffffffffffff16815260200190815260200160002060008282540192505081905550816002600083815260200190815260200160002060006101000a81548173ffffffffffffffffffffffffffffffffffffffff021916908373ffffffffffffffffffffffffffffffffffffffff160217905550808273ffffffffffffffffffffffffffffffffffffffff16600073ffffffffffffffffffffffffffffffffffffffff167fddf252ad1be2c89b69c2b068fc378daa952ba7f163c4a11628f55a4df523b3ef60405160405180910390a4611c5c60008383600161176a565b5050565b600080600090507a184f03e93ff9f4daa797ed6e38ed64bf6a1f0100000000000000008310611cbe577a184f03e93ff9f4daa797ed6e38ed64bf6a1f0100000000000000008381611cb457611cb3612fda565b5b0492506040810190505b6d04ee2d6d415b85acef81000000008310611cfb576d04ee2d6d415b85acef81000000008381611cf157611cf0612fda565b5b0492506020810190505b662386f26fc100008310611d2a57662386f26fc100008381611d2057611d1f612fda565b5b0492506010810190505b6305f5e1008310611d53576305f5e1008381611d4957611d48612fda565b5b0492506008810190505b6127108310611d78576127108381611d6e57611d6d612fda565b5b0492506004810190505b60648310611d9b5760648381611d9157611d90612fda565b5b0492506002810190505b600a8310611daa576001810190505b80915050919050565b6000604051905090565b600080fd5b600080fd5b60007fffffffff0000000000000000000000000000000000000000000000000000000082169050919050565b611dfc81611dc7565b8114611e0757600080fd5b50565b600081359050611e1981611df3565b92915050565b600060208284031215611e3557611e34611dbd565b5b6000611e4384828501611e0a565b91505092915050565b60008115159050919050565b611e6181611e4c565b82525050565b6000602082019050611e7c6000830184611e58565b92915050565b600081519050919050565b600082825260208201905092915050565b60005b83811015611ebc578082015181840152602081019050611ea1565b60008484015250505050565b6000601f19601f8301169050919050565b6000611ee482611e82565b611eee8185611e8d565b9350611efe818560208601611e9e565b611f0781611ec8565b840191505092915050565b60006020820190508181036000830152611f2c8184611ed9565b905092915050565b6000819050919050565b611f4781611f34565b8114611f5257600080fd5b50565b600081359050611f6481611f3e565b92915050565b600060208284031215611f8057611f7f611dbd565b5b6000611f8e84828501611f55565b91505092915050565b600073ffffffffffffffffffffffffffffffffffffffff82169050919050565b6000611fc282611f97565b9050919050565b611fd281611fb7565b82525050565b6000602082019050611fed6000830184611fc9565b92915050565b611ffc81611fb7565b811461200757600080fd5b50565b60008135905061201981611ff3565b92915050565b6000806040838503121561203657612035611dbd565b5b60006120448582860161200a565b925050602061205585828601611f55565b9150509250929050565b60008060006060848603121561207857612077611dbd565b5b60006120868682870161200a565b93505060206120978682870161200a565b92505060406120a886828701611f55565b9150509250925092565b6000602082840312156120c8576120c7611dbd565b5b60006120d68482850161200a565b91505092915050565b6120e881611f34565b82525050565b600060208201905061210360008301846120df565b92915050565b61211281611e4c565b811461211d57600080fd5b50565b60008135905061212f81612109565b92915050565b6000806040838503121561214c5761214b611dbd565b5b600061215a8582860161200a565b925050602061216b85828601612120565b9150509250929050565b600080fd5b600080fd5b7f4e487b7100000000000000000000000000000000000000000000000000000000600052604160045260246000fd5b6121b782611ec8565b810181811067ffffffffffffffff821117156121d6576121d561217f565b5b80604052505050565b60006121e9611db3565b90506121f582826121ae565b919050565b600067ffffffffffffffff8211156122155761221461217f565b5b61221e82611ec8565b9050602081019050919050565b82818337600083830152505050565b600061224d612248846121fa565b6121df565b9050828152602081018484840111156122695761226861217a565b5b61227484828561222b565b509392505050565b600082601f83011261229157612290612175565b5b81356122a184826020860161223a565b91505092915050565b600080600080608085870312156122c4576122c3611dbd565b5b60006122d28782880161200a565b94505060206122e38782880161200a565b93505060406122f487828801611f55565b925050606085013567ffffffffffffffff81111561231557612314611dc2565b5b6123218782880161227c565b91505092959194509250565b600067ffffffffffffffff8211156123485761234761217f565b5b61235182611ec8565b9050602081019050919050565b600061237161236c8461232d565b6121df565b90508281526020810184848401111561238d5761238c61217a565b5b61239884828561222b565b509392505050565b600082601f8301126123b5576123b4612175565b5b81356123c584826020860161235e565b91505092915050565b600080600080600060a086880312156123ea576123e9611dbd565b5b60006123f88882890161200a565b955050602086013567ffffffffffffffff81111561241957612418611dc2565b5b612425888289016123a0565b945050604086013567ffffffffffffffff81111561244657612445611dc2565b5b612452888289016123a0565b935050606061246388828901611f55565b925050608061247488828901611f55565b9150509295509295909350565b6000806040838503121561249857612497611dbd565b5b60006124a68582860161200a565b92505060206124b78582860161200a565b9150509250929050565b7f4e487b7100000000000000000000000000000000000000000000000000000000600052602260045260246000fd5b6000600282049050600182168061250857607f821691505b60208210810361251b5761251a6124c1565b5b50919050565b7f4552433732313a20617070726f76616c20746f2063757272656e74206f776e6560008201527f7200000000000000000000000000000000000000000000000000000000000000602082015250565b600061257d602183611e8d565b915061258882612521565b604082019050919050565b600060208201905081810360008301526125ac81612570565b9050919050565b7f4552433732313a20617070726f76652063616c6c6572206973206e6f7420746f60008201527f6b656e206f776e6572206f7220617070726f76656420666f7220616c6c000000602082015250565b600061260f603d83611e8d565b915061261a826125b3565b604082019050919050565b6000602082019050818103600083015261263e81612602565b9050919050565b7f4552433732313a2063616c6c6572206973206e6f7420746f6b656e206f776e6560008201527f72206f7220617070726f76656400000000000000000000000000000000000000602082015250565b60006126a1602d83611e8d565b91506126ac82612645565b604082019050919050565b600060208201905081810360008301526126d081612694565b9050919050565b7f4552433732313a20696e76616c696420746f6b656e2049440000000000000000600082015250565b600061270d601883611e8d565b9150612718826126d7565b602082019050919050565b6000602082019050818103600083015261273c81612700565b9050919050565b7f4552433732313a2061646472657373207a65726f206973206e6f74206120766160008201527f6c6964206f776e65720000000000000000000000000000000000000000000000602082015250565b600061279f602983611e8d565b91506127aa82612743565b604082019050919050565b600060208201905081810360008301526127ce81612792565b9050919050565b7f546f6b656e2077697468207468697320494420616c726561647920657869737460008201527f7300000000000000000000000000000000000000000000000000000000000000602082015250565b6000612831602183611e8d565b915061283c826127d5565b604082019050919050565b6000602082019050818103600083015261286081612824565b9050919050565b60008190508160005260206000209050919050565b60006020601f8301049050919050565b600082821b905092915050565b6000600883026128c97fffffffffffffffffffffffffffffffffffffffffffffffffffffffffffffffff8261288c565b6128d3868361288c565b95508019841693508086168417925050509392505050565b6000819050919050565b600061291061290b61290684611f34565b6128eb565b611f34565b9050919050565b6000819050919050565b61292a836128f5565b61293e61293682612917565b848454612899565b825550505050565b600090565b612953612946565b61295e818484612921565b505050565b5b818110156129825761297760008261294b565b600181019050612964565b5050565b601f8211156129c75761299881612867565b6129a18461287c565b810160208510156129b0578190505b6129c46129bc8561287c565b830182612963565b50505b505050565b600082821c905092915050565b60006129ea600019846008026129cc565b1980831691505092915050565b6000612a0383836129d9565b9150826002028217905092915050565b612a1c82611e82565b67ffffffffffffffff811115612a3557612a3461217f565b5b612a3f82546124f0565b612a4a828285612986565b600060209050601f831160018114612a7d5760008415612a6b578287015190505b612a7585826129f7565b865550612add565b601f198416612a8b86612867565b60005b82811015612ab357848901518255600182019150602085019450602081019050612a8e565b86831015612ad05784890151612acc601f8916826129d9565b8355505b6001600288020188555050505b505050505050565b600081905092915050565b6000612afb82611e82565b612b058185612ae5565b9350612b15818560208601611e9e565b80840191505092915050565b6000612b2d8285612af0565b9150612b398284612af0565b91508190509392505050565b7f4f776e61626c653a206e6577206f776e657220697320746865207a65726f206160008201527f6464726573730000000000000000000000000000000000000000000000000000602082015250565b6000612ba1602683611e8d565b9150612bac82612b45565b604082019050919050565b60006020820190508181036000830152612bd081612b94565b9050919050565b7f4552433732313a207472616e736665722066726f6d20696e636f72726563742060008201527f6f776e6572000000000000000000000000000000000000000000000000000000602082015250565b6000612c33602583611e8d565b9150612c3e82612bd7565b604082019050919050565b60006020820190508181036000830152612c6281612c26565b9050919050565b7f4552433732313a207472616e7366657220746f20746865207a65726f2061646460008201527f7265737300000000000000000000000000000000000000000000000000000000602082015250565b6000612cc5602483611e8d565b9150612cd082612c69565b604082019050919050565b60006020820190508181036000830152612cf481612cb8565b9050919050565b7f4f776e61626c653a2063616c6c6572206973206e6f7420746865206f776e6572600082015250565b6000612d31602083611e8d565b9150612d3c82612cfb565b602082019050919050565b60006020820190508181036000830152612d6081612d24565b9050919050565b7f4552433732313a20617070726f766520746f2063616c6c657200000000000000600082015250565b6000612d9d601983611e8d565b9150612da882612d67565b602082019050919050565b60006020820190508181036000830152612dcc81612d90565b9050919050565b7f4552433732313a207472616e7366657220746f206e6f6e20455243373231526560008201527f63656976657220696d706c656d656e7465720000000000000000000000000000602082015250565b6000612e2f603283611e8d565b9150612e3a82612dd3565b604082019050919050565b60006020820190508181036000830152612e5e81612e22565b9050919050565b7f45524337323155524953746f726167653a2055524920736574206f66206e6f6e60008201527f6578697374656e7420746f6b656e000000000000000000000000000000000000602082015250565b6000612ec1602e83611e8d565b9150612ecc82612e65565b604082019050919050565b60006020820190508181036000830152612ef081612eb4565b9050919050565b600081519050919050565b600082825260208201905092915050565b6000612f1e82612ef7565b612f288185612f02565b9350612f38818560208601611e9e565b612f4181611ec8565b840191505092915050565b6000608082019050612f616000830187611fc9565b612f6e6020830186611fc9565b612f7b60408301856120df565b8181036060830152612f8d8184612f13565b905095945050505050565b600081519050612fa781611df3565b92915050565b600060208284031215612fc357612fc2611dbd565b5b6000612fd184828501612f98565b91505092915050565b7f4e487b7100000000000000000000000000000000000000000000000000000000600052601260045260246000fd5b7f4552433732313a206d696e7420746f20746865207a65726f2061646472657373600082015250565b600061303f602083611e8d565b915061304a82613009565b602082019050919050565b6000602082019050818103600083015261306e81613032565b9050919050565b7f4552433732313a20746f6b656e20616c7265616479206d696e74656400000000600082015250565b60006130ab601c83611e8d565b91506130b682613075565b602082019050919050565b600060208201905081810360008301526130da8161309e565b905091905056fea2646970667358221220a849197387e61b7c91cc06078fbae042e60743e0c2b720ecca2a9e30a8982e7164736f6c63430008130033",
  "immutableReferences": {},
  "source": "// SPDX-License-Identifier: MIT\npragma solidity ^0.8.9;\n\nimport \"@openzeppelin/contracts/token/ERC721/ERC721.sol\";\nimport \"@openzeppelin/contracts/token/ERC721/extensions/ERC721URIStorage.sol\";\nimport \"@openzeppelin/contracts/access/Ownable.sol\";\n\ncontract Erc721Token is ERC721URIStorage, Ownable {\n    mapping(uint256 => string) private _tokenNames;\n    mapping(uint256 => uint256) private _price;\n\n    constructor(\n        string memory name,\n        string memory symbol\n    ) ERC721(name, symbol) {}\n\n    function safeMint(\n        address to,\n        string memory uri,\n        string memory name,\n        uint256 price,\n        uint256 tokenId\n    ) public onlyOwner {\n        require(!_exists(tokenId), \"Token with this ID already exists\");\n        _safeMint(to, tokenId);\n        _setTokenURI(tokenId, uri);\n        _tokenNames[tokenId] = name;\n        _price[tokenId] = price;\n    }\n\n    function getTokenName(uint256 tokenId) public view returns (string memory) {\n        return _tokenNames[tokenId];\n    }\n\n    function getPrice(uint256 tokenId) public view returns (uint256) {\n        return _price[tokenId];\n    }\n}\n",
  "sourcePath": "/Users/erdem/Desktop/SUITECH/protocol-ui/contracts/Erc721Token.sol",
  "compiler": {
    "name": "solc",
    "version": "0.8.19+commit.7dd6d404.Emscripten.clang"
  },
  "schemaVersion": "3.4.15",
  "updatedAt": "2023-09-06T11:10:06.847Z",
  "devdoc": {
    "events": {
      "Approval(address,address,uint256)": {
        "details": "Emitted when `owner` enables `approved` to manage the `tokenId` token."
      },
      "ApprovalForAll(address,address,bool)": {
        "details": "Emitted when `owner` enables or disables (`approved`) `operator` to manage all of its assets."
      },
      "BatchMetadataUpdate(uint256,uint256)": {
        "details": "This event emits when the metadata of a range of tokens is changed. So that the third-party platforms such as NFT market could timely update the images and related attributes of the NFTs."
      },
      "MetadataUpdate(uint256)": {
        "details": "This event emits when the metadata of a token is changed. So that the third-party platforms such as NFT market could timely update the images and related attributes of the NFT."
      },
      "Transfer(address,address,uint256)": {
        "details": "Emitted when `tokenId` token is transferred from `from` to `to`."
      }
    },
    "kind": "dev",
    "methods": {
      "approve(address,uint256)": {
        "details": "See {IERC721-approve}."
      },
      "balanceOf(address)": {
        "details": "See {IERC721-balanceOf}."
      },
      "getApproved(uint256)": {
        "details": "See {IERC721-getApproved}."
      },
      "isApprovedForAll(address,address)": {
        "details": "See {IERC721-isApprovedForAll}."
      },
      "name()": {
        "details": "See {IERC721Metadata-name}."
      },
      "owner()": {
        "details": "Returns the address of the current owner."
      },
      "ownerOf(uint256)": {
        "details": "See {IERC721-ownerOf}."
      },
      "renounceOwnership()": {
        "details": "Leaves the contract without owner. It will not be possible to call `onlyOwner` functions. Can only be called by the current owner. NOTE: Renouncing ownership will leave the contract without an owner, thereby disabling any functionality that is only available to the owner."
      },
      "safeTransferFrom(address,address,uint256)": {
        "details": "See {IERC721-safeTransferFrom}."
      },
      "safeTransferFrom(address,address,uint256,bytes)": {
        "details": "See {IERC721-safeTransferFrom}."
      },
      "setApprovalForAll(address,bool)": {
        "details": "See {IERC721-setApprovalForAll}."
      },
      "supportsInterface(bytes4)": {
        "details": "See {IERC165-supportsInterface}"
      },
      "symbol()": {
        "details": "See {IERC721Metadata-symbol}."
      },
      "tokenURI(uint256)": {
        "details": "See {IERC721Metadata-tokenURI}."
      },
      "transferFrom(address,address,uint256)": {
        "details": "See {IERC721-transferFrom}."
      },
      "transferOwnership(address)": {
        "details": "Transfers ownership of the contract to a new account (`newOwner`). Can only be called by the current owner."
      }
    },
    "version": 1
  },
  "userdoc": {
    "kind": "user",
    "methods": {},
    "version": 1
  }
}